:020000021000EC
:10000000E03F082091010100FD000100E100010036
:100010000D0101001D0101002D0101000000000083
:1000200000000000000000000000000091B9010085
:100030003D0101000000000015BA01005D01010052
:10004000E1BF0100E1BF0100E1BF0100E1BF01002C
:10005000E1BF0100E1BF0100E1BF0100E1BF01001C
:10006000E1BF0100E1BF0100E1BF0100E1BF01000C
:10007000E1BF0100E1BF0100E1BF0100E1BF0100FC
:10008000E1BF0100E1BF0100E1BF0100E1BF0100EC
:10009000E1BF0100E1BF0100E1BF0100E1BF0100DC
:1000A000E1BF0100E1BF0100E1BF0100E1BF0100CC
:1000B000E1BF0100E1BF0100E1BF0100E1BF0100BC
:1000C000E1BF0100E1BF0100E1BF01006472020075
:1000D00000C007201402000018C20720000A000018
:1000E00004207146084200F00480EFF309800BF011
:1000F00095BFEFF308800BF091BF704708B5024839
:1001000000F0B8F9FEE700BFCA6B020008B502486C
:1001100000F0B0F9FEE700BFD56B020008B5024859
:1001200000F0A8F9FEE700BFE06B020008B5024846
:1001300000F0A0F9FEE700BFEB6B020008B5024833
:1001400000F098F9FEE700BFF86B020008B502481E
:1001500000F090F9FEE700BF066C020008B50BF056
:10016000E5FB0BF075FCBDE808400BF0F3BB10B5E8
:100170000023934203D21C585C500433F9E710BDAE
:1001800000238B4203D200221A500433F9E7704750
:1001900015480BF0FBFC14480BF0FBFC134C144B04
:1001A0009C4207D294E803000C3454F8042CFFF767
:1001B000DEFFF4E70F4B9C4205D294E80300FFF703
:1001C000DFFF0834F6E70DF0C9FC0BF0F9FC02F094
:1001D0007BFE03F08DFC4FF416400CF043F806480C
:1001E00000F048F9FEE700BFE03F0820CC00010026
:1001F000D8000100E00001001A6C0200134A70B53B
:100200001168034611B94FF0805111601068104910
:10021000C518104E2944B14298BF0F480B4C96BFE9
:1002200019182560216011680C4A914203D90C49C4
:10023000064A002011603BB10A4A11680131116081
:10024000094A1060094A136070BD00BF1CC2072034
:10025000FF7FFFEFFE3F071018CC0720FF3F08206D
:100260000040082024C2072018C2072020C207200F
:100270000DF0B2BC0DF0B8BC0DF0B6BC10B58AB034
:10028000044668460EF0F4F8204B214A2360089B90
:100290002049A360079B636053B90B681E488342E3
:1002A0008ABF03F1604303F17043A3F5E823636061
:1002B0006368B3F5803F04D903F17043A3F5E823E5
:1002C00063600023E3600B6813498B4205D8C2F1D9
:1002D000405202F50C22D21A09E010498B4207D88D
:1002E000C2F1804202F58012D21A002A00DDE260DB
:1002F000E3610B4B20461B68A3610A4B1B686361DB
:10030000094B1B6823610AB010BD00BF180C000028
:1003100018CC07201CC2072000800010FF3F0820D7
:1003200018C2072020C2072024C20720FEE70000D1
:10033000014B1860704700BF2CC20720014B1860AA
:10034000704700BF28C2072008B502480EF0B2F877
:10035000FEE700BFB83E020008B502480EF0AAF85A
:10036000FEE700BFD23E0200002070470120704728
:10037000F8B5084B15461A680E461F463AB10024D8
:10038000AC4204DA30573A6890470134F8E728461F
:10039000F8BD00BF2CC20720F8B5094B0E461868FF
:1003A00015461F4650B10024AC4205DA3A680020D9
:1003B000904730550134F7E725EAE570F8BD00BFF6
:1003C00028C207207047002070470000074B1B68B9
:1003D0009A68824207D05A68824204D0DB681B1AAE
:1003E0005842584170470120704700BF70C1072034
:1003F000002070470020704730B504468DB00028BB
:1004000035D0684609F04EFC9DF80030002503F019
:100410003F0303939DF8013003A803F03F030493C7
:100420009DF802300B9503F01F0305939DF80430EF
:1004300003F01F0306939DF8053003F00F03013B03
:100440000793BDF80630C3F30B03A3F26C73089354
:100450009DF8033003F007030993BDF80830C3F398
:100460000B03013B0A930DF021FD84E821000020DD
:100470000DB030BD10B504460BF0B0FA013C14F8D5
:10048000010F18B140B20BF029FFF8E7BDE81040AA
:100490000BF0B6BA0FB470B5C2B046AC54F8046BEA
:1004A0004FF480752A4602A800210DF02FFC234648
:1004B0002946324602A8019411F052F8044602A8D7
:1004C000FFF7D8FF204642B0BDE8704004B0704747
:1004D00070B50F4C0F4D266816F0010615D1204659
:1004E0000BF09EFF88B14FF40E70FFF7C1FE302273
:1004F00080F835223A2280F8346280F8362280F87B
:100500003762286020460BF099FF286870BD00BF55
:100510004CC2072034C2072070B50F4C0F4D236822
:1005200013F0010616D120460BF07AFF90B14FF47C
:100530000E70FFF79DFE012280F83422312280F8F0
:1005400035223A2280F8362280F837622860204629
:100550000BF074FF286870BD48C2072030C2072026
:100560002DE9F047ADF50A7D0E4608F0D0FD041EDA
:1005700004DD0BF0A7F920460AF044FF0DF1140941
:100580002B4D4C460FCD0FC42B6810210DEB0102F3
:1005900000250AA8236004950AF05EFF25498246DB
:1005A000254A304609F01BFE2F460FAC4FF00008DD
:1005B000D0451FD02368AB4218D16368049A1F440A
:1005C00022B16421B2FBF1F2B3FBF2F214F808ECB1
:1005D00000952189029289000191039330461749C1
:1005E00054F8102C59F82E3009F0F9FD08F10108E3
:1005F0002034DDE70135052DD7D1049B6422DF1BB4
:10060000B3FBF2F30E490F4AB7FBF3F30097304602
:1006100009F0E5FD0AF0D6FD102804D930460A4954
:10062000102209F0DCFD01200DF50A7DBDE8F08700
:10063000EC3E02000B3F0200323F0200373F020057
:10064000543F0200733F02007E3F020010B5ADF53B
:10065000007D0C4668460BF049FC204669464FF089
:10066000FF3209F085FD01200DF5007D10BD000071
:1006700030B50C4691B02C49054608F04FFC0028D7
:1006800047D008AB009309AB01930AAB02930BABC5
:1006900003930CAB04932846244906AA07AB08F041
:1006A0009BFB072801D000203BE09DF83930069ADB
:1006B0000DA862F303038DF83930079A9DF838309E
:1006C00062F304038DF83830089ABDF83A3062F3CB
:1006D0000B03ADF83A30099A9DF8363062F3040303
:1006E0008DF836300A9A9DF8353062F305038DF89F
:1006F00035300B9A9DF8343062F305038DF83430B1
:100700000C9A9DF8373062F302038DF8373009F008
:10071000F3FA09F08DFB06490246204609F05FFD19
:10072000012011B030BD00BFA83F0200AC3F020065
:1007300002640200F7B50D463449044608F0E3FCB4
:1007400040B107F03BFF284631494FF0FF3209F036
:100750000FFD57E020462F4908F0E0FB50B1012182
:100760002022204608F07CFC204608F0CEFC08F051
:100770005BF847E02046284908F0D0FB064628B938
:100780002046264908F0CAFB074648B30121204607
:10079000202208F065FC2046214908F0D7FB40B92B
:1007A0002046204908F0D2FB002814BF0224002470
:1007B00000E001242046314607F088FF1A4B1B4A0F
:1007C000002E18BF1A462CB1154B1649012C18BF24
:1007D0000B4600E0164B2846164909F000FD11E0D3
:1007E000204608F092FC1449144A0090EE23384643
:1007F00007F07AFF204608F088FC11490246284697
:1008000009F0EDFC012003B0F0BD00BFE13F0200A4
:10081000E73F020000400200044002000B400200DB
:10082000DC3F0200D63F0200C53F0200CD3F020080
:10083000B2570200134002002C400200003F0200A9
:100840005F40020030B589B004AB002400930D4630
:100850000222194903AB0394049408F0CBFA02284E
:1008600027D107AB009305AA0398049906AB05941A
:100870000694079404F0CCFB024638B1049B28464A
:1008800000930E49039B09F0AAFC10E0059A069B11
:10089000002A079C08BF0122002B08BF012328461D
:1008A0000749B4FBF2F2B4FBF3F309F098FC012022
:1008B00000E0204609B030BD4A5702006D400200FA
:1008C0008C4002002DE9F04F8846ADF2344D43498B
:1008D000044608F0B1FB42498146204608F0D5FBAA
:1008E00020463F4908F0F1FB3E49404609F077FCBD
:1008F000204608F00AFC0122014683A806F0DCFB32
:10090000054640B1204608F000FC37490246404603
:1009100009F065FC5CE00DF10C0B29464FF4007208
:1009200058460DF0F3F902950BF0CCFAAA460646AC
:100930000F4683A859464FF4007202AB06F04EFCF6
:1009400008B9029B33BB83A806F02AFEB9F1000F59
:1009500019D00BF0B7FA4FF47A7200230CF000FDB7
:100960004FF47A7204460023304639460CF0F8FC06
:10097000201A14BF034601231C4940465246BAFBC5
:10098000F3F309F02CFC404619494FF0FF3209F00F
:10099000EFFB1DE09A44B9F1000FCAD14C46029B0F
:1009A0009C42D8F8003008D21BF904105B6840461E
:1009B0004FF0FF3298470134F1E700228DF807200D
:1009C0001B6840460DF107014FF0FF329847B0E732
:1009D00001200DF2344DBDE8F08F00BFBA40020097
:1009E0004A570200C3400200F140020005410200E4
:1009F0006D4602002DE9F043C1B00EAB0025009317
:100A00000C4602225D490DAB0C950D950E9508F034
:100A1000F1F9022803D10E980CF095FF05460D9BC5
:100A20000BB9574B0D9317A80D9906F078FE0346A6
:100A300070B1204653490D9A09F0D1FB99E080230B
:100A400017A80FA91596169306F0A8FE013D10B938
:100A5000002D20AEF3DC20464B490D9A09F0BFFB78
:100A600000252F46802317A80FA91596169306F088
:100A700095FE002865D19DF94530002B61D09DF889
:100A800044000F9B10F0100F02D00135442204E007
:100A90000C9A01371A440C922D2210F0010F0CBF52
:100AA0004FF02D0E4FF0520E10F0020F0CBF4FF012
:100AB0002D094FF0480910F0040FBDF840100CBF8D
:100AC0004FF02D084FF0530810F0200F0CBF4FF0DF
:100AD0002D0C4FF0410CCDF808C04FEA612CBDF849
:100AE00042000CF2BC7CCDF80CC0C1F3431C01F0F9
:100AF0001F0105910893C1120DF14503C0F3451084
:100B0000CDF810C0069107900993CDF80090734678
:100B1000CDF8048020461D4909F061FB20461C49A0
:100B20004FF0FF3209F00FFB314620464FF0FF3205
:100B300009F009FB204617494FF0FF3209F018FB76
:100B400090E7009540AD55F8D03D13493A46204610
:100B500009F045FB0D9829460BAA06F04EFE40B958
:100B60000B9B20469A780C9B0C495A43520809F07B
:100B700036FB012041B0BDE8F08300BF4A570200B8
:100B8000204102002341020047410200624102006D
:100B90008F4102006D46020093410200BD410200F8
:100BA00070B50E46054608F0B0FA0446284608F02F
:100BB000ACFA06F0E4FE064A064B0749002818BFC7
:100BC00013463046224609F00AFB012070BD00BFE3
:100BD0007D43020073430200D141020070B50E460E
:100BE000054608F092FA0446284608F08EFA06F008
:100BF00069FE064A064B0749002818BF13463046CF
:100C0000224609F0ECFA012070BD00BF7D430200CE
:100C100073430200ED4102007FB503AB0024009353
:100C20000E4602220F4902AB0294039408F0E2F848
:100C3000022814D1029D039C2846214606F04AFF53
:100C4000094B0A4A0A49002814BF1046184600906A
:100C50002A463046234609F0C2FA012000E0204629
:100C600004B070BD4A570200734302007D43020086
:100C7000FF41020030B5ADF50D7D0C46054608F08C
:100C800044FA0A22014603A806F016FA40B12846A3
:100C900008F03BFA1F490246204609F0A0FA35E069
:100CA0008DF8070002901C4920467E2242F2107304
:100CB00009F095FA1949204609F091FA236820466F
:100CC0001B680DF1070142F21072984718B19DF9A7
:100CD00007307E2B03D103A806F062FC16E003A8C0
:100CE0000DF10701012202AB06F036FB10B9029BA1
:100CF000012B02D020460A49DEE7236820465B68C4
:100D00009DF907104FF0FF329847D7E701200DF506
:100D10000D7D30BD174202003E42020076420200C5
:100D2000964202002DE9F047ADF5407D002304AC6A
:100D3000236003930D4600944149022203AB08F05F
:100D400059F8022806D028463E494FF0FF3209F0F4
:100D50000FFA6FE017A8216806F0E1FC18B12846E9
:100D60003949226807E017A8039906F0D8FC28B192
:100D70003649039A284609F032FA5BE040A94FF45D
:100D8000807205A807F0F8FF0AA880A94FF48072C6
:100D900007F0F2FF20AB159317A880230FA9169335
:100DA00006F0FCFC00283FD19DF94530002B3BD0DC
:100DB0009DF8443003F0100303F0FF06002BE9D147
:100DC000039A0DF1450305A8214908F0E8F92268C6
:100DD0000DF145031E490AA808F0E1F905A808F03D
:100DE00094F981460AA808F090F9804605A80F9F5B
:100DF00008F08BF982460AA808F087F932460146C6
:100E000033460096504604F003F9124B124A0097FD
:100E1000002814BF104618460190104928464A463B
:100E2000434609F0DCF9B5E70AA807F0BAFF05A8C0
:100E300007F0B7FF01200DF5407DBDE8F08700BF4A
:100E40004A570200BD42020002430200274302004B
:100E500047430200734302007D4302004D430200FA
:100E600070B50C462149054608F04DF9064628B1F3
:100E7000FFF752FB002100F2352009E028461C490B
:100E800008F041F950B1FFF723FB314600F235205D
:100E90000A4606F0AFFE174B17491CE028461749D3
:100EA00008F031F948B1FFF737FB012200F2352194
:100EB00006F0C4F8124B13490DE02846124908F019
:100EC00022F988B1FFF704FB012200F2352106F078
:100ED000B5F80E4B0E49002808BF19464FF0FF32F7
:100EE000204609F045F9012070BD00BFD44302003F
:100EF000DE4302006C43020076430200EB43020033
:100F00008343020093430200F4430200AA43020019
:100F1000B843020008B508464FF0FF32084909F00F
:100F200027F907F04BFB4FF4FA600AF06BFA4FF029
:100F30008043AA221A7200221A70012008BD00BF45
:100F4000294E020010B501200C4607F009FF38B108
:100F500000210A460B4609F0E5FD2046044901E060
:100F6000044920464FF0FF3209F002F9012010BD7C
:100F7000004402001644020038B5064C236833B919
:100F80001C20FFF775F9054608F09AFD25602068DA
:100F900038BD00BF40C207202DE9F04F0C46C7B056
:100FA0005149804607F0D2FF50498246404607F03B
:100FB000CDFF4F498346404607F0C8FF002604AFE7
:100FC00005AD8146029603963E602E60BAF1000F91
:100FD00040D000954046474902AA03AB07F0FCFE0B
:100FE000012807DC204644494FF0FF3209F0C0F8E1
:100FF000304675E02B6806AF002BD8BF01234FF0B9
:1010000000014FF480723846D8BF2B600CF07EFE92
:10101000FFF7B2FF2B689DF908109DF90C20009393
:101020003B4609F09CF9354A354B3649002808BF44
:1010300013462046029A09F0D2F800262B689E42F9
:101040004DDA039ABB5D324420462F4909F0C7F8B8
:101050000136F3E7BBF1000F2AD0009740462B4939
:1010600002AA03AB07F0B8FE032807D020462849A0
:101070004FF0FF3209F07CF8504631E0FFF77CFF7B
:101080009DF908109DF90C2097F9003009F07CF9C2
:1010900040B1039B204600931E493A68029B09F029
:1010A0009EF81CE020461C49029A09F098F816E0C8
:1010B00098B102230293029BFE2B0EDCFFF75CFF2C
:1010C0009DF9081009F06BF920B120461349029AE6
:1010D00009F085F8029B0233ECE7484600E0012066
:1010E00047B0BDE8F08F00BF6D58020030440200E9
:1010F000364402003F4402004E4402007D43020099
:10110000734302006F44020095440200A9440200A8
:10111000B9440200E0440200004502001D450200FF
:101120002DE9F04F5F4C91B023680E4633B92C2067
:10113000FFF79EF8054608F067FF2560D4F80080A9
:10114000FFF7C6F910AC002544F80C5D00F235201D
:1011500021460CAA06F051FB48B90C9A0D9D9769DF
:101160009378023F5D435F436D087F0800E02F46A0
:101170004D4B1A689A467AB90C20FFF779F88146E8
:10118000FFF7FAFE902389F804300023C9F8000025
:10119000C9F80830CAF80090DAF8000003F026FF1A
:1011A00081460CF0B7F883460BF010FF0146484625
:1011B0000BF056FE3D490BF05DFF0CF0ABF80B90C9
:1011C00020460AF0F3FC04F09BFE40B308F0AAFEB0
:1011D00004F080FE00240146A146A2468C420BD0BA
:1011E00020460A9104F0DAFE504594BF5046A146CD
:1011F0000A9901348246F1E708F0ACFE642202FB52
:101200000AF22B493046B2FBF1F2C2F164028DE8DA
:10121000040628492A463B4608F0E1FF05E030462F
:1012200025492A463B4608F0DAFF244C23681BB9BF
:101230000120FFF71DF82060206803F09AFE0446A5
:1012400008F0F6FD9DF83930019003F00F0302938A
:101250009DF83830009403F01F030393BDF83A3033
:101260003046C3F30B0304939DF83630144903F062
:101270001F0305939DF835305A4603F03F0306934C
:101280009DF8343003F03F030793B8F824300893F7
:10129000B8F8263009930B9B08F0A1FF012011B08C
:1012A000BDE8F08F44C2072038C20720000020416B
:1012B000A08601003D450200714502003CC20720A6
:1012C0007F45020070B5ADF50A7D05460C4607F076
:1012D0007AFD0B2803DD204620490C2237E0284602
:1012E00007F013FF0122014601A805F0E5FE0646BE
:1012F00038BB01A806F054F9284607F006FF184944
:101300000246049B204608F06AFF236820469B683B
:1013100098470A200AF076F80AF058FB284607F0AA
:10132000F4FE0246516800680E4B03C390680E4AF3
:10133000186043F80C2C4FF08043AA221A721E70DA
:1013400007E0284607F0E1FE08490246204608F07B
:1013500046FF01200DF50A7D70BD00BF004602006A
:1013600027460200484002400DD0ADDE6E46020026
:1013700070B5404EA4B033680546DB070C460CD46C
:1013800030460BF04DF840B14FF480600CF024FC77
:10139000394B186030460BF051F82846374907F0B2
:1013A000D5FD064620B30021802204A80CF0AEFC37
:1013B00000230293039303AB0093314904AA02ABC9
:1013C000284607F009FD2C4A029B116804A8039ADD
:1013D00013B903F0BEFE01E003F0DEFE294A2A49FC
:1013E0000346002B08BF1146204608F0F8FE3DE0FA
:1013F0002846264907F0AAFD002838D0284604AB25
:10140000234903AA039604968DF8086007F0E4FCCC
:10141000039D049B2B44B3F5806F0DDD20461D49D1
:101420004FF4806210E0144B9DF808201B685A5559
:101430009DF9083001351E44039BEA1A049B9A4229
:1014400005DB15492046324608F0C9FE0EE0B5F529
:10145000806FF6DA236820461B6802A94FF4FA620F
:1014600098470028DFD120460C49BEE7012024B070
:1014700070BD00BF54C2072050C207209946020029
:10148000A04602008346020087460200B0460200E2
:10149000B7460200C1460200F5460200E5460200DA
:1014A00030B50C4687B00B49054608F098FEA17A86
:1014B00062880091E17A23880191E18828460291AF
:1014C00021890391A1880491034908F088FE07B09F
:1014D00030BD00BF064702003C4702001FB501A80F
:1014E0000C4603F04DF802F041FD01A902462046EA
:1014F000FFF7D6FF012004B010BD00002DE9F04138
:101500008CB003AB002500930C4690463A4902226A
:1015100002AB0295039507F06DFCA84268DD0298C6
:101520000CF011FAC7B2039818B10DF0BAFAC6B2AE
:1015300000E0064604A8002103F0BCFB30B12046C1
:101540002E494FF0FF3208F013FEF3E718F10008C0
:1015500018BF4FF001080223009338464146039A12
:10156000334602F037FE054638B9204624494FF08D
:10157000FF3208F0FDFD01253AE0B8F1000F37D049
:1015800004A84FF47A7103F09FFB60B39DF810300C
:10159000BB4228D19DF817300C2B04D1204606A958
:1015A0003A46FFF77DFF2046BEB9164908F017FE00
:1015B0009DF817309E420BDA236804AA324492F950
:1015C00008105B6820464FF0FF3298470136EFE77E
:1015D00020460D4908F003FE0AE00C494FF0FF32A7
:1015E00008F0C6FD04E020460949029A08F0F7FD1C
:1015F00028460CB0BDE8F0814A5702005A47020065
:101600007C470200A447020055540200B84702007C
:10161000D547020038B50D4607F079FD0446C0B243
:1016200002F098FC054A064B0649002808BF1346FD
:101630002846224608F0D3FD012038BDFB470200B2
:10164000734302000248020037B50C4602F006FE62
:1016500016490546204608F0C2FD154920462A468F
:1016600008F0BDFD2046114908F0B9FDD5B111497A
:10167000204608F0B4FD20460C4908F0B0FD0025D6
:10168000E8B202F0D5FD013540B1817802784378A7
:1016900000912046084908F0A2FDF1E720460349E1
:1016A00008F09DFD012003B030BD00BF19480200C5
:1016B000344802004E4802006948020030B58BB041
:1016C0000AAA4FF47A730C4642F8243D174907F0F2
:1016D00083FB002502A8019903F0ECFAE0B1204653
:1016E00013499DF8082008F07AFD00259DF80F3079
:1016F0009D420BDA236802AA2A4492F908105B681B
:1017000020464FF0FF3298470135EFE72046094960
:1017100008F065FD0125DDE72DB9204606494FF0AB
:10172000FF3208F025FD01200BB030BDBE4602009F
:10173000844802006C4602009B4802002DE9F347F2
:101740003C4D07462E688946002E62D12420FEF7C4
:101750008FFD0423044680E848008660C66020218F
:1017600030460CF031FFA668E0604FEA8608072E8D
:101770000ED81020FEF77CFD0021102282460CF0CE
:10178000C5FAE368013643F808A008F10408EEE75B
:10179000002608234FF00108636084F8208020466B
:1017A0002549264A264B00962C6006F07FFC2868C7
:1017B0002449254A254B009606F078FC28682449E0
:1017C000244A254B009606F071FC28682349244AD8
:1017D000244B009606F06AFC28682349234A244BD0
:1017E000009606F063FC28682249234A234BCDF873
:1017F000008006F05BFC28681E49214A214B0096B8
:1018000006F054FC009628681F49204A204B06F039
:101810004DFC38461F4907F076FC18B138461E4982
:1018200007F02BFD286839464A4602B0BDE8F0476C
:1018300006F01EBD5CC20720DD1A0100AC480200A4
:10184000B3480200BD180100ED480200F64802004E
:10185000BD1601004A4902004D490200151601005B
:10186000355502007049020049160100B6490200D0
:101870009A490200FD140100EB510200BD4902002B
:10188000FE490200034A0200DD140100434A02003F
:10189000284A02006D460200494A020038B5064C4B
:1018A000236833B95820FEF7E3FC054608F0DAF95F
:1018B0002560206838BD00BF58C207202DE9F04FD1
:1018C000ADF2DC5D044680220DF1B40A89460DA814
:1018D00000210CF01BFA0021802250460CF016FA71
:1018E00006AE002333602046009672490DAA534687
:1018F00007F072FA032801D00020D7E0EDA80DA967
:10190000012205F0D9FB05460028F5D1FFF7C6FFF7
:1019100033684DA980F853308022044608A88DF81A
:101920001750079507F028FACDF800A048466249FD
:101930000DAA336808F053FCA846EDA86DA94FF432
:10194000007207AB05F04AFC38B1EDA805F028FE9F
:1019500008A807F026FA0120A8E0079B002BF4D086
:101960006F1C5649079A204608F039FC2368204628
:101970009B68984700267D1EB346079B22689E42BF
:101980000DD26DAB9957D2F804C0204603934FF0A7
:10199000FF32E047039BF35601369B44EDE7936823
:1019A0002046984708A807F0B0FB064608A807F0AD
:1019B0000DFA4FF47A7302463146204608F0E6FBF2
:1019C0000121202208A807F04BFB08A807F09FFB85
:1019D000584520D008A807F09AFB394903465A46D3
:1019E000484608F0FCFB2046364908F0F8FB23681F
:1019F00020469B689847236820461B680DF1170115
:101A00004FF47A7298470028F5D1022F07F10103AD
:101A10009BD81F46A5E7079B2B49524600932046BB
:101A2000434608F0DCFB236820469B68984708A8DB
:101A300007F06BFB064608A807F0C8F931460246D6
:101A40004FF47A73204608F0A1FB08A81F4907F05D
:101A500053FAD0B908A807F058FB1D49024648467A
:101A600008F0BDFB2046174908F0B9FB2368204663
:101A70009B689847236820461B680DF117014FF4B7
:101A80007A7298470028F5D1BFE708A8114907F0F6
:101A9000F4FB079B484698440F494246F09B08F0E8
:101AA0009EFB002D3FF449AF013D46E70DF2DC5DA2
:101AB000BDE8F08F4E4A02005D4A0200744A0200FF
:101AC000864A02006C460200AD4A0200C34A020088
:101AD000C64A02006D460200FE4A02002DE9F041AE
:101AE00086B006AA0026074642F80C6D0D463D4911
:101AF00007F072F938460121202207F0B1FA039B62
:101B0000002B64D0384607F05EF900285FD0FFF75D
:101B1000C5FE8DF80B600446236820461B680DF156
:101B20000B010522984706460028F5D1039B38464D
:101B300084F8533007F0E9FA4FF0FF3201462046AF
:101B400008F016FB236820469B689847264B0596AD
:101B5000186837460490236820461B680DF10B0176
:101B60004FF47A72984778B10DF11501032205A858
:101B70000CF0B2F89DF80B8005A804A904228DF89A
:101B800017800CF091F838B91822B7FBF2F302FB7A
:101B900013726AB101330BE02B6828465B684FFA79
:101BA00088F10122013798470028D4D10136D2E7C5
:101BB00028460E493A4608F012FB76B1612300939D
:101BC00028460B4932460B4B08F009FB05E0284636
:101BD00009494FF0FF3208F0CBFA012006B0BDE80A
:101BE000F08100BFBE460200024702000A4B02001D
:101BF000314B0200EA4B0200264C020010B5454C66
:101C0000454920460CF045FF04F1200043490CF003
:101C100040FF04F1400042490CF03BFF04F160003A
:101C200040490CF036FF04F180003F490CF031FFD1
:101C300004F1A0003D490CF02CFF04F1C0003C4928
:101C40000CF027FF04F1E0003A4C3B490CF021FF77
:101C500004F1200039490CF01CFF04F14000384920
:101C60000CF017FF04F1600036490CF012FF04F18C
:101C7000800035490CF00DFF04F1A00033490CF051
:101C800008FF04F1C00032490CF003FF04F5A07016
:101C900030490CF0FEFE04F508702F490CF0F9FEF7
:101CA00004F5B0702D490CF0F4FE04F500702C49D9
:101CB0000CF0EFFE04F1E0002A490CF0EAFE04F516
:101CC000807029490CF0E5FE04F5C07027490CF03E
:101CD000E0FE04F5D07026490CF0DBFE04F5E07060
:101CE00024490CF0D6FE04F5907023490CF0D1FE87
:101CF00004F5F07021490CF0CCFE04F57070204919
:101D00000CF0C7FE04F578701E49BDE810400CF0D9
:101D1000C0BE00BF65C60720524C0200614C0200E5
:101D2000724C0200844C0200964C0200A54C02004A
:101D3000BB4C020064C20720C94C0200DA4C02000E
:101D4000E44C0200F44C0200084D0200184D020061
:101D5000264D0200384D02004D4D0200634D020039
:101D6000704D0200874D0200954D0200A44D020007
:101D7000BB4D0200CF4D0200DE4D0200F44D0200CB
:101D8000054E02000F4E02002DE9F04353000733C9
:101D900085B023F00703002604AF0C46ADEB030D1E
:101DA000642115460096019630460A460B460DF111
:101DB000100807F0A5FB002C3DD0B3B2AB424FF0AA
:101DC000000319D29AB2691E8A4213D2013250001E
:101DD00034F800E00238215A1FFA8EF91FFA81FC0C
:101DE000E14538BF24F800E003F1010338BF24F8CF
:101DF0001210E7E70136E0E79EB2AE4203F10109B7
:101E00000ED234F81610002007F0E8FC00B208F8F3
:101E10001600C0F3072008EB460670704B46EBE750
:101E2000002200920192029203924046A9B2134608
:101E300007F0EEFC01E007F0CBFC002007F0BCFC53
:101E400001200437BD46BDE8F083F8B500250446FF
:101E500016461F4601704580C580FFF7CFFE20461D
:101E600031463A46FFF790FF2046F8BD408870475C
:101E700080887047C08870470089704708B5064859
:101E80000CF018FB06F09AFB4FF08043AA221A725E
:101E900000221A7008BD00BF194E020038B5054C6B
:101EA000256825B90120FEF7E3F905702060206858
:101EB00038BD00BF60C207202DE9F04788B0044656
:101EC0008946904600211022002604A81F46BDF82E
:101ED00040500BF01BFFADF80C60FFF7DFFF8246B0
:101EE000FFF7DCFF03F041F880F004020321C2F3A6
:101EF0008002504603F034F89DF80C30227862F3EB
:101F0000020369F3C5038DF80C30BDF80C109DF881
:101F1000133068F38A11ADF80C1066F3C71389B259
:101F200005918DF81330002D73D05FFA85F88DF888
:101F300018803246AA42A94680F0AF80A81A072826
:101F40009DF8123010D9082161F303038DF8123087
:101F50000021BB18585C04AB0B44013107295872AF
:101F6000F7D102F1070914E008F10101891A61F3C0
:101F700003038DF8123000218BB2834201F101017D
:101F800007D2BE18F65C0DF1200E734403F8076CFF
:101F9000F2E7002004A94FF0FF3207F0BFFB414EEB
:101FA0008246C0B9337843F004033370FFF776FFFD
:101FB000012102F0BFFF3C4B3C4A009302208F23DB
:101FC0003B4906F091FB31783A480CF05BFA5046F9
:101FD00007F0F2FB1BE0E38822890133E3809DF8E0
:101FE000123003F00F0313442381337859070ED5C1
:101FF00003F0FB0333702BB1FFF750FF012102F018
:1020000099FF04E0FFF74AFF012102F09EFF4A46D4
:1020100090E79DF81230284665F3030304A94FF0BA
:10202000FF328DF8123007F079FB1E4D0646C0B91D
:102030002B7843F004032B70FFF730FF012102F0EF
:1020400079FF194B194A00930220A323184906F07F
:102050004BFB297817480CF015FA304607F0ACFB1B
:102060001BE0E38822890133E3809DF8123003F0FE
:102070000F03134423812B785A070ED503F0FB037B
:102080002B702BB1FFF70AFF012102F053FF04E090
:10209000FFF704FF012102F058FF012008B0BDE85E
:1020A000F08700BF64C607206B4E0200C84E0200D6
:1020B0003A4E0200624E02002DE9F04F89B006460A
:1020C0000F4614460021102204A89A46DDF84890D5
:1020D0000BF01CFE002004A94FF0FF3207F0CAFAF3
:1020E000614D8046C0B92B7843F008032B70FFF791
:1020F000D5FE012102F01EFF5C4B5D4A00930220D9
:10210000BA235C4906F0F0FA29785B480CF0BAF97A
:10211000404607F051FBA2E07388013373802B78AF
:1021200019070ED503F0F7032B702BB1FFF7B6FE9E
:10213000012102F0FFFE04E0FFF7B0FE012102F0F2
:1021400004FFFFF7ABFE8346FFF7A8FE02F00DFF8A
:1021500080F00202C2F340025846022102F000FF62
:10216000059B03F00702ADF80C30C3F384133A70FB
:1021700023709DF81240B38804F00F042344B38009
:10218000002C6AD09DF81870B9F80030BB4201D31A
:10219000002417E039480CF08DF94FF000085EE09C
:1021A000391B07294FF000020FDD04AB1344597AA5
:1021B0000AEB040399540132072AF6D10734A4B27A
:1021C000BC4212D3BC42EBD347E093B28B4202F144
:1021D000010208DA08A8184410F807CC0AEB04003A
:1021E00000F803C0F1E73C46ECE7002004A94FF0FB
:1021F000FF3207F03FFA8346C0B92B7843F008035B
:102200002B70FFF74BFE012102F094FE174B184A8A
:1022100000930220EE23174906F066FA2978164843
:102220000CF030F9584607F0C7FACBE77388013352
:1022300073802B781A07C5D50B4A03F0F703137088
:102240002BB1FFF72BFE012102F074FEBAE7FFF776
:1022500025FE012102F079FEB4E7A9F800404046CE
:1022600009B0BDE8F08F00BF64C60720834E0200AE
:10227000BF4E02003A4E02007A4E0200924E020019
:10228000014B0360704700BFE04E02000120704721
:102290000120704701207047014B0360704700BF69
:1022A000E04E0200014B0360704700BFE04E0200A9
:1022B000014B0360704700BFE04E0200014B03601A
:1022C000704700BFE04E0200014B0360704700BF43
:1022D000E04E0200034B10B504460360FDF7CAFF51
:1022E000204610BDE04E0200034B10B504460360CB
:1022F000FDF7C0FF204610BDE04E0200034B10B5B5
:1023000004460360FDF7B6FF204610BDE04E020014
:10231000034B10B504460360FDF7ACFF204610BD2B
:10232000E04E0200034B10B504460360FDF7A2FF28
:10233000204610BDE04E0200034B10B5044603607A
:10234000FDF798FF204610BDE04E02001FB5344B4C
:10235000187800F03A013A295FD1324A137853B124
:1023600031480178082950D8DFE801F0050D182020
:1023700028303F384700022205208DF80E208DF8C6
:102380000C0001233FE02948022201788DF80E203D
:102390008DF80C20C1B90378BBBB1DE002230121DD
:1023A0008DF80C308DF80E1004232CE00122022051
:1023B0008DF80E208DF80C00072324E00121022364
:1023C0008DF80E108DF80C3003231CE00122022042
:1023D0008DF80E208DF80C00062314E00120022356
:1023E0008DF80E008DF80C300DE0022301218DF8E0
:1023F0000C308DF80E10052305E0012302228DF824
:102400000E308DF80C208DF80D3003210091084816
:102410000121092203ABFFF74FFD012005B000BDEC
:1024200071C707202BC0072072C707208CC7072061
:1024300074C707201FB53F4B187800F03A013A29BE
:1024400075D13D4B18781C4600F03A023A2A3B4AB7
:1024500045D0C10704D4117839483A4A0CF012F833
:102460002478A30705D1354B35481978364A0CF046
:1024700009F831480278044602F00401CBB22BB9C6
:102480002E4A2F481178314A0BF0FCFF207810F0CB
:10249000060F05D129492A4809782D4A0BF0F2FF89
:1024A000254B1C7814F0050F244C04D124482178C6
:1024B000284A0BF0E7FF2278501CC1B20529217091
:1024C00010D925480BF0F6FF24480BF0F3FF4FF42A
:1024D0007A7008F097FF2248FFF7D0FC02E0002155
:1024E000197011701E48FFF7C1FCADF808001C48B8
:1024F000FFF7BEFCADF80A001948FFF7BBFCADF8CA
:102500000C001748FFF7B8FC0823ADF80E00009345
:10251000002105226B441248FFF7CEFC114B1A78BC
:10252000511C642291FBF2F002FB10111970012082
:1025300004B010BD71C7072093C707208DC70720BF
:10254000EC4F020085C60720C5C60720E5C6072058
:1025500025C7072005C707200450020017500200B6
:1025600074C7072070C7072013B500220B460092DE
:1025700004494FF48062044606F0D8FB024B204623
:1025800023601CBD295002009052020013B50022A6
:102590000B46009204494FF48062044606F0C6FBE5
:1025A000024B204623601CBD39500200C84F020078
:1025B00084B038B505A880E80E008C499DF8180055
:1025C00009789DF819209DF81A309DF81B5011B11B
:1025D0000020874A03E10328864C01D801200DE042
:1025E000811E052901D8022008E0811F042901D895
:1025F000032003E00938032801D804202070032AAF
:102600007C4C01D801220DE0911E052901D802223F
:1026100008E0901F042801D8032203E0093A032AA6
:1026200001D804226270032B724C01D801230DE003
:10263000991E052901D8022308E0981F042801D813
:10264000032303E0093B032B01D80423A370022DCD
:10265000684C01D8012200E0002221786648E2702F
:102660000BF010FF617865480BF00CFFA17864480F
:102670000BF008FF294663480BF004FF6249087815
:10268000012808D85B4BDA78012A04D1584B002284
:102690001A705E489EE057494D78012D05D00878A4
:1026A00001280CD18B78012B09D1CA78012A04D1D9
:1026B0004F480021017056488CE0012D06D0097862
:1026C000012920D14B488378012B1CD1494BD97863
:1026D000C9B918784F4A012805D19978012909D933
:1026E00010704D4809E005D99B78012B02D111707B
:1026F0004A4802E00120107049480BF0DBFE3C4BD9
:1027000001221A7068E03B4A394C1078012803D145
:102710000323237043485DE09378012B03D102200B
:102720002070414856E0022D0BD1984203D9042273
:1027300022703E484EE0834248D3052121703C4838
:1027400048E0032D12D1821E012A05D8022B03D99D
:102750000622227037483DE0023B012B36D8032881
:1027600034D9234907200870334833E0042D2DD194
:1027700032480BF09FFE32490A78D0B2831DD9B29D
:10278000052903D8052121702E4823E000F10A0312
:10279000D9B2052905D81F4A0123237013702A488E
:1027A00018E0431E052B02D82570284812E0053892
:1027B000052806D8174801230021017023702448FA
:1027C00008E04AB908222270224803E0084B08209A
:1027D000187021480BF06EFE05490B4A08781070FE
:1027E0000120BDE8384004B0704700BF8EC7072005
:1027F00072C7072083C707204A50020050500200CA
:10280000565002005C50020082C70720635002004D
:102810006C5002008CC70720775002008F500200D6
:10282000A8500200C8500200D9500200E95002002E
:10283000F8500200085102001B5102002D51020005
:1028400087C707203C5102003E5102004051020060
:1028500042510200445102004651020084B070B55A
:1028600005A880E80E009DF81B309DF81850012B3C
:102870009DF81940BDF8206019D129461A480BF07F
:1028800001FE214619480BF0FDFD68B263B2C21A81
:1028900012F1090F164901DA143505E0092A03DDA2
:1028A0001434651B0D7008E02C1B0C7005E01148FA
:1028B0000BF000FE0E4900220A700D4B0E4893F9F2
:1028C00000100BF0DFFD0D4831460BF0DBFD1E2E36
:1028D0000B4801D8012200E0002202700120BDE86F
:1028E000704004B0704700BF565102006A510200A8
:1028F00087C707207E51020099510200A7510200AC
:102900008EC7072038B5084D2B684BB90820FDF756
:10291000AFFC0446FEF730FB2060402020712C60A5
:102920000149086838BD00BF68C7072038B590F86E
:1029300031300446062B08D1FFF7E4FF2D2102F0C9
:1029400083FAFFF7DFFF2D2147E000EB0312116C44
:10295000D1B108780509FFF7D5FF092D94BFE9B279
:1029600005F1140102F070FA94F8312004EB021121
:102970000B6C187800F00F05FFF7C4FF092D94BF0A
:10298000E9B205F1140128E0D06B58B1FFF7BAFFA6
:1029900094F8312004EB0211CB6B93F9001002F094
:1029A00088FA25E0DD1C04EB05125168C1B190687E
:1029B000B0B1FFF7A7FF94F8313004EB03156A6B51
:1029C00092F9001002F040FAFFF79CFF94F83110E2
:1029D00004EB01139D6B95F9001002F041FA07E03A
:1029E0000133072593FBF5F205FB123184F8311012
:1029F0001E4D2A681AB90120FDF73AFC28602868A4
:102A000002F0BCFA00F00F01481E07282BD8DFE8BF
:102A100000F0040F2A162A2A2A2094F831300722BF
:102A2000581C90FBF2F102FB110384F8313016E0E0
:102A30000F4B187800F003014A1C1A700FE00C4B82
:102A400007225978B1FBF2F002FB10114A1C5A70B0
:102A500005E0074B9A7802F00101481C98704FF48A
:102A6000FA7008F0CFFC012038BD00BF6CC707200A
:102A700000C0072070B5064692B0354B187800F0BC
:102A80003A013A2913D0FFF709FA042102F052FA69
:102A900030480BF00FFD0021009102220B462E481A
:102AA000FFF70AFA4FF47A7008F0ACFCE5E72B4A1E
:102AB00008A9106800234FF0FF3208F003F900283E
:102AC00042D0274B187800F01001CAB272B100F062
:102AD000EF00187028B1FFF7E1F9012102F02AFA9E
:102AE00004E0FFF7DBF9012102F02FFA9DF8213015
:102AF0000A2B0DD00B2B19D0062B25D19DF82020A9
:102B0000012101FA02F317480278134303701BE016
:102B10006C460BAD0FCD0FC495E8070084E80700A5
:102B200008A90EC93046FFF743FD0DE06C460BAD1A
:102B30000FCD0FC495E8070084E8070008A890E8C7
:102B40000E003046FFF78AFE012012B070BD00BFB4
:102B500071C70720BD51020074C7072088C707202E
:102B600064C6072093C7072010B590B006A920239C
:102B70000FA84A1CADF83C3000900B1D2D48FFF704
:102B80009BFA9DF81910012902D12A48FFF776F91E
:102B9000294C227802F03A033A2B2AD09DF81910DA
:102BA000032944D19DF81830012000FA03F023498D
:102BB000024301EB4311224822700BF063FC23789F
:102BC00003F03A003A2832D1212210AC1D4804F813
:102BD000342D0BF06FFC0A210091042200212346C2
:102BE0001448FFF769F9FFF759F9042102F0ADF92C
:102BF0001DE015480022006806A9134607F092FF61
:102C0000A8B912490A7842F010030B70FFF746F991
:102C1000012102F08FF90E480E4900900E4A022061
:102C20004FF4D57305F060FD0C480BF043FC012018
:102C300010B010BD74C7072071C7072065C60720F4
:102C4000C9510200E351020088C7072064C607206B
:102C50001E520200EF510200B45202002E52020036
:102C600037B5384B187828B1FFF718F9012102F071
:102C700061F904E0FFF712F9012102F066F900257D
:102C8000294601222B4600952F48FFF715F93420DD
:102C9000FDF7EEFA03232D494FF4806200950446B8
:102CA00006F044F82A4940F209222160E2612046F8
:102CB00006F00AF83420FDF7DBFA26494FF480626B
:102CC00003230095044606F031F8234B25202360AA
:102CD000E061204605F0F8FF9420FDF7C9FA1F498E
:102CE000022300954FF48062044606F01FF81C4949
:102CF0002346216006210022481E5A639A63DA6344
:102D00001A64103310F0FF01F5D1642384F83110F8
:102D1000E361204605F0D8FF12481349421CA06326
:102D200012488B1C6263421CA3646065A265104B51
:102D30001048044A616401316166A366E067C4F823
:102D400090203EBD64C6072074C707203D52020094
:102D5000004F02004B520200204F02005852020066
:102D6000404F020000C007207EC707208FC7072002
:102D700094C7072070C7072008B502211423064A0C
:102D80000648FFF762F820202821002207F099FE6C
:102D9000034B186008BD00BF03C0072074C707209D
:102DA00088C7072001480BF085BB00BFB85202005E
:102DB00038B504460D4609F0FBF9074BB0FBF3F0BC
:102DC0000223B0FBF3F2954201D3236138BDB3F582
:102DD000807FFAD00233F4E740420F007FB500F263
:102DE00035260D460122314604F028F9C4B24CBB09
:102DF00004A941F8044D304602AA04F0FEFCF8B9DB
:102E0000029A0399937892695943023A5A435208B5
:102E1000B2F5004F1048114B2CBF4FF480640124D1
:102E20004FEA510128BF0346B1FBF4F18DE80A00D7
:102E30000B482946B2FBF4F20BF024FB012008E01A
:102E4000084B00E0084B0948294662B20BF01AFB18
:102E5000002004B070BD00BFF6520200F352020021
:102E600000530200F9520200FD5202002E530200EC
:102E700038B5084D2B685BB90C20FDF7F9F904460D
:102E8000FEF77AF89023237100232060A3602C6062
:102E9000286838BD38C2072010B5044C23681BB918
:102EA0000120FDF7E5F92060206810BD3CC2072035
:102EB00010B5044C23681BB90120FDF7D9F9206037
:102EC000206810BD6CC70720AD49AE4A4023F0B55D
:102ED0008B614FF0007393614FF480338B61AA4B89
:102EE000ADF5057D1868072520F0F000186018681A
:102EF000022440F050001860186820F44050186018
:102F0000086840F040000860186820F47C201860D1
:102F1000186840F428201860186820F470001860C1
:102F2000186840F420001860186820F040401860CD
:102F3000186840F000401860586820F03C00586065
:102F4000586840F028005860586820F00300586026
:102F5000086840F480300860586820F44050586099
:102F6000086820F480000860D96821F44031D960F5
:102F7000116841F080711160596821F44021596055
:102F8000596841F4802159609868804901409960EE
:102F9000116841F4897141F001011160996821F4CF
:102FA00070119960996821F070419960116821F45D
:102FB00046411160D96821F03001D960D96841F0EB
:102FC0003001D960D96821F47011D960136843F0D9
:102FD00000731360136823F08063136006F0A6F992
:102FE0000A20012108F008FF0A20012108F01CFF37
:102FF0006748012105604460FFF7DAFE06F022FF12
:103000001520012108F0F8FE1520012108F00CFF21
:103010006048012105604460FFF7CAFEFDF7ACFF80
:10302000642106F017FD10B95B480BF043FA08F075
:103030001FFF01F019FE10B958480BF03BFA4FF48E
:10304000FA6006F031F9FFF7ADFE09F0B1F809F0CA
:10305000B9FF53490AF0C2F809F03AFE02460B469E
:1030600050480BF00FFA08F09BFD052804AC14D172
:10307000002363604C4B1B682360FFF793FE4B4BB0
:103080004B48D96C1A6D5B6D00940BF0FBF9FFF7A0
:1030900089FE41F2883006F007F9FDF719FA454933
:1030A000FFF79CFE054668BB43480BF0EBF902F0C6
:1030B0009FFFFDF70DFA29462A4600F2352004F05D
:1030C00099FD3E4B3E4A002814BF104618460BF0AF
:1030D000F1F9FDF7FDF93749FFF780FE90B939485E
:1030E0000BF0E8F902F006FF014637480BF0CAF989
:1030F00002F0F0FE054602F0FDFE05FB00F133484C
:103100000BF0C0F9324D334E2B6813F0010716D186
:10311000284609F085F990B14FF40E70FDF7A8F834
:10312000012280F83422312280F835223A2280F8B8
:10313000362280F837723060284609F07FF930680F
:103140002549264EFFF74AFE11481821FFF730FEA9
:10315000FFF728FE33684BB90820FDF789F80546CC
:10316000FDF70AFF382328602B713560306801F0C5
:10317000FFFD0546B0BB1A480BF09CF933E000BFD9
:1031800000C0092020C0092000C00240F0FCFCFF64
:10319000000003400080084072530200A353020065
:1031A00000247449C85302004440024000400240D9
:1031B000E0530200585402006054020061530200C0
:1031C000665302009D540200BC540200CB5402001E
:1031D00048C2072030C20720A24302009CC7072034
:1031E000E65402000125FFF743FE01F0D3FE064638
:1031F00018B973480BF05EF93546FFF783FB01F011
:103200003BFE064618B96F480BF054F935466E4E32
:1032100033681BB90120FDF72BF83060306801F0EE
:10322000FBFDFFF739FE01F0A2FEFEF737FE01F0CD
:103230005FFEFFF73DFE01F09FFEFEF72FFE00212F
:1032400001F058FE95B9FFF7ADFDFFF75BFB2D21AF
:1032500001F0FAFDFFF756FB2D2101F001FEFEF70C
:103260001DFE4FF0FF3101F045FE0CE0FFF74AFB79
:103270000546FFF7FDFD01F0B9FE0AF04BF841B23B
:10328000284601F016FE0021102220460AF03EFDDD
:103290004E4821460F22002301F038FF80B9204616
:1032A0000AF051FBC5B2284600F054FE484A494B8B
:1032B0002946002808BF13464748444A0BF0E2F865
:1032C000FFF7EAFD01F055FE054600200CF0F8FD81
:1032D00028440BF00DF94FF40072002120460AF04B
:1032E00015FD204608F002FE21463C480BF0CAF8C6
:1032F000FFF758FD8022002120460AF007FD2046F6
:1033000002F0D4FD94F90020531C05D02146D2B21E
:1033100033480BF0B7F829E0FFF7CAFD01F02EFEA5
:1033200009281DD12F480BF0C5F821462E480BF077
:1033300013FA21462D480BF0A5F82D480BF0BAF8EA
:1033400000232C4803A903930BF006FA9DF90C30D7
:10335000592B03D1204602F089FD07E0264803E0FF
:1033600026480BF0A7F826480BF0A4F84FF2080304
:103370001D684FF20C031E684FF210031C684FF2D9
:10338000040319684FF470431A68AD0AB60A1D4861
:103390000BF078F82A4631461B480BF073F82146AB
:1033A0001A480BF06FF8FFF7FDFC012005F020F93B
:1033B00017480BF07FF8FFF7F5FC0DF5057DF0BD24
:1033C000015502001B55020098C707203455020022
:1033D000FB4702006C5302003A55020002640200EF
:1033E0006E5502008A550200AC550200B15502002C
:1033F000CC5502000F560200135602002B56020055
:10340000595602008B560200B7560200E4560200DD
:103410000157020010B5044C23681BB90120FCF7CA
:1034200027FF2060206810BD98C707200120704743
:10343000F8B504460E46C06889000BF0C5F8A568CB
:10344000E060AF00B5420BD20C20FCF711FF002367
:10345000036043600372E3680135D8510437F1E734
:103460006660F8BD38B5114B044603600025636DF6
:10347000E06D9D4205D250F82500FCF7FBFE0135BA
:10348000F5E708B1FCF7F8FE0025A36B206C9D4220
:1034900005D250F82500FCF7EDFE0135F5E708B13F
:1034A000FCF7EAFE024B2046236038BD2857020095
:1034B000E04E020010B50446FFF7D4FF2046FCF7AB
:1034C000D9FE204610BD0000F7B500240B464FF48E
:1034D000805200942549064605F028FC244B04251B
:1034E00033607563B463F463346406F1340002211D
:1034F000FFF79EFF35657465B465F465204660216D
:103500000BF062F8B46DF065A500172C0CD81020F4
:10351000FCF7AEFE0021102207460AF0F7FBF36D20
:1035200001345F510435F0E718237365012386F8F1
:103530007030104C0023A6F87430A6F87630B367CC
:10354000002200230025C6E92023C6E9224508F011
:10355000B9FC4FF47A72002309F002FF001941EB25
:103560000501C6E92001304603B0F0BD4057020016
:1035700028570200C0D40100F8B591E860000F7A26
:1035800014468FB1082A0FD1304605F01CFC0028E4
:103590001BDD28460E494FF0FF3206F0D4FD3046C1
:1035A000012105F01DFD08E00A2C05D00D2C03D0EB
:1035B0003046214605F036FE4FB12B6828465B6841
:1035C00021464FF0FF329847F8BD0724F5E7F8BDD4
:1035D00049570200F8B50446142016460D46FCF77C
:1035E00047FE8021074605F0CDFDA36BE26B9A42B2
:1035F00006D3626B991803D204F13400FFF718FF69
:10360000E36B226C591C52F82330E16383E8A0007D
:103610001E72F8BD2DE9F043CF6B85B005460E460E
:1036200001AC4FB94FF47A7007F0ECFE20463946F2
:103630000C220AF06BFB4CE00B6C1B6893E8070054
:1036400084E8070000238DF8033007F0A3FD00276E
:103650008046F26B97425CD2336C013A53F82730C4
:1036600097420CBF0222002218684FEA8709017CAA
:10367000002936D00168D1F800C00DF10301E04700
:1036800078B3F36B9F422ED2336C53F8093093E832
:10369000070084E807009DF9032030462146FFF724
:1036A0006BFF08F00FFC4FF47A72002309F058FE0C
:1036B000D6E92223801841EB0301C6E920010298D4
:1036C00005F081FB0746029805F080FB0138874230
:1036D0000CDB94E8070085E80700284605B0BDE844
:1036E000F0830137B5E706F14403D0E7D6E922239A
:1036F00052EA030115D008F0E5FB4FF47A7200237B
:1037000009F02EFED6E92023994208BF904208D343
:103710000CE007F03FFD4045D1D1012007F072FEDB
:10372000CDE79DF903300A2B8FD1D2E708F0CAFB11
:103730004FF47A72002309F013FED6E92223801891
:1037400041EB03010023C6E920010193C1E700001A
:103750002DE9FF41074621480AF094FE01A83946A9
:10376000FFF758FF019E1EB91D480AF0A3FE31E085
:10377000DDF80880404605F026FB00282ADD08F029
:10378000A1FB0446F8B1B7F8743007F150000133DB
:10379000A7F874304146324604F06AFD114B002709
:1037A0001868009033681DF907105B6830464FF0C9
:1037B000FF3201379847042FF4D108F083FB011B37
:1037C00009480AF05FFE404605F002FB33683046C8
:1037D0009B689847012004B0BDE8F0814C57020077
:1037E0006D460200155702005257020038B5064CCC
:1037F000236833B92C20FCF73BFD054606F004FC9A
:103800002560206838BD00BF44C2072010B50446BB
:10381000FFF7ECFF036821465B684FF0FF329847E3
:1038200040B210BD13B5002302AC04F8013DFFF710
:10383000DDFF036821461B684FF0FF3298479DF972
:10384000070002B010BD00002DE9F04100F1500466
:103850008AB000250646009520465B495B4A5C4BD2
:1038600004F024FC009520465A495B4A5B4B04F067
:103870001DFC009520465A495A4A5B4B04F016FC41
:103880000095204659495A4A5A4B04F00FFC0095BE
:1038900020465949594A5A4B04F008FC00952046E5
:1038A0005849594A594B04F001FC009520465849A3
:1038B000584A594B04F0FAFB009520465749584A9C
:1038C000584B04F0F3FB009520465749574A584B94
:1038D00004F0ECFB009520465649574A574B04F03C
:1038E000E5FB009520465649564A574B04F0DEFB4F
:1038F000009520465549564A564B04F0D7FB009593
:1039000020465549554A564B04F0D0FB00952046B9
:103910005449554A554B04F0C9FB0095204654497B
:10392000544A554B04F0C2FB009520465349544A73
:10393000544B04F0BBFB009520465349534A544B6B
:1039400004F0B4FB009520465249534A534B04F00F
:10395000ADFB009520465249524A534B04F0A6FB5A
:10396000009520465149524A524B04F09FFBFFF705
:103970003DFF4FF480734FF416412022054606F0B8
:1039800021FB012780462F744B48FCF7D7FC4B489E
:10399000FCF7CEFC304629463A46FFF71BFE03A94A
:1039A000082205A805F0E8F905A8454905F065FCD9
:1039B00005A92A46204604F05BFC05A805F0F1F9AC
:1039C00040460AB0BDE8F08161050100B25702002F
:1039D000685702004D0601009F570200A7570200DA
:1039E00021110100C5570200B757020071060100FE
:1039F0000D580200CC570200C50801001258020001
:103A00001658020045080100B5580200725802001D
:103A1000250D0100B4580200B8580200F509010054
:103A20000359020006590200A10B0100345902009B
:103A30003A590200190C01005F5902006259020054
:103A4000750C01005E7002008F590200DD0B010051
:103A5000B4590200B7590200990F0100DA59020067
:103A6000DE590200610E0100905A0200985A0200CD
:103A7000150F0100DB5A0200E25A0200350701006F
:103A8000F55A0200F95A0200450F0100BB5B020023
:103A9000C15B02003D170100BF530200E95B020059
:103AA00071130100075D0200135C0200C5120100E2
:103AB000E5430200D05C0200253801000D3801000A
:103AC000494A0200014B0360704700BFE04E02000C
:103AD00010B5034B04460360FCF7CCFB204610BD39
:103AE000E04E020008B501F0F9F8012008BD000021
:103AF00037B5FFF7B5F83420FCF7BAFB04210446CC
:103B0000FEF732FD204605F0DFF83420FCF7B0FB6D
:103B100003210446FEF73AFD204605F0D5F8902033
:103B2000FCF7A6FB03210446FFF7CEFC204605F078
:103B3000CBF83420FCF79CFB00244FF400720949B9
:103B400000940423054605F0F1F8074B28462B6046
:103B500005F0BAF82046214605F0C6F84FF0FF30D0
:103B600003B030BDBF530200505D0200242310B5E6
:103B700003FB010398420BD0417839B1018C4FF619
:103B8000FF741144A14228BF214601842430F1E78B
:103B900010BD000037B5002302A840F8043D0C4BCF
:103BA00004215B6898470B4B019A1C680546141B5F
:103BB0001A60094822460421FFF7D8FF074802216E
:103BC0002246FFF7D3FF281C18BF012003B030BDE9
:103BD000A0C7072068C80720B4C707208CC80720E3
:103BE00008B50B4B1A78037893420A4B03D1198816
:103BF0000131198002E0998801319980064B827069
:103C0000DB6820219847003018BF012008BD00BFA5
:103C100031C007205CC80720A0C707200A4B0278E4
:103C20001B789A42094B03D1DA880132DA8002E02C
:103C30001A8901321A810379C3F3C202073262F38F
:103C4000C5030371FFF7CCBF31C007205CC8072054
:103C500010B50023064A990012F82340844201D18E
:103C6000501810BD0133042BF4D1002010BD00BF4B
:103C700079C8072070B1C3780133DBB2FF2BC37062
:103C800008D10023044A1A44D17804334908102B80
:103C9000D170F7D1704700BF79C8072070B52422D2
:103CA00002FB0101034602468A4206D01046243236
:103CB00012F8234C002CF7D112E0184600228B4258
:103CC0000ED01C791E8CC4F3C20446EA0444A242FE
:103CD0001D4624BF14460546243322462846EEE7F7
:103CE00070BD000038B501310446CD00FFF752FF2A
:103CF0001B4B1A7823789A4204D102211948FFF706
:103D0000CDFF0CE018480421FFF7C8FFE37833B972
:103D100090F82330042543F0800380F823300023FB
:103D200080F8203080F8213090F8233080F822503D
:103D300023F07F0343EA152580F8235023460246EB
:103D400004F1200153F8044B8B4242F8044BF9D1A3
:103D5000064A0379127862F3C503037138BD00BFC8
:103D600031C007208CC80720B4C7072030C0072007
:103D700010B5FFF76DFF0446F8B9FFF769FF044679
:103D8000D8B90F4AD378D179994238BF0B46D17A46
:103D900034BF141D144699423CBF0B46094CD17BDD
:103DA000094A994238BF144620460422002109F0EE
:103DB000ADFF064BDA7A0132DA72204610BD00BF41
:103DC00079C8072081C8072085C807205CC807205C
:103DD000F8B5242707FB021705460C46BC4200F045
:103DE000B38094F82310CB092BD0BDB12B78627827
:103DF000934203D16E78207886421CD0E87868B16F
:103E00006878904208D122789A4205D1A379AA799C
:103E1000D61A7342734100E0002363B994F822205C
:103E2000238C01F07F0142EA01218B42C0F28A809B
:103E30002046FFF7D5FE20460021242209F066FF28
:103E400080E06378002B7DD0002D3CD02A79920948
:103E5000032A1AD16A782078904202D128789842B1
:103E6000E9D0E678A878864210D1934209D120782B
:103E70002A78904205D1AA79A079801A424242411B
:103E800000E00022002AD6D100E0E2B1A878E27872
:103E9000904218D16A789A4209D120782A789042C3
:103EA00005D1A079AA79821A5042504100E0002041
:103EB00048B12279002363F3C50284F8203084F8E6
:103EC000213022713EE094F82200228C01F07F0123
:103ED00040EA01218A4235DB2179002284F8202042
:103EE00084F82120C1F3C202D6B21EB12046FFF7EA
:103EF00095FE27E08909032918D01449207809780C
:103F0000884213D1E178994210D079B16379E27097
:103F1000032262F3071363712046FFF77FFE0C4A0A
:103F20002379127862F3C503237100E001266078DB
:103F3000FFF78EFE18B10021042209F0E7FE002EE3
:103F40007FF479AF243449E7F8BD00BF31C00720C2
:103F500030C00720431EDBB2FD2B9DBF024B187003
:103F600001200020704700BF31C00720014B1878A6
:103F7000704700BF31C0072007289CBF014B187055
:103F8000704700BF30C007202DE9F7430446914633
:103F900098469DF828600D4600295BD0314B1F786C
:103FA000B94259D0B8F10F0F56D8002856D0202268
:103FB000002109F0ABFEFF2D237914BF09F00302A5
:103FC000002262F38713032262F30203264A65701C
:103FD0001278277062F3C503244A23711378A770FF
:103FE0000133DBB21370A3710BAB01930EB9012740
:103FF00013E0019BE0791A4652F8081B013E01923A
:104000005A68F6B28718FFB2182F05D80830204436
:1040100009F059FEE771E9E70027DFF85490012322
:10402000284689F80030FFF713FE0646FFF722FE08
:10403000002389F80030637926B968F307136371A8
:10404000E67005E0B27862F3071363717378E3708A
:10405000384603E0084601E00020FFE703B0BDE872
:10406000F08300BF31C0072030C007208BC8072075
:1040700089C80720154B012270B51A7004461E46E8
:1040800008B900251DE0FFF7ABFD05460028F8D074
:1040900022799209D11C032A01F0030106D1E378A9
:1040A0002BB16278D31A18BF012300E00023012945
:1040B00003F0010300D923B1617920460909FFF714
:1040C00011FE00233370284670BD00BF89C8072049
:1040D00082B0F0B51746421ED2B28DB0FD2A04461A
:1040E0000D46139301D900205AE0002BFBD0159BFD
:1040F000002BF8D0179B002BF5D0169B002BF2D08D
:10410000149B002BEFD000214822284809F0FEFD27
:1041100000219022264809F0F9FD002110222548AF
:1041200009F0F4FD00210C22234809F0EFFD0021E5
:104130000C22224809F0EAFD214B224E1C70224B32
:1041400034461D7013AD0FCD0FC42B68002118220B
:104150001E48236009F0DAFD39461C4817220AF090
:10416000E2FC0020B368014698470028BBD09DF8C8
:10417000603013B9FFF70EFD12E0154A01230192DA
:1041800006220292009304A8FF210022FFF7FCFE02
:104190000028A8D004A8FFF76DFF0028A3D0E9E706
:1041A0000DB0BDE8F04002B0704700BF8CC80720DA
:1041B000B4C7072079C807206DC807205CC807204E
:1041C00031C00720A0C707206CC8072044C80720BB
:1041D000685D020070B5182B8CB006460D4617D8E6
:1041E0001C1C18BF0124002A14BF214684F00101C1
:1041F00071B101920293009404A831462A469DF8B9
:104200004030FFF7C1FE18B104A8FFF733FF00E00C
:1042100000200CB070BD13B50446107852790B46DF
:104220001209009203212246FFF7D4FF02B010BD0D
:1042300030B500231A4608499C0011F823502DB1CF
:10424000904201D1081930BD0132D2B20133042BA2
:10425000F1D1002030BD00BF79C8072000231846E7
:10426000044A9A5C0AB10130C0B20433102BF7D172
:10427000704700BF79C807202DE9F04188B0684633
:104280000021202209F042FD9C4B1B7803F0FF0423
:10429000002B40F030819A4F68463B6920219847B7
:1042A000002800F08280974D6B8801336B80FFF708
:1042B000D5FF9DF80410A87201F00703032B04D06A
:1042C000914B1A7842F0010209E0904B1D789DF85D
:1042D0000230AB4205D18C4B1A7842F002021A70C0
:1042E000DBE0C1F3C2019DF800E09DF80600CEB20C
:1042F000874A1319A25C724509D15A78824206D1C5
:104300009A780124961B18BF0126997018E003348F
:104310000C2CEDD17F4A136899707D49587001F1DA
:104320000900834283F800E040F0C48011609DF8EA
:1043300000009DF80230834240F0BF8000242646F2
:104340009DF80200FFF714FD9DF8022002709DF811
:104350000220427000228270FFF78CFC002C08BF04
:10436000012616B39DF80030AB4200F095809DF811
:104370000160FF2E1BD13B6868462021984720B979
:10438000614B1A7842F004021A709DF8053003F070
:104390000F02511C61F303038DF80530C3F30313BF
:1043A0009A4202DA6846FFF71BFC002475E0B5422A
:1043B0002AD164B99DF807304BB13B68684620218B
:1043C000984720B9504B1A7842F004021A709DF8B1
:1043D00004309B09012B12D19DF8073013B94E48C8
:1043E000182108E047480C216A46FFF714FF00280F
:1043F00052D1002001466A46FFF70DFF4CE09DF8C0
:104400000330002B48D1F4E7444B1B78002BCCD071
:104410009DF8054004F00F082709B845C5DA304675
:10442000FFF716FC9DF8033008F1010868F3030458
:104430009D428DF8054019D19DF804209209D51CA4
:1044400005F00305012D8CBF0025012508B1437837
:1044500000E00346032A05D19E4203D0003318BF73
:10446000012300E000231D4330B90AE0A3B91D4633
:1044700010B9684639460DE043788DF803308478EA
:1044800002E08DF8030004466846FFF7A9FB1DB162
:1044900068462146FFF726FC6C46FFF77BFB20466B
:1044A0001F490422FFF794FC20461E490222FFF711
:1044B0008FFC20E00333136039E785423FF43EAFC1
:1044C000FFF756FC0446FFF7D5FB23783BB19DF878
:1044D0000520A37802F00F029A423FF72FAF9DF814
:1044E000003023709DF8023063709DF80530C3F3EF
:1044F0000303A37022E708B0BDE8F08189C8072054
:10450000A0C707205CC807208AC8072031C0072041
:104510006DC807202CC0072044C807206CC807209E
:10452000B4C707208CC8072000231846094A1A443C
:1045300052780AB10130C0B22433902BF6D1064B29
:104540005A780AB10130C0B293F825300BB101306E
:10455000C0B27047B4C707208CC8072008B5FFF762
:1045600077FB064B28B18278187802FB0000C00068
:1045700008BD1B781820584308BD00BF30C0072075
:1045800003490B6803604B6843608B688360704726
:104590005CC8072030B5464C4FF48035E561454C8A
:1045A000A060E068C506FCD442488068C0B2002B19
:1045B00077D00B46002A68D0072A3E4C91F900506C
:1045C00036DDA56091F90150083AA56091F90250D5
:1045D000A56091F90350A56091F90450A56091F987
:1045E0000550A56091F90650A56001F1080591F903
:1045F0000710A1602F498C696407FBD58C681C707B
:104600008C685C708C689C708968D9702949CC680A
:10461000E406FBD48C68083303F8044C8C6803F878
:10462000034C8C6803F8024C896803F8011C1EE0F7
:10463000032A1EDDA56091F90150043AA56091F9A5
:104640000250A5600D1D91F90310A1601949CC68B5
:10465000E406FBD48C68043303F8044C8C6803F83C
:10466000034C8C6803F8024C896803F8011C294646
:10467000A0E70131A560013AE568ED06FCD40D4CD8
:104680000133A46803F8014C94E7094B4FF48032DE
:104690009A6140B230BDE568ED06FCD4054C0133AB
:1046A000A4689342F1DACD56024CA560F3E700BF4F
:1046B00000C009200080084007B5002302A901229C
:1046C00001F8013D00F01F001346FFF763FF9DF95D
:1046D000070003B05DF804FB07B502AB03F8011D4A
:1046E00000F01F0019460122002340F02000FFF7D0
:1046F00051FF03B05DF804FB08B51720FFF7DCFF9E
:10470000C0F3001008BD07207021FFF7E5BF034686
:104710000A466FF05F0019460023FFF73BBF08B55C
:104720000020FFF7C9FFBDE8084020F0010149B2B1
:104730000020FFF7D1BF0000024B4FF08072DA611A
:10474000704700BF20C0092008B50020FFF7B4FF64
:1047500040F0010149B20020FFF7BEFF024B4FF0CD
:1047600080729A6108BD00BF20C009200720202167
:10477000FFF7B2BF00216FF01E000A460B46FFF79D
:1047800009BF000037B50C460546FFF7F3FF214689
:104790002846FFF7BCFF0D4B4FF080729A61002254
:1047A000ADF806201C46BDF8063001339BB2ADF8CB
:1047B000063033B94FF08073E361FFF7DBFF03B0DE
:1047C00030BDFFF799FF0028EDD0F3E720C00920A6
:1047D00008B51720FFF770FF00F0010080F001001E
:1047E00008BD07204021FFF777BF08B503460A46FA
:1047F000612019460123FFF7CDFEC0F3420008BD3A
:1048000000216FF01D000A460B46FFF7C3BE70B5CE
:10481000044600200D461646FFF74EFF14B100F087
:10482000BF0002E040F04000C0B215B100F0DF0070
:1048300001E040F0200016B100F0EF0101E040F08F
:104840001001002049B2BDE87040FFF745BF10B528
:1048500004460020FFF730FF14B900F0F7010DE027
:10486000012C04D100F0FB0141F0080106E0022C0C
:1048700014BF40F0080140F00C01C9B2002049B259
:10488000BDE81040FFF728BF08B50020FFF714FF70
:10489000BDE8084040F0020149B20020FFF71CBF0C
:1048A00008B50020FFF708FFBDE8084020F002012E
:1048B00049B20020FFF710BF40F6DD13984206D83A
:1048C00040F66213B0F5166F38BF184600E0184680
:1048D000A0F5166149B20520FFF7FEBE10B50446EB
:1048E0000620FFF7E9FEFA2C00F0D70102D141F0D3
:1048F000200104E0B4F5FA6F08BF41F0080106207A
:1049000049B2BDE81040FFF7E7BE10B504460620E7
:10491000FFF7D2FE032C34BF2146032100F0F9003B
:1049200040EA410149B20620BDE81040FFF7D4BE7D
:10493000F9284FF0FA0305D9B0F57A6F88BF4FF424
:104940007A6000E01846B0FBF3F3013BDBB20F29BD
:1049500028BF0F2141EA0311042049B2FFF7BCBE72
:104960001130C0B2162806D8202928BF202140B215
:1049700049B2FFF7B1BE7047032804D004280CBF2A
:104980000221032100E001210320FFF7A5BE034619
:104990000A46302019460023FFF7FCBD03460A46AD
:1049A0002A2019460023FFF7F5BD000073B5044621
:1049B0000E461546FFF724FFFFF7DCFE2B4B4FF0AA
:1049C0008072DA61FFF76CFF00210A460120FFF7D1
:1049D0001EFFFFF798FE0220FFF739FF3046FFF772
:1049E0006BFF2846FFF77AFF0320FFF78EFF0220B8
:1049F0000321FFF771FE01200021FFF76DFE4FF448
:104A0000FA700321FFF794FF21460020FFF7A8FF6B
:104A100012200021FFF760FE13200021FFF75CFE4B
:104A200014200021FFF758FE15200021FFF754FE47
:104A300000211620FFF750FE0D4B18681B790090DF
:104A400005208DF80430FFF797FF68460521FFF732
:104A50009EFF68460521FFF7A1FFFFF715FF4FF402
:104A6000FA6004F00CFC02B070BD00BF20C0092049
:104A70006F5D020007B5094B002102AA186842F8D1
:104A8000041D0B4606F0E5F8019B1BB1044B4FF0EB
:104A900080521A6003B05DF804FB00BFDCC8072039
:104AA00004ED00E070B5174E326822B903202021D2
:104AB00006F007F83060144D2A6822B90120202141
:104AC00005F0FFFF2860114C216821B90120032265
:104AD00005F0F7FF2060202040F6C3114FF4FA6282
:104AE000FFF764FFFFF730FE16200121084A04F0AB
:104AF00099FF306828B1286818B12068003018BFC5
:104B0000012070BDD8C80720D4C80720DCC8072002
:104B1000754A010070B5037906469B09032B0CBF4B
:104B20000D4B0E4B00221D6888B0284631461346B7
:104B300005F0F8FF044660B9224623466946284638
:104B400006F0C0F8224623462846314605F0EAFF23
:104B50000446204608B070BDD4C80720D8C8072036
:104B600038B504460D46FFF701FA237883420AD090
:104B7000E37843B909F0E8FCBD2300F0030000FB33
:104B8000033004F07CFBFFF7D7FDFFF7C8FD20469C
:104B9000A9B2FFF7F7FDFFF7E9FDFFF7D5FD06F036
:104BA00003FE022806D1044B002118680A460B4672
:104BB00006F04FF8012038BDDCC8072038B50446A0
:104BC0000D46FFF705FE48B1A9B22046FFF70DFEDE
:104BD000FFF7FEFD08B9FFF704FE012038BD2DE9FF
:104BE000F04180460F46164606F0DEFD022807D14A
:104BF000324640463946002306F064F8C6B21CE04F
:104C000007F060F94FF47A72002308F0A9FB8419C9
:104C100041F10005002240463946134606F052F89D
:104C2000C6B256B907F04EF94FF47A72002308F075
:104C300097FB8D4208BF8442ECD270B2BDE8F08190
:104C4000042938B5054603D1041C18BF012400E02F
:104C5000002407F037F92CB14FF47A72002308F0E2
:104C60007FFB2860204638BD00B50C4B8DB0099302
:104C70000B4B0C4A0B930C4B0A930CAB43F8102DC7
:104C8000002204920FCB8DE80F00084B0121084A47
:104C90006A20FFF71DFA0DB05DF804FBA54A01007C
:104CA000BD4B0100414C0100614B0100154B01005F
:104CB000745D02000A460349034608681946FFF777
:104CC0008EBF00BFD8C807200A46034903460868BC
:104CD0001946FFF784BF00BFD4C8072008B506F007
:104CE00063FD0F4B02285B6913D15A020DD5FFF704
:104CF0001BFC0C4B00284FF0000118680CBF4FF054
:104D0000FF3201220B4605F0DDFFBDE80840FFF74A
:104D1000B3BA5B02F9D5FFF707FC0028F5D108BD4F
:104D200000C00920DCC8072030B504464DB253B29C
:104D300094F904102A460068BDE8304005F024BB11
:104D40001FB5002204AB90F9044023F8042D4AB2A9
:104D5000022100910068214605F001FB9DF90C003D
:104D60009DF80D3080B243EA002080B204B010BD3F
:104D700010B52A2104461922FFF7D6FF206894F9BE
:104D800004100D2205F0EFFAB0F12A035842584101
:104D900010BD0000044A13881F2B04D8581C108033
:104DA000024A42F823107047E4C80720E8C80720E9
:104DB000164BF0B519881E46012923D9144B002241
:104DC0001C46481E824203F1040307DA53F8040C20
:104DD0001D680132281A43F8040CF2E7636803EBFC
:104DE000530700231A4699B2814209DA54F8215038
:104DF000BD4203D9012505FA01F10A430133F2E767
:104E0000044B1A6000233380F0BD00BFE4C80720C4
:104E1000E8C80720E0C8072008B50220012106F0F5
:104E2000EBFF084B01209A6A22F007029A629A6A05
:104E300042F006029A6203F51033DA6842F030025B
:104E4000DA6008BD0080004008B5044ACBB2417169
:104E5000D25C0321FFF768FF08BD00BF795D020047
:104E600008B5044ACBB28171D25C0221FFF75CFF26
:104E700008BD00BF795D020038B5044694F90410FE
:104E8000006805F08CFA054688B12046062100220C
:104E9000FFF74AFF204607210022FFF745FF204683
:104EA0002E21FFF7D1FF20462E21FFF7D9FF2846FC
:104EB00038BD642370B591FBF3F404FB13110A238E
:104EC0004CB294FBF3F603FB164303F1300149B2F5
:104ED0000546FFF7C5FF092C02DC2846302103E018
:104EE00006F13001284649B2BDE87040FFF7ACBF7B
:104EF000012070470E4B01F00F0140F213120170B8
:104F00009A610278D10744BF0122DA6102789207E0
:104F100044BF0222DA610278510744BF1022DA61ED
:104F20000278120744BF4FF48072DA61704700BF05
:104F300020C009200122013902FA01F1027811434F
:104F4000C9B2017049B2FFF7D5BF0122013902FA97
:104F500001F1027822EA0101017049B2FFF7CABFEC
:104F60000AB1FFF7E7BFFFF7F0BF007870470120F5
:104F70007047022004F014BA01207047044B5B69AB
:104F8000C3F38130C3F3412343EA8000704700BF7D
:104F900020C0092010B5012104468122FFF7C4FE7C
:104FA000206894F90410012205F0DDF910F0600F7B
:104FB0000CBF0020012010BD38B500210446FFF7CA
:104FC000BFFE812285B201212046FFF7ADFE1023EE
:104FD00028B290FBF3F007F0F9FF4FF0765108F09C
:104FE00049F8A16807F03EFF38BD000008B5FFF79B
:104FF000E3FF054908F03EF8044908F0EFF84FF0E8
:10500000844107F02FFF08BD000010410000A040C0
:105010002DE9F04F0546ADF2546D0C46174682A8B7
:10502000294601229B4602F047F800286AD1214612
:105030000DF22C400A2202F03FF8044620B182A86B
:1050400002F0AEFA20465DE00090019082460446F0
:10505000064606F037FF4FF47A72002308F080F915
:1050600002A980464FF4007282A86B4602F0B6F89F
:105070000546F8B9009BEBB106F024FF4FF47A72B5
:10508000002308F06DF9B6EB080866EB060900EBA3
:10509000080606F017FF4FF47A72002308F060F953
:1050A00002A98046009A0DF22C4001AB02F054F99F
:1050B0000546A0B107B13E60BBF1000F01D0CBF8AF
:1050C0000040DDF878360BB1C3F800A082A802F0EA
:1050D00067FA0DF22C4002F063FA284612E0019ABA
:1050E000009B9A42E6D106F0EDFE00234FF47A725F
:1050F00008F036F9009BB4EB080464EB04050444A3
:105100009A44A6E70DF2546DBDE8F08FF0B5044661
:10511000ADF50B7D0F46164621461D4601A800231E
:105120000122009301F0C8FF044670B91DB101A827
:10513000294602F047FA01A8394632466B4602F08A
:105140004DF8044601A802F02BFA20460DF50B7D20
:10515000F0BDF0B50446ADF50B7D0F461646214671
:105160001D4601A800230A22009301F0A5FF044672
:1051700070B91DB101A8294602F024FA01A83946E8
:1051800032466B4602F0E8F8044601A802F008FA3D
:1051900020460DF50B7DF0BDF0B50446ADF50B7D59
:1051A0000F46164621461D4601A8002312220093F1
:1051B00001F082FF044680B901A80DB1294600E044
:1051C000049902F0FFF901A8394632466B4602F015
:1051D000C3F8044601A802F0E3F920460DF50B7D63
:1051E000F0BD00007F2816D931B1FF2812D80A4B34
:1051F000803833F810007047074A8BB232F811201C
:10520000824203D001318029F6D10B4603F18000A0
:10521000C0B2704700207047FA5D02000023064AC2
:1052200032F8132032B1904201D00133F7E7034A3C
:1052300032F81300704700BFFA5E0200DA60020025
:1052400010B501200C4605F0DEFC2060003018BFD0
:10525000012010BD0120704710B5044606F0A4FAE5
:1052600002280AD100210B4620464FF0FF3205F0FC
:1052700029FD431E5842584110BD012010BD10B5F4
:10528000044606F091FA022807D1002120460A467A
:105290000B46BDE8104005F045BC10BD10B50446F6
:1052A00004F040FE24B1012C06D100F089F901E0A0
:1052B00000F024FD044600E0042404F04BFE2046E8
:1052C00010BD20B1012801D100F038BA0420704788
:1052D000F8B504460F4616461D4604F023FE3CB1C1
:1052E000012C0CD1384631462A4600F02FFA04E052
:1052F000384631462A4600F04FFD044600E00424BB
:1053000004F028FE2046F8BDF8B504460F461646C0
:105310001D4604F007FE3CB1012C0CD13846314645
:105320002A4600F061FA04E0384631462A4600F089
:105330005BFD044600E0042404F00CFE2046F8BDAA
:1053400070B504460E46154604F0ECFD34B1012C50
:105350000AD13046294600F0A3FA03E03046294638
:1053600000F068FD044600E0042404F0F3FD20464C
:1053700070BD08B506F0A6FD4FF47A72002307F061
:10538000EFFF08BD10B5044606F012FF074BB0FB57
:10539000F3F00223B0FBF3F2944202D3044A136108
:1053A00010BDB3F5807FF9D00233F3E740420F0020
:1053B00000000340044B9860DA68D206FCD4024B2C
:1053C000986840B2704700BF0000034038B5FFF74F
:1053D000D0FF00F5FA754FF0FF30FFF7EBFF4FF00D
:1053E000FF30FFF7E7FFC4B2FF2C07D0FFF7C1FF84
:1053F0002A460023994208BF9042F0D3204638BD88
:1054000038B5064C4FF00075E561FFF7DFFF044B40
:10541000A5611A7842F001021A7038BD20C0092037
:1054200032C0072070B505460E46FFF7A2FF00F117
:1054300064044FF0FF30FFF7BDFFC0B2FF2809D171
:10544000FFF797FF22460023994208BF9042F0D30E
:10545000002070BDFE28FBD1102E06D928464FF43F
:105460000071002204F0FCFC19E02C464FF0FF30E4
:10547000FFF7A0FF20704FF0FF30FFF79BFF607039
:105480004FF0FF30FFF796FFA0704FF0FF30FFF7AF
:1054900091FF043404F8010CAB19A342E6D14FF09C
:1054A000FF30FFF787FF4FF0FF30FFF783FF01204A
:1054B00070BD38B505460C46FFF788FFFF281DD1A3
:1054C00060B2FFF777FFFD2C1AD04FF400714FF058
:1054D000FF32284604F0C4FC4FF0FF30FFF76AFFAC
:1054E0004FF0FF30FFF766FF4FF0FF30FFF762FF2E
:1054F00000F01F00431F5842584138BD002038BDFE
:10550000012038BD38B5030604460D4607D577207F
:105510000021FFF7F7FF01283CD804F07F041E4B61
:105520004FF000729A61DA61FFF750FFFF282ED129
:1055300060B2FFF73FFF2816FFF73CFF45F3074037
:10554000FFF738FF45F30720FFF734FF68B2FFF796
:1055500031FF402C04D0482C0CBF8720012000E0F4
:10556000952040B2FFF726FF4C2C03D14FF0FF30BF
:10557000FFF720FF0A244FF0FF30FFF71BFF002842
:10558000C3B206DA013C14F0FF04F4D101E0FF20BD
:1055900038BD184638BD00BF20C00920064A07495B
:1055A00013784969DBB2490154BF03F0FD0343F0AE
:1055B00003031370704700BF32C0072020C00920CA
:1055C0002DE9F347FFF7EAFF594B1A781E4612F010
:1055D000020F01D01878A7E00120FFF7D3FE0A24BC
:1055E0004FF0FF30013CFFF7E5FE14F0FF04F7D168
:1055F000504D4FF00073EB6140202146FFF782FFD2
:105600000128A84602D04FF0000978E0FFF7B1FE6C
:105610004FF4D57100F57A774820FFF773FF012822
:1056200043D14FF0FF30FFF7C5FE0DF1040909F833
:1056300004000134042CF4D19DF80630012BE2D192
:105640009DF80730AA2BDED1FFF793FE3C460025DC
:10565000A94208BFA04206D3FFF78BFEA94208BFAC
:10566000A042D0D207E0E9204FF08041FFF74AFF87
:105670000028E9D1F0E77A200021FFF743FF002856
:10568000C1D104464FF0FF30FFF794FE09F8040043
:105690000134042CF6D19DF8043013F0400F0CBFF8
:1056A0004FF004094FF00C0929E0E9202146FFF7EB
:1056B00029FF01288CBF4FF001094FF002098CBF70
:1056C0004FF0410A4FF0E90AFFF753FE3C46002530
:1056D000A94208BFA0420BD3FFF74BFEA94208BF67
:1056E000A0420CD34FF400715020FFF70BFF06E0EF
:1056F00050460021FFF706FF0028E5D1ECE70E4BEE
:1057000083F800904FF00073C8F81830B9F1000F1B
:1057100007D03378182003F0FE033370FFF732FE12
:1057200001E0FFF76DFE3078C0B202B0BDE8F0874F
:1057300032C0072020C0092068C9072008B5FFF73C
:105740002DFF014B187808BD32C00720F8B514466C
:1057500005460E46FFF722FF002C3BD01F4B1B785F
:10576000DB0739D41E4B4FF00072DA611D4A1F4629
:10577000127812F0080F08BF7602012C0ED15120CA
:105780003146FFF7BFFEF0B928464FF40071FFF72E
:1057900049FED0F1010438BF002414E05220314604
:1057A000FFF7B0FE78B928464FF40071FFF73AFED4
:1057B00028B1013C14F0FF0405F50075F3D14C202D
:1057C0000021FFF79FFE4FF00073201CBB6118BF44
:1057D0000120F8BD0420F8BD0320F8BD32C0072029
:1057E00020C0092068C90720F8B5144605460E46B2
:1057F000FFF7D4FE002C46D0264B1A78D20744D4AB
:105800001B785B0743D4244A4FF00073D361234BCA
:1058100017461B7813F0080F08BF7602012C0DD134
:1058200058203146FFF76EFE30BB2846FE21FFF7B9
:1058300040FED0F1010438BF00241DE013F0060F34
:1058400003D0D7202146FFF75DFE59203146FFF7F0
:1058500059FE88B92846FC21FFF72BFE28B1013CF0
:1058600014F0FF0405F50075F4D10020FD21FFF7C9
:1058700020FE002808BF01244FF00073201CBB61EC
:1058800018BF0120F8BD0420F8BD0320F8BD022098
:10589000F8BD00BF32C0072020C0092068C907201A
:1058A0007FB505460C46FFF779FE052D18D1237804
:1058B000012B00F00C810AD3022B40F00681864BAD
:1058C0005B6983F08063C3F380636370FFE0824BA6
:1058D000586910F0806440F0FA80FFF791FDF6E01F
:1058E0007E4B1B78DB0700F1F4800E2D00F2E58083
:1058F000DFE815F00F00190051005500E300E30048
:10590000E300E300E300E300AE00B200B400BE0039
:10591000CF00714B4FF00072DA61FFF757FDFF388F
:1059200018BF0120CCE049200021FFF7EBFD054620
:1059300008B10120C4E068461021FFF773FD00287C
:10594000F7D09DF800309DF808209B09012B9DF8A9
:10595000093006D1013303EB022292B29202226097
:1059600044E09DF807109DF80A00890001EB9212AF
:105970009DF80610013201F0030102EB81229DF82F
:10598000051003F0030301F00F0101EBD01101EB4F
:105990004303073B27E04FF4007323808FE0504D13
:1059A0002B7803F0040303F0FF010BB3CD2000219B
:1059B000FFF7A8FD0028BCD14FF0FF30FFF7FAFC3D
:1059C00068461021FFF72EFD0028B2D030254FF099
:1059D000FF30013DFFF7EEFC15F0FF05F7D19DF814
:1059E0000A3010221B0902FA03F32360284667E0FD
:1059F0004920FFF787FD064600289AD16846102106
:105A0000FFF710FD002894D029789DF80A2001F0B6
:105A1000020101F0FF009DF80B3069B19DF80D10F7
:105A200002F03F02DB0903EB42038909013301392C
:105A30008B403046236043E003F003015B0903EB36
:105A4000C103C2F38402013302FB0333236037E056
:105A5000234B1B78237032E0492000E04A200021CC
:105A6000FFF750FD00287FF464AF204610211DE0B1
:105A70007A200021FFF746FD00287FF45AAF054643
:105A80004FF0FF30FFF796FC60550135042DF7D13C
:105A900015E0CD200021FFF735FD00287FF449AF48
:105AA0004FF0FF30FFF786FC20464021FFF7BAFC9D
:105AB000D0F1010038BF002002E0042000E0002007
:105AC000054B4FF000729A6104E0042002E00020D0
:105AD00000E0032004B070BD20C0092032C00720C0
