:020000021000EC
:10000000E03F082091010100FD000100E100010036
:100010000D0101001D0101002D0101000000000083
:10002000000000000000000000000000B5B9010061
:100030003D0101000000000039BA01005D0101002E
:1000400005C0010005C0010005C0010005C0010098
:1000500005C0010005C0010005C0010005C0010088
:1000600005C0010005C0010005C0010005C0010078
:1000700005C0010005C0010005C0010005C0010068
:1000800005C0010005C0010005C0010005C0010058
:1000900005C0010005C0010005C0010005C0010048
:1000A00005C0010005C0010005C0010005C0010038
:1000B00005C0010005C0010005C0010005C0010028
:1000C00005C0010005C0010005C00100F073020079
:1000D00000C00720E8010000E8C107202C0900004B
:1000E00004207146084200F00480EFF309800BF011
:1000F000A7BFEFF308800BF0A3BF704708B5024815
:1001000000F0B8F9FEE700BF6A6D020008B50248CA
:1001100000F0B0F9FEE700BF756D020008B50248B7
:1001200000F0A8F9FEE700BF806D020008B50248A4
:1001300000F0A0F9FEE700BF8B6D020008B5024891
:1001400000F098F9FEE700BF986D020008B502487C
:1001500000F090F9FEE700BFA66D020008B50BF0B5
:10016000F7FB0BF087FCBDE808400BF005BC10B5B1
:100170000023934203D21C585C500433F9E710BDAE
:1001800000238B4203D200221A500433F9E7704750
:1001900015480BF00DFD14480BF00DFD134C144BDE
:1001A0009C4207D294E803000C3454F8042CFFF767
:1001B000DEFFF4E70F4B9C4205D294E80300FFF703
:1001C000DFFF0834F6E70DF0CFFC0BF00BFD02F07B
:1001D0008DFE03F09FFC4FF416400CF055F80648D6
:1001E00000F048F9FEE700BFE03F0820CC00010026
:1001F000D8000100E0000100BA6D0200134A70B59A
:100200001168034611B94FF0805111601068104910
:10021000C518104E2944B14298BF0F480B4C96BFE9
:1002200019182560216011680C4A914203D90C49C4
:10023000064A002011603BB10A4A11680131116081
:10024000094A1060094A136070BD00BFECC1072065
:10025000FF7FFFEFFE3F071014CB0720FF3F082072
:1002600000400820F4C10720E8C10720F0C10720A2
:100270000DF0B6BC0DF0BCBC0DF0BABC10B58AB028
:10028000044668460EF034F9204B214A2360089B4F
:100290002049A360079B636053B90B681E488342E3
:1002A0008ABF03F1604303F17043A3F5E823636061
:1002B0006368B3F5803F04D903F17043A3F5E823E5
:1002C00063600023E3600B6813498B4205D8C2F1D9
:1002D000405202F50C22D21A09E010498B4207D88D
:1002E000C2F1804202F58012D21A002A00DDE260DB
:1002F000E3610B4B20461B68A3610A4B1B686361DB
:10030000094B1B6823610AB010BD00BF140B00002D
:1003100014CB0720ECC1072000800010FF3F08200D
:10032000E8C10720F0C10720F4C10720FEE7000064
:10033000014B1860704700BFFCC10720014B1860DB
:10034000704700BFF8C1072008B502480EF018FA40
:10035000FEE700BF4C40020008B502480EF010FA5C
:10036000FEE700BF66400200002070470120704792
:10037000F8B5084B15461A680E461F463AB10024D8
:10038000AC4204DA30573A6890470134F8E728461F
:10039000F8BD00BFFCC10720F8B5094B0E46186830
:1003A00015461F4650B10024AC4205DA3A680020D9
:1003B000904730550134F7E725EAE570F8BD00BFF6
:1003C000F8C107207047002070470000074B1B68EA
:1003D0009A68824207D05A68824204D0DB681B1AAE
:1003E0005842584170470120704700BF6CC1072038
:1003F000002070470020704730B504468DB00028BB
:1004000035D0684609F060FC9DF80030002503F007
:100410003F0303939DF8013003A803F03F030493C7
:100420009DF802300B9503F01F0305939DF80430EF
:1004300003F01F0306939DF8053003F00F03013B03
:100440000793BDF80630C3F30B03A3F26C73089354
:100450009DF8033003F007030993BDF80830C3F398
:100460000B03013B0A930DF0E7FC84E82100002018
:100470000DB030BD10B504460BF0C2FA013C14F8C3
:10048000010F18B140B20BF03BFFF8E7BDE8104098
:100490000BF0C8BA0FB470B5C2B046AC54F8046BD8
:1004A0004FF480752A4602A800210DF0EAFB23468E
:1004B0002946324602A8019411F0AAF9044602A87E
:1004C000FFF7D8FF204642B0BDE8704004B0704747
:1004D00070B50F4C0F4D266816F0010615D1204659
:1004E0000CF064F988B14FF40E70FFF7C1FE3022B2
:1004F00080F835223A2280F8346280F8362280F87B
:100500003762286020460CF05FF9286870BD00BF94
:100510001CC2072004C2072070B50F4C0F4D236882
:1005200013F0010616D120460CF040F990B14FF4BB
:100530000E70FFF79DFE012280F83422312280F8F0
:1005400035223A2280F8362280F837622860204629
:100550000CF03AF9286870BD18C2072000C20720C5
:100560002DE9F047ADF50A7D0E4608F0E2FD041EC8
:1005700004DD0BF0B9F920460AF056FF0DF114091D
:100580002B4D4C460FCD0FC42B6810210DEB0102F3
:1005900000250AA8236004950AF070FF25498246C9
:1005A000254A304609F02DFE2F460FAC4FF00008CB
:1005B000D0451FD02368AB4218D16368049A1F440A
:1005C00022B16421B2FBF1F2B3FBF2F214F808ECB1
:1005D00000952189029289000191039330461749C1
:1005E00054F8102C59F82E3009F00BFE08F10108D0
:1005F0002034DDE70135052DD7D1049B6422DF1BB4
:10060000B3FBF2F30E490F4AB7FBF3F30097304602
:1006100009F0F7FD0AF0E8FD102804D930460A4930
:10062000102209F0EEFD01200DF50A7DBDE8F087EE
:10063000804002009F400200C6400200CB40020002
:10064000E8400200074102001241020010B5ADF57A
:10065000007D0C4668460BF05BFC204669464FF077
:10066000FF3209F097FD01200DF5007D10BD00005F
:1006700030B50C4691B02C49054608F061FC0028C5
:1006800047D008AB009309AB01930AAB02930BABC5
:1006900003930CAB04932846244906AA07AB08F041
:1006A000ADFB072801D000203BE09DF83930069AC9
:1006B0000DA862F303038DF83930079A9DF838309E
:1006C00062F304038DF83830089ABDF83A3062F3CB
:1006D0000B03ADF83A30099A9DF8363062F3040303
:1006E0008DF836300A9A9DF8353062F305038DF89F
:1006F00035300B9A9DF8343062F305038DF83430B1
:100700000C9A9DF8373062F302038DF8373009F008
:1007100005FB09F09FFB06490246204609F071FDE2
:10072000012011B030BD00BF3C4102004041020039
:10073000A2650200F7B50D463449044608F0F5FC01
:1007400040B107F04DFF284631494FF0FF3209F024
:1007500021FD57E020462F4908F0F2FB50B101215E
:100760002022204608F08EFC204608F0E0FC08F02D
:100770006DF847E02046284908F0E2FB064628B914
:100780002046264908F0DCFB074648B301212046F5
:10079000202208F077FC2046214908F0E9FB40B907
:1007A0002046204908F0E4FB002814BF022400245E
:1007B00000E001242046314607F09AFF1A4B1B4AFD
:1007C000002E18BF1A462CB1154B1649012C18BF24
:1007D0000B4600E0164B2846164909F012FD11E0C1
:1007E000204608F0A4FC1449144A0090EE23384631
:1007F00007F08CFF204608F09AFC11490246284673
:1008000009F0FFFC012003B0F0BD00BF75410200FC
:100810007B41020094410200984102009F41020086
:10082000704102006A410200594102006141020028
:1008300052590200A7410200C04102009440020048
:10084000F341020030B589B004AB002400930D469B
:100850000222194903AB0394049408F0DDFA02283C
:1008600027D107AB009305AA0398049906AB05941A
:100870000694079404F0DEFB024638B1049B284638
:1008800000930E49039B09F0BCFC10E0059A069BFF
:10089000002A079C08BF0122002B08BF012328461D
:1008A0000749B4FBF2F2B4FBF3F309F0AAFC012010
:1008B00000E0204609B030BDEA58020001420200C3
:1008C000204202002DE9F04F8846ADF2344D4349F5
:1008D000044608F0C3FB42498146204608F0E7FB86
:1008E00020463F4908F003FC3E49404609F089FC98
:1008F000204608F01CFC0122014683A806F0EEFB0E
:10090000054640B1204608F012FC374902464046F1
:1009100009F077FC5CE00DF10C0B29464FF40072F6
:1009200058460DF0AEF902950BF0DEFAAA460646DF
:100930000F4683A859464FF4007202AB06F060FCE4
:1009400008B9029B33BB83A806F03CFEB9F1000F47
:1009500019D00BF0C9FA4FF47A7200230CF01AFD8B
:100960004FF47A7204460023304639460CF012FDEB
:10097000201A14BF034601231C4940465246BAFBC5
:10098000F3F309F03EFC404619494FF0FF3209F0FD
:1009900001FC1DE09A44B9F1000FCAD14C46029BFC
:1009A0009C42D8F8003008D21BF904105B6840461E
:1009B0004FF0FF3298470134F1E700228DF807200D
:1009C0001B6840460DF107014FF0FF329847B0E732
:1009D00001200DF2344DBDE8F08F00BF4E42020001
:1009E000EA58020057420200854202009942020082
:1009F000014802002DE9F043C1B00EAB0025009381
:100A00000C4602225D490DAB0C950D950E9508F034
:100A100003FA022803D10E980CF0A3FF05460D9BA4
:100A20000BB9574B0D9317A80D9906F08AFE034694
:100A300070B1204653490D9A09F0E3FB99E08023F9
:100A400017A80FA91596169306F0BAFE013D10B926
:100A5000002D20AEF3DC20464B490D9A09F0D1FB66
:100A600000252F46802317A80FA91596169306F088
:100A7000A7FE002865D19DF94530002B61D09DF877
:100A800044000F9B10F0100F02D00135442204E007
:100A90000C9A01371A440C922D2210F0010F0CBF52
:100AA0004FF02D0E4FF0520E10F0020F0CBF4FF012
:100AB0002D094FF0480910F0040FBDF840100CBF8D
:100AC0004FF02D084FF0530810F0200F0CBF4FF0DF
:100AD0002D0C4FF0410CCDF808C04FEA612CBDF849
:100AE00042000CF2BC7CCDF80CC0C1F3431C01F0F9
:100AF0001F0105910893C1120DF14503C0F3451084
:100B0000CDF810C0069107900993CDF80090734678
:100B1000CDF8048020461D4909F073FB20461C498E
:100B20004FF0FF3209F021FB314620464FF0FF32F3
:100B300009F01BFB204617494FF0FF3209F02AFB52
:100B400090E7009540AD55F8D03D13493A46204610
:100B500009F057FB0D9829460BAA06F060FE40B934
:100B60000B9B20469A780C9B0C495A43520809F07B
:100B700048FB012041B0BDE8F08300BFEA58020005
:100B8000B4420200B7420200DB420200F642020019
:100B900023430200014802002743020051430200A0
:100BA00070B50E46054608F0C2FA0446284608F01D
:100BB000BEFA06F0F6FE064A064B0749002818BFA3
:100BC00013463046224609F01CFB012070BD00BFD1
:100BD00011450200074502006543020070B50E464C
:100BE000054608F0A4FA0446284608F0A0FA06F0E4
:100BF0007BFE064A064B0749002818BF13463046BD
:100C0000224609F0FEFA012070BD00BF1145020026
:100C100007450200814302007FB503AB0024009327
:100C20000E4602220F4902AB0294039408F0F4F836
:100C3000022814D1029D039C2846214606F05CFF41
:100C4000094B0A4A0A49002814BF1046184600906A
:100C50002A463046234609F0D4FA012000E0204617
:100C600004B070BDEA5802000745020011450200B9
:100C70009343020030B5ADF50D7D0C46054608F0F6
:100C800056FA0A22014603A806F028FA40B128467F
:100C900008F04DFA1F490246204609F0B2FA35E045
:100CA0008DF8070002901C4920467E2242F2107304
:100CB00009F0A7FA1949204609F0A3FA236820464B
:100CC0001B680DF1070142F21072984718B19DF9A7
:100CD00007307E2B03D103A806F074FC16E003A8AE
:100CE0000DF10701012202AB06F048FB10B9029B8F
:100CF000012B02D020460A49DEE7236820465B68C4
:100D00009DF907104FF0FF329847D7E701200DF506
:100D10000D7D30BDAB430200D24302000A44020005
:100D20002A4402002DE9F047ADF5407D002304ACD4
:100D3000236003930D4600944149022203AB08F05F
:100D40006BF8022806D028463E494FF0FF3209F0E2
:100D500021FA6FE017A8216806F0F3FC18B12846C5
:100D60003949226807E017A8039906F0EAFC28B180
:100D70003649039A284609F044FA5BE040A94FF44B
:100D8000807205A808F00AF80AA880A94FF48072BA
:100D900008F004F820AB159317A880230FA9169329
:100DA00006F00EFD00283FD19DF94530002B3BD0C9
:100DB0009DF8443003F0100303F0FF06002BE9D147
:100DC000039A0DF1450305A8214908F0FAF92268B4
:100DD0000DF145031E490AA808F0F3F905A808F02B
:100DE000A6F981460AA808F0A2F9804605A80F9F37
:100DF00008F09DF982460AA808F099F932460146A2
:100E000033460096504604F015F9124B124A0097EB
:100E1000002814BF104618460190104928464A463B
:100E2000434609F0EEF9B5E70AA807F0CCFF05A89C
:100E300007F0C9FF01200DF5407DBDE8F08700BF38
:100E4000EA5802005144020096440200BB440200EA
:100E5000DB4402000745020011450200E1440200A4
:100E600070B50C462149054608F05FF9064628B1E1
:100E7000FFF752FB002100F2352009E028461C490B
:100E800008F053F950B1FFF723FB314600F235204B
:100E90000A4606F0C1FE174B17491CE028461749C1
:100EA00008F043F948B1FFF737FB012200F2352182
:100EB00006F0D6F8124B13490DE02846124908F007
:100EC00034F988B1FFF704FB012200F2352106F066
:100ED000C7F80E4B0E49002808BF19464FF0FF32E5
:100EE000204609F057F9012070BD00BF6845020097
:100EF00072450200004502000A4502007F450200DB
:100F00001745020027450200884502003E450200C1
:100F10004C45020008B508464FF0FF32084909F079
:100F200039F907F05DFB4FF4FA600AF07DFA4FF0F3
:100F30008043AA221A7200221A70012008BD00BF45
:100F4000BD4F020010B501200C4607F01BFF38B161
:100F500000210A460B4609F0F7FD2046044901E04E
:100F6000044920464FF0FF3209F014F9012010BD6A
:100F700094450200AA45020038B5064C236833B9EF
:100F80001C20FFF775F9054608F0ACFD25602068C8
:100F900038BD00BF10C207202DE9F04F0C46C7B086
:100FA0005149804607F0E4FF50498246404607F029
:100FB000DFFF4F498346404607F0DAFF002604AFC3
:100FC00005AD8146029603963E602E60BAF1000F91
:100FD00040D000954046474902AA03AB07F00EFFF8
:100FE000012807DC204644494FF0FF3209F0D2F8CF
:100FF000304675E02B6806AF002BD8BF01234FF0B9
:1010000000014FF480723846D8BF2B600CF039FED7
:10101000FFF7B2FF2B689DF908109DF90C20009393
:101020003B4609F0AEF9354A354B3649002808BF32
:1010300013462046029A09F0E4F800262B689E42E7
:101040004DDA039ABB5D324420462F4909F0D9F8A6
:101050000136F3E7BBF1000F2AD0009740462B4939
:1010600002AA03AB07F0CAFE032807D0204628498E
:101070004FF0FF3209F08EF8504631E0FFF77CFF69
:101080009DF908109DF90C2097F9003009F08EF9B0
:1010900040B1039B204600931E493A68029B09F029
:1010A000B0F81CE020461C49029A09F0AAF816E0A4
:1010B00098B102230293029BFE2B0EDCFFF75CFF2C
:1010C0009DF9081009F07DF920B120461349029AD4
:1010D00009F097F8029B0233ECE7484600E0012054
:1010E00047B0BDE8F08F00BF0D5A0200C4450200B2
:1010F000CA450200D3450200E24502001145020044
:101100000745020003460200294602003D46020050
:101110004D4602007446020094460200B1460200A9
:101120002DE9F04F5F4C91B023680E4633B92C2067
:10113000FFF79EF8054608F079FF2560D4F8008097
:10114000FFF7C6F910AC002544F80C5D00F235201D
:1011500021460CAA06F063FB48B90C9A0D9D9769CD
:101160009378023F5D435F436D087F0800E02F46A0
:101170004D4B1A689A467AB90C20FFF779F88146E8
:10118000FFF7FAFE902389F804300023C9F8000025
:10119000C9F80830CAF80090DAF8000003F038FF08
:1011A00081460CF0D1F883460BF02AFF01464846F1
:1011B0000BF070FE3D490BF077FF0CF0C5F80B907B
:1011C00020460AF005FD04F0ADFE40B308F0BCFE79
:1011D00004F092FE00240146A146A2468C420BD0A8
:1011E00020460A9104F0ECFE504594BF5046A146BB
:1011F0000A9901348246F1E708F0BEFE642202FB40
:101200000AF22B493046B2FBF1F2C2F164028DE8DA
:10121000040628492A463B4608F0F3FF05E030461D
:1012200025492A463B4608F0ECFF244C23681BB9AD
:101230000120FFF71DF82060206803F0ACFE044693
:1012400008F008FE9DF83930019003F00F03029377
:101250009DF83830009403F01F030393BDF83A3033
:101260003046C3F30B0304939DF83630144903F062
:101270001F0305939DF835305A4603F03F0306934C
:101280009DF8343003F03F030793B8F824300893F7
:10129000B8F8263009930B9B08F0B3FF012011B07A
:1012A000BDE8F08F14C2072008C2072000002041CB
:1012B000A0860100D1460200054702000CC20720AB
:1012C0001347020070B5ADF50A7D05460C4607F0E0
:1012D0008CFD0B2803DD204620490C2237E02846F0
:1012E00007F025FF0122014601A805F0F7FE06469A
:1012F00038BB01A806F066F9284607F018FF184920
:101300000246049B204608F07CFF236820469B6829
:1013100098470A200AF088F80AF06AFB284607F086
:1013200006FF0246516800680E4B03C390680E4AE0
:10133000186043F80C2C4FF08043AA221A721E70DA
:1013400007E0284607F0F3FE08490246204608F069
:1013500058FF01200DF50A7D70BD00BF94470200C3
:10136000BB470200484002400DD0ADDE02480200FB
:1013700070B5404EA4B033680546DB070C460CD46C
:1013800030460BF013FA40B14FF480600CF028FCAB
:10139000394B186030460BF017FA2846374907F0EA
:1013A000E7FD064620B30021802204A80CF069FC6A
:1013B00000230293039303AB0093314904AA02ABC9
:1013C000284607F01BFD2C4A029B116804A8039ACB
:1013D00013B903F0D0FE01E003F0F0FE294A2A49D8
:1013E0000346002B08BF1146204608F00AFF3DE0E7
:1013F0002846264907F0BCFD002838D0284604AB13
:10140000234903AA039604968DF8086007F0F6FCBA
:10141000039D049B2B44B3F5806F0DDD20461D49D1
:101420004FF4806210E0144B9DF808201B685A5559
:101430009DF9083001351E44039BEA1A049B9A4229
:1014400005DB15492046324608F0DBFE0EE0B5F517
:10145000806FF6DA236820461B6802A94FF4FA620F
:1014600098470028DFD120460C49BEE7012024B070
:1014700070BD00BF24C2072020C207202D480200F3
:1014800034480200174802001B480200444802008A
:101490004B48020055480200894802007948020082
:1014A00030B50C4687B00B49054608F0AAFEA17A74
:1014B00062880091E17A23880191E18828460291AF
:1014C00021890391A1880491034908F09AFE07B08D
:1014D00030BD00BF9A480200D04802001FB501A8E5
:1014E0000C4603F05FF802F053FD01A902462046C6
:1014F000FFF7D6FF012004B010BD00002DE9F04138
:101500008CB003AB002500930C4690463A4902226A
:1015100002AB0295039507F07FFCA84268DD0298B4
:101520000CF01FFAC7B2039818B10DF0D7FBC6B282
:1015300000E0064604A8002103F0CEFB30B12046AF
:101540002E494FF0FF3208F025FEF3E718F10008AE
:1015500018BF4FF001080223009338464146039A12
:10156000334602F049FE054638B9204624494FF07B
:10157000FF3208F00FFE01253AE0B8F1000F37D036
:1015800004A84FF47A7103F0B1FB60B39DF81030FA
:10159000BB4228D19DF817300C2B04D1204606A958
:1015A0003A46FFF77DFF2046BEB9164908F029FEEE
:1015B0009DF817309E420BDA236804AA324492F950
:1015C00008105B6820464FF0FF3298470136EFE77E
:1015D00020460D4908F015FE0AE00C494FF0FF3295
:1015E00008F0D8FD04E020460949029A08F009FEF7
:1015F00028460CB0BDE8F081EA580200EE4802002F
:101600001049020038490200F95502004C49020015
:101610006949020038B50D4607F08BFD0446C0B29B
:1016200002F0AAFC054A064B0649002808BF1346EB
:101630002846224608F0E5FD012038BD8F4902000A
:10164000074502009649020037B50C4602F018FE25
:1016500016490546204608F0D4FD154920462A467D
:1016600008F0CFFD2046114908F0CBFDD5B1114956
:10167000204608F0C6FD20460C4908F0C2FD0025B2
:10168000E8B202F0E7FD013540B181780278437895
:1016900000912046084908F0B4FDF1E720460349CF
:1016A00008F0AFFD012003B030BD00BFAD4902001E
:1016B000C8490200E2490200FD49020030B58BB082
:1016C0000AAA4FF47A730C4642F8243D174907F0F2
:1016D00095FB002502A8019903F0FEFAE0B120462F
:1016E00013499DF8082008F08CFD00259DF80F3067
:1016F0009D420BDA236802AA2A4492F908105B681B
:1017000020464FF0FF3298470135EFE72046094960
:1017100008F077FD0125DDE72DB9204606494FF099
:10172000FF3208F037FD01200BB030BD52480200F7
:10173000184A0200004802002F4A02002DE9F34730
:101740003C4D07462E688946002E62D12420FEF7C4
:101750008FFD0423044680E848008660C66020218F
:1017600030460DF079F8A668E0604FEA8608072E4B
:101770000ED81020FEF77CFD0021102282460CF0CE
:1017800080FAE368013643F808A008F10408EEE7A0
:10179000002608234FF00108636084F8208020466B
:1017A0002549264A264B00962C6006F091FC2868B5
:1017B0002449254A254B009606F08AFC28682449CE
:1017C000244A254B009606F083FC28682349244AC6
:1017D000244B009606F07CFC28682349234A244BBE
:1017E000009606F075FC28682249234A234BCDF861
:1017F000008006F06DFC28681E49214A214B0096A6
:1018000006F066FC009628681F49204A204B06F027
:101810005FFC38461F4907F088FC18B138461E495E
:1018200007F03DFD286839464A4602B0BDE8F0475A
:1018300006F030BD2CC20720DD1A0100404A02002C
:10184000474A0200BD180100814A02008A4A02008C
:10185000BD160100DE4A0200E14A02001516010031
:10186000D9560200044B0200491601004A4B0200FF
:101870002E4B0200FD14010098530200514B020050
:10188000924B0200974B0200DD140100D74B02007F
:10189000BC4B020001480200DD4B020038B5064C8B
:1018A000236833B95820FEF7E3FC054608F0ECF94D
:1018B0002560206838BD00BF28C207202DE9F04F01
:1018C000ADF2DC5D044680220DF1B40A89460DA814
:1018D00000210CF0D6F90021802250460CF0D1F9FD
:1018E00006AE002333602046009672490DAA534687
:1018F00007F084FA032801D00020D7E0EDA80DA955
:10190000012205F0EBFB05460028F5D1FFF7C6FFE5
:1019100033684DA980F853308022044608A88DF81A
:101920001750079507F03AFACDF800A048466249EB
:101930000DAA336808F065FCA846EDA86DA94FF420
:10194000007207AB05F05CFC38B1EDA805F03AFE7B
:1019500008A807F038FA0120A8E0079B002BF4D074
:101960006F1C5649079A204608F04BFC2368204616
:101970009B68984700267D1EB346079B22689E42BF
:101980000DD26DAB9957D2F804C0204603934FF0A7
:10199000FF32E047039BF35601369B44EDE7936823
:1019A0002046984708A807F0C2FB064608A807F09B
:1019B0001FFA4FF47A7302463146204608F0F8FBCE
:1019C0000121202208A807F05DFB08A807F0B1FB61
:1019D000584520D008A807F0ACFB394903465A46C1
:1019E000484608F00EFC2046364908F00AFC2368F9
:1019F00020469B689847236820461B680DF1170115
:101A00004FF47A7298470028F5D1022F07F10103AD
:101A10009BD81F46A5E7079B2B49524600932046BB
:101A2000434608F0EEFB236820469B68984708A8C9
:101A300007F07DFB064608A807F0DAF931460246B2
:101A40004FF47A73204608F0B3FB08A81F4907F04B
:101A500065FAD0B908A807F06AFB1D490246484656
:101A600008F0CFFB2046174908F0CBFB236820463F
:101A70009B689847236820461B680DF117014FF4B7
:101A80007A7298470028F5D1BFE708A8114907F0F6
:101A900006FC079B484698440F494246F09B08F0D5
:101AA000B0FB002D3FF449AF013D46E70DF2DC5D90
:101AB000BDE8F08FE24B0200F14B0200084C02003F
:101AC0001A4C020000480200414C0200574C020030
:101AD0005A4C020001480200924C02002DE9F041EC
:101AE00086B006AA0026074642F80C6D0D463D4911
:101AF00007F084F938460121202207F0C3FA039B3E
:101B0000002B64D0384607F070F900285FD0FFF74B
:101B1000C5FE8DF80B600446236820461B680DF156
:101B20000B010522984706460028F5D1039B38464D
:101B300084F8533007F0FBFA4FF0FF32014620469D
:101B400008F028FB236820469B689847264B05969B
:101B5000186837460490236820461B680DF10B0176
:101B60004FF47A72984778B10DF11501032205A858
:101B70000CF06CF89DF80B8005A804A904228DF8E0
:101B800017800CF04BF838B91822B7FBF2F302FBC0
:101B900013726AB101330BE02B6828465B684FFA79
:101BA00088F10122013798470028D4D10136D2E7C5
:101BB00028460E493A4608F024FB76B1612300938B
:101BC00028460B4932460B4B08F01BFB05E0284624
:101BD00009494FF0FF3208F0DDFA012006B0BDE8F8
:101BE000F08100BF52480200964802009E4C02005D
:101BF000C54C02007E4D0200BA4D020010B5454CA6
:101C0000454920460DF062F804F1200043490DF0EB
:101C10005DF804F1400042490DF058F804F160000D
:101C200040490DF053F804F180003F490DF04EF8A3
:101C300004F1A0003D490DF049F804F1C0003C4911
:101C40000DF044F804F1E0003A4C3B490DF03EF849
:101C500004F1200039490DF039F804F14000384909
:101C60000DF034F804F1600036490DF02FF804F15E
:101C7000800035490DF02AF804F1A00033490DF039
:101C800025F804F1C00032490DF020F804F5A070E9
:101C900030490DF01BF804F508702F490DF016F8C7
:101CA00004F5B0702D490DF011F804F500702C49C1
:101CB0000DF00CF804F1E0002A490DF007F804F5E6
:101CC000807029490DF002F804F5C07027490CF026
:101CD000FDFF04F5D07026490CF0F8FF04F5E07024
:101CE00024490CF0F3FF04F5907023490CF0EEFF4B
:101CF00004F5F07021490CF0E9FF04F570702049FB
:101D00000CF0E4FF04F578701E49BDE810400CF0BB
:101D1000DDBF00BF35C60720E64D0200F54D0200CD
:101D2000064E0200184E02002A4E0200394E0200F2
:101D30004F4E020034C207205D4E02006E4E02007C
:101D4000784E0200884E02009C4E0200AC4E02000B
:101D5000BA4E0200CC4E0200E14E0200F74E0200E5
:101D6000044F02001B4F0200294F0200384F0200AF
:101D70004F4F0200634F0200724F0200884F020073
:101D8000994F0200A34F02002DE9F043530007339F
:101D900085B023F00703002604AF0C46ADEB030D1E
:101DA000642115460096019630460A460B460DF111
:101DB000100807F0B7FB002C3DD0B3B2AB424FF098
:101DC000000319D29AB2691E8A4213D2013250001E
:101DD00034F800E00238215A1FFA8EF91FFA81FC0C
:101DE000E14538BF24F800E003F1010338BF24F8CF
:101DF0001210E7E70136E0E79EB2AE4203F10109B7
:101E00000ED234F81610002007F0FAFC00B208F8E1
:101E10001600C0F3072008EB460670704B46EBE750
:101E2000002200920192029203924046A9B2134608
:101E300007F000FD01E007F0DDFC002007F0CEFC1C
:101E400001200437BD46BDE8F083F8B500250446FF
:101E500016461F4601704580C580FFF7CFFE20461D
:101E600031463A46FFF790FF2046F8BD408870475C
:101E700080887047C08870470089704708B5064859
:101E80000CF07EFC06F0ACFB4FF08043AA221A72E5
:101E900000221A7008BD00BFAD4F020038B5054CD6
:101EA000256825B90120FEF7E3F905702060206858
:101EB00038BD00BF30C207202DE9F04788B0044686
:101EC0008946904600211022002604A81F46BDF82E
:101ED00040500BF0D6FEADF80C60FFF7DFFF8246F6
:101EE000FFF7DCFF03F053F880F004020321C2F394
:101EF0008002504603F046F89DF80C30227862F3D9
:101F0000020369F3C5038DF80C30BDF80C109DF881
:101F1000133068F38A11ADF80C1066F3C71389B259
:101F200005918DF81330002D73D05FFA85F88DF888
:101F300018803246AA42A94680F0AF80A81A072826
:101F40009DF8123010D9082161F303038DF8123087
:101F50000021BB18585C04AB0B44013107295872AF
:101F6000F7D102F1070914E008F10101891A61F3C0
:101F700003038DF8123000218BB2834201F101017D
:101F800007D2BE18F65C0DF1200E734403F8076CFF
:101F9000F2E7002004A94FF0FF3207F0D1FB414ED9
:101FA0008246C0B9337843F004033370FFF776FFFD
:101FB000012102F0D1FF3C4B3C4A009302208F23C9
:101FC0003B4906F0A3FB31783A480CF061FB5046E0
:101FD00007F004FC1BE0E38822890133E3809DF8CD
:101FE000123003F00F0313442381337859070ED5C1
:101FF00003F0FB0333702BB1FFF750FF012102F018
:10200000ABFF04E0FFF74AFF012102F0B0FF4A46B0
:1020100090E79DF81230284665F3030304A94FF0BA
:10202000FF328DF8123007F08BFB1E4D0646C0B90B
:102030002B7843F004032B70FFF730FF012102F0EF
:102040008BFF194B194A00930220A323184906F06D
:102050005DFB297817480CF01BFB304607F0BEFBF0
:102060001BE0E38822890133E3809DF8123003F0FE
:102070000F03134423812B785A070ED503F0FB037B
:102080002B702BB1FFF70AFF012102F065FF04E07E
:10209000FFF704FF012102F06AFF012008B0BDE84C
:1020A000F08700BF34C60720FF4F02005C500200DB
:1020B000CE4F0200F64F02002DE9F04F89B00646E0
:1020C0000F4614460021102204A89A46DDF84890D5
:1020D0000BF0D7FD002004A94FF0FF3207F0DCFA27
:1020E000614D8046C0B92B7843F008032B70FFF791
:1020F000D5FE012102F030FF5C4B5D4A00930220C7
:10210000BA235C4906F002FB29785B480CF0C0FA60
:10211000404607F063FBA2E07388013373802B789D
:1021200019070ED503F0F7032B702BB1FFF7B6FE9E
:10213000012102F011FF04E0FFF7B0FE012102F0DF
:1021400016FFFFF7ABFE8346FFF7A8FE02F01FFF66
:1021500080F00202C2F340025846022102F012FF50
:10216000059B03F00702ADF80C30C3F384133A70FB
:1021700023709DF81240B38804F00F042344B38009
:10218000002C6AD09DF81870B9F80030BB4201D31A
:10219000002417E039480CF0F3FA4FF000085EE035
:1021A000391B07294FF000020FDD04AB1344597AA5
:1021B0000AEB040399540132072AF6D10734A4B27A
:1021C000BC4212D3BC42EBD347E093B28B4202F144
:1021D000010208DA08A8184410F807CC0AEB04003A
:1021E00000F803C0F1E73C46ECE7002004A94FF0FB
:1021F000FF3207F051FA8346C0B92B7843F0080349
:102200002B70FFF74BFE012102F0A6FE174B184A78
:1022100000930220EE23174906F078FA2978164831
:102220000CF036FA584607F0D9FACBE77388013339
:1022300073802B781A07C5D50B4A03F0F703137088
:102240002BB1FFF72BFE012102F086FEBAE7FFF764
:1022500025FE012102F08BFEB4E7A9F800404046BC
:1022600009B0BDE8F08F00BF34C607201750020048
:1022700053500200CE4F02000E50020026500200C2
:10228000014B0360704700BFE0500200012070471F
:102290000120704701207047014B0360704700BF69
:1022A000E0500200014B0360704700BFE0500200A5
:1022B000014B0360704700BFE0500200014B036018
:1022C000704700BFE0500200014B0360704700BF41
:1022D000E050020010B5034B04460360FDF7CAFF4F
:1022E000204610BDE050020010B5034B04460360C9
:1022F000FDF7C0FF204610BDE050020010B5034BB3
:1023000004460360FDF7B6FF204610BDE050020012
:1023100010B5034B04460360FDF7ACFF204610BD2B
:10232000E050020010B5034B04460360FDF7A2FF26
:10233000204610BDE050020010B5034B0446036078
:10234000FDF798FF204610BDE05002001FB53C4B42
:102350001A889B78ADF80C208DF80E30394B1B781D
:1023600003F07A037A2B67D1374BDB78002B5BD0F5
:10237000364B1B781BB101238DF80E3041E0344BF6
:102380001B78082B50D8DFE803F0050D1820283003
:102390003F38470002238DF80E3005238DF80C30AE
:1023A00001233FE002238DF80E308DF80C30294BCD
:1023B0001A78C2B91B78BBBB1DE001238DF80E3023
:1023C00002238DF80C3004232CE001238DF80E300D
:1023D00002238DF80C30072324E001238DF80E3002
:1023E00002238DF80C3003231CE001238DF80E30FE
:1023F00002238DF80C30062314E001238DF80E30F3
:1024000002238DF80C300DE001238DF80E300223ED
:102410008DF80C30052305E0012302228DF80E30E3
:102420008DF80C208DF80D30032300930A4801210C
:10243000092203ABFFF740FD012005B05DF804FB66
:102440005851020040C707205FC7072000C007207F
:1024500041C707205CC7072042C7072030B53B4B68
:1024600085B01B7803F07A037A2B6CD1384B394C4A
:102470001A781D4602F07A017A293CD0D10704D49B
:1024800035482178354A0CF003F92B789A0704D1A6
:1024900031482178324A0CF0FBF82B785B0704D4E2
:1024A0002D4821782F4A0CF0F3F82B7813F0060F03
:1024B00004D1294821782C4A0CF0EAF82B7813F043
:1024C000050F04D124482178284A0CF0E1F823783C
:1024D0000133DBB2052B237010D925480CF050F9DD
:1024E00024480CF04DF94FF47A7008F09DFF224813
:1024F000FFF7C4FC02E000221A7022701E48FFF7AA
:10250000B5FCADF808001C48FFF7B2FCADF80A00B6
:102510001948FFF7AFFCADF80C001748FFF7ACFC0B
:102520000823ADF80E000093002105226B441248E9
:10253000FFF7C2FC114B64221978013191FBF2F0D4
:1025400002FB10121A70012005B030BD40C70720F1
:1025500063C707205DC707208051020055C60720CA
:1025600095C60720B5C60720F5C60720D5C60720A3
:1025700098510200AB51020042C707204CC7072008
:1025800013B500220B46009205494FF480620446C1
:1025900006F0DEFB034B2046236002B010BD00BFF7
:1025A000BD5102002854020013B500220B460092D0
:1025B00005494FF48062044606F0CAFB034B2046EF
:1025C000236002B010BD00BFCD510200685102006F
:1025D00084B0F8B507A880E80E0086499DF8200071
:1025E00009789DF821209DF822309DF82360824DC6
:1025F00011B100232B70F8E00328804C01D8012191
:102600000DE0811E052901D8022108E0811F04295F
:1026100001D8032103E00938032801D804212170DF
:10262000032A01D801220DE0911E052901D80222BA
:1026300008E0911F042901D8032203E0093A032A84
:1026400001D804226270032B01D801230DE09A1EE9
:10265000052A01D8022308E09A1F042A01D803237F
:1026600003E0093B032B01D80423A370022E94BF7F
:102670000123002321786248E3700CF009F86178A7
:1026800060480CF005F8604FA17860480CF000F845
:102690005F4831460BF0FCFF3B78012B07D8574BC6
:1026A000DB78012B03D100232B705A4899E0667820
:1026B000524B012E05D01A78012A0BD19B78012BA1
:1026C00008D1E378012B03D100232B70524888E016
:1026D000012E06D02378012B1FD1484B9B78012B6C
:1026E0001BD1E178454AC1B910784C4B012805D17E
:1026F0009278012A09D91870494809E005D99278D9
:10270000012A02D11970474802E0012246481A7096
:102710000CF036F801232B7065E02378012B03D1F0
:1027200003232B7041485CE0344A9278012A03D19C
:1027300002232B703E4854E0022E0BD1934203D962
:1027400004232B703B484CE09A4247D305232B705F
:10275000394846E0032E11D1991E012905D8022AD5
:1027600003D906232B7035483BE0023A012A35D8BD
:10277000032B33D907232B70314832E0042E2DD19F
:1027800030480BF0FDFF304B1A78D3B2991DC9B217
:10279000052903D805232B702C4822E003F10A01F8
:1027A000C9B2052905D81D4A01232B70137028488A
:1027B00017E0591E052902D82E70264811E0053B66
:1027C000052B06D801232B70144B00221A702248C7
:1027D00007E042B908232B70204802E00823204874
:1027E0002B700BF0CDFF2B783B700120BDE8F8403B
:1027F00004B070475EC7072041C7072052C70720B3
:10280000DE510200E451020051C70720EA510200E4
:10281000F0510200F7510200005202005CC707208D
:102820000B520200235202003C5202005C52020092
:102830006D5202007D5202008C5202009C52020036
:10284000AF520200C152020056C70720D052020008
:10285000D2520200D4520200D6520200D8520200D4
:10286000DA52020084B0F8B507A880E80E009DF89F
:1028700023309DF82060012B9DF82150BDF8287071
:10288000194C18D1314619480BF002FF1848294657
:102890000BF0FEFE73B26AB29B1A13F1090F01DA54
:1028A000143605E0092B03DD1435AE1B267007E056
:1028B000751B257004E00F480BF062FF00232370A6
:1028C00094F900100C480BF0E3FE39460B480BF06E
:1028D000DFFE1E2F0A4B94BF012200221A70012036
:1028E000BDE8F84004B0704756C70720EA5202001E
:1028F000FE520200125302002D5302003B5302000D
:102900005EC70720F8B50C4D2B6893B90820FDF77A
:10291000AFFC0A4E0446336833B91C20FDF7A8FC0F
:10292000074607F0DFF837603368236040232371E0
:102930002C602868F8BD00BF3CC7072010C20720E4
:1029400038B590F831300446062B08D1FFF7DAFF8E
:102950002D2102F08BFAFFF7D5FF2D2146E000EB89
:10296000031202F138018868D0B10578FFF7CAFF79
:102970002D09092D94BFE9B205F1140102F076FA90
:1029800094F8313004EB03131B6C1D78FFF7BAFF8A
:1029900005F00F05092D94BFE9B205F1140125E0FA
:1029A000496859B1FFF7AEFF94F8313004EB0313D7
:1029B000DB6B93F9001002F08EFA23E0516BC1B18A
:1029C000926BB2B1FFF79EFF94F8313004EB031322
:1029D0005B6B93F9001002F049FAFFF793FF94F84C
:1029E000313004EB03139B6B93F9001002F04AFAA9
:1029F00008E00133072293FBF2F2C2EBC2029B1AFA
:102A000084F831301F4D2B681BB90120FDF730FCD5
:102A10002860286802F0C4FA00F00F000138072887
:102A20002DD8DFE800F004102C172C2C2C2294F861
:102A300031300722013393FBF2F2C2EBC2029B1A40
:102A400084F8313017E0104B1A7802F0030201329B
:102A50001A7010E00C4B07215A78B2FBF1F1C1EB70
:102A6000C101521A01325A7005E0074B9A7802F000
:102A7000010201329A704FF4FA7008F0D5FC01207F
:102A800038BD00BF38C7072001C0072073B5384ED6
:102A900033782BB1FFF702FA012102F05DFA04E06E
:102AA000FFF7FCF9012102F062FA00252946012214
:102AB0002B4600952F48FFF7FFF93420FDF7D8FB90
:102AC0002D494FF4806203230095044606F040F937
:102AD0002A4B2046236040F20923E36106F006F901
:102AE0003420FDF7C5FB26494FF48062032300958F
:102AF000044606F02DF9234B204623602523E3618D
:102B000006F0F4F89420FDF7B3FB022300951E496C
:102B10004FF48062044606F01BF91C4B23602346E9
:102B200010350022602D5A639A63DA631A6403F148
:102B30001003F5D1642384F83120E361204606F0C8
:102B4000D5F8134BC4F890605A1CA363114B626311
:102B500063649A1C013363660F4BA2640F4AA36639
:102B60000F4B62650132A265E36702B070BD00BF22
:102B700034C6072042C7072051530200005102000B
:102B80005F530200205102006C53020040510200CA
:102B900001C007204DC7072064C707205FC7072073
:102BA0004CC7072010B5202390B0ADF83C300FABD8
:102BB00000932F4807AB06A90DF11902FFF77CFA25
:102BC0009DF81930012B02D12948FFF757F9294CFC
:102BD000227802F07A037A2B29D09DF81930032B42
:102BE00043D19DF81830012199400A4322492348D6
:102BF00001EB431122700BF04BFD237803F07A03B5
:102C00007A2B32D110AC21231D4804F8343D0BF04F
:102C1000B7FD0A2300930021042223461448FFF73E
:102C20004BF9FFF73BF9042102F0A1F91DE0154B28
:102C30000022186806A9134607F086FFA8B9124BB0
:102C40001A7842F010021A70FFF728F9012102F0F9
:102C500083F90E4B022000930D490E4A4FF4D873AE
:102C600005F054FD0C480BF08BFD012010B010BD99
:102C700042C7072040C7072035C607207653020009
:102C80009053020058C7072034C60720CB530200D8
:102C90009C53020058540200DB530200F0B5074673
:102CA00093B0374B1B7803F07A037A2B13D0FFF7DE
:102CB000F5F8042102F050F932480BF061FD0021D3
:102CC000009102220B463048FFF7F6F84FF47A7075
:102CD00008F0AAFBE5E72D4B08AE186831464FF027
:102CE000FF32002308F000F8002846D0284B1A785D
:102CF000D1060ED502F0EF021A702AB1FFF7CEF816
:102D0000012102F029F904E0FFF7C8F8012102F0DF
:102D10002EF99DF82130063B052B2ED8DFE803F075
:102D200003282A2D0C1A9DF82020012101FA02F215
:102D3000184B19780A431FE06C460BAD0FCD0FC43A
:102D400095E8070084E80700384696E80E00FFF78C
:102D50003FFC12E06C460BAD0FCD0FC495E80700A9
:102D600084E80700384696E80E00FFF77BFD04E094
:102D7000012200E00022084B1A70012013B0F0BDC0
:102D800040C70720EA53020042C7072058C7072060
:102D900034C6072063C7072000C0072008B50221FA
:102DA0001423064A0648FFF750F820202821002265
:102DB00007F099FE034B186008BD00BF04C0072050
:102DC00042C7072058C7072001480BF0D9BC00BFF5
:102DD0005C54020038B504460D4609F0FBF9074B78
:102DE000B0FBF3F00223B0FBF3F2954201D3236171
:102DF00038BDB3F5807FFAD00233F4E740420F00CC
:102E00007FB500F235260D460122314604F028F93F
:102E1000C4B24CBB04A941F8044D304602AA04F0E8
:102E2000FEFCF8B9029A0399937892695943023AE1
:102E30005A435208B2F5004F1048114B2CBF4FF4C3
:102E4000806401244FEA510128BF0346B1FBF4F12D
:102E50008DE80A000B482946B2FBF4F20BF018FC8F
:102E6000012008E0084B00E0084B0948294662B2FF
:102E70000BF00EFC002004B070BD00BF9A5402009D
:102E800097540200A45402009D540200A154020071
:102E9000D254020038B5084D2B685BB90C20FDF701
:102EA000E7F90446FEF768F89023237100232060B9
:102EB000A3602C60286838BD08C2072010B5044CF8
:102EC00023681BB90120FDF7D3F92060206810BDED
:102ED0000CC2072010B5044C23681BB90120FDF774
:102EE000C7F92060206810BD38C70720AD49AE4A39
:102EF0004023F0B58B614FF0007393614FF4803342
:102F00008B61AA4BADF5057D1868072520F0F00010
:102F100018601868022440F050001860186820F407
:102F200040501860086840F040000860186820F4BD
:102F30007C201860186840F428201860186820F475
:102F400070001860186840F420001860186820F0BD
:102F500040401860186840F000401860586820F041
:102F60003C005860586840F028005860586820F0CD
:102F700003005860086840F480300860586820F406
:102F800040505860086820F480000860D96821F437
:102F90004031D960116841F080711160596821F4A5
:102FA00040215960596841F48021596098688049EE
:102FB00001409960116841F4897141F0010111608B
:102FC000996821F470119960996821F070419960B5
:102FD000116821F446411160D96821F03001D960AF
:102FE000D96841F03001D960D96821F47011D960F5
:102FF000136843F000731360136823F08063136059
:1030000006F0A6F90A20012108F008FF0A20012194
:1030100008F01CFF6748012105604460FFF7DAFEF5
:1030200006F022FF1520012108F0F8FE15200121ED
:1030300008F00CFF6048012105604460FFF7CAFEFC
:10304000FDF79AFF642106F017FD10B95B480BF0FD
:1030500097FB08F01FFF01F019FE10B958480BF05C
:103060008FFB4FF4FA6006F031F9FFF7ADFE09F07F
:10307000B1F809F0C1FF53490AF0CAF809F042FE5D
:1030800002460B4650480BF003FB08F09BFD052859
:1030900004AC14D1002363604C4B1B682360FFF722
:1030A00093FE4B4B4B48D96C1A6D5B6D00940BF043
:1030B000EFFAFFF789FE41F2883006F007F9FDF7D5
:1030C00007FA4549FFF79CFE054668BB43480BF0ED
:1030D000DFFA02F09FFFFDF7FBF929462A4600F2CE
:1030E000352004F099FD3E4B3E4A002814BF10469F
:1030F00018460BF045FBFDF7EBF93749FFF780FE6B
:1031000090B939480BF03CFB02F006FF0146374806
:103110000BF0BEFA02F0F0FE054602F0FDFE05FBE4
:1031200000F133480BF0B4FA324D334E2B6813F0F4
:10313000010716D1284609F039FB90B14FF40E7003
:10314000FDF796F8012280F83422312280F83522EA
:103150003A2280F8362280F837723060284609F02B
:1031600033FB30682549264EFFF74AFE11481821E7
:10317000FFF730FEFFF728FE33684BB90820FDF754
:1031800077F80546FDF7F8FE382328602B71356087
:10319000306801F0FFFD0546B0BB1A480BF0F0FAAD
:1031A00033E000BF00C0092020C0092000C0024059
:1031B000F0FCFCFF000003400080084016550200B0
:1031C00047550200002474496C55020044400240F7
:1031D0000040024084550200FC55020004560200E3
:1031E000055502000A5502004156020060560200D1
:1031F0006F56020018C2072000C2072036450200A1
:103200006CC707208A5602000125FFF743FE01F034
:10321000D3FE064618B973480BF0B2FA3546FFF7ED
:1032200071FB01F03BFE064618B96F480BF0A8FA97
:1032300035466E4E33681BB90120FDF719F8306032
:10324000306801F0FBFDFFF739FE01F0A2FEFEF74A
:1032500025FE01F05FFEFFF73DFE01F09FFEFEF749
:103260001DFE002101F058FE95B9FFF7ADFDFFF7F7
:1032700049FB2D2101F0FAFDFFF744FB2D2101F060
:1032800001FEFEF70BFE4FF0FF3101F045FE0CE0B2
:10329000FFF738FB0546FFF7FDFD01F0B9FE0AF028
:1032A00053F841B2284601F016FE002110222046B4
:1032B0000AF0E7FC4E4821460F22002301F038FFB8
:1032C00080B920460AF04DFBC5B2284600F054FEF6
:1032D000484A494B2946002808BF13464748444AF4
:1032E0000BF0D6F9FFF7EAFD01F055FE0546002088
:1032F0000CF07EFF28440BF04BFA4FF400720021D3
:1033000020460AF0BEFC204608F002FE21463C485A
:103310000BF0BEF9FFF758FD8022002120460AF08D
:10332000B0FC204602F0D4FD94F90020531C05D0D7
:103330002146D2B233480BF0ABF929E0FFF7CAFDC2
:1033400001F02EFE09281DD12F480BF019FA214655
:103350002E480BF02BFB21462D480BF099F92D48F8
:103360000BF00EFA00232C4803A903930BF01EFB6D
:103370009DF90C30592B03D1204602F089FD07E05E
:10338000264803E026480BF0FBF926480BF0F8F935
:103390004FF208031D684FF20C031E684FF2100332
:1033A0001C684FF2040319684FF470431A68AD0AA1
:1033B000B60A1D480BF06CF92A4631461B480BF043
:1033C00067F921461A480BF063F9FFF7FDFC01206D
:1033D00005F020F917480BF0D3F9FFF7F5FC0DF5D0
:1033E000057DF0BDA5560200BF56020068C7072044
:1033F000D85602008F49020010550200DE56020026
:10340000A2650200125702002E5702005057020018
:103410005557020070570200B3570200B757020019
:10342000CF570200FD5702002F5802005B580200E0
:1034300088580200A558020010B5044C23681BB937
:103440000120FCF715FF2060206810BD68C7072029
:1034500001207047F8B504460E46C06889000BF09D
:10346000FBF9A568E060AF00B5420BD20C20FCF779
:10347000FFFE0023036043600372E3680135D85107
:103480000437F1E76660F8BD38B5114B04460360B8
:103490000025636DE06D9D4205D250F82500FCF7D4
:1034A000E9FE0135F5E708B1FCF7E6FE0025A36B60
:1034B000206C9D4205D250F82500FCF7DBFE01355B
:1034C000F5E708B1FCF7D8FE024B2046236038BD73
:1034D000C8580200E050020010B50446FFF7D4FFC0
:1034E0002046FCF7C7FE204610BD0000F7B50024BB
:1034F0000B464FF4805200942549064605F028FCFF
:10350000244B042533607563B463F463346406F1BB
:1035100034000221FFF79EFF35657465B465F465DC
:10352000204660210BF098F9B46DF065A500172CCA
:103530000CD81020FCF79CFE0021102207460AF050
:10354000A0FBF36D01345F510435F0E71823736578
:10355000012386F87030104C0023A6F87430A6F8CA
:103560007630B367002200230025C6E92023C6E990
:10357000224508F0B9FC4FF47A72002309F00AFFE3
:10358000001941EB0501C6E92001304603B0F0BD4A
:10359000E0580200C8580200C0D40100F8B591E814
:1035A00060000F7A14468FB1082A0FD1304605F01B
:1035B0001CFC00281BDD28460E494FF0FF3206F0A8
:1035C000D4FD3046012105F01DFD08E00A2C05D090
:1035D0000D2C03D03046214605F036FE4FB12B6846
:1035E00028465B6821464FF0FF329847F8BD072414
:1035F000F5E7F8BDE9580200F8B504461420164670
:103600000D46FCF735FE8021074605F0CDFDA36B86
:10361000E26B9A4206D3626B991803D204F134002C
:10362000FFF718FFE36B226C591C52F82330E1635B
:1036300083E8A0001E72F8BD2DE9F043CF6B85B082
:1036400005460E4601AC4FB94FF47A7007F0ECFE18
:10365000204639460C220AF014FB4CE00B6C1B6828
:1036600093E8070084E8070000238DF8033007F093
:10367000A3FD00278046F26B97425CD2336C013A7F
:1036800053F8273097420CBF0222002218684FEAF5
:103690008709017C002936D00168D1F800C00DF1FE
:1036A0000301E04778B3F36B9F422ED2336C53F89B
:1036B000093093E8070084E807009DF903203046AD
:1036C0002146FFF76BFF08F00FFC4FF47A720023DE
:1036D00009F060FED6E92223801841EB0301C6E918
:1036E0002001029805F081FB0746029805F080FB57
:1036F000013887420CDB94E8070085E8070028467C
:1037000005B0BDE8F0830137B5E706F14403D0E723
:10371000D6E9222352EA030115D008F0E5FB4FF465
:103720007A72002309F036FED6E92023994208BFB9
:10373000904208D30CE007F03FFD4045D1D1012075
:1037400007F072FECDE79DF903300A2B8FD1D2E747
:1037500008F0CAFB4FF47A72002309F01BFED6E989
:103760002223801841EB03010023C6E920010193C5
:10377000C1E700002DE9FF41074621480AF088FF14
:1037800001A83946FFF758FF019E1EB91D480AF0EF
:10379000F7FF31E0DDF80880404605F026FB002801
:1037A0002ADD08F0A1FB0446F8B1B7F8743007F140
:1037B00050000133A7F874304146324604F06AFDE8
:1037C000114B00271868009033681DF907105B68DB
:1037D00030464FF0FF3201379847042FF4D108F0FC
:1037E00083FB011B09480AF053FF404605F002FB2A
:1037F000336830469B689847012004B0BDE8F081EB
:10380000EC58020001480200B9580200F2580200C8
:1038100038B5064C236833B92C20FCF729FD054642
:1038200006F004FC2560206838BD00BF14C20720E4
:1038300010B50446FFF7ECFF036821465B684FF0C4
:10384000FF32984740B210BD13B5002302AC04F814
:10385000013DFFF7DDFF036821461B684FF0FF3293
:1038600098479DF9070002B010BD00002DE9F04116
:1038700000F150048AB000250646009520465B49B9
:103880005B4A5C4B04F024FC009520465A495B4A95
:103890005B4B04F01DFC009520465A495A4A5B4B8D
:1038A00004F016FC0095204659495A4A5A4B04F038
:1038B0000FFC009520465949594A5A4B04F008FC20
:1038C000009520465849594A594B04F001FC00958F
:1038D00020465849584A594B04F0FAFB00952046B7
:1038E0005749584A584B04F0F3FB00952046574976
:1038F000574A584B04F0ECFB009520465649574A6E
:10390000574B04F0E5FB009520465649564A574B65
:1039100004F0DEFB009520465549564A564B04F00C
:10392000D7FB009520465549554A564B04F0D0FB2D
:10393000009520465449554A554B04F0C9FB009563
:1039400020465449544A554B04F0C2FB009520468A
:103950005349544A544B04F0BBFB0095204653494D
:10396000534A544B04F0B4FB009520465249534A45
:10397000534B04F0ADFB009520465249524A534B3D
:1039800004F0A6FB009520465149524A524B04F0E0
:103990009FFBFFF73DFF4FF480734FF41641202249
:1039A000054606F021FB012780462F744B48FCF7A3
:1039B000C5FC4B48FCF7BCFC304629463A46FFF7AD
:1039C0001BFE03A9082205A805F0E8F905A845494A
:1039D00005F065FC05A92A46204604F05BFC05A815
:1039E00005F0F1F940460AB0BDE8F081610501003B
:1039F00052590200085902004D0601003F590200C9
:103A0000475902002111010065590200575902006F
:103A100071060100AD5902006C590200C508010091
:103A2000B2590200B659020045080100555A020079
:103A3000125A0200250D0100545A0200585A020081
:103A4000F5090100A35A0200A65A0200A10B0100C9
:103A5000D45A0200DA5A0200190C0100FF5A02007F
:103A6000025B0200750C01001E7202002F5B020057
:103A7000DD0B0100545B0200575B0200990F01004F
:103A80007A5B02007E5B0200610E0100305C020086
:103A9000385C0200150F01007B5C0200825C0200B2
:103AA00035070100955C0200995C0200450F01009A
:103AB0005B5D0200615D02003D170100635502007D
:103AC000895D020071130100A75E0200B35D020070
:103AD000C512010079450200705E020049380100FC
:103AE00031380100DD4B0200014B0360704700BF1D
:103AF000E050020010B5034B04460360FCF7BAFB2C
:103B0000204610BDE050020008B501F0F9F8012090
:103B100008BD000037B5FEF7B9FF3420FCF7A8FB5D
:103B200004210446FEF72CFD204605F0DFF8342082
:103B3000FCF79EFB03210446FEF736FD204605F008
:103B4000D5F89020FCF794FB03210446FFF7CEFC48
:103B5000204605F0CBF83420FCF78AFB00244FF414
:103B60000072094900940423054605F0F1F8074B5B
:103B700028462B6005F0BAF82046214605F0C6F825
:103B80004FF0FF3003B030BD63550200F05E02001D
:103B9000242310B503FB010398420BD0417839B1BF
:103BA000018C4FF6FF741144A14228BF21460184C5
:103BB0002430F1E710BD000037B5002302A840F81B
:103BC000043D0C4B04215B6898470B4B019A1C6821
:103BD0000546141B1A60094822460421FFF7D8FF46
:103BE000074802212246FFF7D3FF281C18BF0120F7
:103BF00003B030BD70C7072038C8072084C707202E
:103C00005CC8072008B50B4B1A78037893420A4B1F
:103C100003D119880131198002E099880131998016
:103C2000064B8270DB6820219847003018BF0120C6
:103C300008BD00BF31C007202CC8072070C707206F
:103C40000A4B02781B789A42094B03D1DA88013279
:103C5000DA8002E01A8901321A810379C3F3C202C1
:103C6000073262F3C5030371FFF7CCBF31C00720F1
:103C70002CC8072010B50023064A990012F82340EB
:103C8000844201D1501810BD0133042BF4D100201F
:103C900010BD00BF49C8072070B1C3780133DBB243
:103CA000FF2BC37008D10023044A1A44D17804338F
:103CB0004908102BD170F7D1704700BF49C80720C1
:103CC00070B5242202FB0101034602468A4206D057
:103CD0001046243212F8234C002CF7D112E018467B
:103CE00000228B420ED01C791E8CC4F3C20446EA1B
:103CF0000444A2421D4624BF1446054624332246EE
:103D00002846EEE770BD000038B501310446CD000D
:103D1000FFF752FF1B4B1A7823789A4204D10221F5
:103D20001948FFF7CDFF0CE018480421FFF7C8FF42
:103D3000E37833B990F82330042543F0800380F80A
:103D40002330002380F8203080F8213090F8233091
:103D500080F8225023F07F0343EA152580F8235092
:103D60002346024604F1200153F8044B8B4242F8EB
:103D7000044BF9D1064A0379127862F3C503037143
:103D800038BD00BF31C007205CC8072084C70720AA
:103D900030C0072010B5FFF76DFF0446F8B9FFF7F4
:103DA00069FF0446D8B90F4AD378D179994238BF10
:103DB0000B46D17A34BF141D144699423CBF0B46C2
:103DC000094CD17B094A994238BF14462046042247
:103DD000002109F056FF064BDA7A0132DA722046EA
:103DE00010BD00BF49C8072051C8072055C807208B
:103DF0002CC80720F8B5242707FB021705460C46F8
:103E0000BC4200F0B38094F82310CB092BD0BDB195
:103E10002B786278934203D16E78207886421CD04A
:103E2000E87868B16878904208D122789A4205D142
:103E3000A379AA79D61A7342734100E0002363B9CB
:103E400094F82220238C01F07F0142EA01218B4269
:103E5000C0F28A802046FFF7D5FE204600212422AA
:103E600009F00FFF80E06378002B7DD0002D3CD05F
:103E70002A799209032A1AD16A782078904202D1CD
:103E800028789842E9D0E678A878864210D1934203
:103E900009D120782A78904205D1AA79A079801A90
:103EA0004242424100E00022002AD6D100E0E2B1C5
:103EB000A878E278904218D16A789A4209D120789D
:103EC0002A78904205D1A079AA79821A50425041AD
:103ED00000E0002048B12279002363F3C50284F892
:103EE000203084F8213022713EE094F82200228CA8
:103EF00001F07F0140EA01218A4235DB217900226D
:103F000084F8202084F82120C1F3C202D6B21EB169
:103F10002046FFF795FE27E08909032918D01449A8
:103F200020780978884213D1E178994210D079B18C
:103F30006379E270032262F3071363712046FFF78F
:103F40007FFE0C4A2379127862F3C503237100E0E7
:103F500001266078FFF78EFE18B10021042209F0D7
:103F600090FE002E7FF479AF243449E7F8BD00BFFE
:103F700031C0072030C00720431EDBB2FD2B9DBFA0
:103F8000024B187001200020704700BF31C007208D
:103F9000014B1878704700BF31C0072007289CBF2D
:103FA000014B1870704700BF30C007202DE9F74360
:103FB0000446914698469DF828600D4600295BD03E
:103FC000314B1F78B94259D0B8F10F0F56D800289D
:103FD00056D02022002109F054FEFF2D237914BF72
:103FE00009F00302002262F38713032262F3020343
:103FF000264A65701278277062F3C503244A23713C
:104000001378A7700133DBB21370A3710BAB01936C
:104010000EB9012713E0019BE0791A4652F8081BFC
:10402000013E01925A68F6B28718FFB2182F05D8E0
:104030000830204409F001FEE771E9E70027DFF8C6
:1040400054900123284689F80030FFF713FE0646F6
:10405000FFF722FE002389F80030637926B968F360
:1040600007136371E67005E0B27862F307136371BA
:104070007378E370384603E0084601E00020FFE76C
:1040800003B0BDE8F08300BF31C0072030C0072077
:104090005BC8072059C80720154B012270B51A705C
:1040A00004461E4608B900251DE0FFF7ABFD054696
:1040B0000028F8D022799209D11C032A01F00301CB
:1040C00006D1E3782BB16278D31A18BF012300E040
:1040D0000023012903F0010300D923B161792046AF
:1040E0000909FFF711FE00233370284670BD00BF99
:1040F00059C8072082B0F0B51746421ED2B28DB023
:10410000FD2A04460D46139301D900205AE0002BE6
:10411000FBD0159B002BF8D0179B002BF5D0169BDE
:10412000002BF2D0149B002BEFD00021482228480E
:1041300009F0A7FD00219022264809F0A2FD0021E8
:104140001022254809F09DFD00210C22234809F08A
:1041500098FD00210C22224809F093FD214B224EAC
:104160001C70224B34461D7013AD0FCD0FC42B684D
:10417000002118221E48236009F083FD39461C489F
:1041800017220AF0EBFD0020B3680146984700288B
:10419000BBD09DF8603013B9FFF70EFD12E0154A51
:1041A0000123019206220292009304A8FF2100221B
:1041B000FFF7FCFE0028A8D004A8FFF76DFF002839
:1041C000A3D0E9E70DB0BDE8F04002B0704700BFF2
:1041D0005CC8072084C7072049C807203DC80720BE
:1041E0002CC8072031C0072070C707203CC8072013
:1041F00014C80720085F020070B5182B8CB0064663
:104200000D4617D81C1C18BF0124002A14BF2146D4
:1042100084F0010171B101920293009404A8314627
:104220002A469DF84030FFF7C1FE18B104A8FFF7F9
:1042300033FF00E000200CB070BD13B504461078C9
:1042400052790B461209009203212246FFF7D4FF50
:1042500002B010BD30B500231A4608499C0011F881
:1042600023502DB1904201D1081930BD0132D2B294
:104270000133042BF1D1002030BD00BF49C8072015
:1042800000231846044A9A5C0AB10130C0B20433D4
:10429000102BF7D1704700BF49C807202DE9F04126
:1042A00088B068460021202209F0EBFC9C4B1B786B
:1042B00003F0FF04002B40F030819A4F68463B69C1
:1042C00020219847002800F08280974D6B880133A9
:1042D0006B80FFF7D5FF9DF80410A87201F007036B
:1042E000032B04D0914B1A7842F0010209E0904B65
:1042F0001D789DF80230AB4205D18C4B1A7842F004
:1043000002021A70DBE0C1F3C2019DF800E09DF8E3
:104310000600CEB2874A1319A25C724509D15A78B9
:10432000824206D19A780124961B18BF0126997003
:1043300018E003340C2CEDD17F4A136899707D4945
:10434000587001F10900834283F800E040F0C48016
:1043500011609DF800009DF80230834240F0BF805C
:10436000002426469DF80200FFF714FD9DF8022068
:1043700002709DF80220427000228270FFF78CFCD0
:10438000002C08BF012616B39DF80030AB4200F0A8
:1043900095809DF80160FF2E1BD13B686846202167
:1043A000984720B9614B1A7842F004021A709DF8C0
:1043B000053003F00F02511C61F303038DF8053043
:1043C000C3F303139A4202DA6846FFF71BFC00248A
:1043D00075E0B5422AD164B99DF807304BB13B680E
:1043E00068462021984720B9504B1A7842F00402C1
:1043F0001A709DF804309B09012B12D19DF80730EB
:1044000013B94E48182108E047480C216A46FFF7C7
:1044100014FF002852D1002001466A46FFF70DFF25
:104420004CE09DF80330002B48D1F4E7444B1B7857
:10443000002BCCD09DF8054004F00F082709B845A3
:10444000C5DA3046FFF716FC9DF8033008F1010885
:1044500068F303049D428DF8054019D19DF80420AE
:104460009209D51C05F00305012D8CBF00250125FF
:1044700008B1437800E00346032A05D19E4203D0E9
:10448000003318BF012300E000231D4330B90AE0C8
:10449000A3B91D4610B9684639460DE043788DF83A
:1044A0000330847802E08DF8030004466846FFF785
:1044B000A9FB1DB168462146FFF726FC6C46FFF7B5
:1044C0007BFB20461F490422FFF794FC20461E492F
:1044D0000222FFF78FFC20E00333136039E78542A7
:1044E0003FF43EAFFFF756FC0446FFF7D5FB2378B9
:1044F0003BB19DF80520A37802F00F029A423FF7E6
:104500002FAF9DF8003023709DF8023063709DF846
:104510000530C3F30303A37022E708B0BDE8F081C0
:1045200059C8072070C707202CC807205AC8072081
:1045300031C007203DC807202CC0072014C8072021
:104540003CC8072084C707205CC807200023184602
:10455000094A1A4452780AB10130C0B22433902B70
:10456000F6D1064B5A780AB10130C0B293F8253023
:104570000BB10130C0B2704784C707205CC8072068
:1045800008B5FFF777FB064B28B18278187802FB55
:104590000000C00008BD1B781820584308BD00BFAC
:1045A00030C0072003490B6803604B6843608B6889
:1045B000836070472CC8072030B5464C4FF48035D7
:1045C000E561454CA060E068C506FCD442488068BF
:1045D000C0B2002B77D00B46002A68D0072A3E4C89
:1045E00091F9005036DDA56091F90150083AA560B7
:1045F00091F90250A56091F90350A56091F904501A
:10460000A56091F90550A56091F90650A56001F1EA
:10461000080591F90710A1602F498C696407FBD543
:104620008C681C708C685C708C689C708968D97010
:104630002949CC68E406FBD48C68083303F8044CA1
:104640008C6803F8034C8C6803F8024C896803F803
:10465000011C1EE0032A1EDDA56091F90150043AF9
:10466000A56091F90250A5600D1D91F90310A1609C
:104670001949CC68E406FBD48C68043303F8044C75
:104680008C6803F8034C8C6803F8024C896803F8C3
:10469000011C2946A0E70131A560013AE568ED0655
:1046A000FCD40D4C0133A46803F8014C94E7094B8A
:1046B0004FF480329A6140B230BDE568ED06FCD41B
:1046C000054C0133A4689342F1DACD56024CA56043
:1046D000F3E700BF00C009200080084007B50023B1
:1046E00002A9012201F8013D00F01F001346FFF767
:1046F00063FF9DF9070003B05DF804FB07B502AB4B
:1047000003F8011D00F01F0019460122002340F0AC
:104710002000FFF751FF03B05DF804FB08B5172038
:10472000FFF7DCFFC0F3001008BD07207021FFF782
:10473000E5BF03460A466FF05F0019460023FFF706
:104740003BBF08B50020FFF7C9FFBDE8084020F0D7
:10475000010149B20020FFF7D1BF0000024B4FF02A
:104760008072DA61704700BF20C0092008B50020C0
:10477000FFF7B4FF40F0010149B20020FFF7BEFF90
:10478000024B4FF080729A6108BD00BF20C0092023
:1047900007202021FFF7B2BF00216FF01E000A465C
:1047A0000B46FFF709BF000037B50C460546FFF77B
:1047B000F3FF21462846FFF7BCFF0D4B4FF08072F8
:1047C0009A610022ADF806201C46BDF80630013380
:1047D0009BB2ADF8063033B94FF08073E361FFF759
:1047E000DBFF03B030BDFFF799FF0028EDD0F3E702
:1047F00020C0092008B51720FFF770FF00F0010066
:1048000080F0010008BD07204021FFF777BF08B501
:1048100003460A46612019460123FFF7CDFEC0F387
:10482000420008BD00216FF01D000A460B46FFF74D
:10483000C3BE70B5044600200D461646FFF74EFF76
:1048400014B100F0BF0002E040F04000C0B215B16A
:1048500000F0DF0001E040F0200016B100F0EF01B1
:1048600001E040F01001002049B2BDE87040FFF7C0
:1048700045BF10B504460020FFF730FF14B900F023
:10488000F7010DE0012C04D100F0FB0141F008011B
:1048900006E0022C14BF40F0080140F00C01C9B240
:1048A000002049B2BDE81040FFF728BF08B500203E
:1048B000FFF714FFBDE8084040F0020149B20020B4
:1048C000FFF71CBF08B50020FFF708FFBDE8084050
:1048D00020F0020149B20020FFF710BF40F6DD13BF
:1048E000984206D840F66213B0F5166F38BF1846E6
:1048F00000E01846A0F5166149B20520FFF7FEBE9C
:1049000010B504460620FFF7E9FEFA2C00F0D701A7
:1049100002D141F0200104E0B4F5FA6F08BF41F084
:104920000801062049B2BDE81040FFF7E7BE10B508
:1049300004460620FFF7D2FE032C34BF2146032194
:1049400000F0F90040EA410149B20620BDE81040FC
:10495000FFF7D4BEF9284FF0FA0305D9B0F57A6F06
:1049600088BF4FF47A6000E01846B0FBF3F3013BD8
:10497000DBB20F2928BF0F2141EA0311042049B2FD
:10498000FFF7BCBE1130C0B2162806D8202928BFB8
:10499000202140B249B2FFF7B1BE7047032804D0CE
:1049A00004280CBF0221032100E001210320FFF7AE
:1049B000A5BE03460A46302019460023FFF7FCBD7A
:1049C00003460A462A2019460023FFF7F5BD0000DA
:1049D00073B504460E461546FFF724FFFFF7DCFECD
:1049E0002B4B4FF08072DA61FFF76CFF00210A4613
:1049F0000120FFF71EFFFFF798FE0220FFF739FFA7
:104A00003046FFF76BFF2846FFF77AFF0320FFF7DA
:104A10008EFF02200321FFF771FE01200021FFF726
:104A20006DFE4FF4FA700321FFF794FF214600203A
:104A3000FFF7A8FF12200021FFF760FE13200021DE
:104A4000FFF75CFE14200021FFF758FE152000211F
:104A5000FFF754FE00211620FFF750FE0D4B18689B
:104A60001B79009005208DF80430FFF797FF68460A
:104A70000521FFF79EFF68460521FFF7A1FFFFF71D
:104A800015FF4FF4FA6004F00CFC02B070BD00BFDB
:104A900020C009200F5F020007B5094B002102AAC0
:104AA000186842F8041D0B4606F0E5F8019B1BB19F
:104AB000044B4FF080521A6003B05DF804FB00BF56
:104AC000ACC8072004ED00E070B5174E326822B97B
:104AD0000320202106F007F83060144D2A6822B91F
:104AE0000120202105F0FFFF2860114C216821B929
:104AF0000120032205F0F7FF2060202040F6C311BB
:104B00004FF4FA62FFF764FFFFF730FE1620012131
:104B1000084A04F099FF306828B1286818B1206865
:104B2000003018BF012070BDA8C80720A4C8072006
:104B3000ACC80720994A010070B5037906469B0965
:104B4000032B0CBF0D4B0E4B00221D6888B028466E
:104B50003146134605F0F8FF044660B92246234665
:104B60006946284606F0C0F82246234628463146C4
:104B700005F0EAFF0446204608B070BDA4C807202F
:104B8000A8C8072038B504460D46FFF701FA237878
:104B900083420AD0E37843B909F024FEBD2300F034
:104BA000030000FB033004F07CFBFFF7D7FDFFF7A9
:104BB000C8FD2046A9B2FFF7F7FDFFF7E9FDFFF7B3
:104BC000D5FD06F003FE022806D1044B002118682B
:104BD0000A460B4606F04FF8012038BDACC8072046
:104BE00038B504460D46FFF705FE48B1A9B2204688
:104BF000FFF70DFEFFF7FEFD08B9FFF704FE0120E9
:104C000038BD2DE9F04180460F46164606F0DEFD20
:104C1000022807D1324640463946002306F064F8A0
:104C2000C6B21CE007F060F94FF47A72002308F076
:104C3000B1FB841941F10005002240463946134674
:104C400006F052F8C6B256B907F04EF94FF47A7230
:104C5000002308F09FFB8D4208BF8442ECD270B263
:104C6000BDE8F081042938B5054603D1041C18BFFE
:104C7000012400E0002407F037F92CB14FF47A72D8
:104C8000002308F087FB2860204638BD00B50C4B98
:104C90008DB009930B4B0C4A0B930C4B0A930CAB46
:104CA00043F8102D002204920FCB8DE80F00084B23
:104CB0000121084A6A20FFF71DFA0DB05DF804FBD8
:104CC000C94A0100E14B0100654C0100854B010020
:104CD000394B0100145F02000A4603490346086885
:104CE0001946FFF78EBF00BFA8C807200A46034930
:104CF000034608681946FFF784BF00BFA4C8072011
:104D000008B506F063FD0F4B02285B6913D15A0208
:104D10000DD5FFF71BFC0C4B00284FF00001186865
:104D20000CBF4FF0FF3201220B4605F0DDFFBDE85E
:104D30000840FFF7B3BA5B02F9D5FFF707FC00287C
:104D4000F5D108BD00C00920ACC8072030B5044625
:104D50004DB253B294F904102A460068BDE83040C1
:104D600005F024BB1FB5002204AB90F9044023F8E2
:104D7000042D4AB2022100910068214605F001FB92
:104D80009DF90C009DF80D3080B243EA002080B2FE
:104D900004B010BD10B52A2104461922FFF7D6FF32
:104DA000206894F904100D2205F0EFFAB0F12A03FF
:104DB0005842584110BD0000044A13881F2B04D8E4
:104DC000581C1080024A42F823107047B4C80720CC
:104DD000B8C80720164BF0B519881E46012923D9FB
:104DE000144B00221C46481E824203F1040307DADA
:104DF00053F8040C1D680132281A43F8040CF2E73A
:104E0000636803EB530700231A4699B2814209DA1B
:104E100054F82150BD4203D9012505FA01F10A4396
:104E20000133F2E7044B1A6000233380F0BD00BF6A
:104E3000B4C80720B8C80720B0C8072008B50220AA
:104E4000012106F0EBFF084B01209A6A22F00702CD
:104E50009A629A6A42F006029A6203F51033DA689F
:104E600042F03002DA6008BD0080004008B5044A14
:104E7000CBB24171D25C0321FFF768FF08BD00BFD0
:104E8000195F020008B5044ACBB28171D25C0221DD
:104E9000FFF75CFF08BD00BF195F020038B504468C
:104EA00094F90410006805F08CFA054688B1204694
:104EB00006210022FFF74AFF204607210022FFF7C4
:104EC00045FF20462E21FFF7D1FF20462E21FFF778
:104ED000D9FF284638BD642370B591FBF3F404FB79
:104EE00013110A234CB294FBF3F603FB164303F1B0
:104EF000300149B20546FFF7C5FF092C02DC284600
:104F0000302103E006F13001284649B2BDE8704087
:104F1000FFF7ACBF012070470E4B01F00F0140F2CC
:104F2000131201709A610278D10744BF0122DA613D
:104F30000278920744BF0222DA610278510744BF27
:104F40001022DA610278120744BF4FF48072DA61EE
:104F5000704700BF20C009200122013902FA01F187
:104F600002781143C9B2017049B2FFF7D5BF0122DF
:104F7000013902FA01F1027822EA0101017049B215
:104F8000FFF7CABF0AB1FFF7E7BFFFF7F0BF00782E
:104F9000704701207047022004F014BA01207047C6
:104FA000044B5B69C3F38130C3F3412343EA8000C0
:104FB000704700BF20C0092010B50121044681229E
:104FC000FFF7C4FE206894F90410012205F0DDF912
:104FD00010F0600F0CBF0020012010BD38B500217B
:104FE0000446FFF7BFFE812285B201212046FFF76C
:104FF000ADFE102328B290FBF3F008F001F84FF05B
:10500000765108F051F8A16807F046FF38BD00005E
:1050100008B5FFF7E3FF054908F046F8044908F032
:10502000F7F84FF0844107F037FF08BD000010414A
:105030000000A0402DE9F04F0546ADF2546D0C463E
:10504000174682A8294601229B4602F047F800280D
:105050006AD121460DF22C400A2202F03FF80446A4
:1050600020B182A802F0AEFA20465DE000900190E7
:1050700082460446064606F037FF4FF47A72002354
:1050800008F088F902A980464FF4007282A86B46A6
:1050900002F0B6F80546F8B9009BEBB106F024FF24
:1050A0004FF47A72002308F075F9B6EB080866EB46
:1050B000060900EB080606F017FF4FF47A7200238A
:1050C00008F068F902A98046009A0DF22C4001AB65
:1050D00002F054F90546A0B107B13E60BBF1000FE4
:1050E00001D0CBF80040DDF878360BB1C3F800A052
:1050F00082A802F067FA0DF22C4002F063FA28460B
:1051000012E0019A009B9A42E6D106F0EDFE0023E0
:105110004FF47A7208F03EF9009BB4EB080464EB9C
:10512000040504449A44A6E70DF2546DBDE8F08FDF
:10513000F0B50446ADF50B7D0F46164621461D46DB
:1051400001A800230122009301F0C8FF044670B9B2
:105150001DB101A8294602F047FA01A83946324696
:105160006B4602F04DF8044601A802F02BFA2046E7
:105170000DF50B7DF0BDF0B50446ADF50B7D0F468A
:10518000164621461D4601A800230A22009301F07D
:10519000A5FF044670B91DB101A8294602F024FA02
:1051A00001A8394632466B4602F0E8F8044601A8E9
:1051B00002F008FA20460DF50B7DF0BDF0B504466F
:1051C000ADF50B7D0F46164621461D4601A800236E
:1051D0001222009301F082FF044680B901A80DB1AC
:1051E000294600E0049902F0FFF901A83946324649
:1051F0006B4602F0C3F8044601A802F0E3F920462A
:105200000DF50B7DF0BD00007F2816D931B1FF28C8
:1052100012D80A4B803833F810007047074A8BB217
:1052200032F81120824203D001318029F6D10B4699
:1052300003F18000C0B27047002070479A5F0200FF
:105240000023064A32F8132032B1904201D00133D4
:10525000F7E7034A32F81300704700BF9A60020074
:105260007A62020010B501200C4605F0DEFC2060D9
:10527000003018BF012010BD0120704710B5044652
:1052800006F0A4FA02280AD100210B4620464FF06E
:10529000FF3205F029FD431E5842584110BD012040
:1052A00010BD10B5044606F091FA022807D100217E
:1052B00020460A460B46BDE8104005F045BC10BD2F
:1052C00010B5044604F040FE24B1012C06D100F0D4
:1052D00089F901E000F024FD044600E0042404F014
:1052E0004BFE204610BD20B1012801D100F038BA94
:1052F00004207047F8B504460F4616461D4604F0D4
:1053000023FE3CB1012C0CD1384631462A4600F030
:105310002FFA04E0384631462A4600F04FFD044695
:1053200000E0042404F028FE2046F8BDF8B5044649
:105330000F4616461D4604F007FE3CB1012C0CD169
:10534000384631462A4600F061FA04E038463146D4
:105350002A4600F05BFD044600E0042404F00CFE45
:105360002046F8BD70B504460E46154604F0ECFD27
:1053700034B1012C0AD13046294600F0A3FA03E0EB
:105380003046294600F068FD044600E0042404F09D
:10539000F3FD204670BD08B506F0A6FD4FF47A7205
:1053A000002307F0F7FF08BD10B5044606F012FF12
:1053B000074BB0FBF3F00223B0FBF3F2944202D3AD
:1053C000044A136110BDB3F5807FF9D00233F3E7CF
:1053D00040420F0000000340044B9860DA68D20698
:1053E000FCD4024B986840B2704700BF00000340F5
:1053F00038B5FFF7D0FF00F5FA754FF0FF30FFF733
:10540000EBFF4FF0FF30FFF7E7FFC4B2FF2C07D0F0
:10541000FFF7C1FF2A460023994208BF9042F0D30C
:10542000204638BD38B5064C4FF00075E561FFF7F2
:10543000DFFF044BA5611A7842F001021A7038BDF3
:1054400020C0092032C0072070B505460E46FFF780
:10545000A2FF00F164044FF0FF30FFF7BDFFC0B2C0
:10546000FF2809D1FFF797FF22460023994208BF82
:105470009042F0D3002070BDFE28FBD1102E06D93B
:1054800028464FF40071002204F0FCFC19E02C4681
:105490004FF0FF30FFF7A0FF20704FF0FF30FFF715
:1054A0009BFF60704FF0FF30FFF796FFA0704FF04A
:1054B000FF30FFF791FF043404F8010CAB19A3424D
:1054C000E6D14FF0FF30FFF787FF4FF0FF30FFF7D7
:1054D00083FF012070BD38B505460C46FFF788FFF5
:1054E000FF281DD160B2FFF777FFFD2C1AD04FF4D3
:1054F00000714FF0FF32284604F0C4FC4FF0FF303B
:10550000FFF76AFF4FF0FF30FFF766FF4FF0FF3005
:10551000FFF762FF00F01F00431F5842584138BD9B
:10552000002038BD012038BD38B5030604460D46BD
:1055300007D577200021FFF7F7FF01283CD804F0BA
:105540007F041E4B4FF000729A61DA61FFF750FF43
:10555000FF282ED160B2FFF73FFF2816FFF73CFF70
:1055600045F30740FFF738FF45F30720FFF734FF07
:1055700068B2FFF731FF402C04D0482C0CBF8720C5
:10558000012000E0952040B2FFF726FF4C2C03D10C
:105590004FF0FF30FFF720FF0A244FF0FF30FFF7F6
:1055A0001BFF0028C3B206DA013C14F0FF04F4D15B
:1055B00001E0FF2038BD184638BD00BF20C00920DB
:1055C000064A074913784969DBB2490154BF03F021
:1055D000FD0343F003031370704700BF32C0072080
:1055E00020C009202DE9F347FFF7EAFF594B1A784D
:1055F0001E4612F0020F01D01878A7E00120FFF735
:10560000D3FE0A244FF0FF30013CFFF7E5FE14F013
:10561000FF04F7D1504D4FF00073EB61402021465D
:10562000FFF782FF0128A84602D04FF0000978E07A
:10563000FFF7B1FE4FF4D57100F57A774820FFF7F8
:1056400073FF012843D14FF0FF30FFF7C5FE0DF186
:10565000040909F804000134042CF4D19DF8063043
:10566000012BE2D19DF80730AA2BDED1FFF793FE84
:105670003C460025A94208BFA04206D3FFF78BFE97
:10568000A94208BFA042D0D207E0E9204FF08041F4
:10569000FFF74AFF0028E9D1F0E77A200021FFF761
:1056A00043FF0028C1D104464FF0FF30FFF794FEBE
:1056B00009F804000134042CF6D19DF8043013F0ED
:1056C000400F0CBF4FF004094FF00C0929E0E9200E
:1056D0002146FFF729FF01288CBF4FF001094FF049
:1056E00002098CBF4FF0410A4FF0E90AFFF753FE61
:1056F0003C460025A94208BFA0420BD3FFF74BFE52
:10570000A94208BFA0420CD34FF400715020FFF70C
:105710000BFF06E050460021FFF706FF0028E5D109
:10572000ECE70E4B83F800904FF00073C8F8183088
:10573000B9F1000F07D03378182003F0FE0333705F
:10574000FFF732FE01E0FFF76DFE3078C0B202B025
:10575000BDE8F08732C0072020C0092038C90720E3
:1057600008B5FFF72DFF014B187808BD32C00720A0
:10577000F8B5144605460E46FFF722FF002C3BD035
:105780001F4B1B78DB0739D41E4B4FF00072DA61D8
:105790001D4A1F46127812F0080F08BF7602012C2E
:1057A0000ED151203146FFF7BFFEF0B928464FF425
:1057B0000071FFF749FED0F1010438BF002414E066
:1057C00052203146FFF7B0FE78B928464FF40071F9
:1057D000FFF73AFE28B1013C14F0FF0405F500750F
:1057E000F3D14C200021FFF79FFE4FF00073201CE7
:1057F000BB6118BF0120F8BD0420F8BD0320F8BD2F
:1058000032C0072020C0092038C90720F8B5144647
:1058100005460E46FFF7D4FE002C46D0264B1A78DC
:10582000D20744D41B785B0743D4244A4FF000735B
:10583000D361234B17461B7813F0080F08BF76027D
:10584000012C0DD158203146FFF76EFE30BB2846A3
:10585000FE21FFF740FED0F1010438BF00241DE017
:1058600013F0060F03D0D7202146FFF75DFE592025
:105870003146FFF759FE88B92846FC21FFF72BFE79
:1058800028B1013C14F0FF0405F50075F4D10020A7
:10589000FD21FFF720FE002808BF01244FF0007310
:1058A000201CBB6118BF0120F8BD0420F8BD0320F7
:1058B000F8BD0220F8BD00BF32C0072020C009207B
:1058C00038C907207FB505460C46FFF779FE052D40
:1058D00018D12378012B00F00C810AD3022B40F061
:1058E0000681864B5B6983F08063C3F380636370DA
:1058F000FFE0824B586910F0806440F0FA80FFF7B7
:1059000091FDF6E07E4B1B78DB0700F1F4800E2D55
:1059100000F2E580DFE815F00F0019005100550096
:10592000E300E300E300E300E300E300AE00B200C5
:10593000B400BE00CF00714B4FF00072DA61FFF788
:1059400057FDFF3818BF0120CCE049200021FFF7A8
:10595000EBFD054608B10120C4E068461021FFF7C1
:1059600073FD0028F7D09DF800309DF808209B09B2
:10597000012B9DF8093006D1013303EB022292B2CC
:105980009202226044E09DF807109DF80A00890009
:1059900001EB92129DF80610013201F0030102EBB7
:1059A00081229DF8051003F0030301F00F0101EBC4
:1059B000D01101EB4303073B27E04FF40073238032
:1059C0008FE0504D2B7803F0040303F0FF010BB37D
:1059D000CD200021FFF7A8FD0028BCD14FF0FF30FB
:1059E000FFF7FAFC68461021FFF72EFD0028B2D021
:1059F00030254FF0FF30013DFFF7EEFC15F0FF05BD
:105A0000F7D19DF80A3010221B0902FA03F3236034
:105A1000284667E04920FFF787FD064600289AD10F
:105A200068461021FFF710FD002894D029789DF8D2
:105A30000A2001F0020101F0FF009DF80B3069B16E
:105A40009DF80D1002F03F02DB0903EB42038909C8
:105A5000013301398B403046236043E003F00301FA
:105A60005B0903EBC103C2F38402013302FB03337E
:105A7000236037E0234B1B78237032E0492000E09D
:105A80004A200021FFF750FD00287FF464AF204634
:105A900010211DE07A200021FFF746FD00287FF449
:105AA0005AAF05464FF0FF30FFF796FC60550135C1
:105AB000042DF7D115E0CD200021FFF735FD00289A
:105AC0007FF449AF4FF0FF30FFF786FC20464021BE
:105AD000FFF7BAFCD0F1010038BF002002E004203B
