:020000021000EC
:100000000040082091010100FD000100E100010015
:100010000D0101001D0101002D0101000000000083
:1000200000000000000000000000000059C40100B2
:100030003D01010000000000DDC401005D01010080
:1000400091CA010091CA010091CA010091CA010040
:1000500091CA010091CA010091CA010091CA010030
:1000600091CA010091CA010091CA010091CA010020
:1000700091CA010091CA010091CA010091CA010010
:1000800091CA010091CA010091CA010091CA010000
:1000900091CA010091CA010091CA010091CA0100F0
:1000A00091CA010091CA010091CA010091CA0100E0
:1000B00091CA010091CA010091CA010091CA0100D0
:1000C00091CA010091CA010091CA0100047D020099
:1000D00000C00720E8010000E8C10720F008000088
:1000E00004207146084200F00480EFF309800CF010
:1000F000EDBCEFF308800CF0E9BC704708B502488E
:1001000000F0B8F9FEE700BF7A76020008B50248B1
:1001100000F0B0F9FEE700BF8576020008B502489E
:1001200000F0A8F9FEE700BF9076020008B502488B
:1001300000F0A0F9FEE700BF9B76020008B5024878
:1001400000F098F9FEE700BFA876020008B5024863
:1001500000F090F9FEE700BFB676020008B50CF09B
:1001600049F90CF0D9F9BDE808400CF057B910B5C1
:100170000023934203D21C585C500433F9E710BDAE
:1001800000238B4203D200221A500433F9E7704750
:1001900010B515480CF05EFA13480CF05EFA134CDB
:1001A000134B9C4207D294E803000C3454F8042CFF
:1001B000FFF7DDFFF4E70F4B9C4205D294E8030004
:1001C000FFF7DEFF0834F6E70EF0BCFC0CF05CFA3B
:1001D00001F080FD04F0BAF94FF416400CF09AFDDE
:1001E000054800F047F9FEE700400820CC00010078
:1001F000D8000100E0000100CA760200134A70B581
:100200001168034611B94FF0805111601068104910
:10021000C518104E2944B14298BF0F480B4C96BFE9
:1002200019182560216011680C4A914203D90C49C4
:10023000064A002011603BB10A4A11680131116081
:10024000094A1060094A136070BD00BFECC1072065
:10025000FF7FFFEFFE3F0710D8CA0720FF3F0820AF
:1002600000400820F4C10720E8C10720F0C10720A2
:100270000EF0A4BC0EF0AABC0EF0A8BC10B58AB05B
:10028000044668460FF022F9204B214A2360089B60
:100290002049A360079B636053B90B681E488342E3
:1002A0008ABF03F1604303F17043A3F5E823636061
:1002B0006368B3F5803F04D903F17043A3F5E823E5
:1002C00063600023E3600B6813498B4205D8C2F1D9
:1002D000405202F50C22D21A09E010498B4207D88D
:1002E000C2F1804202F58012D21A002A00DDE260DB
:1002F000E3610B4B20461B68A3610A4B1B686361DB
:10030000094B1B6823610AB010BD00BFD80A00006A
:10031000D8CA0720ECC1072000800010FF3F08204A
:10032000E8C10720F0C10720F4C10720FEE7000064
:10033000014B1860704700BFFCC10720014B1860DB
:10034000704700BFF8C1072008B502480FF006FA51
:10035000FEE700BF084C020008B502480FF0FEF9A6
:10036000FEE700BF224C02000020704701207047CA
:10037000F8B5084B15461A680E461F463AB10024D8
:10038000AC4204DA30573A6890470134F8E728461F
:10039000F8BD00BFFCC10720F8B5094B0E46186830
:1003A00015461F4650B10024AC4205DA3A680020D9
:1003B000904730550134F7E725EAE570F8BD00BFF6
:1003C000F8C107207047002070470000074B1B68EA
:1003D0009A68824207D05A68824204D0DB681B1AAE
:1003E0005842584170470120704700BF6CC1072038
:1003F000002070470020704730B504468DB00028BB
:1004000035D068460AF0D8F99DF80030002503F091
:100410003F0303939DF8013003A803F03F030493C7
:100420009DF802300B9503F01F0305939DF80430EF
:1004300003F01F0306939DF8053003F00F03013B03
:100440000793BDF80630C3F30B03A3F26C73089354
:100450009DF8033003F007030993BDF80830C3F398
:100460000B03013B0A930EF0D5FC84E82100002029
:100470000DB030BD10B504460CF014F8013C14F872
:10048000010F18B140B20CF081FCF8E7BDE8104054
:100490000CF01AB80FB470B5C2B046AC54F8046B87
:1004A0004FF480752A4602A800210EF0D8FB23469F
:1004B0002946324602A8019412F09AF9044602A88D
:1004C000FFF7D8FF204642B0BDE8704004B0704747
:1004D00070B50F4C0F4D266816F0010615D1204659
:1004E0000CF0AAFE88B14FF40E70FFF7C1FE302267
:1004F00080F835223A2280F8346280F8362280F87B
:100500003762286020460CF0A5FE286870BD00BF49
:100510001CC2072004C2072070B50F4C0F4D236882
:1005200013F0010616D120460CF086FE90B14FF470
:100530000E70FFF79DFE012280F83422312280F8F0
:1005400035223A2280F8362280F837622860204629
:100550000CF080FE286870BD18C2072000C207207A
:100560002DE9F047ADF50A7D0E4609F092FA041E1A
:1005700004DD0BF00BFF20460BF0A8FC0DF1140975
:100580002B4D4C460FCD0FC42B6810210DEB0102F3
:1005900000250AA8236004950BF0C2FC2549824679
:1005A000254A30460AF071FB2F460FAC4FF0000889
:1005B000D0451FD02368AB4218D16368049A1F440A
:1005C00022B16421B2FBF1F2B3FBF2F214F808ECB1
:1005D00000952189029289000191039330461749C1
:1005E00054F8102C59F82E300AF04FFB08F101088E
:1005F0002034DDE70135042DD7D1049B6422DF1BB5
:10060000B3FBF2F30E490F4AB7FBF3F30097304602
:100610000AF03BFB0BF03AFB102804D930460A499C
:1006200010220AF032FB01200DF50A7DBDE8F087AB
:100630003C4C02005B4C0200824C0200874C0200E2
:10064000A44C0200C34C0200CE4C020010B5ADF524
:10065000007D0C4668460CF0FFF9204669464FF0D5
:10066000FF320AF0DBFA01200DF5007D10BD00001D
:1006700030B50C4691B02C49054609F011F9002817
:1006800047D008AB009309AB01930AAB02930BABC5
:1006900003930CAB04932846244906AA07AB09F040
:1006A0005DF8072801D000203BE09DF83930069A1C
:1006B0000DA862F303038DF83930079A9DF838309E
:1006C00062F304038DF83830089ABDF83A3062F3CB
:1006D0000B03ADF83A30099A9DF8363062F3040303
:1006E0008DF836300A9A9DF8353062F305038DF89F
:1006F00035300B9A9DF8343062F305038DF83430B1
:100700000C9A9DF8373062F302038DF837300AF007
:100710007DF80AF017F90649024620460AF0B5FAB4
:10072000012011B030BD00BFF84C0200FC4C0200AB
:100730001A6F020037B50D461949044609F0A5F9AC
:1007400040B108F023FC284616494FF0FF320AF06A
:1007500065FA21E02046144909F0A2F850B10121C0
:100760002022204609F03EF9204609F090F908F0D1
:100770001DFD11E0204609F08AF90C490C4A009051
:10078000D723012008F08AFC204609F080F90949A6
:10079000024628460AF079FA012003B030BD00BFB6
:1007A000154D02001B4D0200344D0200384D020071
:1007B000504C02006B4D020030B589B004AB0024F0
:1007C00000930D460222194903AB0394049408F0E8
:1007D000D3FF022827D107AB009305AA03980499F9
:1007E00006AB05940694079405F0FAF8024638B172
:1007F000049B284600930E49039B0AF046FA10E03A
:10080000059A069B002A079C08BF0122002B08BFFF
:10081000012328460749B4FBF2F2B4FBF3F30AF0D4
:1008200034FA012000E0204609B030BD2A5E020003
:10083000794D0200984D02002DE9F04F8846ADF247
:10084000344D4349044609F0B9F8424981462046EF
:1008500009F0DDF820463F4909F0F9F83E494046E5
:100860000AF013FA204609F012F90122014683A882
:1008700007F00AF9054640B1204609F008F9374962
:10088000024640460AF001FA5CE00DF10C0B2946E5
:100890004FF4007258460EF0E2F902950CF072F82F
:1008A000AA4606460F4683A859464FF4007202AB8B
:1008B00007F07CF908B9029B33BB83A807F058FB0B
:1008C000B9F1000F19D00CF05DF84FF47A720023E3
:1008D0000DF04EFD4FF47A7204460023304639463F
:1008E0000DF046FD201A14BF034601231C49404663
:1008F0005246BAFBF3F30AF0C8F9404619494FF0E3
:10090000FF320AF08BF91DE09A44B9F1000FCAD109
:100910004C46029B9C42D8F8003008D21BF90410C8
:100920005B6840464FF0FF3298470134F1E7002200
:100930008DF807201B6840460DF107014FF0FF328C
:100940009847B0E701200DF2344DBDE8F08F00BFAD
:10095000C64D02002A5E0200CF4D0200FD4D02008E
:10096000114E0200755302002DE9F043C1B00EABE9
:10097000002500930C4602225D490DAB0C950D95A8
:100980000E9508F0F9FE022803D10E980DF0D7FF5E
:1009900005460D9B0BB9574B0D9317A80D9907F002
:1009A000A6FB034670B1204653490D9A0AF06DF933
:1009B00099E0802317A80FA91596169307F0D6FB88
:1009C000013D10B9002D20AEF3DC20464B490D9AB5
:1009D0000AF05BF900252F46802317A80FA915966A
:1009E000169307F0C3FB002865D19DF94530002B15
:1009F00061D09DF844000F9B10F0100F02D001351C
:100A0000442204E00C9A01371A440C922D2210F073
:100A1000010F0CBF4FF02D0E4FF0520E10F0020FD1
:100A20000CBF4FF02D094FF0480910F0040FBDF82E
:100A300040100CBF4FF02D084FF0530810F0200F5E
:100A40000CBF4FF02D0C4FF0410CCDF808C04FEA11
:100A5000612CBDF842000CF2BC7CCDF80CC0C1F397
:100A6000431C01F01F0105910893C1120DF14503CC
:100A7000C0F34510CDF810C0069107900993CDF84A
:100A800000907346CDF8048020461D490AF0FDF819
:100A900020461C494FF0FF320AF0ABF831462046A1
:100AA0004FF0FF320AF0A5F8204617494FF0FF3209
:100AB0000AF0B4F890E7009540AD55F8D03D1349E1
:100AC0003A4620460AF0E1F80D9829460BAA07F0AD
:100AD0007CFB40B90B9B20469A780C9B0C495A43EF
:100AE00052080AF0D2F8012041B0BDE8F08300BFFF
:100AF0002A5E02002C4E02002F4E0200534E0200CE
:100B00006E4E02009B4E0200755302009F4E020083
:100B1000C94E020070B50E46054608F0B8FF0446FF
:100B2000284608F0B4FF07F012FC064A064B0749B6
:100B3000002818BF1346304622460AF0A6F80120C6
:100B400070BD00BF895002007F500200DD4E0200E0
:100B500070B50E46054608F09AFF0446284608F090
:100B600096FF07F097FB064A064B0749002818BF77
:100B70001346304622460AF088F8012070BD00BFB7
:100B8000895002007F500200F94E02007FB503AB8E
:100B9000002400930E4602220F4902AB02940394F4
:100BA00008F0EAFD022814D1029D039C2846214644
:100BB00007F078FC094B0A4A0A49002814BF10467E
:100BC000184600902A46304623460AF05EF8012077
:100BD00000E0204604B070BD2A5E02007F50020093
:100BE000895002000B4F020030B5ADF50D7D0C466B
:100BF000054608F04CFF0A22014603A806F044FF10
:100C000040B1284608F043FF1F49024620460AF03B
:100C10003CF835E08DF8070002901C4920467E2202
:100C200042F210730AF031F8194920460AF02DF803
:100C3000236820461B680DF1070142F210729847A5
:100C400018B19DF907307E2B03D103A807F090F966
:100C500016E003A80DF10701012202AB07F064F8CA
:100C600010B9029B012B02D020460A49DEE7236817
:100C700020465B689DF907104FF0FF329847D7E791
:100C800001200DF50D7D30BD234F02004A4F0200BB
:100C9000824F0200A24F02002DE9F047ADF5407DE2
:100CA000002304AC236003930D46009441490222C3
:100CB00003AB08F061FD022806D028463E494FF0FC
:100CC000FF3209F0ABFF6FE017A8216807F00FFAB9
:100CD00018B128463949226807E017A8039907F098
:100CE00006FA28B13649039A284609F0CEFF5BE0A0
:100CF00040A94FF4807205A808F000FD0AA880A959
:100D00004FF4807208F0FAFC20AB159317A88023EB
:100D10000FA9169307F02AFA00283FD19DF9453014
:100D2000002B3BD09DF8443003F0100303F0FF0686
:100D3000002BE9D1039A0DF1450305A8214908F0DC
:100D4000F0FE22680DF145031E490AA808F0E9FEED
:100D500005A808F09CFE81460AA808F098FE804687
:100D600005A80F9F08F093FE82460AA808F08FFEA0
:100D70003246014633460096504604F031FE124B8F
:100D8000124A0097002814BF1046184601901049D7
:100D900028464A46434609F078FFB5E70AA808F016
:100DA000C2FC05A808F0BFFC01200DF5407DBDE8A0
:100DB000F08700BF2A5E0200C94F02000E500200F9
:100DC00033500200535002007F500200895002004D
:100DD0005950020070B50C462149054608F055FEF1
:100DE000064628B1FFF798FB002100F2352009E004
:100DF00028461C4908F049FE50B1FFF769FB31460F
:100E000000F235200A4607F0DDFB174B17491CE0BE
:100E10002846174908F039FE48B1FFF77DFB01224B
:100E200000F2352106F0F2FD124B13490DE0284681
:100E3000124908F02AFE88B1FFF74AFB012200F2AE
:100E4000352106F0E3FD0E4B0E49002808BF194678
:100E50004FF0FF32204609F0E1FE012070BD00BFD7
:100E6000E0500200EA500200785002008250020076
:100E7000F75002008F5002009F5002000051020004
:100E8000B6500200C450020008B508464FF0FF32C9
:100E9000084909F0C3FE08F079F84FF4FA600BF046
:100EA00015F84FF08043AA221A7200221A7001200E
:100EB00008BD00BF7065020010B501200C4608F0A7
:100EC00011FC38B100210A460B460AF081FB20468E
:100ED000044901E0044920464FF0FF3209F09EFE2C
:100EE000012010BD0C5102002251020038B5064C01
:100EF000236833B91C20FFF7BBF9054609F0BAFA9D
:100F00002560206838BD00BF10C207202DE9F04FD2
:100F10000C46C7B05149804608F0DAFC5049824679
:100F2000404608F0D5FC4F498346404608F0D0FCC7
:100F3000002604AF05AD8146029603963E602E6002
:100F4000BAF1000F40D000954046474902AA03ABD2
:100F500008F004FC012807DC204644494FF0FF322A
:100F600009F05CFE304675E02B6806AF002BD8BF59
:100F700001234FF000014FF480723846D8BF2B6038
:100F80000DF06DFEFFF7B2FF2B689DF908109DF97B
:100F90000C2000933B4609F038FF354A354B364963
:100FA000002808BF13462046029A09F06EFE00266C
:100FB0002B689E424DDA039ABB5D324420462F498E
:100FC00009F063FE0136F3E7BBF1000F2AD000976A
:100FD00040462B4902AA03AB08F0C0FB032807D008
:100FE000204628494FF0FF3209F018FE504631E004
:100FF000FFF77CFF9DF908109DF90C2097F9003050
:1010000009F018FF40B1039B204600931E493A683F
:10101000029B09F03AFE1CE020461C49029A09F0A6
:1010200034FE16E098B102230293029BFE2B0EDCE5
:10103000FFF75CFF9DF9081009F007FF20B120467B
:101040001349029A09F021FE029B0233ECE748465D
:1010500000E0012047B0BDE8F08F00BF4D5F020007
:101060003C510200425102004B5102005A51020011
:10107000895002007F5002007B510200A151020002
:10108000B5510200C5510200EC5102000C520200A1
:10109000295202002DE9F04F5F4C91B023680E46B3
:1010A00033B92C20FFF7E4F8054609F037FD256039
:1010B000D4F80080FFF70CFA10AC002544F80C5D62
:1010C00000F2352021460CAA07F07FF848B90C9AA7
:1010D0000D9D97699378023F5D435F436D087F08DC
:1010E00000E02F464D4B1A689A467AB90C20FFF75C
:1010F000BFF88146FFF7FAFE902389F804300023F9
:10110000C9F80000C9F80830CAF80090DAF8000001
:1011100004F054FC81460DF0E5F883460CF0C8FE5F
:10112000014648460CF00EFE3D490CF015FF0DF04F
:10113000D9F80B9020460BF09DFA05F0C9FB40B39F
:1011400009F07AFC05F0AEFB00240146A146A24658
:101150008C420BD020460A9105F008FC504594BF04
:101160005046A1460A9901348246F1E709F07CFC19
:10117000642202FB0AF22B493046B2FBF1F2C2F1C3
:1011800064028DE8040628492A463B4609F07DFDA5
:1011900005E0304625492A463B4609F076FD244CB9
:1011A00023681BB90120FFF763F82060206804F072
:1011B000C8FB044609F0C6FB9DF83930019003F0E6
:1011C0000F0302939DF83830009403F01F0303933C
:1011D000BDF83A303046C3F30B0304939DF8363024
:1011E000144903F01F0305939DF835305A4603F068
:1011F0003F0306939DF8343003F03F030793B8F89C
:1012000024300893B8F8263009930B9B09F03DFD74
:10121000012011B0BDE8F08F14C2072008C20720DA
:1012200000002041A0860100495202007D520200C8
:101230000CC207208B52020070B5ADF50A7D054641
:101240000C4608F082FA0B2803DD204620490C22C8
:1012500037E0284608F01BFC0122014601A806F0F1
:1012600013FC064638BB01A806F082FE284608F0AB
:101270000EFC18490246049B204609F006FD23682F
:1012800020469B6898470A200AF020FE0BF002F9DE
:10129000284608F0FCFB0246516800680E4B03C369
:1012A00090680E4A186043F80C2C4FF08043AA2235
:1012B0001A721E7007E0284608F0E9FB084902464A
:1012C000204609F0E2FC01200DF50A7D70BD00BF4B
:1012D000085302002F530200484002400DD0ADDEFB
:1012E0007653020070B5404EA4B033680546DB0764
:1012F0000C460CD430460BF09FFF40B14FF4806099
:101300000DF05CFC394B186030460BF0A3FF28460B
:10131000374908F0DDFA064620B30021802204A8F0
:101320000DF09DFC00230293039303AB009331491E
:1013300004AA02AB284608F011FA2C4A029B116855
:1013400004A8039A13B904F0ECFB01E004F00CFCD0
:10135000294A2A490346002B08BF1146204609F0B6
:1013600094FC3DE02846264908F0B2FA002838D01F
:10137000284604AB234903AA039604968DF8086017
:1013800008F0ECF9039D049B2B44B3F5806F0DDD51
:1013900020461D494FF4806210E0144B9DF8082050
:1013A0001B685A559DF9083001351E44039BEA1A03
:1013B000049B9A4205DB15492046324609F065FC3C
:1013C0000EE0B5F5806FF6DA236820461B6802A9A7
:1013D0004FF4FA6298470028DFD120460C49BEE757
:1013E000012024B070BD00BF24C2072020C2072006
:1013F000A1530200A85302008B5302008F53020036
:10140000B8530200BF530200C9530200FD5302004B
:10141000ED53020030B50C4687B00B49054609F084
:1014200034FCA17A62880091E17A23880191E188F5
:101430002846029121890391A1880491034909F06A
:1014400024FC07B030BD00BF0E540200445402001B
:101450001FB501A80C4603F0ABFD03F09FFA01A9EC
:1014600002462046FFF7D6FF012004B010BD000061
:101470002DE9F0418CB003AB002500930C4690465B
:101480003A49022202AB0295039508F075F9A84289
:1014900068DD02980DF053FAC7B2039818B10EF048
:1014A0000BFCC6B200E0064604A8002104F01AF9BD
:1014B00030B120462E494FF0FF3209F0AFFBF3E781
:1014C00018F1000818BF4FF00108022300933846B6
:1014D0004146039A334603F095FB054638B920464A
:1014E00024494FF0FF3209F099FB01253AE0B8F1A9
:1014F000000F37D004A84FF47A7104F0FDF860B300
:101500009DF81030BB4228D19DF817300C2B04D128
:10151000204606A93A46FFF77DFF2046BEB9164988
:1015200009F0B3FB9DF817309E420BDA236804AA3A
:10153000324492F908105B6820464FF0FF3298471A
:101540000136EFE720460D4909F09FFB0AE00C4900
:101550004FF0FF3209F062FB04E020460949029A8D
:1015600009F093FB28460CB0BDE8F0812A5E02002A
:101570006254020084540200AC540200F75A020084
:10158000C0540200DD54020038B50D4608F081FA5F
:101590000446C0B203F0F6F9054A064B0649002896
:1015A00008BF13462846224609F06FFB012038BDCC
:1015B000035502007F5002000A55020037B50C4661
:1015C00003F064FB16490546204609F05EFB154909
:1015D00020462A4609F059FB2046114909F055FBDF
:1015E000D5B11149204609F050FB20460C4909F0BD
:1015F0004CFB0025E8B203F033FB013540B18178A4
:101600000278437800912046084909F03EFBF1E753
:101610002046034909F039FB012003B030BD00BF6B
:10162000215502003C55020056550200715502003A
:1016300030B58BB00AAA4FF47A730C4642F8243DB9
:10164000174908F08BF8002502A8019904F04AF820
:10165000E0B1204613499DF8082009F016FB00254B
:101660009DF80F309D420BDA236802AA2A4492F9B2
:1016700008105B6820464FF0FF3298470135EFE7CE
:101680002046094909F001FB0125DDE72DB9204677
:1016900006494FF0FF3209F0C1FA01200BB030BD0E
:1016A000C65302008C55020074530200A355020079
:1016B0002DE9F3473C4D07462E688946002E62D13E
:1016C0002420FEF7D5FD0423044680E84800866008
:1016D000C660202130460EF0ADF8A668E0604FEA03
:1016E0008608072E0ED81020FEF7C2FD002110221A
:1016F00082460DF0B4FAE368013643F808A008F119
:101700000408EEE7002608234FF00108636084F820
:10171000208020462549264A264B00962C6007F05B
:10172000ADF928682449254A254B009607F0A6F90B
:1017300028682449244A254B009607F09FF9286819
:101740002349244A244B009607F098F92868234936
:10175000234A244B009607F091F928682249234A2E
:10176000234BCDF8008007F089F928681E49214AEB
:10177000214B009607F082F9009628681F49204AFD
:10178000204B07F07BF938461F4908F07EF918B165
:1017900038461E4908F033FA286839464A4602B0EE
:1017A000BDE8F04707F04CBA2CC20720511A0100DF
:1017B000B4550200BB55020031180100F555020076
:1017C000FE55020031160100525602005556020025
:1017D00089150100D75B020078560200BD15010093
:1017E000BE560200A2560200711401000757020003
:1017F000C5560200065702000B57020051140100A3
:101800004B57020030570200755302005157020037
:1018100038B5064C236833B95820FEF729FD054634
:1018200008F0AAFF2560206838BD00BF28C2072045
:101830002DE9F04FADF2DC5D044680220DF1B40AD3
:1018400089460DA800210DF00AFA00218022504699
:101850000DF005FA06AE002333602046009672496B
:101860000DAA534607F07AFF032801D00020D7E0E5
:10187000EDA80DA9012206F007F905460028F5D1CB
:10188000FFF7C6FF33684DA980F853308022044625
:1018900008A88DF81750079507F030FFCDF800A085
:1018A000484662490DAA336809F0EFF9A846EDA849
:1018B0006DA94FF4007207AB06F078F938B1EDA8C6
:1018C00006F056FB08A807F02EFF0120A8E0079BB2
:1018D000002BF4D06F1C5649079A204609F0D5F921
:1018E000236820469B68984700267D1EB346079BC9
:1018F00022689E420DD26DAB9957D2F804C02046A3
:1019000003934FF0FF32E047039BF35601369B44AD
:10191000EDE793682046984708A808F0B8F806460F
:1019200008A807F015FF4FF47A73024631462046A7
:1019300009F082F90121202208A808F053F808A82C
:1019400008F0A7F8584520D008A808F0A2F83949AF
:1019500003465A46484609F098F92046364909F0A8
:1019600094F9236820469B689847236820461B68A3
:101970000DF117014FF47A7298470028F5D1022F24
:1019800007F101039BD81F46A5E7079B2B49524649
:1019900000932046434609F078F9236820469B6867
:1019A000984708A808F073F8064608A807F0D0FE84
:1019B000314602464FF47A73204609F03DF908A8F3
:1019C0001F4907F05BFFD0B908A808F060F81D496F
:1019D0000246484609F059F92046174909F055F9D9
:1019E000236820469B689847236820461B680DF1B2
:1019F00017014FF47A7298470028F5D1BFE708A87D
:101A0000114908F0FCF8079B484698440F494246A4
:101A1000F09B09F03AF9002D3FF449AF013D46E74C
:101A20000DF2DC5DBDE8F08F5657020065570200ED
:101A30007C5702008E57020074530200B557020013
:101A4000CB570200CE570200755302000658020021
:101A50002DE9F04186B006AA0026074642F80C6D33
:101A60000D463D4907F07AFE38460121202207F055
:101A7000B9FF039B002B64D0384607F066FE0028B0
:101A80005FD0FFF7C5FE8DF80B6004462368204643
:101A90001B680DF10B010522984706460028F5D179
:101AA000039B384684F8533007F0F1FF4FF0FF32C4
:101AB0000146204609F0B2F8236820469B68984703
:101AC000264B0596186837460490236820461B6805
:101AD0000DF10B014FF47A72984778B10DF11501B1
:101AE000032205A80DF0A0F89DF80B8005A804A915
:101AF00004228DF817800DF07FF838B91822B7FB53
:101B0000F2F302FB13726AB101330BE02B68284633
:101B10005B684FFA88F10122013798470028D4D139
:101B20000136D2E728460E493A4609F0AEF876B1BA
:101B30006123009328460B4932460B4B09F0A5F868
:101B400005E0284609494FF0FF3209F067F8012007
:101B500006B0BDE8F08100BFC65302000A5402007F
:101B60001258020039580200F25802002E590200A1
:101B700001480DF0F3BD00BF5A59020038B50446C4
:101B80000D460BF06DF8074BB0FBF3F00223B0FBF2
:101B9000F3F2954201D3236138BDB3F5807FFAD0CB
:101BA0000233F4E740420F007FB500F235260D46C0
:101BB0000122314605F02AFFC4B24CBB04A941F80A
:101BC000044D304602AA06F000FBF8B9029A0399C8
:101BD000937892695943023A5A435208B2F5004F3A
:101BE0001048114B2CBF4FF4806401244FEA51017F
:101BF00028BF0346B1FBF4F18DE80A000B482946E3
:101C0000B2FBF4F20DF032FD012008E0084B00E0D9
:101C1000084B0948294662B20DF028FD002004B0A7
:101C200070BD00BF9859020095590200A2590200E8
:101C30009B5902009F590200D059020038B5074D48
:101C40002B684BB90820FEF713FB0446FFF74EF94B
:101C50004023206023712C60286838BD38C20720DB
:101C600038B5054C256825B90120FEF701FB057044
:101C70002060206838BD00BF34C2072038B5084D49
:101C80002B685BB90C20FEF7F3FA0446FFF72EF938
:101C90009023237100232060A3602C60286838BD46
:101CA00008C2072010B5044C23681BB90120FEF7B9
:101CB000DFFA2060206810BD0CC2072010B5044C6C
:101CC00023681BB90120FEF7D3FA2060206810BDFD
:101CD00030C20720AE49AF4A4023F0B58B614FF0C8
:101CE000007393614FF480338B61AB4BADF5057D91
:101CF0001868072520F0F00018601868022440F0EA
:101D000050001860186820F440501860086840F0CF
:101D100040000860186820F47C201860186840F4BF
:101D200028201860186820F470001860186840F4C3
:101D300020001860186820F040401860186840F0D3
:101D400000401860586820F03C005860586840F027
:101D500028005860586820F003005860086840F474
:101D600080300860586820F440505860086820F4BB
:101D700080000860D96821F44031D960116841F0D1
:101D800080711160596821F440215960596841F40B
:101D9000802159609868814901409960116841F437
:101DA000897141F001011160996821F47011996005
:101DB000996821F070419960116821F446411160E1
:101DC000D96821F03001D960D96841F03001D9607B
:101DD000D96821F47011D960136843F0007313605F
:101DE000136823F08063136007F062FF0A2001216B
:101DF0000AF06AFD0A2001210AF07EFD68480121EF
:101E000005604460FFF7BAFE08F0A6FD1520012129
:101E10000AF05AFD152001210AF06EFD61480121EA
:101E200005604460FFF7AAFEFFF760F8642108F040
:101E3000EBFA10B95C480DF091FC0AF081FD03F05B
:101E40002BFC10B959480DF089FC4FF4FA6007F0EB
:101E5000EDFEFFF78DFE0AF003FF0CF025F8544964
:101E60000CF02EF90BF094FC02460B4651480DF095
:101E7000FDFB0AF0F9FB052804AC14D100236360D4
:101E80004D4B1B682360FFF773FE4C4B4C48D96CDD
:101E90001A6D5B6D00940DF0E9FBFFF769FE41F2EE
:101EA000883007F0C3FEFEF713FB4649FFF77CFEC0
:101EB000054668BB44480DF0D9FB04F081FDFEF7F0
:101EC00007FB29462A4600F2352006F07BFB3F4BF4
:101ED0003F4A002814BF104618460DF03FFCFEF79D
:101EE000F7FA3849FFF760FE90B93A480DF036FC32
:101EF00004F0E8FC014638480DF0B8FB04F0D2FCD1
:101F0000054604F0DFFC05FB00F134480DF0AEFBA4
:101F1000334D344E2B6813F0010716D128460BF0D1
:101F20008BF990B14FF40E70FEF7A2F9012280F800
:101F30003422312280F835223A2280F8362280F885
:101F40003772306028460BF085F930682649FFF774
:101F50002BFE264E12481821FFF710FEFFF708FE51
:101F6000002007F02DF833684BB90820FEF780F900
:101F70000546FEF7BBFF382328602B7135603068BB
:101F800003F00EFC0546A8BB19480DF0E7FB32E054
:101F900000C0092020C0092000C00240F0FCFCFF66
:101FA0000000034000800840145A0200455A020015
:101FB000002474496A5A0200444002400040024032
:101FC000825A0200FA5A0200025B0200035A02001F
:101FD000085A02003F5B02005E5B02006D5B02007C
:101FE00018C2072000C20720AE50020040C20720DE
:101FF000885B02000125FFF741FE03F0B3FC0646B3
:1020000018B972480DF0AAFB3546FFF717FE03F02A
:102010001BFC064618B96E480DF0A0FB35466D4E08
:1020200033681BB90120FEF723F93060306803F0F4
:10203000DBFBFFF737FE03F082FCFFF711FE03F036
:102040003FFCFFF73BFE03F07FFCFFF709FE00219A
:1020500003F038FC95B9FFF78BFDFFF7EFFD2D215D
:1020600003F0DAFBFFF7EAFD2D2103F0E1FBFFF7B8
:10207000F7FD4FF0FF3103F025FC0CE0FFF7DEFD2C
:102080000546FFF7FBFD03F099FC0CF02BF941B27C
:10209000284603F0F6FB0021102220460CF0DFFD5D
:1020A0004D4821460F22002303F018FD80B9204639
:1020B0000CF045FCC5B2284602F064FC474A484B88
:1020C0002946002808BF13464648434A0DF0CEFA79
:1020D000FFF7E8FD03F035FC054600200FF078F827
:1020E00028440DF043FB4FF40072002120460CF011
:1020F000B6FD20460AF0B0FC21463B480DF0B6FA8A
:10210000FFF736FD8022002120460CF0A8FD204676
:1021100004F0B4FB94F90020531C05D02146D2B240
:1021200032480DF0A3FA29E0FFF7C8FD03F00EFCDA
:1021300009281DD12E480DF011FB21462D480DF028
:1021400023FC21462C480DF091FA2C480DF006FB9B
:1021500000232B4803A903930DF016FC9DF90C30C6
:10216000592B03D1204604F069FB07E0254803E022
:1021700025480DF0F3FA25480DF0F0FA4FF2080368
:102180001D684FF20C031E684FF210031C684FF2DB
:10219000040319684FF470431A68AD0AB60A1C4864
:1021A0000DF064FA2A4631461A480DF05FFA2146CE
:1021B00019480DF05BFAFFF7DBFC18480DF0CEFA7A
:1021C000FFF7D6FC0DF5057DF0BD00BFA35B020057
:1021D000BD5B02003CC20720D65B02000355020033
:1021E0000E5A0200DC5B02001A6F0200105C020053
:1021F0002C5C02004E5C0200535C02006E5C02002C
:10220000B15C0200B55C0200CD5C0200FB5C020028
:102210002D5D0200595D0200865D0200A35D020093
:10222000014B0360704700BFE05D02000120704772
:10223000012070470120704710B5034B044603602E
:10224000FEF718F8204610BDE05D0200012070473F
:10225000F8B504460E46C06889000DF0EBFAA56893
:10226000E060AF00B5420BD20C20FEF701F800236E
:10227000036043600372E3680135D8510437F1E726
:102280006660F8BD38B5114B044603600025636DE8
:10229000E06D9D4205D250F82500FDF7EBFF0135BA
:1022A000F5E708B1FDF7E8FF0025A36B206C9D4220
:1022B00005D250F82500FDF7DDFF0135F5E708B13F
:1022C000FDF7DAFF024B2046236038BD085E0200AE
:1022D000E05D020010B50446FFF7D4FF2046FDF78D
:1022E000C9FF204610BD0000F7B500240B464FF48F
:1022F000805200942549064607F0DAF9244B04255C
:1023000033607563B463F463346406F1340002210E
:10231000FFF79EFF35657465B465F465204660215E
:102320000DF088FAB46DF065A500172C0CD81020BC
:10233000FDF79EFF0021102207460CF090FCF36D84
:1023400001345F510435F0E718237365012386F8E3
:102350007030104C0023A6F87430A6F87630B367BE
:10236000002200230025C6E92023C6E922450AF001
:1023700009FB4FF47A7200230BF0FAFF001941EBCE
:102380000501C6E92001304603B0F0BD205E020021
:10239000085E0200C0D40100F8B591E860000F7A31
:1023A00014468FB1082A0FD1304607F0CEF9002825
:1023B0001BDD28460E494FF0FF3208F01AFC30466C
:1023C000012107F0CFFA08E00A2C05D00D2C03D02C
:1023D0003046214607F0E8FB4FB12B6828465B6882
:1023E00021464FF0FF329847F8BD0724F5E7F8BDC6
:1023F000295E0200F8B50446142016460D46FDF786
:1024000037FF8021074607F07FFBA36BE26B9A4200
:1024100006D3626B991803D204F13400FFF718FF5A
:10242000E36B226C591C52F82330E16383E8A0006F
:102430001E72F8BD2DE9F043CF6B85B005460E4600
:1024400001AC4FB94FF47A7009F040FD204639468F
:102450000C220CF004FC4CE00B6C1B6893E80700AA
:1024600084E8070000238DF8033009F0F7FB00270C
:102470008046F26B97425CD2336C013A53F82730B6
:1024800097420CBF0222002218684FEA8709017C9C
:10249000002936D00168D1F800C00DF10301E047F2
:1024A00078B3F36B9F422ED2336C53F8093093E824
:1024B000070084E807009DF9032030462146FFF716
:1024C0006BFF0AF05FFA4FF47A7200230BF050FFB3
:1024D000D6E92223801841EB0301C6E920010298C6
:1024E00007F033F90746029807F032F901388742BE
:1024F0000CDB94E8070085E80700284605B0BDE836
:10250000F0830137B5E706F14403D0E7D6E922238B
:1025100052EA030115D00AF035FA4FF47A7200231B
:102520000BF026FFD6E92023994208BF904208D33A
:102530000CE009F093FB4045D1D1012009F0C6FC25
:10254000CDE79DF903300A2B8FD1D2E70AF01AFAB2
:102550004FF47A7200230BF00BFFD6E92223801888
:1025600041EB03010023C6E920010193C1E700000C
:102570002DE9FF41074621480DF078F801A83946BA
:10258000FFF758FF019E1EB91D480DF0E7F831E036
:10259000DDF80880404607F0D8F800282ADD0AF068
:1025A000F1F90446F8B1B7F8743007F1500001337F
:1025B000A7F874304146324606F042FB114B002723
:1025C0001868009033681DF907105B6830464FF0BB
:1025D000FF3201379847042FF4D10AF0D3F9011BD9
:1025E00009480DF043F8404607F0B4F83368304628
:1025F0009B689847012004B0BDE8F0812C5E020082
:1026000075530200F85D0200325E020038B5064CD8
:10261000236833B92C20FDF72BFE054608F07EFA1F
:102620002560206838BD00BF14C2072010B50446DD
:10263000FFF7ECFF036821465B684FF0FF329847D5
:1026400040B210BD13B5002302AC04F8013DFFF702
:10265000DDFF036821461B684FF0FF3298479DF964
:10266000070002B010BD00002DE9F04100F1500458
:102670008AB000250646009520465B495B4A5C4BC4
:1026800006F0FCF9009520465A495B4A5B4B06F080
:10269000F5F9009520465A495A4A5B4B06F0EEF987
:1026A0000095204659495A4A5A4B06F0E7F90095D9
:1026B00020465949594A5A4B06F0E0F90095204600
:1026C0005849594A594B06F0D9F9009520465849BE
:1026D000584A594B06F0D2F9009520465749584AB6
:1026E000584B06F0CBF9009520465749574A584BAE
:1026F00006F0C4F9009520465649574A574B06F054
:10270000BDF9009520465649564A574B06F0B6F992
:10271000009520465549564A564B06F0AFF90095AC
:1027200020465549554A564B06F0A8F900952046D3
:102730005449554A554B06F0A1F900952046544995
:10274000544A554B06F09AF9009520465349544A8D
:10275000544B06F093F9009520465349534A544B85
:1027600006F08CF9009520465249534A534B06F027
:1027700085F9009520465249524A534B06F07EF99E
:10278000009520465149524A524B06F077F9FFF71F
:102790003DFF4FF480734FF416412022054608F0A8
:1027A0009BF9012780462F744B48FDF7C7FD4B4826
:1027B000FDF7BEFD304629463A46FFF71BFE03A94A
:1027C000082205A806F09AFF05A8454907F017FA60
:1027D00005A92A46204606F033FA05A806F0A3FF0D
:1027E00040460AB0BDE8F08161050100925E02003A
:1027F000485E02004D0601007F5E0200875E020017
:1028000095100100A55E0200975E020071060100AE
:10281000ED5E0200AC5E020039080100F25E0200CB
:10282000F65E0200B9070100955F0200525F0200E8
:10283000990C0100945F0200985F02006909010091
:10284000E35F0200E65F0200150B01001460020066
:102850001A6002008D0B01003F600200426002001E
:10286000E90B01002E7B02006F600200510B01009A
:1028700094600200976002000D0F0100BA60020030
:10288000BE600200D50D0100706102007861020097
:10289000890E0100BB610200C26102003507010020
:1028A000D5610200D9610200B90E01000F62020079
:1028B00015620200B1160100615A02003D62020079
:1028C000E51201005B630200676202003912010039
:1028D000F150020024630200452601002D2601006C
:1028E0005157020038B5074D2B684BB90820FDF74A
:1028F000BFFC0446FEF7FAFA3823206023712C60EF
:10290000286838BD40C2072010B5474C47492046CB
:102910000DF0CAF904F1200045490DF0C5F904F1A4
:10292000400044490DF0C0F904F1600042490DF047
:10293000BBF904F1800041490DF0B6F904F1A000A3
:102940003F490DF0B1F904F1C0003E490DF0ACF97A
:1029500004F1E0003C4C3D490DF0A6F904F12000E3
:102960003B490DF0A1F904F140003A490DF09CF902
:1029700004F1600038490DF097F904F180003749FF
:102980000DF092F904F1A00035490DF08DF904F134
:10299000C00034490DF088F904F5C07032490DF0DB
:1029A00083F904F5087031490DF07EF904F5E07003
:1029B0002F490DF079F904F510702E490DF074F9D6
:1029C00004F5D0702C490DF06FF904F1E0002B49AB
:1029D0000DF06AF904F5807029490DF065F904F5E8
:1029E000A07028490DF060F904F5007026490DF03B
:1029F0005BF904F5B07025490DF056F904F5F07057
:102A000023490DF051F904F5907022490DF04CF96D
:102A100004F5707020490DF047F904F578701F49EE
:102A2000BDE810400DF040B945C607207B630200A9
:102A30008A6302009B630200AD630200BF63020071
:102A4000CE630200E463020044C20720F263020086
:102A5000036402000D6402001D6402003164020080
:102A6000416402004F640200616402007664020067
:102A70008C640200A1640200B7640200CE6402000C
:102A8000DC640200EB6402000265020016650200CD
:102A9000256502003B6502004C6502005665020098
:102AA0002DE9F0435300073385B023F007030026D8
:102AB00004AF0C46ADEB030D64211546009601965C
:102AC00030460A460B460DF1100807F0DBF9002CE2
:102AD0003DD0B3B2AB424FF0000319D29AB2691E97
:102AE0008A4213D20132500034F800E00238215AF1
:102AF0001FFA8EF91FFA81FCE14538BF24F800E087
:102B000003F1010338BF24F81210E7E70136E0E7CC
:102B10009EB2AE4203F101090ED234F81610002025
:102B200007F01EFB00B208F81600C0F3072008EB00
:102B3000460670704B46EBE700220092019202922B
:102B400003924046A9B2134607F024FB01E007F0C8
:102B500001FB002007F0F2FA01200437BD46BDE872
:102B6000F083F8B50025044616461F4601704580DF
:102B7000C580FFF7C9FE204631463A46FFF790FF71
:102B80002046F8BD4088704780887047C0887047ED
:102B90000089704708B506480CF0E0FD06F0F6F92C
:102BA0004FF08043AA221A7200221A7008BD00BF9B
:102BB000606502002DE9F04788B0044689469046DA
:102BC00000211022002604A81F46BDF840500CF03A
:102BD00046F8ADF80C60FFF743F88246FFF740F87F
:102BE00002F0ABFE80F004020321C2F380025046E3
:102BF00002F09EFE9DF80C30227862F3020369F326
:102C0000C5038DF80C30BDF80C109DF8133068F337
:102C10008A11ADF80C1066F3C71389B205918DF8CF
:102C20001330002D73D05FFA85F88DF81880324686
:102C3000AA42A94680F0AF80A81A07289DF8123052
:102C400010D9082161F303038DF812300021BB185D
:102C5000585C04AB0B44013107295872F7D102F1DB
:102C6000070914E008F10101891A61F303038DF8E3
:102C7000123000218BB2834201F1010107D2BE184C
:102C8000F65C0DF1200E734403F8076CF2E70020A8
:102C900004A94FF0FF3207F003FA414E8246C0B953
:102CA000337843F004033370FEF7DAFF012102F0BA
:102CB00029FE3C4B3C4A0093032090233B4906F0FD
:102CC000EDF931783A480CF0D1FC504607F036FA6D
:102CD0001BE0E38822890133E3809DF8123003F082
:102CE0000F0313442381337859070ED503F0FB03F8
:102CF00033702BB1FEF7B4FF012102F003FE04E0B4
:102D0000FEF7AEFF012102F008FE4A4690E79DF86B
:102D10001230284665F3030304A94FF0FF328DF803
:102D2000123007F0BDF91E4D0646C0B92B7843F0AE
:102D300004032B70FEF794FF012102F0E3FD194B11
:102D4000194A00930320A423184906F0A7F929780B
:102D500017480CF08BFC304607F0F0F91BE0E388D5
:102D600022890133E3809DF8123003F00F031344EE
:102D700023812B785A070ED503F0FB032B702BB160
:102D8000FEF76EFF012102F0BDFD04E0FEF768FFD3
:102D9000012102F0C2FD012008B0BDE8F08700BFAC
:102DA00044C60720AB650200086602008165020088
:102DB000A26502002DE9F04F89B006460F46144681
:102DC0000021102204A89A46DDF848900BF047FF36
:102DD000002004A94FF0FF3207F00EF9614D804644
:102DE000C0B92B7843F008032B70FEF739FF01219F
:102DF00002F088FD5C4B5D4A00930320BB235C49D5
:102E000006F04CF929785B480CF030FC404607F09E
:102E100095F9A2E07388013373802B7819070ED5DA
:102E200003F0F7032B702BB1FEF71AFF012102F01C
:102E300069FD04E0FEF714FF012102F06EFDFEF7CC
:102E40000FFF8346FEF70CFF02F077FD80F00202D1
:102E5000C2F340025846022102F06AFD059B03F0CE
:102E60000702ADF80C30C3F384133A7023709DF859
:102E70001240B38804F00F042344B380002C6AD0BE
:102E80009DF81870B9F80030BB4201D3002417E058
:102E900039480CF063FC4FF000085EE0391B07294D
:102EA0004FF000020FDD04AB1344597A0AEB040320
:102EB00099540132072AF6D10734A4B2BC4212D386
:102EC000BC42EBD347E093B28B4202F1010208DA35
:102ED00008A8184410F807CC0AEB040000F803C057
:102EE000F1E73C46ECE7002004A94FF0FF3207F081
:102EF00083F88346C0B92B7843F008032B70FEF7A4
:102F0000AFFE012102F0FEFC174B184A009303208C
:102F1000EF23174906F0C2F8297816480CF0A6FBF3
:102F2000584607F00BF9CBE77388013373802B7891
:102F30001A07C5D50B4A03F0F70313702BB1FEF740
:102F40008FFE012102F0DEFCBAE7FEF789FE0121C7
:102F500002F0E3FCB4E7A9F80040404609B0BDE840
:102F6000F08F00BF44C60720C3650200FF65020062
:102F700081650200BA650200D265020070B58CB0AE
:102F80000E460446FEF76CFE042102F0BBFC202333
:102F9000ADF82C300BAB0093204602A90DF10902CD
:102FA00003ABFFF707FF9DF80950022D10D12378DE
:102FB0000A20584306F03AFE012300939DF80810BA
:102FC0002046032203AB8DF80C60FFF7F3FDDEE72C
:102FD000042D05D1FEF744FE294602F09EFC04E0D4
:102FE000012DD4D12046FFF7D5FD01200CB070BDD6
:102FF000014B0360704700BFE05D0200014B0360BE
:10300000704700BFE05D0200014B0360704700BFE6
:10301000E05D020010B5034B04460360FDF72AF99A
:10302000204610BDE05D020010B5034B044603606E
:10303000FDF720F9204610BDE05D020010B5034BFE
:1030400004460360FDF716F9204610BDE05D02005E
:1030500013B500220B46009205494FF480620446E6
:1030600006F026FB034B2046236002B010BD00BFD4
:10307000B06602005866020013B500220B460092AB
:1030800005494FF48062044606F012FB034B2046CC
:10309000236002B010BD00BFC06602009866020047
:1030A00084B01FB51C4C07A880E80E002046FFF72F
:1030B00069FDADF808002046FFF766FDADF80A008F
:1030C0002046FFF763FDADF80C002046FFF760FDDA
:1030D000ADF80E003C2008F0F9FE082300932046CE
:1030E0006B4402210622FFF765FD0C4B6422197820
:1030F000013191FBF2F002FB10121A70084A08AB82
:1031000003CB084B10605160012000225A7004B0BC
:10311000BDE8104004B0704746C7072054C70720D9
:1031200056C7072098C7072084B030B504A880E8A8
:103130000E00064B0125064C5D7105AB0FCB84E8F4
:103140000F002846BDE8304004B0704763C7072031
:1031500084C7072084B038B505A880E80E000B4B63
:1031600001250B4C9D7106AB93E8070084E807002E
:1031700008480CF07BFAE17A074829400CF076FA0F
:103180002846BDE8384004B0704700BF63C7072039
:10319000B4C70720D1660200E666020084B010B50D
:1031A00003A880E80E009DF80C20184B013A042A71
:1031B00023D8DFE802F003220B131B00144C04AAEF
:1031C00003CA0022206061601A7016E0114C04AA44
:1031D00003CA0022206061609A700EE00E4C04AABF
:1031E00003CA002220606160DA7006E00B4C04AA7A
:1031F00003CA0022206061601A7100225A71084BD4
:103200000122BDE810405A7004B0704798C70720EB
:10321000C2C70720A4C70720CCC707206EC7072056
:1032200063C7072038B590F831300446062B08D123
:10323000FEF704FD2D2102F0EFFAFEF7FFFC2D2131
:1032400046E000EB031202F138018868D0B105783E
:10325000FEF7F4FC2D09092D94BFE9B205F1140124
:1032600002F0DAFA94F8313004EB03131B6C1D788A
:10327000FEF7E4FC05F00F05092D94BFE9B205F156
:10328000140125E0496859B1FEF7D8FC94F83130B3
:1032900004EB0313DB6B93F9001002F0F2FA23E066
:1032A000516BC1B1926BB2B1FEF7C8FC94F83130EA
:1032B00004EB03135B6B93F9001002F0ADFAFEF719
:1032C000BDFC94F8313004EB03139B6B93F90010B1
:1032D00002F0AEFA08E00133072293FBF2F2C2EBF0
:1032E000C2029B1A84F831300F4D2B681BB90120A4
:1032F000FCF7BEFF2860286802F028FB00F00F00F2
:1033000001280ED194F831300722013393FBF2F2F9
:10331000C2EBC2029B1A84F831304FF4FA7008F005
:10332000D5FD012038BD00BF30C2072073B52E4B3C
:103330001A781E462AB1FEF793FC012102F0E2FA48
:1033400004E0FEF78DFC012102F0E7FA1421274882
:10335000FFF714FE3420FCF78BFF0121044600F038
:10336000DBFA204606F072F93420FCF781FF0121D8
:10337000044600F03BFC204606F068F93420FCF7D8
:1033800077FF0121044600F035FD204606F05EF986
:103390009420FCF76DFF00251549012300954FF49B
:1033A0008062044606F084F9124B294623602346C6
:1033B0001031002260295A639A63DA631A6403F1B8
:1033C0001003F5D16423E36184F83120204606F030
:1033D0003DF9094BC4F8906063630133A363074B65
:1033E000E36702B070BD00BF44C6072046C7072090
:1033F000F56602003866020060C7072054C7072040
:1034000000B520238DB0ADF82C300BAB00931748DE
:1034100003AB02A90DF10902FFF7CCFC9DF80930BE
:10342000012B02D11148FFF7B5FB114B00221868A0
:1034300002A9134608F0CCF8A0B90E4B1A7842F056
:1034400010021A70FEF70CFC012102F05BFA0A4B25
:103450000320009309490A4AD82305F01FFE0948B2
:103460000CF07CF901200DB05DF804FB46C7072085
:1034700050C7072044C6072023670200FF660200EA
:103480004267020033670200F0B5664BC5B008AC76
:103490000746214618684FF0FF32002308F068F90C
:1034A000002800F0BB80604B1A78D1060ED502F0E0
:1034B000EF021A702AB1FEF7D3FB012102F022FAC3
:1034C00004E0FEF7CDFB012102F027FA9DF8213040
:1034D000053B0D2B00F2A280DFE803F007157C7698
:1034E000A0A082236143A09332536D460BAE0FCE52
:1034F0000FC596E8070085E80700384694E80E00F7
:10350000FFF7CEFD8AE06D460BAE0FCE0FC596E8F5
:10351000070085E80700384694E80E00FFF73EFEF6
:103520007CE012AD0FCC0FC50FCC0FC594E80300A3
:103530003E4B012285E803009A7013983C4B1EE035
:103540001CAD0FCC0FC50FCC0FC594E80300374B53
:103550000122DA70BDF87420364B85E803001A802A
:103560005CE026AD0FCC0FC50FCC0FC594E803006F
:103570002E4B012285E803001A7127982E4B186004
:103580004CE06D460BAE0FCE0FC596E8070085E800
:103590000700384694E80E00FFF7C6FD3EE030AD68
:1035A0000FCC0FC50FCC0FC594E803001F4B0122B1
:1035B000DA711A7244AB85E8030033F84C1D1F4AD8
:1035C0009B781180937029E01D4A012313701D4AD6
:1035D000137023E01A4B01221A700022194B0EE0DF
:1035E0003AAD0FCC0FC50FCC0FC594E803000F4BBD
:1035F000012285E803009A729DF8EC20124B1A70A4
:103600000CE06D460BAE0FCE0FC596E8070085E8BF
:103610000700384694E80E00FFF79CFD012045B0F6
:10362000F0BD00BF50C7072044C6072063C707206E
:103630007CC707209EC707205EC7072094C70720C6
:1036400082C70720D5C7072076C7072008B50621FF
:103650001223064A0648FFF784FA20202821002278
:1036600007F085FF034B186008BD00BF00C00720AE
:1036700046C7072050C7072001207047044B01228E
:103680001A70044B197801B100221A70704700BFFC
:10369000A2C7072024C00720014B0360704700BF6A
:1036A000E05D0200014B0360704700BFE05D020077
:1036B000014B0360704700BFE05D020010B5034B93
:1036C00004460360FCF7D6FD204610BDE05D020015
:1036D00010B5034B04460360FCF7CCFD204610BD3B
:1036E000E05D020010B5034B04460360FCF7C2FD29
:1036F000204610BDE05D020013B5074B01240322F4
:103700001A70002100940B220448FFF753FA044B6F
:103710009C7202B010BD00BF76C7072046C70720C5
:1037200063C7072007B50023009302210122034845
:10373000FFF740FA03B05DF804FB00BF46C707205F
:1037400070B5314B1A78012A02D801321A7070BD57
:1037500000221A702D4B1A781E460132D2B21A700E
:10376000002A40D02A4B2B481A782B4D01321A7070
:103770005A7801325A709A7801329A70DA780132A6
:10378000DA701A7901321A715A7901325A71234B5F
:10379000DC88234BDB881C44224BDB881C44224BF7
:1037A000DB881C44214BDB881C44FFF7F1F9A4B2F1
:1037B000204484B21E4B28781C80201A1D4BC0B2B6
:1037C00018700AF071FB09F0E3FF0DA3D3E90023A1
:1037D0000AF05CF9184B00220AF02EF80AF05EFAA3
:1037E000164B2C8018603378022B05D9074B00222A
:1037F0001A70134B01225A7070BD00BFAFF30080E6
:1038000000000000006AC84097C70720A1C7072032
:1038100098C7072046C7072078C7072056C7072044
:10382000C2C70720A4C70720CCC707206EC7072040
:10383000CAC70720ADC7072000005940B0C70720FE
:1038400063C70720AFF3008007B50B4B0B4A01217C
:103850001970137833B100231370094800930221C3
:10386000072204E006481170009302210822FFF7A6
:10387000A1F903B05DF804FB82C70720D5C7072074
:1038800046C70720034BC9B219701A7D5206FCD5F2
:10389000704700BF0080094010B509F0E1F91B4BEB
:1038A0004FF41634D3F8C420B0FBF4F042F0807229
:1038B000C3F8C420D3F8AC21012122F44032C3F86C
:1038C000AC21D3F8AC21C4B242F48032C3F8AC21AD
:1038D000A3F550231A69032022F470221A611A6991
:1038E00042F420221A6103F5D82380221A73197139
:1038F0001C701873412018725960054B05481A60F6
:103900004FF4FA71BDE8104006F060BE00C00F40F1
:1039100000E100E04137010013B500220B460092A0
:103920000B494FF48052044605F0C2FE094B204675
:103930002360FFF7B1FF084B02221A70074B0122E8
:103940009A721A705A7220466423E36102B010BD65
:10395000E4670200C067020076C7072063C707203C
:103960002DE9F8439DF920809DF92470994688EA55
:1039700007065E4056400F4B4E4004461546F6B2D1
:103980001E70FFF77FFF20462946FFF77BFF20468A
:103990004946FFF777FF20464146FFF773FF204671
:1039A0003946FFF76FFF204671B2BDE8F843FFF7D5
:1039B00069BF00BFD6C707202DE9F041044618466D
:1039C000174688461E460CF077F9414605462046C4
:1039D000FFF758FF39462046FFF754FF88EA0707EC
:1039E000E9B20D4D4F40204649B22F70FFF74AFF14
:1039F00016F8011B204641B149B2FFF743FF2B786F
:103A000016F8012C53402B70F2E795F90010BDE831
:103A1000F041FFF737BF00BFACC70720F7B504463A
:103A20000F46164616491A4668460CF091F8684645
:103A30000CF042F9394605462046FFF723FF314690
:103A40002046FFF71FFF7E40E9B20E4D4E40204654
:103A500049B22E70FFF716FF0DF1FF367178204640
:103A600041B149B2FFF70EFF2B7816F8012F5340F2
:103A70002B70F3E795F90010FFF704FF03B0F0BDDA
:103A8000F2660200D8C70720F0B5044687B0184692
:103A900016460F4609F07CFE9DF83020CDE9000166
:103AA000164903A80CF054F803A80CF005F93946A0
:103AB00005462046FFF7E6FE31462046FFF7E2FEC8
:103AC0007E40E9B20E4D4E40204649B22E70FFF7BF
:103AD000D9FE0DF10B067178204641B149B2FFF7CE
:103AE000D1FE2B7816F8012F53402B70F3E795F990
:103AF0000010FFF7C7FE07B0F0BD00BFE967020086
:103B000055C7072070B50A4B81F0040504460E46E0
:103B1000EDB204211D70FFF7B5FE20463146FFF7D8
:103B2000B1FE204669B2BDE87040FFF7ABBE00BFF2
:103B3000D4C70720194B13B51A78B2B100221A70F6
:103B4000174B1A78022A07D0032A4FF0010106D03A
:103B50008A4204D1022200E003221A7000E01970A8
:103B6000104A01235372104A1370104B1A7892B105
:103B700000221A700E4B01241A780E48012A06BF43
:103B800003221A701C700021094B00940B22FFF7CE
:103B900011F8044B9C7202B010BD00BF7BC7072018
:103BA000D7C7072063C70720D9C70720C0C707208A
:103BB00076C7072046C7072010B5084A012300240E
:103BC0001370074A21460748537206F0B1FC21469C
:103BD0000548BDE8104006F0ABBC00BFD7C70720C2
:103BE00063C70720DAC7072081C7072013B5002263
:103BF0000B46009207494FF40062044605F058FD59
:103C0000054B20462360FFF7D7FF32232046E361B0
:103C100002B010BDEE670200686802002DE9F843AB
:103C20004B4E4C4C3378F3B1002333702378022B86
:103C30000AD0032B0FD1484B5878C0F164000AF02A
:103C400037F90146454801E04448454906F070FC13
:103C50004448454905E00021404806F069FC4148D8
:103C6000002106F065FC2378032B09D13A4B5878E4
:103C7000C0F164000AF01CF90146384806F058FC0F
:103C80003A4D2B7A7BB33A4A002397782B7207F090
:103C9000FB07012F9046374C05D13248304906F0DA
:103CA00047FC277000E0237098F80130022B13D1F5
:103CB00094F80090B9F1000F0ED12F4F29483B78AE
:103CC0002BB1002106F034FC87F8009004E0244971
:103CD00006F02EFC01233B7098F80130012B02D135
:103CE000227802B93370AB79B3B1244B1B481A78F0
:103CF0001C460132D2B212F0010F14BF1849002144
:103D00001A7006F015FC2378052B05D91B4A0023F1
:103D1000137001223270AB71194B1B78ABB1164C8A
:103D20000E48237843B1002106F002FC0D48002123
:103D300006F0FEFB002307E0094906F0F9FB0948FD
:103D4000074906F0F5FB01232370BDE8F88300BFA7
:103D5000D9C70720D7C707209EC70720DAC7072083
:103D60000000C84281C707200000204163C7072028
:103D700094C7072062C707207AC7072080C707209B
:103D8000A3C7072008B5FFF749FF012008BD0000C1
:103D900008B5134B04201A68002142F010021A6083
:103DA0001A6842F020021A601A6842F040021A6053
:103DB0001A6842F080021A600A4A06F00DFB0520DC
:103DC0000021094A06F008FB06200021074A06F0F8
:103DD00003FBBDE8084007200021054A06F0FCBAB5
:103DE00040C00920493801007D360100F936010044
:103DF0002537010013B500220B46009207494FF406
:103E00008062044605F054FC054B20462360FFF712
:103E1000BFFF19232046E36102B010BDF467020022
:103E200098670200A34B2DE9F3411A7804463AB192
:103E300000221A70A04B197801B10F21FFF762FE22
:103E40009E4EF379DBB19E4D0023F3712B78092B45
:103E500084BF0A232B702B780BB9994A1370002367
:103E6000009395F900202046019201210822FFF7D6
:103E700077FD2046022114222B78FFF7CFFDB3787F
:103E8000002B72D08D4A8F4D002393702A780B2A15
:103E900002D90C222A7001E002B92B7000932B7812
:103EA0000121C3F10C035BB2019320460B460B22A8
:103EB000FFF756FD2B78204602211022FFF7AEFDBA
:103EC0006B78804F0B2B01D90C2300E003B97B707A
:103ED0004FF00008CDF800806B782046C3F10C034A
:103EE0005BB2019301210B220223FFF739FD0F2260
:103EF0006B7820460221FFF791FDAA78714F0B2ABB
:103F0000434602D90C22BA7002E00AB987F802804F
:103F10000093AB782046C3F10C035BB201930121FF
:103F20000B220323FFF71CFDAB78204602210E2253
:103F3000FFF774FDEB78634F0B2B01D90C2300E0E6
:103F400003B9FB7000230093EB782046C3F10C0308
:103F50005BB2019301210B220423FFF701FD2046F0
:103F600002211122EB78FFF759FDF37843B3534B4D
:103F7000554D0022DA706B78632B01D9642300E081
:103F800003B96B706B78204602211722FFF746FDBC
:103F90002B784D4F632B01D9642300E003B93B70AC
:103FA0002046022118222B78FFF738FD00230093CA
:103FB00095F900202046019201210B22FFF7D0FC49
:103FC0007378002B00F0E7803C4A404D002353708B
:103FD0002A78022A06D906222A70204600930193E5
:103FE000012103E001210093019120461322FFF7F4
:103FF000B7FC6B78022B4FF0000307D9334A062138
:104000005170204600930193012103E001210093A8
:10401000019120460B461322FFF7A2FCAB78022B3E
:104020004FF0000307D9294A0621917020460093DA
:104030000193012103E00121009301912046022315
:104040001322FFF78DFCEB78022B4FF0000307D90A
:104050001E4A0621D170204600930193012103E0FE
:10406000012100930191204603231322FFF778FCDE
:104070002B79022B4FF0000307D9144A0621117146
:10408000204600930193012103E001210093019157
:10409000204604231322FFF763FC6B79022B4FF0B9
:1040A000000315D9094A0621517120460093019356
:1040B000012111E0A2C7072024C0072063C7072001
:1040C00094C707207CC707209EC7072098C70720F2
:1040D0000121009301912046924D13220523FFF701
:1040E0003FFC02210A46AB882046FFF797FC2B884D
:1040F0008D4D204602210822FFF790FCAB88204618
:1041000002210322FFF78AFC2B88884D20460221DA
:104110000922FFF783FCAB88204602210422FFF727
:104120007DFC2B88824D204602210A22FFF776FC77
:10413000AB88204602210522FFF770FC2B887D4DBD
:10414000204602210B22FFF769FC204602210622AD
:10415000AB88FFF763FC02210C222B882046FFF777
:104160005DFC7548FEF712FD02210346072220463A
:10417000FFF754FC7048FEF705FD022103460D22AF
:104180002046FFF74BFC02216C4B00912046262273
:104190001B68FFF779FC337833B3694B00221A7040
:1041A000204602211D22674BFFF706FC2046022114
:1041B0001E22644BFFF700FC204602211F22614BA8
:1041C000FFF7FAFB2046022120225E4BFFF7F4FBAB
:1041D0002046022121225B4BFFF7EEFB2046022105
:1041E0002222584BFFF7E8FB574B1A7862B10022A6
:1041F0001A70564B20461B78022116220BB1544BE5
:1042000000E0544BFFF7D8FBB37A002B30D04C4B77
:1042100000229A72504B20461D78022D17D0032D94
:104220004FF002014FF0250209D0012D17D14B4B61
:10423000FFF7C2FB204602212322484B16E0484BE1
:10424000FFF7BAFB204602212322454B0EE0294608
:104250002522444BFFF7B0FB2046294604E0414BA2
:10426000FFF7AAFB204602213E4B2322FFF7A4FBC7
:10427000737A002B37D0324B00225A723A4B1D789A
:10428000022D19D0032D0CD0012D20D12046022162
:104290001522364BFFF790FB204602212422334B98
:1042A0001FE0204602211522314BFFF785FB2046F7
:1042B000022124222E4B14E02046294615222D4BA4
:1042C000FFF77AFB2046294624222A4B09E02046A4
:1042D00002211522284BFFF76FFB274B20460221B6
:1042E0002422FFF769FB3379002B4ED0234D144B6A
:1042F00000221A71AB782046012B18BF1346204AC2
:104300000221137013222B78FFF788FBEB782046ED
:10431000012B4FF002014FF0120233D16B78FFF7FF
:104320007DFB32E0C2C7072056C70720A4C707207D
:10433000CCC707206EC7072046C70720B0C7072095
:1043400063C70720FB67020082C70720D5C7072085
:10435000E4640200FF67020076C7072006680200D7
:104360000F68020018680200D7C707202A680200F9
:1043700020680200256802002F6802005EC707203F
:10438000A3C70720364BFFF717FB7379002B50D0DC
:10439000344D354A2E7B002316F0010653712ED082
:1043A000324A3146128900932B892046D31A93FB57
:1043B000F2F303EB830303EB83039B005BB20193F4
:1043C0000B220523FFF7CCFA288909F06DFD0322A3
:1043D000034600922046324602210626FFF754FB90
:1043E000009620466B6802211B22FFF74DFB0096CA
:1043F000204602211C222B68FFF746FB19E00093A0
:104400000193204601210B220523FFF7A9FA20463C
:1044100002210122124BFFF7CFFA204602211B2274
:104420000F4BFFF7C9FA204602211C220C4BFFF765
:10443000C3FAFEF757FA01F0C4F9022103461A2223
:104440002046FFF7EBFAFEF74DFA01F0C3F902211F
:1044500003461922204602B0BDE8F041FFF7DEBA5C
:104460003568020084C7072063C70720B4C7072048
:1044700010B50446FFF7D6FC2046FFF75BFB012092
:1044800010BD000038B5174B9A68520729D51A7825
:10449000154C072A227024D11A781E2A227020D1A6
:1044A0001B78237053B9FDF7DBFB012101F02AFAD9
:1044B0000E480BF0DBF80E4B01221A7094F90050F5
:1044C000012D09D1FDF7CCFB294601F026FA094858
:1044D0000BF0CCF8084B1D70024B1A781A781B7839
:1044E000237038BD00800940A0C707203C68020047
:1044F000C0C707204C6802007BC7072008B5002111
:1045000064220E4805F0D2FF64220D48012105F017
:10451000CDFF0C4A0023137053709370D370137146
:104520005371094A137053709370D37013715371A0
:104530009371D37113725372937208BDDAC7072057
:1045400081C7072098C7072063C7072010B5FEF76B
:10455000EDFE9020FBF78CFE02210446FDF7C4FE21
:10456000204605F073F83420FBF782FE0321044651
:10457000FEF76EFD204605F069F83420FBF778FE63
:1045800002210446FEF778FD204605F05FF8002082
:10459000014605F06BF84FF0FF3010BD242310B535
:1045A00003FB010398420BD0417839B1018C4FF6DF
:1045B000FF741144A14228BF214601842430F1E751
:1045C00010BD000037B5002302A840F8043D0C4B95
:1045D00004215B6898470B4B019A1C680546141B25
:1045E0001A60094822460421FFF7D8FF0748022134
:1045F0002246FFF7D3FF281C18BF012003B030BDAF
:10460000DCC70720A4C80720F0C70720C8C80720B8
:1046100008B50B4B1A78037893420A4B03D11988DB
:104620000131198002E0998801319980064B82702E
:10463000DB6820219847003018BF012008BD00BF6B
:104640002DC0072098C80720DCC707200A4B027836
:104650001B789A42094B03D1DA880132DA8002E0F2
:104660001A8901321A810379C3F3C202073262F355
:10467000C5030371FFF7CCBF2DC0072098C80720E2
:1046800010B50023064A990012F82340844201D154
:10469000501810BD0133042BF4D1002010BD00BF11
:1046A000B5C8072070B1C3780133DBB2FF2BC370EC
:1046B00008D10023044A1A44D17804334908102B46
:1046C000D170F7D1704700BFB5C8072070B524225C
:1046D00002FB0101034602468A4206D010462432FC
:1046E00012F8234C002CF7D112E0184600228B421E
:1046F0000ED01C791E8CC4F3C20446EA0444A242C4
:104700001D4624BF14460546243322462846EEE7BC
:1047100070BD000038B501310446CD00FFF752FFEF
:104720001B4B1A7823789A4204D102211948FFF7CB
:10473000CDFF0CE018480421FFF7C8FFE37833B938
:1047400090F82330042543F0800380F823300023C1
:1047500080F8203080F8213090F8233080F8225003
:1047600023F07F0343EA152580F8235023460246B1
:1047700004F1200153F8044B8B4242F8044BF9D169
:10478000064A0379127862F3C503037138BD00BF8E
:104790002DC00720C8C80720F0C707202CC007205D
:1047A00010B5FFF76DFF0446F8B9FFF769FF04463F
:1047B000D8B90F4AD378D179994238BF0B46D17A0C
:1047C00034BF141D144699423CBF0B46094CD17BA3
:1047D000094A994238BF14462046042200210AF0B3
:1047E0003EFA064BDA7A0132DA72204610BD00BF7B
:1047F000B5C80720BDC80720C1C8072098C8072032
:10480000F8B5242707FB021705460C46BC4200F00A
:10481000B38094F82310CB092BD0BDB12B786278EC
:10482000934203D16E78207886421CD0E87868B134
:104830006878904208D122789A4205D1A379AA7962
:10484000D61A7342734100E0002363B994F8222022
:10485000238C01F07F0142EA01218B42C0F28A8061
:104860002046FFF7D5FE2046002124220AF0F7F962
:1048700080E06378002B7DD0002D3CD02A7992090E
:10488000032A1AD16A782078904202D12878984277
:10489000E9D0E678A878864210D1934209D12078F1
:1048A0002A78904205D1AA79A079801A42424241E1
:1048B00000E00022002AD6D100E0E2B1A878E27838
:1048C000904218D16A789A4209D120782A78904289
:1048D00005D1A079AA79821A5042504100E0002007
:1048E00048B12279002363F3C50284F8203084F8AC
:1048F000213022713EE094F82200228C01F07F01E9
:1049000040EA01218A4235DB2179002284F8202007
:1049100084F82120C1F3C202D6B21EB12046FFF7AF
:1049200095FE27E08909032918D0144920780978D1
:10493000884213D1E178994210D079B16379E2705D
:10494000032262F3071363712046FFF77FFE0C4AD0
:104950002379127862F3C503237100E001266078A1
:10496000FFF78EFE18B1002104220AF078F9002E1C
:104970007FF479AF243449E7F8BD00BF2DC007208C
:104980002CC00720431EDBB2FD2B9DBF024B1870CD
:1049900001200020704700BF2DC00720014B187870
:1049A000704700BF2DC0072007289CBF014B18701F
:1049B000704700BF2CC007202DE9F74304469146FD
:1049C00098469DF828600D4600295BD0314B1F7832
:1049D000B94259D0B8F10F0F56D8002856D020222E
:1049E00000210AF03CF9FF2D237914BF09F00302DE
:1049F000002262F38713032262F30203264A6570E2
:104A00001278277062F3C503244A23711378A770C4
:104A10000133DBB21370A3710BAB01930EB9012705
:104A200013E0019BE0791A4652F8081B013E0192FF
:104A30005A68F6B28718FFB2182F05D808302044FC
:104A40000AF0E9F8E771E9E70027DFF8549001235D
:104A5000284689F80030FFF713FE0646FFF722FECE
:104A6000002389F80030637926B968F3071363716E
:104A7000E67005E0B27862F3071363717378E37050
:104A8000384603E0084601E00020FFE703B0BDE838
:104A9000F08300BF2DC007202CC00720C7C8072007
:104AA000C5C80720154B012270B51A7004461E4672
:104AB00008B900251DE0FFF7ABFD05460028F8D03A
:104AC00022799209D11C032A01F0030106D1E3786F
:104AD0002BB16278D31A18BF012300E0002301290B
:104AE00003F0010300D923B1617920460909FFF7DA
:104AF00011FE00233370284670BD00BFC5C80720D3
:104B000082B0F0B51746421ED2B28DB0FD2A0446DF
:104B10000D46139301D900205AE0002BFBD0159BC2
:104B2000002BF8D0179B002BF5D0169B002BF2D052
:104B3000149B002BEFD00021482228480AF08FF860
:104B40000021902226480AF08AF8002110222548E8
:104B50000AF085F800210C2223480AF080F8002191
:104B60000C2222480AF07BF8214B224E1C70224B6B
:104B700034461D7013AD0FCD0FC42B6800211822D1
:104B80001E4823600AF06BF839461C4817220BF0C8
:104B9000D3F80020B368014698470028BBD09DF8A1
:104BA000603013B9FFF70EFD12E0154A01230192A0
:104BB00006220292009304A8FF210022FFF7FCFEC8
:104BC0000028A8D004A8FFF76DFF0028A3D0E9E7CC
:104BD0000DB0BDE8F04002B0704700BFC8C8072064
:104BE000F0C70720B5C80720A9C8072098C8072024
:104BF0002DC00720DCC70720A8C8072080C80720D1
:104C00008068020070B5182B8CB006460D4617D888
:104C10001C1C18BF0124002A14BF214684F0010186
:104C200071B101920293009404A831462A469DF87E
:104C30004030FFF7C1FE18B104A8FFF733FF00E0D2
:104C400000200CB070BD13B50446107852790B46A5
:104C50001209009203212246FFF7D4FF02B010BDD3
:104C600030B500231A4608499C0011F823502DB195
:104C7000904201D1081930BD0132D2B20133042B68
:104C8000F1D1002030BD00BFB5C807200023184671
:104C9000044A9A5C0AB10130C0B20433102BF7D138
:104CA000704700BFB5C807202DE9F04188B06846BD
:104CB0000021202209F0D3FF9C4B1B7803F0FF0456
:104CC000002B40F030819A4F68463B69202198477D
:104CD000002800F08280974D6B8801336B80FFF7CE
:104CE000D5FF9DF80410A87201F00703032B04D030
:104CF000914B1A7842F0010209E0904B1D789DF823
:104D00000230AB4205D18C4B1A7842F002021A7085
:104D1000DBE0C1F3C2019DF800E09DF80600CEB2D1
:104D2000874A1319A25C724509D15A78824206D18A
:104D30009A780124961B18BF0126997018E0033455
:104D40000C2CEDD17F4A136899707D49587001F1A0
:104D50000900834283F800E040F0C48011609DF8B0
:104D600000009DF80230834240F0BF8000242646B8
:104D70009DF80200FFF714FD9DF8022002709DF8D7
:104D80000220427000228270FFF78CFC002C08BFCA
:104D9000012616B39DF80030AB4200F095809DF8D7
:104DA0000160FF2E1BD13B6868462021984720B93F
:104DB000614B1A7842F004021A709DF8053003F036
:104DC0000F02511C61F303038DF80530C3F3031385
:104DD0009A4202DA6846FFF71BFC002475E0B542F0
:104DE0002AD164B99DF807304BB13B686846202151
:104DF000984720B9504B1A7842F004021A709DF877
:104E000004309B09012B12D19DF8073013B94E488D
:104E1000182108E047480C216A46FFF714FF0028D4
:104E200052D1002001466A46FFF70DFF4CE09DF885
:104E30000330002B48D1F4E7444B1B78002BCCD037
:104E40009DF8054004F00F082709B845C5DA30463B
:104E5000FFF716FC9DF8033008F1010868F303041E
:104E60009D428DF8054019D19DF804209209D51C6A
:104E700005F00305012D8CBF0025012508B14378FD
:104E800000E00346032A05D19E4203D0003318BF39
:104E9000012300E000231D4330B90AE0A3B91D46F9
:104EA00010B9684639460DE043788DF803308478B0
:104EB00002E08DF8030004466846FFF7A9FB1DB128
:104EC00068462146FFF726FC6C46FFF77BFB204631
:104ED0001F490422FFF794FC20461E490222FFF7D7
:104EE0008FFC20E00333136039E785423FF43EAF87
:104EF000FFF756FC0446FFF7D5FB23783BB19DF83E
:104F00000520A37802F00F029A423FF72FAF9DF8D9
:104F1000003023709DF8023063709DF80530C3F3B4
:104F20000303A37022E708B0BDE8F081C5C80720DD
:104F3000DCC7072098C80720C6C807202DC0072057
:104F4000A9C8072028C0072080C80720A8C80720B4
:104F5000F0C70720C8C8072000231846094A1A448A
:104F600052780AB10130C0B22433902BF6D1064BEF
:104F70005A780AB10130C0B293F825300BB1013034
:104F8000C0B27047F0C70720C8C8072008B5FFF7B0
:104F900077FB064B28B18278187802FB0000C0002E
:104FA00008BD1B781820584308BD00BF2CC007203F
:104FB00003490B6803604B6843608B6883607047EC
:104FC00098C8072030B5464C4FF48035E561454C14
:104FD000A060E068C506FCD442488068C0B2002BDF
:104FE00077D00B46002A68D0072A3E4C91F9005032
:104FF00036DDA56091F90150083AA56091F902509B
:10500000A56091F90350A56091F90450A56091F94C
:105010000550A56091F90650A56001F1080591F9C8
:105020000710A1602F498C696407FBD58C681C7040
:105030008C685C708C689C708968D9702949CC68D0
:10504000E406FBD48C68083303F8044C8C6803F83E
:10505000034C8C6803F8024C896803F8011C1EE0BD
:10506000032A1EDDA56091F90150043AA56091F96B
:105070000250A5600D1D91F90310A1601949CC687B
:10508000E406FBD48C68043303F8044C8C6803F802
:10509000034C8C6803F8024C896803F8011C29460C
:1050A000A0E70131A560013AE568ED06FCD40D4C9E
:1050B0000133A46803F8014C94E7094B4FF48032A4
:1050C0009A6140B230BDE568ED06FCD4054C013371
:1050D000A4689342F1DACD56024CA560F3E700BF15
:1050E00000C009200080084007B5002302A9012262
:1050F00001F8013D00F01F001346FFF763FF9DF923
:10510000070003B05DF804FB07B502AB03F8011D0F
:1051100000F01F0019460122002340F02000FFF795
:1051200051FF03B05DF804FB08B51720FFF7DCFF63
:10513000C0F3001008BD07207021FFF7E5BF03464C
:105140000A466FF05F0019460023FFF73BBF08B522
:105150000020FFF7C9FFBDE8084020F0010149B277
:105160000020FFF7D1BF0000024B4FF08072DA61E0
:10517000704700BF20C0092008B50020FFF7B4FF2A
:1051800040F0010149B20020FFF7BEFF024B4FF093
:1051900080729A6108BD00BF20C00920072020212D
:1051A000FFF7B2BF00216FF01E000A460B46FFF763
:1051B00009BF000037B50C460546FFF7F3FF21464F
:1051C0002846FFF7BCFF0D4B4FF080729A6100221A
:1051D000ADF806201C46BDF8063001339BB2ADF891
:1051E000063033B94FF08073E361FFF7DBFF03B0A4
:1051F00030BDFFF799FF0028EDD0F3E720C009206C
:1052000008B51720FFF770FF00F0010080F00100E3
:1052100008BD07204021FFF777BF08B503460A46BF
:10522000612019460123FFF7CDFEC0F3420008BDFF
:1052300000216FF01D000A460B46FFF7C3BE70B594
:10524000044600200D461646FFF74EFF14B100F04D
:10525000BF0002E040F04000C0B215B100F0DF0036
:1052600001E040F0200016B100F0EF0101E040F055
:105270001001002049B2BDE87040FFF745BF10B5EE
:1052800004460020FFF730FF14B900F0F7010DE0ED
:10529000012C04D100F0FB0141F0080106E0022CD2
:1052A00014BF40F0080140F00C01C9B2002049B21F
:1052B000BDE81040FFF728BF08B50020FFF714FF36
:1052C000BDE8084040F0020149B20020FFF71CBFD2
:1052D00008B50020FFF708FFBDE8084020F00201F4
:1052E00049B20020FFF710BF40F6DD13984206D800
:1052F00040F66213B0F5166F38BF184600E0184646
:10530000A0F5166149B20520FFF7FEBE10B50446B0
:105310000620FFF7E9FEFA2C00F0D70102D141F098
:10532000200104E0B4F5FA6F08BF41F0080106203F
:1053300049B2BDE81040FFF7E7BE10B504460620AD
:10534000FFF7D2FE032C34BF2146032100F0F90001
:1053500040EA410149B20620BDE81040FFF7D4BE43
:10536000F9284FF0FA0305D9B0F57A6F88BF4FF4EA
:105370007A6000E01846B0FBF3F3013BDBB20F2983
:1053800028BF0F2141EA0311042049B2FFF7BCBE38
:105390001130C0B2162806D8202928BF202140B2DB
:1053A00049B2FFF7B1BE7047032804D004280CBFF0
:1053B0000221032100E001210320FFF7A5BE0346DF
:1053C0000A46302019460023FFF7FCBD03460A4673
:1053D0002A2019460023FFF7F5BD000073B50446E7
:1053E0000E461546FFF724FFFFF7DCFE2B4B4FF070
:1053F0008072DA61FFF76CFF00210A460120FFF797
:105400001EFFFFF798FE0220FFF739FF3046FFF737
:105410006BFF2846FFF77AFF0320FFF78EFF02207D
:105420000321FFF771FE01200021FFF76DFE4FF40D
:10543000FA700321FFF794FF21460020FFF7A8FF31
:1054400012200021FFF760FE13200021FFF75CFE11
:1054500014200021FFF758FE15200021FFF754FE0D
:1054600000211620FFF750FE0D4B18681B790090A5
:1054700005208DF80430FFF797FF68460521FFF7F8
:105480009EFF68460521FFF7A1FFFFF715FF4FF4C8
:10549000FA6004F0B6FB02B070BD00BF20C0092066
:1054A0008768020007B5094B002102AA186842F874
:1054B000041D0B4606F023F9019B1BB1044B4FF072
:1054C00080521A6003B05DF804FB00BF18C90720C2
:1054D00004ED00E070B5174E326822B90320202198
:1054E00006F045F83060144D2A6822B901202021C9
:1054F00006F03DF82860114C216821B901200322F3
:1055000006F035F82060202040F6C3114FF4FA620F
:10551000FFF764FFFFF730FE16200121084A04F070
:1055200043FF306828B1286818B12068003018BFE0
:10553000012070BD14C9072010C9072018C9072011
:10554000A554010070B5037906469B09032B0CBFD7
:105550000D4B0E4B00221D6888B02846314613467D
:1055600006F036F8044660B92246234669462846C6
:1055700006F0FEF8224623462846314606F028F873
:105580000446204608B070BD10C9072014C9072082
:1055900038B504460D46FFF701FA237883420AD056
:1055A000E37843B90AF00CF9BD2300F0030000FBD7
:1055B000033004F026FBFFF7D7FDFFF7C8FD2046B8
:1055C000A9B2FFF7F7FDFFF7E9FDFFF7D5FD06F0FC
:1055D0004FFE022806D1044B002118680A460B46EC
:1055E00006F08DF8012038BD18C9072038B50446EB
:1055F0000D46FFF705FE48B1A9B22046FFF70DFEA4
:10560000FFF7FEFD08B9FFF704FE012038BD2DE9C4
:10561000F04180460F46164606F02AFE022807D1C2
:10562000324640463946002306F0A2F8C6B21CE0D6
:1056300007F0A8F94FF47A72002308F099FE841954
:1056400041F10005002240463946134606F090F825
:10565000C6B256B907F096F94FF47A72002308F0F3
:1056600087FE8D4208BF8442ECD270B2BDE8F08163
:10567000042938B5054603D1041C18BF012400E0F5
:10568000002407F07FF92CB14FF47A72002308F060
:105690006FFE2860204638BD00B50C4B8DB00993D5
:1056A0000B4B0C4A0B930C4B0A930CAB43F8102D8D
:1056B000002204920FCB8DE80F00084B0121084A0D
:1056C0006A20FFF71DFA0DB05DF804FBD554010008
:1056D000ED5501007156010091550100455501003D
:1056E0008C6802000A460349034608681946FFF71A
:1056F0008EBF00BF14C907200A4603490346086845
:105700001946FFF784BF00BF10C9072008B506F08F
:10571000AFFD0F4B02285B6913D15A020DD5FFF77D
:105720001BFC0C4B00284FF0000118680CBF4FF019
:10573000FF3201220B4606F01BF8BDE80840FFF7D8
:10574000B3BA5B02F9D5FFF707FC0028F5D108BD15
:1057500000C0092018C9072030B504464DB253B225
:1057600094F904102A460068BDE8304005F062BB99
:105770001FB5002204AB90F9044023F8042D4AB26F
:10578000022100910068214605F03FFB9DF90C00C5
:105790009DF80D3080B243EA002080B204B010BD05
:1057A00010B52A2104461922FFF7D6FF206894F984
:1057B00004100D2205F02DFBB0F12A035842584188
:1057C00010BD08B50121FFF7D3FF102300B290FBF5
:1057D000F3F008BD08B50321FFF7CAFF102300B29C
:1057E00090FBF3F008BD000008B50220012107F08E
:1057F0006BF8084B01209A6A22F007029A629A6AB3
:1058000042F006029A6203F51033DA6842F0300281
:10581000DA6008BD0080004008B5044A01F07F034B
:105820004171D25C0321FFF797FF08BD9168020028
:1058300008B5044A01F07F038171D25C0221FFF7B1
:105840008BFF08BD9168020038B5044694F9041036
:10585000006805F0FAFA054688B1204606210022C4
:10586000FFF77AFF204607210022FFF775FF204649
:105870002E21FFF7D1FF20462E21FFF7D9FF284622
:1058800038BD642370B591FBF3F404FB13110A23B4
:105890004CB294FBF3F603FB164303F1300149B21B
:1058A0000546FFF7C5FF092C02DC2846202103E04E
:1058B00006F13001284649B2BDE87040FFF7ACBFA1
:1058C000012070470E4B01F00F0140F213120170DE
:1058D0009A610278D10744BF0122DA610278920707
:1058E00044BF0222DA610278510744BF1022DA6114
:1058F0000278120744BF4FF48072DA61704700BF2C
:1059000020C009200122013902FA01F10278114375
:10591000C9B2017049B2FFF7D5BF0122013902FABD
:1059200001F1027822EA0101017049B2FFF7CABF12
:105930000AB1FFF7E7BFFFF7F0BF0078704701201B
:105940007047022004F0EEB901207047044B5B69F8
:10595000C3F38130C3F3412343EA8000704700BFA3
:1059600020C0092010B5012104468122FFF7F4FE72
:10597000206894F90410012205F04BFA10F0600F32
:105980000CBF0020012010BD38B500210446FFF7F0
:10599000EFFE812285B201212046FFF7DDFE1023B4
:1059A00028B290FBF3F008F083FA4FF0765108F03C
:1059B000D3FAA16808F0C8F938BD000008B5FFF7B0
:1059C000E3FF054908F0C8FA044908F079FB4FF0F5
:1059D000844108F0B9F908BD000010410000A04062
:1059E0002DE9F04F0546ADF2546D0C46174682A8DE
:1059F000294601229B4602F047F800286AD1214639
:105A00000DF22C400A2202F03FF8044620B182A891
:105A100002F0AEFA20465DE0009001908246044616
:105A2000064606F0AFFF4FF47A72002308F0A0FCA0
:105A300002A980464FF4007282A86B4602F0B6F8C5
:105A40000546F8B9009BEBB106F09CFF4FF47A7263
:105A5000002308F08DFCB6EB080866EB060900EBA6
:105A6000080606F08FFF4FF47A72002308F080FCDE
:105A700002A98046009A0DF22C4001AB02F054F9C5
:105A80000546A0B107B13E60BBF1000F01D0CBF8D5
:105A90000040DDF878360BB1C3F800A082A802F010
:105AA00067FA0DF22C4002F063FA284612E0019AE0
:105AB000009B9A42E6D106F065FF00234FF47A720C
:105AC00008F056FC009BB4EB080464EB04050444A6
:105AD0009A44A6E70DF2546DBDE8F08FF0B5044688
