:020000021000EC
:10000000E03F082091010100FD000100E100010036
:100010000D0101001D0101002D0101000000000083
:100020000000000000000000000000009DBF010073
:100030003D0101000000000021C001005D01010040
:10004000EDC50100EDC50100EDC50100EDC50100E4
:10005000EDC50100EDC50100EDC50100EDC50100D4
:10006000EDC50100EDC50100EDC50100EDC50100C4
:10007000EDC50100EDC50100EDC50100EDC50100B4
:10008000EDC50100EDC50100EDC50100EDC50100A4
:10009000EDC50100EDC50100EDC50100EDC5010094
:1000A000EDC50100EDC50100EDC50100EDC5010084
:1000B000EDC50100EDC50100EDC50100EDC5010074
:1000C000EDC50100EDC50100EDC50100809A0200FB
:1000D00000C00720CC010000D0C107205409000057
:1000E00004207146084200F00480EFF309800CF010
:1000F0009BBAEFF308800CF097BA704708B5024836
:1001000000F0B8F9FEE700BFC291020008B502484E
:1001100000F0B0F9FEE700BFCD91020008B502483B
:1001200000F0A8F9FEE700BFD891020008B5024828
:1001300000F0A0F9FEE700BFE391020008B5024815
:1001400000F098F9FEE700BFF091020008B5024800
:1001500000F090F9FEE700BFFE91020008B50BF039
:10016000EBFE0BF07BFFBDE808400BF0F9BE10B5CD
:100170000023934203D21C585C500433F9E710BDAE
:1001800000238B4203D200221A500433F9E7704750
:1001900015480CF001F814480CF001F8134C144BFE
:1001A0009C4207D294E803000C3454F8042CFFF767
:1001B000DEFFF4E70F4B9C4205D294E80300FFF703
:1001C000DFFF0834F6E710F087F90BF0FFFF03F0CC
:1001D00009F903F01BFF4FF416400CF049FB0648E9
:1001E00000F048F9FEE700BFE03F0820CC00010026
:1001F000D8000100E000010012920200134A70B51D
:100200001168034611B94FF0805111601068104910
:10021000C518104E2944B14298BF0F480B4C96BFE9
:1002200019182560216011680C4A914203D90C49C4
:10023000064A002011603BB10A4A11680131116081
:10024000094A1060094A136070BD00BFD4C107207D
:10025000FF7FFFEFFE3F071024CB0720FF3F082062
:1002600000400820DCC10720D0C10720D8C10720EA
:1002700010F06EB910F074B910F072B910B58AB000
:100280000446684610F0ECFD204B214A2360089B91
:100290002049A360079B636053B90B681E488342E3
:1002A0008ABF03F1604303F17043A3F5E823636061
:1002B0006368B3F5803F04D903F17043A3F5E823E5
:1002C00063600023E3600B6813498B4205D8C2F1D9
:1002D000405202F50C22D21A09E010498B4207D88D
:1002E000C2F1804202F58012D21A002A00DDE260DB
:1002F000E3610B4B20461B68A3610A4B1B686361DB
:10030000094B1B6823610AB010BD00BF240B00001D
:1003100024CB0720D4C1072000800010FF3F082015
:10032000D0C10720D8C10720DCC10720FEE70000AC
:10033000014B1860704700BFE4C10720014B1860F3
:10034000704700BFE0C1072008B5024810F0D0FE9A
:10035000FEE700BFAA64020008B5024810F0C8FE1C
:10036000FEE700BFC4640200002070470120704710
:10037000F8B5084B15461A680E461F463AB10024D8
:10038000AC4204DA30573A6890470134F8E728461F
:10039000F8BD00BFE4C10720F8B5094B0E46186848
:1003A00015461F4650B10024AC4205DA3A680020D9
:1003B000904730550134F7E725EAE570F8BD00BFF6
:1003C000E0C107207047002070470000074B1B6802
:1003D0009A68824207D05A68824204D0DB681B1AAE
:1003E0005842584170470120704700BF50C1072054
:1003F000002070470020704730B504468DB00028BB
:1004000035D0684609F032FF9DF80030002503F032
:100410003F0303939DF8013003A803F03F030493C7
:100420009DF802300B9503F01F0305939DF80430EF
:1004300003F01F0306939DF8053003F00F03013B03
:100440000793BDF80630C3F30B03A3F26C73089354
:100450009DF8033003F007030993BDF80830C3F398
:100460000B03013B0A9310F09FF984E82100002060
:100470000DB030BD10B504460BF0B6FD013C14F8CC
:10048000010F18B140B20CF02FFAF8E7BDE81040A8
:100490000BF0BCBD0FB470B5C2B046AC54F8046BE1
:1004A0004FF480752A4602A8002110F0A2F82346D6
:1004B0002946324602A8019413F0C0FE044602A861
:1004C000FFF7D8FF204642B0BDE8704004B0704747
:1004D00070B50F4C0F4D266816F0010615D1204659
:1004E0000CF058FC88B14FF40E70FFF7C1FE3022BB
:1004F00080F835223A2280F8346280F8362280F87B
:100500003762286020460CF053FC286870BD00BF9D
:1005100004C20720ECC1072070B50F4C0F4D2368B3
:1005200013F0010616D120460CF034FC90B14FF4C4
:100530000E70FFF79DFE012280F83422312280F8F0
:1005400035223A2280F8362280F837622860204629
:100550000CF02EFC286870BD00C20720E8C10720FF
:100560002DE9F047ADF50A7D0E4609F05EF8041E50
:1005700004DD0BF0ADFC20460BF04AFA0DF1140936
:100580002B4D4C460FCD0FC42B6810210DEB0102F3
:1005900000250AA8236004950BF064FA25498246D9
:1005A000254A30460AF021F92F460FAC4FF00008DB
:1005B000D0451FD02368AB4218D16368049A1F440A
:1005C00022B16421B2FBF1F2B3FBF2F214F808ECB1
:1005D00000952189029289000191039330461749C1
:1005E00054F8102C59F82E300AF0FFF808F10108E1
:1005F0002034DDE70135052DD7D1049B6422DF1BB4
:10060000B3FBF2F30E490F4AB7FBF3F30097304602
:100610000AF0EBF80BF0DCF8102804D930460A4950
:1006200010220AF0E2F801200DF50A7DBDE8F087FE
:10063000E0640200FF640200266502002B650200F0
:1006400048650200676502007265020010B5ADF5ED
:10065000007D0C4668460BF04FFF204669464FF080
:10066000FF320AF08BF801200DF5007D10BD00006F
:1006700030B50C4691B02C49054608F0DDFE002847
:1006800047D008AB009309AB01930AAB02930BABC5
:1006900003930CAB04932846244906AA07AB08F041
:1006A00029FE072801D000203BE09DF83930069A4A
:1006B0000DA862F303038DF83930079A9DF838309E
:1006C00062F304038DF83830089ABDF83A3062F3CB
:1006D0000B03ADF83A30099A9DF8363062F3040303
:1006E0008DF836300A9A9DF8353062F305038DF89F
:1006F00035300B9A9DF8343062F305038DF83430B1
:100700000C9A9DF8373062F302038DF8373009F008
:10071000D7FD09F071FE0649024620460AF065F849
:10072000012011B030BD00BF9C650200A065020031
:10073000FA890200F7B50D463449044608F071FF06
:1007400040B108F0C9F9284631494FF0FF320AF0AC
:1007500015F857E020462F4908F06EFE50B10121F0
:100760002022204608F00AFF204608F05CFF08F02F
:10077000E9FA47E02046284908F05EFE064628B917
:100780002046264908F058FE074648B30121204676
:10079000202208F0F3FE2046214908F065FE40B90A
:1007A0002046204908F060FE002814BF02240024DF
:1007B00000E001242046314608F016FA1A4B1B4A85
:1007C000002E18BF1A462CB1154B1649012C18BF24
:1007D0000B4600E0164B284616490AF006F811E0D1
:1007E000204608F020FF1449144A0090EE233846B2
:1007F00008F008FA204608F016FF1149024628467C
:1008000009F0F3FF012003B0F0BD00BFD565020081
:10081000DB650200F4650200F8650200FF65020076
:10082000D0650200CA650200B9650200C165020018
:10083000AA7D02000766020020660200F46402003E
:100840005366020030B589B004AB002400930D4616
:100850000222194903AB0394049408F059FD0228BD
:1008600027D107AB009305AA0398049906AB05941A
:100870000694079404F05AFE024638B1049B2846B9
:1008800000930E49039B09F0B0FF10E0059A069B08
:10089000002A079C08BF0122002B08BF012328461D
:1008A0000749B4FBF2F2B4FBF3F309F09EFF012019
:1008B00000E0204609B030BD427D020061660200C2
:1008C000806602002DE9F04F8846ADF2344D434971
:1008D000044608F03FFE42498146204608F063FE88
:1008E00020463F4908F07FFE3E49404609F07DFF23
:1008F000204608F098FE0122014683A806F06AFE11
:10090000054640B1204608F08EFE37490246404673
:1009100009F06BFF5CE00DF10C0B29464FF40072FF
:1009200058460FF066FE02950BF0D2FDAA46064629
:100930000F4683A859464FF4007202AB06F0DCFE66
:1009400008B9029B33BB83A807F0B8F8B9F1000FD0
:1009500019D00BF0BDFD4FF47A7200230FF0CCF9E3
:100960004FF47A7204460023304639460FF0C4F93A
:10097000201A14BF034601231C4940465246BAFBC5
:10098000F3F309F032FF404619494FF0FF3209F006
:10099000F5FE1DE09A44B9F1000FCAD14C46029B06
:1009A0009C42D8F8003008D21BF904105B6840461E
:1009B0004FF0FF3298470134F1E700228DF807200D
:1009C0001B6840460DF107014FF0FF329847B0E732
:1009D00001200DF2344DBDE8F08F00BFAE6602007D
:1009E000427D0200B7660200E5660200F966020079
:1009F000616C02002DE9F043C1B00EAB00250093FD
:100A00000C4602225D490DAB0C950D950E9508F034
:100A10007FFC022803D10E980FF055FC05460D9B74
:100A20000BB9574B0D9317A80D9907F006F903461C
:100A300070B1204653490D9A09F0D7FE99E0802302
:100A400017A80FA91596169307F036F9013D10B9AE
:100A5000002D20AEF3DC20464B490D9A09F0C5FE6F
:100A600000252F46802317A80FA91596169307F087
:100A700023F9002865D19DF94530002B61D09DF800
:100A800044000F9B10F0100F02D00135442204E007
:100A90000C9A01371A440C922D2210F0010F0CBF52
:100AA0004FF02D0E4FF0520E10F0020F0CBF4FF012
:100AB0002D094FF0480910F0040FBDF840100CBF8D
:100AC0004FF02D084FF0530810F0200F0CBF4FF0DF
:100AD0002D0C4FF0410CCDF808C04FEA612CBDF849
:100AE00042000CF2BC7CCDF80CC0C1F3431C01F0F9
:100AF0001F0105910893C1120DF14503C0F3451084
:100B0000CDF810C0069107900993CDF80090734678
:100B1000CDF8048020461D4909F067FE20461C4997
:100B20004FF0FF3209F015FE314620464FF0FF32FC
:100B300009F00FFE204617494FF0FF3209F01EFE64
:100B400090E7009540AD55F8D03D13493A46204610
:100B500009F04BFE0D9829460BAA07F0DCF840B9C6
:100B60000B9B20469A780C9B0C495A43520809F07B
:100B70003CFE012041B0BDE8F08300BF427D020091
:100B800014670200176702003B6702005667020005
:100B900083670200616C020087670200B167020090
:100BA00070B50E46054608F03EFD0446284608F09E
:100BB0003AFD07F072F9064A064B0749002818BFAC
:100BC00013463046224609F010FE012070BD00BFDA
:100BD0007169020067690200C567020070B50E46C0
:100BE000054608F020FD0446284608F01CFD07F0E5
:100BF000F7F8064A064B0749002818BF1346304647
:100C0000224609F0F2FD012070BD00BF71690200AB
:100C100067690200E16702007FB503AB002400931F
:100C20000E4602220F4902AB0294039408F070FBB7
:100C3000022814D1029D039C2846214607F0D8F9CA
:100C4000094B0A4A0A49002814BF1046184600906A
:100C50002A463046234609F0C8FD012000E0204620
:100C600004B070BD427D0200676902007169020034
:100C7000F367020030B5ADF50D7D0C46054608F072
:100C8000D2FC0A22014603A806F0A4FC40B1284683
:100C900008F0C9FC1F490246204609F0A6FD35E0D0
:100CA0008DF8070002901C4920467E2242F2107304
:100CB00009F09BFD1949204609F097FD236820465D
:100CC0001B680DF1070142F21072984718B19DF9A7
:100CD00007307E2B03D103A806F0F0FE16E003A830
:100CE0000DF10701012202AB06F0C4FD10B9029B11
:100CF000012B02D020460A49DEE7236820465B68C4
:100D00009DF907104FF0FF329847D7E701200DF506
:100D10000D7D30BD0B680200326802006A68020077
:100D20008A6802002DE9F047ADF5407D002304AC50
:100D3000236003930D4600944149022203AB08F05F
:100D4000E7FA022806D028463E494FF0FF3209F064
:100D500015FD6FE017A8216806F06FFF18B128464F
:100D60003949226807E017A8039906F066FF28B101
:100D70003649039A284609F038FD5BE040A94FF454
:100D8000807205A808F086FA0AA880A94FF480723C
:100D900008F080FA20AB159317A880230FA91693AB
:100DA00006F08AFF00283FD19DF94530002B3BD04B
:100DB0009DF8443003F0100303F0FF06002BE9D147
:100DC000039A0DF1450305A8214908F076FC226835
:100DD0000DF145031E490AA808F06FFC05A808F0AC
:100DE00022FC81460AA808F01EFC804605A80F9F39
:100DF00008F019FC82460AA808F015FC32460146A4
:100E000033460096504604F091FB124B124A00976D
:100E1000002814BF104618460190104928464A463B
:100E2000434609F0E2FCB5E70AA808F048FA05A82D
:100E300008F045FA01200DF5407DBDE8F08700BFC0
:100E4000427D0200B1680200F66802001B690200E0
:100E50003B69020067690200716902004169020092
:100E600070B50C462149054608F0DBFB064628B163
:100E7000FFF752FB002100F2352009E028461C490B
:100E800008F0CFFB50B1FFF723FB314600F23520CD
:100E90000A4607F03DF9174B17491CE02846174949
:100EA00008F0BFFB48B1FFF737FB012200F2352104
:100EB00006F052FB124B13490DE02846124908F088
:100EC000B0FB88B1FFF704FB012200F2352106F0E8
:100ED00043FB0E4B0E49002808BF19464FF0FF3266
:100EE000204609F04BFC012070BD00BFC86902001C
:100EF000D2690200606902006A690200DF690200CB
:100F00007769020087690200E86902009E690200B1
:100F1000AC69020008B508464FF0FF32084909F0F5
:100F20002DFC07F0D9FD4FF4FA600AF071FD4FF087
:100F30008043AA221A7200221A70012008BD00BF45
:100F40003B74020010B501200C4608F097F938B147
:100F500000210A460B460AF0EBF82046044901E05E
:100F6000044920464FF0FF3209F008FC012010BD73
:100F7000F46902000A6A020038B5064C236833B9E6
:100F80001C20FFF775F9054609F07EF825602068FA
:100F900038BD00BFF8C107202DE9F04F0C46C7B09F
:100FA0005149804608F060FA50498246404608F0B0
:100FB0005BFA4F498346404608F056FA002604AFD4
:100FC00005AD8146029603963E602E60BAF1000F91
:100FD00040D000954046474902AA03AB08F08AF981
:100FE000012807DC204644494FF0FF3209F0C6FBD8
:100FF000304675E02B6806AF002BD8BF01234FF0B9
:1010000000014FF480723846D8BF2B600FF0F1FA20
:10101000FFF7B2FF2B689DF908109DF90C20009393
:101020003B4609F0A2FC354A354B3649002808BF3B
:1010300013462046029A09F0D8FB00262B689E42F0
:101040004DDA039ABB5D324420462F4909F0CDFBAF
:101050000136F3E7BBF1000F2AD0009740462B4939
:1010600002AA03AB08F046F9032807D02046284916
:101070004FF0FF3209F082FB504631E0FFF77CFF72
:101080009DF908109DF90C2097F9003009F082FCB9
:1010900040B1039B204600931E493A68029B09F029
:1010A000A4FB1CE020461C49029A09F09EFB16E0B6
:1010B00098B102230293029BFE2B0EDCFFF75CFF2C
:1010C0009DF9081009F071FC20B120461349029ADD
:1010D00009F08BFB029B0233ECE7484600E001205D
:1010E00047B0BDE8F08F00BF657E0200246A0200B1
:1010F0002A6A0200336A0200426A02007169020031
:1011000067690200636A0200896A02009D6A020040
:10111000AD6A0200D46A0200F46A0200116B020098
:101120002DE9F04F5F4C91B023680E4633B92C2067
:10113000FFF79EF8054609F04BFA2560D4F80080C9
:10114000FFF7C6F910AC002544F80C5D00F235201D
:1011500021460CAA06F0DFFD48B90C9A0D9D97694F
:101160009378023F5D435F436D087F0800E02F46A0
:101170004D4B1A689A467AB90C20FFF779F88146E8
:10118000FFF7FAFE902389F804300023C9F8000025
:10119000C9F80830CAF80090DAF8000004F0B4F991
:1011A00081460EF063FD83460EF046FB014648463D
:1011B0000EF08CFA3D490EF093FB0EF057FD0B90AC
:1011C00020460AF0F9FF05F029F940B309F08EF93D
:1011D00005F00EF900240146A146A2468C420BD030
:1011E00020460A9105F068F9504594BF5046A14643
:1011F0000A9901348246F1E709F090F9642202FB72
:101200000AF22B493046B2FBF1F2C2F164028DE8DA
:10121000040628492A463B4609F0E7FA05E030462D
:1012200025492A463B4609F0E0FA244C23681BB9BD
:101230000120FFF71DF82060206804F028F904461B
:1012400009F0DAF89DF83930019003F00F030293AA
:101250009DF83830009403F01F030393BDF83A3033
:101260003046C3F30B0304939DF83630144903F062
:101270001F0305939DF835305A4603F03F0306934C
:101280009DF8343003F03F030793B8F824300893F7
:10129000B8F8263009930B9B09F0A7FA012011B08A
:1012A000BDE8F08FFCC10720F0C1072000002041FD
:1012B000A0860100316B0200656B0200F4C10720BB
:1012C000736B020070B5ADF50A7D05460C4608F05B
:1012D00008F80B2803DD204620490C2237E0284679
:1012E00008F0A1F90122014601A806F073F90646AB
:1012F00038BB01A806F0E2FB284608F094F918492B
:101300000246049B204609F070FA236820469B6839
:1013100098470A200AF07CFB0AF05EFE284608F097
:1013200082F90246516800680E4B03C390680E4A6A
:10133000186043F80C2C4FF08043AA221A721E70DA
:1013400007E0284608F06FF908490246204609F0F0
:101350004CFA01200DF50A7D70BD00BFF46B020050
:101360001B6C0200484002400DD0ADDE626C0200F2
:1013700070B5404EA4B033680546DB070C460CD46C
:1013800030460BF007FD40B14FF480600FF0E0F8FD
:10139000394B186030460BF00BFD2846374908F0F2
:1013A00063F8064620B30021802204A80FF021F93B
:1013B00000230293039303AB0093314904AA02ABC9
:1013C000284607F097FF2C4A029B116804A8039A4D
:1013D00013B904F04CF901E004F06CF9294A2A49E8
:1013E0000346002B08BF1146204609F0FEF93DE0F8
:1013F0002846264908F038F8002838D0284604AB9B
:10140000234903AA039604968DF8086007F072FF3B
:10141000039D049B2B44B3F5806F0DDD20461D49D1
:101420004FF4806210E0144B9DF808201B685A5559
:101430009DF9083001351E44039BEA1A049B9A4229
:1014400005DB15492046324609F0CFF90EE0B5F527
:10145000806FF6DA236820461B6802A94FF4FA620F
:1014600098470028DFD120460C49BEE7012024B070
:1014700070BD00BF0CC2072008C207208D6C02009F
:10148000946C0200776C02007B6C0200A46C02007A
:10149000AB6C0200B56C0200E96C0200D96C020072
:1014A00030B50C4687B00B49054609F09EF9A17A84
:1014B00062880091E17A23880191E18828460291AF
:1014C00021890391A1880491034909F08EF907B09D
:1014D00030BD00BFFA6C0200306D02001FB501A8DC
:1014E0000C4603F0DBFA02F0CFFF01A902462046CA
:1014F000FFF7D6FF012004B010BD00002DE9F04138
:101500008CB003AB002500930C4690463A4902226A
:1015100002AB0295039507F0FBFEA84268DD029836
:101520000EF0D1FEC7B2039818B110F0B9F8C6B2E8
:1015300000E0064604A8002103F04AFE30B1204630
:101540002E494FF0FF3209F019F9F3E718F10008BE
:1015500018BF4FF001080223009338464146039A12
:10156000334603F0C5F8054638B9204624494FF004
:10157000FF3209F003F901253AE0B8F1000F37D046
:1015800004A84FF47A7103F02DFE60B39DF810307B
:10159000BB4228D19DF817300C2B04D1204606A958
:1015A0003A46FFF77DFF2046BEB9164909F01DF9FE
:1015B0009DF817309E420BDA236804AA324492F950
:1015C00008105B6820464FF0FF3298470136EFE77E
:1015D00020460D4909F009F90AE00C494FF0FF32A5
:1015E00009F0CCF804E020460949029A09F0FDF818
:1015F00028460CB0BDE8F081427D02004E6D02002D
:10160000706D0200986D02004D7A0200AC6D020010
:10161000C96D020038B50D4608F007F80446C0B29F
:1016200002F026FF054A064B0649002808BF13466C
:101630002846224609F0D9F8012038BDEF6D020096
:1016400067690200F66D020037B50C4603F094F8A6
:1016500016490546204609F0C8F8154920462A468D
:1016600009F0C3F82046114909F0BFF8D5B1114976
:10167000204609F0BAF820460C4909F0B6F80025D2
:10168000E8B203F063F8013540B18178027843781D
:1016900000912046084909F0A8F8F1E720460349DF
:1016A00009F0A3F8012003B030BD00BF0D6E0200A9
:1016B000286E0200426E02005D6E020030B58BB0F3
:1016C0000AAA4FF47A730C4642F8243D174907F0F2
:1016D00011FE002502A8019903F07AFDE0B1204631
:1016E00013499DF8082009F080F800259DF80F3077
:1016F0009D420BDA236802AA2A4492F908105B681B
:1017000020464FF0FF3298470135EFE72046094960
:1017100009F06BF80125DDE72DB9204606494FF0A9
:10172000FF3209F02BF801200BB030BDB26C020083
:10173000786E0200606C02008F6E02002DE9F347A4
:101740003C4D07462E688946002E62D12420FEF7C4
:101750008FFD0423044680E848008660C66020218F
:1017600030460FF031FDA668E0604FEA8608072E8C
:101770000ED81020FEF77CFD0021102282460EF0CC
:1017800038FFE368013643F808A008F10408EEE7E3
:10179000002608234FF00108636084F8208020466B
:1017A0002549264A264B00962C6006F00DFF286836
:1017B0002449254A254B009606F006FF286824494F
:1017C000244A254B009606F0FFFE28682349244A48
:1017D000244B009606F0F8FE28682349234A244B40
:1017E000009606F0F1FE28682249234A234BCDF8E3
:1017F000008006F0E9FE28681E49214A214B009628
:1018000006F0E2FE009628681F49204A204B06F0A9
:10181000DBFE38461F4907F004FF18B138461E4961
:1018200008F010F8286839464A4602B0BDE8F0478B
:1018300006F0ACBF14C20720DD1A0100A06E020042
:10184000A76E0200BD180100E16E0200EA6E020000
:10185000BD1601003E6F0200416F02001516010027
:101860002D7B0200646F020049160100AA6F02007E
:101870008E6F0200FD140100F36F0200B16F0200D1
:10188000F26F0200F76F0200DD14010037700200F2
:101890001C700200616C02003D70020038B5064CFD
:1018A000236833B95820FEF7E3FC054608F0BEFC78
:1018B0002560206838BD00BF10C207202DE9F04F19
:1018C000ADF2DC5D044680220DF1B40A89460DA814
:1018D00000210EF08EFE0021802250460EF089FE7F
:1018E00006AE002333602046009672490DAA534687
:1018F00007F000FD032801D00020D7E0EDA80DA9D6
:10190000012205F067FE05460028F5D1FFF7C6FF66
:1019100033684DA980F853308022044608A88DF81A
:101920001750079507F0B6FCCDF800A0484662496D
:101930000DAA336808F059FFA846EDA86DA94FF429
:10194000007207AB05F0D8FE38B1EDA806F0B6F886
:1019500008A807F0B4FC0120A8E0079B002BF4D0F6
:101960006F1C5649079A204608F03FFF236820461F
:101970009B68984700267D1EB346079B22689E42BF
:101980000DD26DAB9957D2F804C0204603934FF0A7
:10199000FF32E047039BF35601369B44EDE7936823
:1019A0002046984708A807F03EFE064608A807F01C
:1019B0009BFC4FF47A7302463146204608F0ECFE59
:1019C0000121202208A807F0D9FD08A807F02DFE64
:1019D000584520D008A807F028FE394903465A4642
:1019E000484608F002FF2046364908F0FEFE23680C
:1019F00020469B689847236820461B680DF1170115
:101A00004FF47A7298470028F5D1022F07F10103AD
:101A10009BD81F46A5E7079B2B49524600932046BB
:101A2000434608F0E2FE236820469B68984708A8D2
:101A300007F0F9FD064608A807F056FC31460246B5
:101A40004FF47A73204608F0A7FE08A81F4907F054
:101A5000E1FCD0B908A807F0E6FD1D49024648465A
:101A600008F0C3FE2046174908F0BFFE2368204651
:101A70009B689847236820461B680DF117014FF4B7
:101A80007A7298470028F5D1BFE708A8114907F0F6
:101A9000D9FE079B484698440F494246F09B08F000
:101AA000A4FE002D3FF449AF013D46E70DF2DC5D99
:101AB000BDE8F08F427002005170020068700200B1
:101AC0007A700200606C0200A1700200B770020020
:101AD000BA700200616C0200F27002002DE9F04160
:101AE00086B006AA0026074642F80C6D0D463D4911
:101AF00007F000FC38460121202207F03FFD039B40
:101B0000002B64D0384607F0ECFB00285FD0FFF7CD
:101B1000C5FE8DF80B600446236820461B680DF156
:101B20000B010522984706460028F5D1039B38464D
:101B300084F8533007F077FD4FF0FF32014620461E
:101B400008F01CFE236820469B689847264B0596A4
:101B5000186837460490236820461B680DF10B0176
:101B60004FF47A72984778B10DF11501032205A858
:101B70000EF024FD9DF80B8005A804A904228DF821
:101B800017800EF003FD38B91822B7FBF2F302FB01
:101B900013726AB101330BE02B6828465B684FFA79
:101BA00088F10122013798470028D4D10136D2E7C5
:101BB00028460E493A4608F018FE76B16123009394
:101BC00028460B4932460B4B08F00FFE05E028462D
:101BD00009494FF0FF3208F0D1FD012006B0BDE801
:101BE000F08100BFB26C0200F66C0200FE700200D1
:101BF00025710200DE7102001A72020010B5474C16
:101C0000474920460FF044FD04F1200045490FF0FC
:101C10003FFD04F1400044490FF03AFD04F160003B
:101C200042490FF035FD04F1800041490FF030FDCD
:101C300004F1A0003F490FF02BFD04F1C0003E4924
:101C40000FF026FD04F1E0003C4C3D490FF020FD73
:101C500004F120003B490FF01BFD04F140003A491C
:101C60000FF016FD04F1600038490FF011FD04F18A
:101C7000800037490FF00CFD04F1A00035490FF04A
:101C800007FD04F1C00034490FF002FD04F5C070F7
:101C900032490FF0FDFC04F5087031490FF0F8FCF3
:101CA00004F5E0702F490FF0F3FC04F510702E4995
:101CB0000FF0EEFC04F5D0702C490FF0E9FC04F1B4
:101CC000E0002B490FF0E4FC04F5807029490FF087
:101CD000DFFC04F5A07028490FF0DAFC04F5007071
:101CE00026490FF0D5FC04F5B07025490FF0D0FC63
:101CF00004F5F07023490FF0CBFC04F590702249F5
:101D00000FF0C6FC04F5707020490FF0C1FC04F51B
:101D100078701F49BDE810400FF0BABC1DC60720FF
:101D2000467202005572020066720200787202006A
:101D30008A72020099720200AF7202001CC2072070
:101D4000BD720200CE720200D8720200E872020078
:101D5000FC7202000C7302001A7302002C73020062
:101D600041730200577302006C7302008273020019
:101D700099730200A7730200B6730200CD730200CC
:101D8000E1730200F073020006740200177402008F
:101D9000217402002DE9F0435300073385B023F08E
:101DA0000703002604AF0C46ADEB030D6421154676
:101DB0000096019630460A460B460DF1100807F0D2
:101DC00083FE002C3DD0B3B2AB424FF0000319D2DA
:101DD0009AB2691E8A4213D20132500034F800E0F0
:101DE0000238215A1FFA8EF91FFA81FCE14538BFEB
:101DF00024F800E003F1010338BF24F81210E7E7EC
:101E00000136E0E79EB2AE4203F101090ED234F88A
:101E10001610002007F0C6FF00B208F81600C0F345
:101E2000072008EB460670704B46EBE70022009255
:101E30000192029203924046A9B2134607F0CCFFEA
:101E400001E007F0A9FF002007F09AFF0120043706
:101E5000BD46BDE8F083F8B50025044616461F468A
:101E600001704580C580FFF7C9FE204631463A46DD
:101E7000FFF790FF2046F8BD408870478088704784
:101E8000C08870470089704708B506480FF030F9E0
:101E900006F022FE4FF08043AA221A7200221A7026
:101EA00008BD00BF2B74020038B5054C256825B964
:101EB0000120FEF7DDF905702060206838BD00BF05
:101EC00018C207202DE9F04788B00446894690469D
:101ED00000211022002604A81F46BDF840500EF035
:101EE00088FBADF80C60FFF7DFFF8246FFF7DCFFF1
:101EF00003F0C9FA80F004020321C2F380025046C5
:101F000003F0BCFA9DF80C30227862F3020369F307
:101F1000C5038DF80C30BDF80C109DF8133068F334
:101F20008A11ADF80C1066F3C71389B205918DF8CC
:101F30001330002D73D05FFA85F88DF81880324683
:101F4000AA42A94680F0AF80A81A07289DF812304F
:101F500010D9082161F303038DF812300021BB185A
:101F6000585C04AB0B44013107295872F7D102F1D8
:101F7000070914E008F10101891A61F303038DF8E0
:101F8000123000218BB2834201F1010107D2BE1849
:101F9000F65C0DF1200E734403F8076CF2E70020A5
:101FA00004A94FF0FF3207F09DFE414E8246C0B9B2
:101FB000337843F004033370FFF776FF012103F019
:101FC00047FA3C4B3C4A0093022090233B4906F0E1
:101FD00019FE31783A480FF013F8504607F0D0FE5A
:101FE0001BE0E38822890133E3809DF8123003F07F
:101FF0000F0313442381337859070ED503F0FB03F5
:1020000033702BB1FFF750FF012103F021FA04E0F8
:10201000FFF74AFF012103F026FA4A4690E79DF8B0
:102020001230284665F3030304A94FF0FF328DF800
:10203000123007F057FE1E4D0646C0B92B7843F00C
:1020400004032B70FFF730FF012103F001FA194B55
:10205000194A00930220A423184906F0D3FD2978D9
:1020600017480EF0CDFF304607F08AFE1BE0E388EC
:1020700022890133E3809DF8123003F00F031344EB
:1020800023812B785A070ED503F0FB032B702BB15D
:10209000FFF70AFF012103F0DBF904E0FFF704FF7B
:1020A000012103F0E0F9012008B0BDE8F08700BF8E
:1020B0001CC607207D740200DA7402004C74020012
:1020C000747402002DE9F04F89B006460F4614469D
:1020D0000021102204A89A46DDF848900EF089FAF3
:1020E000002004A94FF0FF3207F0A8FD614D8046A3
:1020F000C0B92B7843F008032B70FFF7D5FE012100
:1021000003F0A6F95C4B5D4A00930220BB235C49B7
:1021100006F078FD29785B480EF072FF404607F024
:102120002FFEA2E07388013373802B7819070ED538
:1021300003F0F7032B702BB1FFF7B6FE012103F07C
:1021400087F904E0FFF7B0FE012103F08CF9FFF7F7
:10215000ABFE8346FFF7A8FE03F095F980F002027C
:10216000C2F340025846022103F088F9059B03F0B0
:102170000702ADF80C30C3F384133A7023709DF856
:102180001240B38804F00F042344B380002C6AD0BB
:102190009DF81870B9F80030BB4201D3002417E055
:1021A00039480EF0A5FF4FF000085EE0391B072903
:1021B0004FF000020FDD04AB1344597A0AEB04031D
:1021C00099540132072AF6D10734A4B2BC4212D383
:1021D000BC42EBD347E093B28B4202F1010208DA32
:1021E00008A8184410F807CC0AEB040000F803C054
:1021F000F1E73C46ECE7002004A94FF0FF3207F07E
:102200001DFD8346C0B92B7843F008032B70FFF700
:102210004BFE012103F01CF9174B184A00930220D2
:10222000EF23174906F0EEFC297816480EF0E8FE79
:10223000584607F0A5FDCBE77388013373802B78F0
:102240001A07C5D50B4A03F0F70313702BB1FFF73C
:102250002BFE012103F0FCF8BAE7FFF725FE012170
:1022600003F001F9B4E7A9F80040404609B0BDE821
:10227000F08F00BF1CC6072095740200D1740200C5
:102280004C7402008C740200A474020070B58CB00F
:102290000E460446FFF708FE042103F0D9F8202378
:1022A000ADF82C300BAB0093204602A90DF10902CA
:1022B00003ABFFF707FF9DF80950022D10D12378DB
:1022C0000A20584307F0D5FA012300939DF808101F
:1022D0002046032203AB8DF80C60FFF7F3FDDEE729
:1022E000042D05D1FFF7E0FD294603F0BCF804E01A
:1022F000012DD4D12046FFF7C7FD01200CB070BDE1
:10230000014B0360704700BF087502000120704751
:102310000120704701207047014B0360704700BFE8
:102320000875020010B5034B04460360FDF7A2FFD9
:10233000204610BD0875020010B5034B044603602B
:10234000FDF798FF204610BD0875020013B5002266
:102350000B46009208494FF40062044606F074FFF1
:10236000064B2360FEF708FE642107F057FE322378
:102370002046E36102B010BD4C75020028750200D2
:102380001FB5FEF7F9FD00210A464123044608F077
:1023900001FB0A2007F06DFA002102230A46009390
:1023A000204603AB08F0E1FA9DF80D309DF80C4093
:1023B0000A2003EB042407F05CFA20460DF03CFAF7
:1023C0000C490DF041FB0C490DF080F90021044649
:1023D0000DF024FC20B1204608490DF079F904469F
:1023E000204606490DF02EFC00B10024204604B022
:1023F00010BD00BF0000204100008C420000B4432B
:1024000010B50446FFF7BCFF084B18602046FFF7E5
:10241000B7FF0CF0D1FD0022054B0CF04BFF0DF087
:10242000E1F8044B1870012010BD00BF20C7072041
:102430000000324039C70720014B0360704700BFDE
:1024400008750200014B0360704700BF0875020069
:10245000014B0360704700BF08750200014B036029
:10246000704700BF08750200014B0360704700BF52
:102470000875020010B5034B04460360FDF7FAFE31
:10248000204610BD0875020010B5034B04460360DA
:10249000FDF7F0FE204610BD0875020010B5034B95
:1024A00004460360FDF7E6FE204610BD08750200F5
:1024B00010B5034B04460360FDF7DCFE204610BD5B
:1024C0000875020010B5034B04460360FDF7D2FE09
:1024D000204610BD0875020007B5042300930021B3
:1024E0000E22044B0448FFF7EDFC012003B05DF819
:1024F00004FB00BF39C707203EC7072007B5094BBB
:10250000DB7813B9084A538113811023009300210B
:102510001222054B0548FFF7D5FC012003B05DF8FA
:1025200004FB00BF39C7072050C707203EC707205C
:1025300013B500220B46009205494FF48062044611
:1025400006F082FE034B2046236002B010BD00BFA0
:10255000807602003076020037B500250B460095E4
:1025600006494FF48062044606F06EFE044B204696
:102570002360044B9D7203B030BD00BF9076020013
:102580006876020060C7072084B01FB5184C07A802
:1025900080E80E002046FFF76FFCADF808002046EB
:1025A000FFF76CFCADF80A002046FFF769FCADF8B8
:1025B0000C002046FFF766FCADF80E00282009F05D
:1025C00027FA0823009320466B4402210622FFF7D6
:1025D00079FC084B64221978013191FBF2F002FB7F
:1025E000101201201A7004B0BDE8104004B070470A
:1025F0003EC707204CC7072084B0F0B587B00DA8B0
:1026000080E80E009DF843709DF84250274E0EABB7
:1026100003AC93E8070007F0010784E807002448AB
:10262000294632780EF0ECFC33460FB100223270AE
:102630001B781E4EAB4232D16B1C33708DF8165096
:102640009DF8173017B343F001038DF81730194B7D
:1026500094E8070083E80700DB7A012213F0020FF9
:1026600005D10092144805210A22334607E00021D3
:1026700006AB114803F8101D009205210A22FFF74E
:1026800021FC31780D480EF0BBFC08E067F3000335
:102690008DF817300A4B94E8070083E80700012003
:1026A00007B0BDE8F04004B0704700BF38C707204E
:1026B000A176020060C707203EC70720CB76020044
:1026C0002CC70720F8B50C4D2B6893B90820FDF7EF
:1026D000CFFD0A4E0446336833B91C20FDF7C8FD10
:1026E000074607F0D1FC376033682360402323712D
:1026F0002C602868F8BD00BF28C70720F8C1072054
:1027000038B590F831300446062B08D1FFF7DAFFD0
:102710002D2102F027FEFFF7D5FF2D2146E000EB2B
:10272000031202F138018868D0B10578FFF7CAFFBB
:102730002D09092D94BFE9B205F1140102F012FE32
:1027400094F8313004EB03131B6C1D78FFF7BAFFCC
:1027500005F00F05092D94BFE9B205F1140125E03C
:10276000496859B1FFF7AEFF94F8313004EB031319
:10277000DB6B93F9001002F02AFE23E0516BC1B12C
:10278000926BB2B1FFF79EFF94F8313004EB031364
:102790005B6B93F9001002F0E5FDFFF793FF94F8EF
:1027A000313004EB03139B6B93F9001002F0E6FD4C
:1027B00008E00133072293FBF2F2C2EBC2029B1A3C
:1027C00084F831301B4D2B681BB90120FDF750FDFB
:1027D0002860286802F060FE00F00F0002280FD089
:1027E000042817D0012822D194F831300722013370
:1027F00093FBF2F2C2EBC2029B1A84F8313012E072
:102800000D4B14221978013191FBF2F002FB1012EA
:102810001A7008E0084B14225978013191FBF2F04C
:1028200002FB10125A704FF4FA7009F0F1F801200F
:1028300038BD00BF24C7072039C7072073B53C4EF9
:1028400033782BB1FFF730FB012102F001FE04E0E9
:10285000FFF72AFB012102F006FE21213548FFF790
:1028600015FD3420FDF704FD002533494FF4806247
:1028700003230095044606F0E7FC304B2046236016
:102880003B23E36106F0AEFC3420FDF7F1FC4FF48E
:1028900080622B4903230095044606F0D5FC294BA2
:1028A0002046236040F28F33E36106F09BFC342026
:1028B000FDF7DEFC0321044600F0F0FA204606F0A6
:1028C00091FC3420FDF7D4FC03210446FFF73EFDC4
:1028D000204606F087FC9420FDF7CAFC02230095F1
:1028E00019494FF48062044606F0AEFC174B236092
:1028F000234610350022602D5A639A63DA631A6406
:1029000003F11003F5D16423E36184F831202046FC
:1029100006F068FC0E4BC4F8906063630133A36358
:102920000C4B63640C4BA3640C4BE36702B070BDAB
:102930001CC607203EC70720DA760200D0750200C9
:10294000F1760200F07502000977020010760200AD
:1029500039C707206AC7072036C707204CC707209A
:1029600000B520238DB0ADF82C300BAB0093174889
:1029700003AB02A90DF10902FFF7A4FB9DF8093092
:10298000012B02D11148FFF77FFA114B0022186882
:1029900002A9134608F0CCFBA0B90E4B1A7842F0FE
:1029A00010021A70FFF780FA012102F051FD0A4B64
:1029B0000220009309490A4AD82306F023F909485E
:1029C0000EF096FB01200DB05DF804FB3EC707201A
:1029D00048C707201CC607203F7702001377020074
:1029E0006C7702004F770200F0B5224B93B008AE2F
:1029F0000746314618684FF0FF32002308F068FCA4
:102A0000002833D01C4B1A78D1060ED502F0EF0205
:102A10001A702AB1FFF748FA012102F019FD04E00B
:102A2000FFF742FA012102F01EFD9DF82130052B2F
:102A30000FD0102B1AD16C460BAD0FCD0FC495E8FB
:102A4000070084E80700384696E80E00FFF7D4FD3B
:102A50000CE06C460BAD0FCD0FC495E8070084E881
:102A60000700384696E80E00FFF78EFD012013B0F0
:102A7000F0BD00BF48C707201CC6072008B50421C9
:102A80000623064A0648FFF7E6F9202028210022FF
:102A900008F01DFB034B186008BD00BF00C00720F5
:102AA0003EC7072048C70720014B0360704700BF9F
:102AB0000875020010B5034B04460360FDF7DAFB0E
:102AC000204610BD0875020008B504480EF098FABB
:102AD000034B64221A81012008BD00BF9C770200CD
:102AE00050C70720000000002DE9F04F084687B0CE
:102AF00090461E460CF060FA53A3D3E900230CF075
:102B0000AFFA0022524B0CF0D5FB044630460D467E
:102B10000CF052FA4CA3D3E900230CF0A1FA0022E6
:102B20004B4B0CF0C7FBDDF8409006460F4648467D
:102B300041460CF0CBFD0CF03FFA43A3D3E9002350
:102B40000CF08EFA0022424B0CF0B4FB0CF06AFD44
:102B50000CF032FA82468B460AF09EFA02460B4689
:102B600030463946019200930CF05CFD0CF024FADB
:102B700006460F460AF04AFA80468946204629460C
:102B80000CF050FD0CF018FA04460D460AF03EFA1F
:102B9000CDE90201304639460AF07EFA06460F4674
:102BA000204629460AF078FACDE9040150465946F4
:102BB0000AF02CFA019A009B82468B461046194671
:102BC00042464B460CF04CFA0CF02CFD0CF0F4F99C
:102BD000324604460D463B46DDE902010CF040FA60
:102BE000424606460F464B46DDE904010CF038FA32
:102BF00052465B460CF034FA02460B4630463946E4
:102C00000CF07AF80CF00EFD0CF0D6F902460B46EB
:102C1000204629460AF08AFA0CF004FD0CF0CCF9A3
:102C200000220B4B0CF01CFA07A3D3E900230CF095
:102C300041FB0CF0F7FC07490CF04AFD054907B0D1
:102C4000BDE8F04F0AF0CABA182D4454FB210940E0
:102C5000008066400000B4432DE9F84F1846154641
:102C60001C4688460CF032FD0CF0A6F950A3D3E9BF
:102C700000230CF0F5F90022514B0CF01BFB0CF07B
:102C8000D1FC0CF099F900224E4B0CF0E9F90AF056
:102C900003FA064640460F460CF08EF944A3D3E9EA
:102CA00000230CF0DDF90022454B0CF003FB0CF087
:102CB000B9FC0CF081F90AF0A9F980462046894652
:102CC0000CF07AF93AA3D3E900230CF0C9F90022F9
:102CD0003B4B0CF0EFFA0CF0A5FC0CF06DF90AF090
:102CE00095F982468B460A9829460CF0EFFC0CF0C9
:102CF00063F92FA3D3E900230CF0B2F90022304B83
:102D00000CF0D8FA0CF08EFC0CF056F900222D4B8A
:102D10000CF0A6F90AF0C0F9324604460D463B46CF
:102D2000304639460CF09CF9524606460F465B4643
:102D3000404649460CF094F922462B460CF090F997
:102D400022462B460CF08CF902460B46304639469B
:102D50000BF0D4FF0CF066FC06460CF02DF90AF0DF
:102D6000E7F904460D464FF07E5031460CF0AEFCBC
:102D70000CF022F90AF0DCF902460B4620462946FF
:102D80000AF0D4F902460B460BF0B8FF0CF04AFCEF
:102D90000D490CF0A5FD0CF00FF907A3D3E90023B2
:102DA0000CF05EF90CF03EFCBDE8F88FAFF300804C
:102DB000182D4454FB210940D26F5F07AEA1A940F2
:102DC000008066400000E03F0018C745AFF3008078
:102DD00073B51E4E30680CF0EFF8044670680D466F
:102DE0000CF0EAF822461A4CCDE900012B461948AE
:102DF0000EF006F920680CF0DFF802460B46164884
:102E00000EF0FEF860680CF0D7F802460B46134847
:102E10000EF0F6F8124B5D78124B18680CF0CCF8F7
:102E200002460B46104829460EF0EAF821890F4861
:102E30000EF0E6F861890E480EF0E2F80D4B0E48F0
:102E4000197802B0BDE870400EF0DAB860C707200C
:102E500050C70720A1770200B5770200C2770200B1
:102E600039C7072074C70720D0770200E677020031
:102E70000378020038C707201F78020038B5064CD7
:102E8000236833B92C20FDF7F3F9054607F02AFC37
:102E90002560206838BD00BF6CC707202DE9F341CD
:102EA00000220B4600921C494FF42052044606F0C3
:102EB000CBF91A4B1A4E2360FFF7E0FF0A234FF4B9
:102EC00016414FF4FA6207F0EBFBC723E361336866
:102ED0009BB90820FDF7CCF9124F05463B683BB97A
:102EE0001C20FDF7C5F9804607F0CEF8C7F8008032
:102EF0003B682B6040232B713560306802F04AFA42
:102F0000094B20461A7B6FF300021A73074B00220D
:102F1000DA7002B0BDE8F0813778020098780200DC
:102F200028C70720F8C1072050C7072039C7072046
:102F30002DE9F04FF1B08046FFF7A0FF00210446D5
:102F40004FF4967225A80DF054FB204625A94FF4A6
:102F500096724FF0FF3307F01FFC25A81B490EF0B7
:102F600004FC0446002800F07B81194B21461A8896
:102F70009B78ADF810208DF81230164B15AD1868FF
:102F80009A889B790B908DF8323011A82C23ADF8DC
:102F90000C30ADF8302006F045FC04A90BAA11A8AE
:102FA00006F003FC22460C4911A806F0A3F92046BE
:102FB00003A90FF045FA044684B145F8044F0020F8
:102FC00003A90FF03DFA0446F6E700BF3B78020084
:102FD0007C7802007F780200FA8902001698A249E4
:102FE0000EF04CFB002840F038811C989F490EF0F1
:102FF00045FB002800F03181DDF864A09C49504673
:103000000EF03CFB002840F02881DDF86C909949D7
:1030100048460EF033FB002840F01F81964E974F34
:10302000337B386843F00103337300210CF0ECFD6F
:1030300098B9786800210CF0E7FD70B9904D2B68C5
:1030400023B90120FDF714F90470286028680421D1
:1030500002F0FEF98B4B0122DA70002107220DA845
:10306000ADF814108DF816100DF0C3FA189C02225A
:10307000214605A80EF054FB834906AA05A80EF0C8
:1030800055FAA11C07220DA80EF04AFB07AA7E499B
:103090000DA80EF04BFA06980BF08EFF0446079829
:1030A0000D460BF089FF0022784B0CF003F9024625
:1030B0000B46204629460BF021FE0CF0B3FA74496A
:1030C000044650460EF0DAFA08B904F10044002133
:1030D00007220FA8346008910DF08BFA1A9C032286
:1030E000214608A80EF01CFB674909AA08A80EF0A3
:1030F0001DFAE11C07220FA80EF012FB0AAA624972
:103100000FA80EF013FA09980BF056FF04460A9820
:103110000D460BF051FF00225C4B0CF0CBF8024641
:103120000B46204629460BF0E9FD0CF07BFA51498D
:10313000044648460EF0A2FA08B904F10044FB7AAE
:103140007460D90709D54C4A6FF300031168514ADE
:103150001160514A1460494AD3727B682246009339
:1031600031683B684046FFF7BFFC4C4B454C18604C
:103170000BF022FF00224A4B0CF09CF80CF032FAC4
:1031800073686070DFF80CB10093434BDBF80010FC
:103190001A6840463368FFF75FFD424D8146288834
:1031A0000CF04AFB014648460CF092FA81463889F9
:1031B0000CF042FB49460CF089FA0CF07DFD7B686F
:1031C000308100933B68316872684046FFF744FDE8
:1031D0000CF072FD70814046FFF7FAFD7389DFF84D
:1031E0009CA0132B39D830489AF80A100DF008FF2C
:1031F0009AF80B309A072CD4DAF80030264ACBF82C
:1032000000302A4CDAF80430136094E807008AE8AA
:10321000070028880CF010FB2549064648460CF0AC
:1032200055FA014630460CF053FA0CF045FDE37AAE
:1032300028809B0711D41F4C0123009305210A22EB
:1032400023461D48FEF73EFE21781C480DF0D8FEAF
:1032500003E00023E3700123A37011A806F02FF808
:10326000012071B0BDE8F08F3B780200FC880200BD
:10327000B39802004278020050C7072060C70720B9
:1032800018C2072039C707204478020000004E40CA
:10329000397802007CC7072070C7072074C7072051
:1032A0000000324078C70720477802002CC707206B
:1032B0000000A04138C707203EC707205E78020003
:1032C00001480DF015BF00BFB078020038B50446C4
:1032D0000D4609F073FA074BB0FBF3F00223B0FB85
:1032E000F3F2954201D3236138BDB3F5807FFAD064
:1032F0000233F4E740420F007FB500F235260D4659
:103300000122314604F028F9C4B24CBB04A941F8AB
:10331000044D304602AA04F0FEFCF8B9029A039963
:10332000937892695943023A5A435208B2F5004FD2
:103330001048114B2CBF4FF4806401244FEA510117
:1033400028BF0346B1FBF4F18DE80A000B4829467B
:10335000B2FBF4F20DF054FE012008E0084B00E04F
:10336000084B0948294662B20DF04AFE002004B01D
:1033700070BD00BFEE780200EB780200F878020022
:10338000F1780200F57802002679020038B5084D80
:103390002B685BB90C20FCF76BFF0446FDF7ECFDD6
:1033A0009023237100232060A3602C60286838BD1F
:1033B000F0C1072010B5044C23681BB90120FCF7AD
:1033C00057FF2060206810BDF4C1072010B5044CE1
:1033D00023681BB90120FCF74BFF2060206810BD5B
:1033E00024C70720AD49AE4A4023F0B58B614FF0AA
:1033F000007393614FF480338B61AA4BADF5057D6B
:103400001868072520F0F00018601868022440F0C2
:1034100050001860186820F440501860086840F0A8
:1034200040000860186820F47C201860186840F498
:1034300028201860186820F470001860186840F49C
:1034400020001860186820F040401860186840F0AC
:1034500000401860586820F03C005860586840F000
:1034600028005860586820F003005860086840F44D
:1034700080300860586820F440505860086820F494
:1034800080000860D96821F44031D960116841F0AA
:1034900080711160596821F440215960596841F4E4
:1034A000802159609868804901409960116841F411
:1034B000897141F001011160996821F470119960DE
:1034C000996821F070419960116821F446411160BA
:1034D000D96821F03001D960D96841F03001D96054
:1034E000D96821F47011D960136843F00073136038
:1034F000136823F08063136006F0FCF90A200121B1
:1035000008F080FF0A20012108F094FF674801219C
:1035100005604460FFF7DAFE06F078FF1520012110
:1035200008F070FF1520012108F084FF6048012198
:1035300005604460FFF7CAFEFDF71EFD642106F03A
:103540006DFD10B95B480DF0D3FD08F097FF01F059
:1035500019FE10B958480DF0CBFD4FF4FA6006F093
:1035600088F9FFF7ADFE09F029F90CF061F953492C
:103570000CF06AFA0BF020FD02460B4650480DF0A5
:103580003FFD08F013FE052804AC14D1002363604E
:103590004C4B1B682360FFF793FE4B4B4B48D96C99
:1035A0001A6D5B6D00940DF02BFDFFF789FE41F263
:1035B000883006F05EF9FCF78BFF4549FFF79CFE6B
:1035C000054668BB43480DF01BFD02F09FFFFCF76A
:1035D0007FFF29462A4600F2352004F099FD3E4B34
:1035E0003E4A002814BF104618460DF081FDFCF736
:1035F0006FFF3749FFF780FE90B939480DF078FD2D
:1036000002F006FF014637480DF0FAFC02F0F0FE2A
:10361000054602F0FDFE05FB00F133480DF0F0FC1D
:10362000324D334E2B6813F0010716D1284609F0AE
:10363000B1FB90B14FF40E70FCF71AFE012280F836
:103640003422312280F835223A2280F8362280F85E
:1036500037723060284609F0ABFB30682549264EAA
:10366000FFF74AFE11481821FFF730FEFFF728FE4A
:1036700033684BB90820FCF7FBFD0546FDF77CFCE1
:10368000382328602B713560306801F0FFFD054656
:10369000B0BB1A480DF02CFD33E000BF00C009207C
:1036A00020C0092000C00240F0FCFCFF00000340E5
:1036B000008008406A7902009B7902000024744966
:1036C000C07902004440024000400240D879020024
:1036D000507A0200587A0200597902005E7902009D
:1036E000957A0200B47A0200C37A020000C2072071
:1036F000E8C107209669020084C70720DE7A02002D
:103700000125FFF743FE01F0D3FE064618B97348C2
:103710000DF0EEFC3546FEF7D5FF01F03BFE064608
:1037200018B96F480DF0E4FC35466E4E33681BB98E
:103730000120FCF79DFD3060306801F0FBFDFFF7D4
:1037400039FE01F0A2FEFEF7AFFB01F05FFEFFF7CE
:103750003DFE01F09FFEFEF7A7FB002101F058FEA1
:1037600095B9FFF7ADFDFEF7ADFF2D2101F0FAFD94
:10377000FEF7A8FF2D2101F001FEFEF795FB4FF0AB
:10378000FF3101F045FE0CE0FEF79CFF0546FFF718
:10379000FDFD01F0B9FE0CF069FA41B2284601F0D6
:1037A00016FE0021102220460CF023FF4E48214631
:1037B0000F22002301F038FF80B920460CF083FD72
:1037C000C5B2284600F054FE484A494B2946002815
:1037D00008BF13464748444A0DF012FCFFF7EAFDC4
:1037E00001F055FE054600200FF018FA28440DF0B0
:1037F00087FC4FF40072002120460CF0FAFE2046B0
:1038000008F07AFE21463C480DF0FAFBFFF758FD20
:103810008022002120460CF0ECFE204602F0D4FD70
:1038200094F90020531C05D02146D2B233480DF044
:10383000E7FB29E0FFF7CAFD01F02EFE09281DD1A4
:103840002F480DF055FC21462E480DF067FD21460E
:103850002D480DF0D5FB2D480DF04AFC00232C48D7
:1038600003A903930DF05AFD9DF90C30592B03D198
:10387000204602F089FD07E0264803E026480DF0C7
:1038800037FC26480DF034FC4FF208031D684FF258
:103890000C031E684FF210031C684FF204031968F2
:1038A0004FF470431A68AD0AB60A1D480DF0A8FB24
:1038B0002A4631461B480DF0A3FB21461A480DF05D
:1038C0009FFBFFF7FDFC012005F020F917480DF0E4
:1038D0000FFCFFF7F5FC0DF5057DF0BDF97A020050
:1038E000137B020080C707202C7B0200EF6D0200D3
:1038F00064790200327B0200FA890200667B0200D2
:10390000827B0200A47B0200A97B0200C47B020030
:10391000077C02000B7C0200237C0200517C020029
:10392000837C0200AF7C0200DC7C0200F97C020098
:1039300010B5044C23681BB90120FCF799FC2060EA
:10394000206810BD80C7072001207047F8B50446E5
:103950000E46C06889000DF037FCA568E060AF0036
:10396000B5420BD20C20FCF783FC002303604360BC
:103970000372E3680135D8510437F1E76660F8BD9A
:1039800038B5114B044603600025636DE06D9D4220
:1039900005D250F82500FCF76DFC0135F5E708B1BC
:1039A000FCF76AFC0025A36B206C9D4205D250F801
:1039B0002500FCF75FFC0135F5E708B1FCF75CFC7E
:1039C000024B2046236038BD207D020008750200AE
:1039D00010B50446FFF7D4FF2046FCF74BFC204609
:1039E00010BD0000F7B500240B464FF48052009440
:1039F0002549064605F028FC244B042533607563F1
:103A0000B463F463346406F134000221FFF79EFFCF
:103A100035657465B465F465204660210DF0D4FB0E
:103A2000B46DF065A500172C0CD81020FCF720FC15
:103A30000021102207460CF0DCFDF36D01345F51CC
:103A40000435F0E718237365012386F87030104CB5
:103A50000023A6F87430A6F87630B367002200235E
:103A60000025C6E92023C6E9224508F031FD4FF4C0
:103A70007A7200230CF040F9001941EB0501C6E908
:103A80002001304603B0F0BD387D0200207D0200E9
:103A9000C0D40100F8B591E860000F7A14468FB1E8
:103AA000082A0FD1304605F01CFC00281BDD2846F3
:103AB0000E494FF0FF3206F04CFE3046012105F072
:103AC0001DFD08E00A2C05D00D2C03D03046214600
:103AD00005F036FE4FB12B6828465B6821464FF053
:103AE000FF329847F8BD0724F5E7F8BD417D020095
:103AF000F8B50446142016460D46FCF7B9FB8021A4
:103B0000074605F0CDFDA36BE26B9A4206D3626BCC
:103B1000991803D204F13400FFF718FFE36B226C0D
:103B2000591C52F82330E16383E8A0001E72F8BDEF
:103B30002DE9F043CF6B85B005460E4601AC4FB979
:103B40004FF47A7007F064FF204639460C220CF0DF
:103B500050FD4CE00B6C1B6893E8070084E80700FD
:103B600000238DF8033007F01BFE00278046F26B20
:103B700097425CD2336C013A53F8273097420CBF1E
:103B80000222002218684FEA8709017C002936D0FA
:103B90000168D1F800C00DF10301E04778B3F36B81
:103BA0009F422ED2336C53F8093093E8070084E823
:103BB00007009DF9032030462146FFF76BFF08F010
:103BC00087FC4FF47A7200230CF096F8D6E9222392
:103BD000801841EB0301C6E92001029805F081FB42
:103BE0000746029805F080FB013887420CDB94E819
:103BF000070085E80700284605B0BDE8F0830137D7
:103C0000B5E706F14403D0E7D6E9222352EA0301DF
:103C100015D008F05DFC4FF47A7200230CF06CF8BC
:103C2000D6E92023994208BF904208D30CE007F060
:103C3000B7FD4045D1D1012007F0EAFECDE79DF95F
:103C400003300A2B8FD1D2E708F042FC4FF47A728E
:103C500000230CF051F8D6E92223801841EB030130
:103C60000023C6E920010193C1E700002DE9FF41CF
:103C7000074621480DF0C4F901A83946FFF758FF5F
:103C8000019E1EB91D480DF033FA31E0DDF80880C1
:103C9000404605F026FB00282ADD08F019FC044602
:103CA000F8B1B7F8743007F150000133A7F8743059
:103CB0004146324604F06AFD114B00271868009017
:103CC00033681DF907105B6830464FF0FF3201374B
:103CD0009847042FF4D108F0FBFB011B09480DF0B5
:103CE0008FF9404605F002FB336830469B689847E1
:103CF000012004B0BDE8F081447D0200616C020047
:103D00000D7D02004A7D020038B5064C236833B9A8
:103D10002C20FCF7ADFA054606F05AFC2560206819
:103D200038BD00BFFCC1072010B50446FFF7ECFF0B
:103D3000036821465B684FF0FF32984740B210BDE0
:103D400013B5002302AC04F8013DFFF7DDFF036863
:103D500021461B684FF0FF3298479DF9070002B0DB
:103D600010BD00002DE9F04100F150048AB000259B
:103D70000646009520465B495B4A5C4B04F024FCF8
:103D8000009520465A495B4A5B4B04F01DFC0095A8
:103D900020465A495A4A5B4B04F016FC00952046CF
:103DA00059495A4A5A4B04F00FFC0095204659498C
:103DB000594A5A4B04F008FC009520465849594A84
:103DC000594B04F001FC009520465849584A594B7C
:103DD00004F0FAFB009520465749584A584B04F026
:103DE000F3FB009520465749574A584B04F0ECFB2B
:103DF000009520465649574A574B04F0E5FB00957D
:103E000020465649564A574B04F0DEFB00952046A3
:103E10005549564A564B04F0D7FB00952046554964
:103E2000554A564B04F0D0FB009520465449554A5C
:103E3000554B04F0C9FB009520465449544A554B54
:103E400004F0C2FB009520465349544A544B04F0F9
:103E5000BBFB009520465349534A544B04F0B4FB36
:103E6000009520465249534A534B04F0ADFB009550
:103E700020465249524A534B04F0A6FB0095204677
:103E80005149524A524B04F09FFBFFF73DFF4FF45C
:103E900080734FF416412022054606F077FB012778
:103EA00080462F744B48FCF749FA4B48FCF740FA20
:103EB000304629463A46FFF71BFE03A9082205A80B
:103EC00005F0E8F905A8454905F0BCFC05A92A4616
:103ED000204604F05BFC05A805F0F1F940460AB065
:103EE000BDE8F08161050100AA7D0200607D02004D
:103EF0004D060100977D02009F7D02002111010007
:103F0000BD7D0200AF7D020071060100057E02004A
:103F1000C47D0200C50801000A7E02000E7E020078
:103F200045080100AD7E02006A7E0200250D0100F9
:103F3000AC7E0200B07E0200F5090100FB7E0200AB
:103F4000FE7E0200A10B01002C7F0200327F0200E6
:103F5000190C0100577F02005A7F0200750C010006
:103F6000AE980200877F0200DD0B0100AC7F0200EB
:103F7000AF7F0200990F0100D27F0200D67F0200BE
:103F8000610E01008880020090800200150F010080
:103F9000D3800200DA80020035070100ED800200C4
:103FA000F1800200450F0100B3810200B9810200D7
:103FB0003D170100B7790200E18102007113010091
:103FC000FF8202000B820200C5120100D9690200C3
:103FD000C8820200413D0100293D01003D70020000
:103FE000014B0360704700BF0875020010B5034B1A
:103FF00004460360FCF73EF9204610BD0875020038
:1040000008B501F0F9F8012008BD000037B5FEF74A
:1040100015FC3420FCF72CF904210446FEF788FA3D
:10402000204605F0DFF83420FCF722F9032104468E
:10403000FEF792FA204605F0D5F89020FCF718F923
:1040400003210446FFF7CEFC204605F0CBF83420D0
:10405000FCF70EF900244FF4007209490094042380
:10406000054605F0F1F8074B28462B6005F0BAF835
:104070002046214605F0C6F84FF0FF3003B030BDB2
:10408000B779020048830200242310B503FB010323
:1040900098420BD0417839B1018C4FF6FF7411442E
:1040A000A14228BF214601842430F1E710BD000061
:1040B00037B5002302A840F8043D0C4B04215B688F
:1040C00098470B4B019A1C680546141B1A60094857
:1040D00022460421FFF7D8FF074802212246FFF7B6
:1040E000D3FF281C18BF012003B030BD88C70720AC
:1040F00050C807209CC7072074C8072008B50B4B81
:104100001A78037893420A4B03D119880131198038
:1041100002E0998801319980064B8270DB6820218A
:104120009847003018BF012008BD00BF11C007200C
:1041300044C8072088C707200A4B02781B789A4298
:10414000094B03D1DA880132DA8002E01A890132A0
:104150001A810379C3F3C202073262F3C503037104
:10416000FFF7CCBF11C0072044C8072010B50023BB
:10417000064A990012F82340844201D1501810BD1C
:104180000133042BF4D1002010BD00BF61C807200B
:1041900070B1C3780133DBB2FF2BC37008D10023A9
:1041A000044A1A44D17804334908102BD170F7D14E
:1041B000704700BF61C8072070B5242202FB0101CF
:1041C000034602468A4206D01046243212F8234C97
:1041D000002CF7D112E0184600228B420ED01C7939
:1041E0001E8CC4F3C20446EA0444A2421D4624BF06
:1041F00014460546243322462846EEE770BD0000EB
:1042000038B501310446CD00FFF752FF1B4B1A7839
:1042100023789A4204D102211948FFF7CDFF0CE020
:1042200018480421FFF7C8FFE37833B990F823302A
:10423000042543F0800380F82330002380F82030E9
:1042400080F8213090F8233080F8225023F07F034B
:1042500043EA152580F823502346024604F1200145
:1042600053F8044B8B4242F8044BF9D1064A0379C8
:10427000127862F3C503037138BD00BF11C0072077
:1042800074C807209CC7072010C0072010B5FFF78F
:104290006DFF0446F8B9FFF769FF0446D8B90F4A25
:1042A000D378D179994238BF0B46D17A34BF141DE7
:1042B000144699423CBF0B46094CD17B094A9942AE
:1042C00038BF14462046042200210CF092F9064B18
:1042D000DA7A0132DA72204610BD00BF61C80720C9
:1042E00069C807206DC8072044C80720F8B52427EF
:1042F00007FB021705460C46BC4200F0B38094F859
:104300002310CB092BD0BDB12B786278934203D117
:104310006E78207886421CD0E87868B16878904240
:1043200008D122789A4205D1A379AA79D61A734284
:10433000734100E0002363B994F82220238C01F03C
:104340007F0142EA01218B42C0F28A802046FFF7BA
:10435000D5FE2046002124220CF04BF980E0637842
:10436000002B7DD0002D3CD02A799209032A1AD146
:104370006A782078904202D128789842E9D0E6788D
:10438000A878864210D1934209D120782A789042A9
:1043900005D1AA79A079801A4242424100E0002268
:1043A000002AD6D100E0E2B1A878E278904218D194
:1043B0006A789A4209D120782A78904205D1A0796A
:1043C000AA79821A5042504100E0002048B1227977
:1043D000002363F3C50284F8203084F82130227171
:1043E0003EE094F82200228C01F07F0140EA012196
:1043F0008A4235DB2179002284F8202084F82120AC
:10440000C1F3C202D6B21EB12046FFF795FE27E0E7
:104410008909032918D0144920780978884213D1D2
:10442000E178994210D079B16379E270032262F3A6
:10443000071363712046FFF77FFE0C4A2379127839
:1044400062F3C503237100E001266078FFF78EFE5A
:1044500018B1002104220CF0CCF8002E7FF479AFC3
:10446000243449E7F8BD00BF11C0072010C0072061
:10447000431EDBB2FD2B9DBF024B187001200020B4
:10448000704700BF11C00720014B1878704700BF6C
:1044900011C0072007289CBF014B1870704700BF50
:1044A00010C007202DE9F7430446914698469DF831
:1044B00028600D4600295BD0314B1F78B94259D096
:1044C000B8F10F0F56D8002856D0202200210CF04A
:1044D00090F8FF2D237914BF09F00302002262F344
:1044E0008713032262F30203264A6570127827704D
:1044F00062F3C503244A23711378A7700133DBB23A
:104500001370A3710BAB01930EB9012713E0019B4C
:10451000E0791A4652F8081B013E01925A68F6B239
:104520008718FFB2182F05D8083020440CF03DF84A
:10453000E771E9E70027DFF854900123284689F85E
:104540000030FFF713FE0646FFF722FE002389F82E
:104550000030637926B968F307136371E67005E0EC
:10456000B27862F3071363717378E370384603E03F
:10457000084601E00020FFE703B0BDE8F08300BF7C
:1045800011C0072010C0072073C8072071C807207A
:10459000154B012270B51A7004461E4608B9002555
:1045A0001DE0FFF7ABFD05460028F8D022799209FF
:1045B000D11C032A01F0030106D1E3782BB1627804
:1045C000D31A18BF012300E00023012903F00103DF
:1045D00000D923B1617920460909FFF711FE0023B4
:1045E0003370284670BD00BF71C8072082B0F0B597
:1045F0001746421ED2B28DB0FD2A04460D461393D3
:1046000001D900205AE0002BFBD0159B002BF8D0DD
:10461000179B002BF5D0169B002BF2D0149B002B80
:10462000EFD00021482228480BF0E3FF0021902220
:1046300026480BF0DEFF0021102225480BF0D9FFA1
:1046400000210C2223480BF0D4FF00210C22224829
:104650000BF0CFFF214B224E1C70224B34461D70B5
:1046600013AD0FCD0FC42B68002118221E48236004
:104670000BF0BFFF39461C4817220DF051F80020FF
:10468000B368014698470028BBD09DF8603013B945
:10469000FFF70EFD12E0154A012301920622029255
:1046A000009304A8FF210022FFF7FCFE0028A8D0F9
:1046B00004A8FFF76DFF0028A3D0E9E70DB0BDE81F
:1046C000F04002B0704700BF74C807209CC70720A5
:1046D00061C8072055C8072044C8072011C007201B
:1046E00088C7072054C807202CC807206083020011
:1046F00070B5182B8CB006460D4617D81C1C18BF79
:104700000124002A14BF214684F0010171B10192F5
:104710000293009404A831462A469DF84030FFF7E2
:10472000C1FE18B104A8FFF733FF00E000200CB071
:1047300070BD13B50446107852790B4612090092E9
:1047400003212246FFF7D4FF02B010BD30B500238D
:104750001A4608499C0011F823502DB1904201D10E
:10476000081930BD0132D2B20133042BF1D100203F
:1047700030BD00BF61C8072000231846044A9A5C78
:104780000AB10130C0B20433102BF7D1704700BF1B
:1047900061C807202DE9F04188B068460021202239
:1047A0000BF027FF9C4B1B7803F0FF04002B40F01D
:1047B00030819A4F68463B6920219847002800F0D5
:1047C0008280974D6B8801336B80FFF7D5FF9DF892
:1047D0000410A87201F00703032B04D0914B1A7840
:1047E00042F0010209E0904B1D789DF80230AB4287
:1047F00005D18C4B1A7842F002021A70DBE0C1F34B
:10480000C2019DF800E09DF80600CEB2874A131958
:10481000A25C724509D15A78824206D19A78012465
:10482000961B18BF0126997018E003340C2CEDD1AB
:104830007F4A136899707D49587001F109008342DD
:1048400083F800E040F0C48011609DF800009DF8FE
:104850000230834240F0BF80002426469DF80200CB
:10486000FFF714FD9DF8022002709DF802204270AF
:1048700000228270FFF78CFC002C08BF012616B3C3
:104880009DF80030AB4200F095809DF80160FF2E4E
:104890001BD13B6868462021984720B9614B1A78A4
:1048A00042F004021A709DF8053003F00F02511C0B
:1048B00061F303038DF80530C3F303139A4202DA60
:1048C0006846FFF71BFC002475E0B5422AD164B9A5
:1048D0009DF807304BB13B6868462021984720B9C6
:1048E000504B1A7842F004021A709DF804309B096C
:1048F000012B12D19DF8073013B94E48182108E05A
:1049000047480C216A46FFF714FF002852D10020C7
:1049100001466A46FFF70DFF4CE09DF80330002B7F
:1049200048D1F4E7444B1B78002BCCD09DF80540D0
:1049300004F00F082709B845C5DA3046FFF716FC22
:104940009DF8033008F1010868F303049D428DF8D7
:10495000054019D19DF804209209D51C05F00305E6
:10496000012D8CBF0025012508B1437800E00346E6
:10497000032A05D19E4203D0003318BF012300E073
:1049800000231D4330B90AE0A3B91D4610B968469B
:1049900039460DE043788DF80330847802E08DF8D5
:1049A000030004466846FFF7A9FB1DB1684621468F
:1049B000FFF726FC6C46FFF77BFB20461F490422CD
:1049C000FFF794FC20461E490222FFF78FFC20E0EF
:1049D0000333136039E785423FF43EAFFFF756FCDF
:1049E0000446FFF7D5FB23783BB19DF80520A3785B
:1049F00002F00F029A423FF72FAF9DF8003023706C
:104A00009DF8023063709DF80530C3F30303A37073
:104A100022E708B0BDE8F08171C8072088C70720E9
:104A200044C8072072C8072011C0072055C80720B6
:104A30000CC007202CC8072054C807209CC707209B
:104A400074C8072000231846094A1A4452780AB14C
:104A50000130C0B22433902BF6D1064B5A780AB1FC
:104A60000130C0B293F825300BB10130C0B27047AD
:104A70009CC7072074C8072008B5FFF777FB064BD3
:104A800028B18278187802FB0000C00008BD1B78AE
:104A90001820584308BD00BF10C0072003490B6809
:104AA00003604B6843608B688360704744C807208D
:104AB00030B5464C4FF48035E561454CA060E06868
:104AC000C506FCD442488068C0B2002B77D00B46A4
:104AD000002A68D0072A3E4C91F9005036DDA560C7
:104AE00091F90150083AA56091F90250A56091F939
:104AF0000350A56091F90450A56091F90550A56097
:104B000091F90650A56001F1080591F90710A1601F
:104B10002F498C696407FBD58C681C708C685C70AD
:104B20008C689C708968D9702949CC68E406FBD4EC
:104B30008C68083303F8044C8C6803F8034C8C68C9
:104B400003F8024C896803F8011C1EE0032A1EDDED
:104B5000A56091F90150043AA56091F90250A56051
:104B60000D1D91F90310A1601949CC68E406FBD42E
:104B70008C68043303F8044C8C6803F8034C8C688D
:104B800003F8024C896803F8011C2946A0E70131AB
:104B9000A560013AE568ED06FCD40D4C0133A4682C
:104BA00003F8014C94E7094B4FF480329A6140B20C
:104BB00030BDE568ED06FCD4054C0133A468934292
:104BC000F1DACD56024CA560F3E700BF00C0092022
:104BD0000080084007B5002302A9012201F8013D29
:104BE00000F01F001346FFF763FF9DF9070003B0B5
:104BF0005DF804FB07B502AB03F8011D00F01F00D0
:104C000019460122002340F02000FFF751FF03B0B6
:104C10005DF804FB08B51720FFF7DCFFC0F30010B8
:104C200008BD07207021FFF7E5BF03460A466FF075
:104C30005F0019460023FFF73BBF08B50020FFF7D0
:104C4000C9FFBDE8084020F0010149B20020FFF78C
:104C5000D1BF0000024B4FF08072DA61704700BF95
:104C600020C0092008B50020FFF7B4FF40F0010183
:104C700049B20020FFF7BEFF024B4FF080729A61ED
:104C800008BD00BF20C0092007202021FFF7B2BFC8
:104C900000216FF01E000A460B46FFF709BF000017
:104CA00037B50C460546FFF7F3FF21462846FFF7C8
:104CB000BCFF0D4B4FF080729A610022ADF80620C8
:104CC0001C46BDF8063001339BB2ADF8063033B94F
:104CD0004FF08073E361FFF7DBFF03B030BDFFF7F8
:104CE00099FF0028EDD0F3E720C0092008B5172070
:104CF000FFF770FF00F0010080F0010008BD072001
:104D00004021FFF777BF08B503460A4661201946E0
:104D10000123FFF7CDFEC0F3420008BD00216FF074
:104D20001D000A460B46FFF7C3BE70B504460020BF
:104D30000D461646FFF74EFF14B100F0BF0002E02B
:104D400040F04000C0B215B100F0DF0001E040F0DB
:104D5000200016B100F0EF0101E040F0100100204A
:104D600049B2BDE87040FFF745BF10B504460020CA
:104D7000FFF730FF14B900F0F7010DE0012C04D16A
:104D800000F0FB0141F0080106E0022C14BF40F0E6
:104D9000080140F00C01C9B2002049B2BDE8104042
:104DA000FFF728BF08B50020FFF714FFBDE8084053
:104DB00040F0020149B20020FFF71CBF08B50020F7
:104DC000FFF708FFBDE8084020F0020149B20020CB
:104DD000FFF710BF40F6DD13984206D840F6621385
:104DE000B0F5166F38BF184600E01846A0F51661FA
:104DF00049B20520FFF7FEBE10B504460620FFF7B6
:104E0000E9FEFA2C00F0D70102D141F0200104E0C4
:104E1000B4F5FA6F08BF41F00801062049B2BDE8B9
:104E20001040FFF7E7BE10B504460620FFF7D2FE9C
:104E3000032C34BF2146032100F0F90040EA410170
:104E400049B20620BDE81040FFF7D4BEF9284FF064
:104E5000FA0305D9B0F57A6F88BF4FF47A6000E0A5
:104E60001846B0FBF3F3013BDBB20F2928BF0F213B
:104E700041EA0311042049B2FFF7BCBE1130C0B2B1
:104E8000162806D8202928BF202140B249B2FFF7B2
:104E9000B1BE7047032804D004280CBF02210321AF
:104EA00000E001210320FFF7A5BE03460A4630209B
:104EB00019460023FFF7FCBD03460A462A2019467F
:104EC0000023FFF7F5BD000073B504460E461546F6
:104ED000FFF724FFFFF7DCFE2B4B4FF08072DA6107
:104EE000FFF76CFF00210A460120FFF71EFFFFF7C6
:104EF00098FE0220FFF739FF3046FFF76BFF284688
:104F0000FFF77AFF0320FFF78EFF02200321FFF750
:104F100071FE01200021FFF76DFE4FF4FA700321AE
:104F2000FFF794FF21460020FFF7A8FF1220002181
:104F3000FFF760FE13200021FFF75CFE1420002124
:104F4000FFF758FE15200021FFF754FE0021162020
:104F5000FFF750FE0D4B18681B79009005208DF867
:104F60000430FFF797FF68460521FFF79EFF68466C
:104F70000521FFF7A1FFFFF715FF4FF4FA6004F0DA
:104F800063FC02B070BD00BF20C00920678302002F
:104F900007B5094B002102AA186842F8041D0B4608
:104FA00006F05DF9019B1BB1044B4FF080521A6073
:104FB00003B05DF804FB00BFC4C8072004ED00E0A7
:104FC00070B5174E326822B90320202106F07FF811
:104FD0003060144D2A6822B90120202106F077F8AC
:104FE0002860114C216821B90120032206F06FF8D6
:104FF0002060202040F6C3114FF4FA62FFF764FFEF
:10500000FFF730FE16200121084A04F0EFFF306858
:1050100028B1286818B12068003018BF012070BD81
:10502000C0C80720BCC80720C4C80720914F010092
:1050300070B5037906469B09032B0CBF0D4B0E4B35
:1050400000221D6888B028463146134606F070F8E5
:10505000044660B9224623466946284606F038F9D8
:10506000224623462846314606F062F8044620468A
:1050700008B070BDBCC80720C0C8072038B50446BA
:105080000D46FFF701FA237883420AD0E37843B94B
:105090000CF060F8BD2300F0030000FB033004F0C7
:1050A000D3FBFFF7D7FDFFF7C8FD2046A9B2FFF7F6
:1050B000F7FDFFF7E9FDFFF7D5FD06F07BFE0228BF
:1050C00006D1044B002118680A460B4606F0C7F8C3
:1050D000012038BDC4C8072038B504460D46FFF787
:1050E00005FE48B1A9B22046FFF70DFEFFF7FEFD11
:1050F00008B9FFF704FE012038BD2DE9F0418046D4
:105100000F46164606F056FE022807D132464046A4
:105110003946002306F0DCF8C6B21CE007F0D8F9E7
:105120004FF47A7200230AF0E7FD841941F100057B
:10513000002240463946134606F0CAF8C6B256B9B0
:1051400007F0C6F94FF47A7200230AF0D5FD8D42BC
:1051500008BF8442ECD270B2BDE8F081042938B5B2
:10516000054603D1041C18BF012400E0002407F009
:10517000AFF92CB14FF47A7200230AF0BDFD28601C
:10518000204638BD00B50C4B8DB009930B4B0C4A33
:105190000B930C4B0A930CAB43F8102D0022049296
:1051A0000FCB8DE80F00084B0121084A6A20FFF75A
:1051B0001DFA0DB05DF804FBC14F0100D95001008C
:1051C0005D5101007D500100315001006C830200EF
:1051D0000A460349034608681946FFF78EBF00BF19
:1051E000C0C807200A460349034608681946FFF766
:1051F00084BF00BFBCC8072008B506F0DBFD0F4B1D
:1052000002285B6913D15A020DD5FFF71BFC0C4B2A
:1052100000284FF0000118680CBF4FF0FF32012248
:105220000B4606F055F8BDE80840FFF7B3BA5B023D
:10523000F9D5FFF707FC0028F5D108BD00C009200B
:10524000C4C8072030B504464DB253B294F90410D7
:105250002A460068BDE8304005F09CBB1FB500221F
:1052600004AB90F9044023F8042D4AB202210091C6
:105270000068214605F079FB9DF90C009DF80D3082
:1052800080B243EA002080B204B010BD10B52A21DC
:1052900004461922FFF7D6FF206894F904100D2266
:1052A00005F067FBB0F12A035842584110BD0000D9
:1052B000044A13881F2B04D8581C1080024A42F855
:1052C00023107047CCC80720D0C80720164BF0B574
:1052D00019881E46012923D9144B00221C46481E5A
:1052E000824203F1040307DA53F8040C1D6801320B
:1052F000281A43F8040CF2E7636803EB5307002312
:105300001A4699B2814209DA54F82150BD4203D9B4
:10531000012505FA01F10A430133F2E7044B1A6053
:1053200000233380F0BD00BFCCC80720D0C80720C1
:10533000C8C8072008B50220012107F063F8084B10
:1053400001209A6A22F007029A629A6A42F00602E3
:105350009A6203F51033DA6842F03002DA6008BD71
:105360000080004008B5044ACBB24171D25C0321F1
:10537000FFF768FF08BD00BF7183020008B5044A4B
:10538000CBB28171D25C0221FFF75CFF08BD00BF88
:105390007183020038B5044694F90410006805F0E2
:1053A00004FB054688B1204606210022FFF74AFF8C
:1053B000204607210022FFF745FF20462E21FFF758
:1053C000D1FF20462E21FFF7D9FF284638BD6423A0
:1053D00070B591FBF3F404FB13110A234CB294FB58
:1053E000F3F603FB164303F1300149B20546FFF71C
:1053F000C5FF092C02DC2846302103E006F130010C
:10540000284649B2BDE87040FFF7ACBF01207047A5
:105410000E4B01F00F0140F2131201709A610278F5
:10542000D10744BF0122DA610278920744BF022209
:10543000DA610278510744BF1022DA61027812075C
:1054400044BF4FF48072DA61704700BF20C009206A
:105450000122013902FA01F102781143C9B2017047
:1054600049B2FFF7D5BF0122013902FA01F10278F2
:1054700022EA0101017049B2FFF7CABF0AB1FFF782
:10548000E7BFFFF7F0BF00787047012070470220A8
:1054900004F06ABA01207047044B5B69C3F38130A2
:1054A000C3F3412343EA8000704700BF20C00920B6
:1054B00010B5012104468122FFF7C4FE206894F94B
:1054C0000410012205F055FA10F0600F0CBF002007
:1054D000012010BD38B500210446FFF7BFFE812230
:1054E00085B201212046FFF7ADFE102328B290FBC4
:1054F000F3F00AF0A1F94FF076510AF0F1F9A16842
:105500000AF0E6F838BD000008B5FFF7E3FF0549EB
:105510000AF0E6F904490AF097FA4FF084410AF0DC
:10552000D7F808BD000010410000A0402DE9F04F61
:105530000546ADF2546D0C46174682A82946012255
:105540009B4602F047F800286AD121460DF22C4014
:105550000A2202F03FF8044620B182A802F0AEFA17
:1055600020465DE00090019082460446064606F023
:10557000AFFF4FF47A7200230AF0BEFB02A9804607
:105580004FF4007282A86B4602F0B6F80546F8B9EF
:10559000009BEBB106F09CFF4FF47A7200230AF0F7
:1055A000ABFBB6EB080866EB060900EB080606F055
:1055B0008FFF4FF47A7200230AF09EFB02A9804607
:1055C000009A0DF22C4001AB02F054F90546A0B14F
:1055D00007B13E60BBF1000F01D0CBF80040DDF811
:1055E00078360BB1C3F800A082A802F067FA0DF27A
:1055F0002C4002F063FA284612E0019A009B9A427E
:10560000E6D106F065FF00234FF47A720AF074FBCE
:10561000009BB4EB080464EB040504449A44A6E739
:105620000DF2546DBDE8F08FF0B50446ADF50B7D7D
:105630000F46164621461D4601A80023012200936D
:1056400001F0C8FF044670B91DB101A8294602F057
:1056500047FA01A8394632466B4602F04DF8044637
:1056600001A802F02BFA20460DF50B7DF0BDF0B538
:105670000446ADF50B7D0F46164621461D4601A892
:1056800000230A22009301F0A5FF044670B91DB162
:1056900001A8294602F024FA01A8394632466B4691
:1056A00002F0E8F8044601A802F008FA20460DF5D9
:1056B0000B7DF0BDF0B50446ADF50B7D0F461646EB
:1056C00021461D4601A800231222009301F082FF0B
:1056D000044680B901A80DB1294600E0049902F002
:1056E000FFF901A8394632466B4602F0C3F804467A
:1056F00001A802F0E3F920460DF50B7DF0BD000096
:105700007F2816D931B1FF2812D80A4B803833F8D8
:1057100010007047074A8BB232F81120824203D042
:1057200001318029F6D10B4603F18000C0B27047E9
:1057300000207047F28302000023064A32F813204B
:1057400032B1904201D00133F7E7034A32F8130037
:10575000704700BFF2840200D286020010B501201B
:105760000C4605F056FD2060003018BF012010BD2A
:105770000120704710B5044606F01CFB02280AD130
:1057800000210B4620464FF0FF3205F0A1FD431EDD
:105790005842584110BD012010BD10B5044606F016
:1057A00009FB022807D1002120460A460B46BDE826
:1057B000104005F0BDBC10BD10B5044604F096FEC7
:1057C00024B1012C06D100F089F901E000F024FD9C
:1057D000044600E0042404F0A1FE204610BD20B1E0
:1057E000012801D100F038BA04207047F8B504460A
:1057F0000F4616461D4604F079FE3CB1012C0CD133
:10580000384631462A4600F02FFA04E03846314641
:105810002A4600F04FFD044600E0042404F07EFE1A
:105820002046F8BDF8B504460F4616461D4604F05E
:105830005DFE3CB1012C0CD1384631462A4600F0C1
:1058400061FA04E0384631462A4600F05BFD044622
:1058500000E0042404F062FE2046F8BD70B5044662
:105860000E46154604F042FE34B1012C0AD13046F2
:10587000294600F0A3FA03E03046294600F068FD0F
:10588000044600E0042404F049FE204670BD08B53B
:1058900006F01EFE4FF47A7200230AF02DFA08BDBE
:1058A00010B5044606F08AFF074BB0FBF3F0022365
:1058B000B0FBF3F2944202D3044A136110BDB3F576
:1058C000807FF9D00233F3E740420F00000003402D
:1058D000044B9860DA68D206FCD4024B986840B258
:1058E000704700BF0000034038B5FFF7D0FF00F558
:1058F000FA754FF0FF30FFF7EBFF4FF0FF30FFF787
:10590000E7FFC4B2FF2C07D0FFF7C1FF2A460023F0
:10591000994208BF9042F0D3204638BD38B5064CB6
:105920004FF00075E561FFF7DFFF044BA5611A78C2
:1059300042F001021A7038BD20C0092012C00720B1
:1059400070B505460E46FFF7A2FF00F164044FF064
:10595000FF30FFF7BDFFC0B2FF2809D1FFF797FF67
:1059600022460023994208BF9042F0D3002070BD28
:10597000FE28FBD1102E06D928464FF400710022D4
:1059800004F052FD19E02C464FF0FF30FFF7A0FF66
:1059900020704FF0FF30FFF79BFF60704FF0FF303B
:1059A000FFF796FFA0704FF0FF30FFF791FF043430
:1059B00004F8010CAB19A342E6D14FF0FF30FFF71A
:1059C00087FF4FF0FF30FFF783FF012070BD38B530
:1059D00005460C46FFF788FFFF281DD160B2FFF790
:1059E00077FFFD2C1AD04FF400714FF0FF3228469C
:1059F00004F01AFD4FF0FF30FFF76AFF4FF0FF3061
:105A0000FFF766FF4FF0FF30FFF762FF00F01F0067
:105A1000431F5842584138BD002038BD012038BDD1
:105A200038B5030604460D4607D577200021FFF759
:105A3000F7FF01283CD804F07F041E4B4FF00072A2
:105A40009A61DA61FFF750FFFF282ED160B2FFF7AD
:105A50003FFF2816FFF73CFF45F30740FFF738FFED
:105A600045F30720FFF734FF68B2FFF731FF402C02
:105A700004D0482C0CBF8720012000E0952040B2C4
:105A8000FFF726FF4C2C03D14FF0FF30FFF720FF2C
:105A90000A244FF0FF30FFF71BFF0028C3B206DADD
:105AA000013C14F0FF04F4D101E0FF2038BD18469A
:105AB00038BD00BF20C00920064A0749137849694C
:105AC000DBB2490154BF03F0FD0343F0030313703D
:105AD000704700BF12C0072020C009202DE9F347FE
