:020000021000EC
:10000000E03F082091010100FD000100E100010036
:100010000D0101001D0101002D0101000000000083
:1000200000000000000000000000000075BA0100A0
:100030003D01010000000000F9BA01005D0101006E
:10004000C5C00100C5C00100C5C00100C5C0010098
:10005000C5C00100C5C00100C5C00100C5C0010088
:10006000C5C00100C5C00100C5C00100C5C0010078
:10007000C5C00100C5C00100C5C00100C5C0010068
:10008000C5C00100C5C00100C5C00100C5C0010058
:10009000C5C00100C5C00100C5C00100C5C0010048
:1000A000C5C00100C5C00100C5C00100C5C0010038
:1000B000C5C00100C5C00100C5C00100C5C0010028
:1000C000C5C00100C5C00100C5C0010038740200F0
:1000D00000C00720CC010000D0C107205409000057
:1000E00004207146084200F00480EFF309800CF010
:1000F00007B8EFF308800CF003B8704708B5024862
:1001000000F0B8F9FEE700BFB26D020008B5024882
:1001100000F0B0F9FEE700BFBD6D020008B502486F
:1001200000F0A8F9FEE700BFC86D020008B502485C
:1001300000F0A0F9FEE700BFD36D020008B5024849
:1001400000F098F9FEE700BFE06D020008B5024834
:1001500000F090F9FEE700BFEE6D020008B50BF06D
:1001600057FC0BF0E7FCBDE808400BF065BC10B590
:100170000023934203D21C585C500433F9E710BDAE
:1001800000238B4203D200221A500433F9E7704750
:1001900015480BF06DFD14480BF06DFD134C144B1E
:1001A0009C4207D294E803000C3454F8042CFFF767
:1001B000DEFFF4E70F4B9C4205D294E80300FFF703
:1001C000DFFF0834F6E70DF0C5FD0BF06BFD02F024
:1001D0006BFE03F07DFC4FF416400CF0B5F80648BA
:1001E00000F048F9FEE700BFE03F0820CC00010026
:1001F000D8000100E0000100026E0200134A70B551
:100200001168034611B94FF0805111601068104910
:10021000C518104E2944B14298BF0F480B4C96BFE9
:1002200019182560216011680C4A914203D90C49C4
:10023000064A002011603BB10A4A11680131116081
:10024000094A1060094A136070BD00BFD4C107207D
:10025000FF7FFFEFFE3F071024CB0720FF3F082062
:1002600000400820DCC10720D0C10720D8C10720EA
:100270000DF0ACBD0DF0B2BD0DF0B0BD10B58AB043
:10028000044668460EF02AFA204B214A2360089B58
:100290002049A360079B636053B90B681E488342E3
:1002A0008ABF03F1604303F17043A3F5E823636061
:1002B0006368B3F5803F04D903F17043A3F5E823E5
:1002C00063600023E3600B6813498B4205D8C2F1D9
:1002D000405202F50C22D21A09E010498B4207D88D
:1002E000C2F1804202F58012D21A002A00DDE260DB
:1002F000E3610B4B20461B68A3610A4B1B686361DB
:10030000094B1B6823610AB010BD00BF240B00001D
:1003100024CB0720D4C1072000800010FF3F082015
:10032000D0C10720D8C10720DCC10720FEE70000AC
:10033000014B1860704700BFE4C10720014B1860F3
:10034000704700BFE0C1072008B502480EF00EFB61
:10035000FEE700BF3C42020008B502480EF006FB73
:10036000FEE700BF564202000020704701207047A0
:10037000F8B5084B15461A680E461F463AB10024D8
:10038000AC4204DA30573A6890470134F8E728461F
:10039000F8BD00BFE4C10720F8B5094B0E46186848
:1003A00015461F4650B10024AC4205DA3A680020D9
:1003B000904730550134F7E725EAE570F8BD00BFF6
:1003C000E0C107207047002070470000074B1B6802
:1003D0009A68824207D05A68824204D0DB681B1AAE
:1003E0005842584170470120704700BF50C1072054
:1003F000002070470020704730B504468DB00028BB
:1004000035D0684609F0C0FC9DF80030002503F0A7
:100410003F0303939DF8013003A803F03F030493C7
:100420009DF802300B9503F01F0305939DF80430EF
:1004300003F01F0306939DF8053003F00F03013B03
:100440000793BDF80630C3F30B03A3F26C73089354
:100450009DF8033003F007030993BDF80830C3F398
:100460000B03013B0A930DF0DDFD84E82100002021
:100470000DB030BD10B504460BF022FB013C14F862
:10048000010F18B140B20BF09BFFF8E7BDE8104038
:100490000BF028BB0FB470B5C2B046AC54F8046B77
:1004A0004FF480752A4602A800210DF0E0FC234697
:1004B0002946324602A8019411F0A2FA044602A885
:1004C000FFF7D8FF204642B0BDE8704004B0704747
:1004D00070B50F4C0F4D266816F0010615D1204659
:1004E0000CF0C4F988B14FF40E70FFF7C1FE302252
:1004F00080F835223A2280F8346280F8362280F87B
:100500003762286020460CF0BFF9286870BD00BF34
:1005100004C20720ECC1072070B50F4C0F4D2368B3
:1005200013F0010616D120460CF0A0F990B14FF45B
:100530000E70FFF79DFE012280F83422312280F8F0
:1005400035223A2280F8362280F837622860204629
:100550000CF09AF9286870BD00C20720E8C1072096
:100560002DE9F047ADF50A7D0E4608F0C0FD041EEA
:1005700004DD0BF019FA20460AF0B6FF0DF114095C
:100580002B4D4C460FCD0FC42B6810210DEB0102F3
:1005900000250AA8236004950AF0D0FF2549824669
:1005A000254A304609F08DFE2F460FAC4FF000086B
:1005B000D0451FD02368AB4218D16368049A1F440A
:1005C00022B16421B2FBF1F2B3FBF2F214F808ECB1
:1005D00000952189029289000191039330461749C1
:1005E00054F8102C59F82E3009F06BFE08F1010870
:1005F0002034DDE70135052DD7D1049B6422DF1BB4
:10060000B3FBF2F30E490F4AB7FBF3F30097304602
:1006100009F057FE0AF048FE102804D930460A496E
:10062000102209F04EFE01200DF50A7DBDE8F0878D
:10063000704202008F420200B6420200BB4202003A
:10064000D8420200F74202000243020010B5ADF5A5
:10065000007D0C4668460BF0BBFC204669464FF017
:10066000FF3209F0F7FD01200DF5007D10BD0000FF
:1006700030B50C4691B02C49054608F03FFC0028E7
:1006800047D008AB009309AB01930AAB02930BABC5
:1006900003930CAB04932846244906AA07AB08F041
:1006A0008BFB072801D000203BE09DF83930069AEB
:1006B0000DA862F303038DF83930079A9DF838309E
:1006C00062F304038DF83830089ABDF83A3062F3CB
:1006D0000B03ADF83A30099A9DF8363062F3040303
:1006E0008DF836300A9A9DF8353062F305038DF89F
:1006F00035300B9A9DF8343062F305038DF83430B1
:100700000C9A9DF8373062F302038DF8373009F008
:1007100065FB09F0FFFB06490246204609F0D1FDC2
:10072000012011B030BD00BF2C4302003043020055
:10073000EA650200F7B50D463449044608F0D3FCDB
:1007400040B107F02BFF284631494FF0FF3209F046
:1007500081FD57E020462F4908F0D0FB50B1012120
:100760002022204608F06CFC204608F0BEFC08F071
:100770004BF847E02046284908F0C0FB064628B958
:100780002046264908F0BAFB074648B30121204617
:10079000202208F055FC2046214908F0C7FB40B94B
:1007A0002046204908F0C2FB002814BF0224002480
:1007B00000E001242046314607F078FF1A4B1B4A1F
:1007C000002E18BF1A462CB1154B1649012C18BF24
:1007D0000B4600E0164B2846164909F072FD11E061
:1007E000204608F082FC1449144A0090EE23384653
:1007F00007F06AFF204608F078FC114902462846B7
:1008000009F05FFD012003B0F0BD00BF65430200A9
:100810006B43020084430200884302008F430200BE
:10082000604302005A430200494302005143020060
:100830009A59020097430200B0430200844202002A
:10084000E343020030B589B004AB002400930D46A9
:100850000222194903AB0394049408F0BBFA02285E
:1008600027D107AB009305AA0398049906AB05941A
:100870000694079404F0BCFB024638B1049B28465A
:1008800000930E49039B09F01CFD10E0059A069B9E
:10089000002A079C08BF0122002B08BF012328461D
:1008A0000749B4FBF2F2B4FBF3F309F00AFD0120AF
:1008B00000E0204609B030BD32590200F143020089
:1008C000104402002DE9F04F8846ADF2344D434903
:1008D000044608F0A1FB42498146204608F0C5FBCA
:1008E00020463F4908F0E1FB3E49404609F0E9FC5B
:1008F000204608F0FAFB0122014683A806F0CCFB53
:10090000054640B1204608F0F0FB37490246404614
:1009100009F0D7FC5CE00DF10C0B29464FF4007296
:1009200058460DF0A4FA02950BF03EFBAA46064687
:100930000F4683A859464FF4007202AB06F03EFC06
:1009400008B9029B33BB83A806F01AFEB9F1000F69
:1009500019D00BF029FB4FF47A7200230CF010FE33
:100960004FF47A7204460023304639460CF008FEF4
:10097000201A14BF034601231C4940465246BAFBC5
:10098000F3F309F09EFC404619494FF0FF3209F09D
:1009900061FC1DE09A44B9F1000FCAD14C46029B9C
:1009A0009C42D8F8003008D21BF904105B6840461E
:1009B0004FF0FF3298470134F1E700228DF807200D
:1009C0001B6840460DF107014FF0FF329847B0E732
:1009D00001200DF2344DBDE8F08F00BF3E4402000F
:1009E0003259020047440200754402008944020063
:1009F000F14902002DE9F043C1B00EAB0025009390
:100A00000C4602225D490DAB0C950D950E9508F034
:100A1000E1F9022803D10E980DF099F805460D9BD7
:100A20000BB9574B0D9317A80D9906F068FE0346B6
:100A300070B1204653490D9A09F043FC99E0802398
:100A400017A80FA91596169306F098FE013D10B948
:100A5000002D20AEF3DC20464B490D9A09F031FC05
:100A600000252F46802317A80FA91596169306F088
:100A700085FE002865D19DF94530002B61D09DF899
:100A800044000F9B10F0100F02D00135442204E007
:100A90000C9A01371A440C922D2210F0010F0CBF52
:100AA0004FF02D0E4FF0520E10F0020F0CBF4FF012
:100AB0002D094FF0480910F0040FBDF840100CBF8D
:100AC0004FF02D084FF0530810F0200F0CBF4FF0DF
:100AD0002D0C4FF0410CCDF808C04FEA612CBDF849
:100AE00042000CF2BC7CCDF80CC0C1F3431C01F0F9
:100AF0001F0105910893C1120DF14503C0F3451084
:100B0000CDF810C0069107900993CDF80090734678
:100B1000CDF8048020461D4909F0D3FB20461C492E
:100B20004FF0FF3209F081FB314620464FF0FF3293
:100B300009F07BFB204617494FF0FF3209F08AFB92
:100B400090E7009540AD55F8D03D13493A46204610
:100B500009F0B7FB0D9829460BAA06F03EFE40B9F6
:100B60000B9B20469A780C9B0C495A43520809F07B
:100B7000A8FB012041B0BDE8F08300BF325902005C
:100B8000A4440200A7440200CB440200E644020051
:100B900013450200F14902001745020041450200D9
:100BA00070B50E46054608F0A0FA0446284608F03F
:100BB0009CFA06F0D4FE064A064B0749002818BFE7
:100BC00013463046224609F07CFB012070BD00BF71
:100BD00001470200F74602005545020070B50E4677
:100BE000054608F082FA0446284608F07EFA06F028
:100BF00059FE064A064B0749002818BF13463046DF
:100C0000224609F05EFB012070BD00BF01470200D3
:100C1000F7460200714502007FB503AB0024009344
:100C20000E4602220F4902AB0294039408F0D2F858
:100C3000022814D1029D039C2846214606F03AFF63
:100C4000094B0A4A0A49002814BF1046184600906A
:100C50002A463046234609F034FB012000E02046B6
:100C600004B070BD32590200F7460200014702008D
:100C70008345020030B5ADF50D7D0C46054608F004
:100C800034FA0A22014603A806F006FA40B12846C3
:100C900008F02BFA1F490246204609F012FB35E006
:100CA0008DF8070002901C4920467E2242F2107304
:100CB00009F007FB1949204609F003FB2368204689
:100CC0001B680DF1070142F21072984718B19DF9A7
:100CD00007307E2B03D103A806F052FC16E003A8D0
:100CE0000DF10701012202AB06F026FB10B9029BB1
:100CF000012B02D020460A49DEE7236820465B68C4
:100D00009DF907104FF0FF329847D7E701200DF506
:100D10000D7D30BD9B450200C2450200FA45020030
:100D20001A4602002DE9F047ADF5407D002304ACE2
:100D3000236003930D4600944149022203AB08F05F
:100D400049F8022806D028463E494FF0FF3209F004
:100D500081FA6FE017A8216806F0D1FC18B1284687
:100D60003949226807E017A8039906F0C8FC28B1A2
:100D70003649039A284609F0A4FA5BE040A94FF4EB
:100D8000807205A807F0E8FF0AA880A94FF48072D6
:100D900007F0E2FF20AB159317A880230FA9169345
:100DA00006F0ECFC00283FD19DF94530002B3BD0EC
:100DB0009DF8443003F0100303F0FF06002BE9D147
:100DC000039A0DF1450305A8214908F0D8F92268D6
:100DD0000DF145031E490AA808F0D1F905A808F04D
:100DE00084F981460AA808F080F9804605A80F9F7B
:100DF00008F07BF982460AA808F077F932460146E6
:100E000033460096504604F0F3F8124B124A00970E
:100E1000002814BF104618460190104928464A463B
:100E2000434609F04EFAB5E70AA807F0AAFF05A85D
:100E300007F0A7FF01200DF5407DBDE8F08700BF5A
:100E4000325902004146020086460200AB460200CB
:100E5000CB460200F746020001470200D1460200DD
:100E600070B50C462149054608F03DF9064628B103
:100E7000FFF752FB002100F2352009E028461C490B
:100E800008F031F950B1FFF723FB314600F235206D
:100E90000A4606F09FFE174B17491CE028461749E3
:100EA00008F021F948B1FFF737FB012200F23521A4
:100EB00006F0B4F8124B13490DE02846124908F029
:100EC00012F988B1FFF704FB012200F2352106F088
:100ED000A5F80E4B0E49002808BF19464FF0FF3207
:100EE000204609F0B7F9012070BD00BF5847020045
:100EF00062470200F0460200FA4602006F47020015
:100F00000747020017470200784702002E470200F9
:100F10003C47020008B508464FF0FF32084909F087
:100F200099F907F03BFB4FF4FA600AF0DDFA4FF055
:100F30008043AA221A7200221A70012008BD00BF45
:100F4000CB51020010B501200C4607F0F9FE38B174
:100F500000210A460B4609F057FE2046044901E0ED
:100F6000044920464FF0FF3209F074F9012010BD0A
:100F7000844702009A47020038B5064C236833B90B
:100F80001C20FFF775F9054608F08AFD25602068EA
:100F900038BD00BFF8C107202DE9F04F0C46C7B09F
:100FA0005149804607F0C2FF50498246404607F04B
:100FB000BDFF4F498346404607F0B8FF002604AF07
:100FC00005AD8146029603963E602E60BAF1000F91
:100FD00040D000954046474902AA03AB07F0ECFE1B
:100FE000012807DC204644494FF0FF3209F032F96E
:100FF000304675E02B6806AF002BD8BF01234FF0B9
:1010000000014FF480723846D8BF2B600CF02FFFE0
:10101000FFF7B2FF2B689DF908109DF90C20009393
:101020003B4609F00EFA354A354B3649002808BFD1
:1010300013462046029A09F044F900262B689E4286
:101040004DDA039ABB5D324420462F4909F039F945
:101050000136F3E7BBF1000F2AD0009740462B4939
:1010600002AA03AB07F0A8FE032807D020462849B0
:101070004FF0FF3209F0EEF8504631E0FFF77CFF09
:101080009DF908109DF90C2097F9003009F0EEF950
:1010900040B1039B204600931E493A68029B09F029
:1010A00010F91CE020461C49029A09F00AF916E0E2
:1010B00098B102230293029BFE2B0EDCFFF75CFF2C
:1010C0009DF9081009F0DDF920B120461349029A74
:1010D00009F0F7F8029B0233ECE7484600E00120F4
:1010E00047B0BDE8F08F00BF555A0200B447020078
:1010F000BA470200C3470200D2470200014702007C
:10110000F7460200F3470200194802002D4802008A
:101110003D4802006448020084480200A1480200E1
:101120002DE9F04F5F4C91B023680E4633B92C2067
:10113000FFF79EF8054608F0D9FF2560D4F8008037
:10114000FFF7C6F910AC002544F80C5D00F235201D
:1011500021460CAA06F041FB48B90C9A0D9D9769EF
:101160009378023F5D435F436D087F0800E02F46A0
:101170004D4B1A689A467AB90C20FFF779F88146E8
:10118000FFF7FAFE902389F804300023C9F8000025
:10119000C9F80830CAF80090DAF8000003F016FF2A
:1011A00081460CF0A7F983460BF08AFF01464846BA
:1011B0000BF0D0FE3D490BF0D7FF0CF09BF90B90E4
:1011C00020460AF065FD04F08BFE40B308F01CFFDA
:1011D00004F070FE00240146A146A2468C420BD0CA
:1011E00020460A9104F0CAFE504594BF5046A146DD
:1011F0000A9901348246F1E708F01EFF642202FBDF
:101200000AF22B493046B2FBF1F2C2F164028DE8DA
:10121000040628492A463B4609F053F805E03046C3
:1012200025492A463B4609F04CF8244C23681BB953
:101230000120FFF71DF82060206803F08AFE0446B5
:1012400008F068FE9DF83930019003F00F03029317
:101250009DF83830009403F01F030393BDF83A3033
:101260003046C3F30B0304939DF83630144903F062
:101270001F0305939DF835305A4603F03F0306934C
:101280009DF8343003F03F030793B8F824300893F7
:10129000B8F8263009930B9B09F013F8012011B020
:1012A000BDE8F08FFCC10720F0C1072000002041FD
:1012B000A0860100C1480200F5480200F4C10720E1
:1012C0000349020070B5ADF50A7D05460C4607F0EE
:1012D0006AFD0B2803DD204620490C2237E0284612
:1012E00007F003FF0122014601A805F0D5FE0646DE
:1012F00038BB01A806F044F9284607F0F6FE184965
:101300000246049B204608F0DCFF236820469B68C9
:1013100098470A200AF0E8F80AF0CAFB284607F0C6
:10132000E4FE0246516800680E4B03C390680E4A03
:10133000186043F80C2C4FF08043AA221A721E70DA
:1013400007E0284607F0D1FE08490246204608F08B
:10135000B8FF01200DF50A7D70BD00BF8449020071
:10136000AB490200484002400DD0ADDEF249020018
:1013700070B5404EA4B033680546DB070C460CD46C
:1013800030460BF073FA40B14FF480600CF01EFD54
:10139000394B186030460BF077FA2846374907F08A
:1013A000C5FD064620B30021802204A80CF05FFD95
:1013B00000230293039303AB0093314904AA02ABC9
:1013C000284607F0F9FC2C4A029B116804A8039AEE
:1013D00013B903F0AEFE01E003F0CEFE294A2A491C
:1013E0000346002B08BF1146204608F06AFF3DE087
:1013F0002846264907F09AFD002838D0284604AB35
:10140000234903AA039604968DF8086007F0D4FCDC
:10141000039D049B2B44B3F5806F0DDD20461D49D1
:101420004FF4806210E0144B9DF808201B685A5559
:101430009DF9083001351E44039BEA1A049B9A4229
:1014400005DB15492046324608F03BFF0EE0B5F5B6
:10145000806FF6DA236820461B6802A94FF4FA620F
:1014600098470028DFD120460C49BEE7012024B070
:1014700070BD00BF0CC2072008C207201D4A020031
:10148000244A0200074A02000B4A0200344A0200C2
:101490003B4A0200454A0200794A0200694A0200BA
:1014A00030B50C4687B00B49054608F00AFFA17A13
:1014B00062880091E17A23880191E18828460291AF
:1014C00021890391A1880491034908F0FAFE07B02D
:1014D00030BD00BF8A4A0200C04A02001FB501A801
:1014E0000C4603F03DF802F031FD01A9024620460A
:1014F000FFF7D6FF012004B010BD00002DE9F04138
:101500008CB003AB002500930C4690463A4902226A
:1015100002AB0295039507F05DFCA84268DD0298D6
:101520000CF015FBC7B2039818B10DF0CDFCC6B294
:1015300000E0064604A8002103F0ACFB30B12046D1
:101540002E494FF0FF3208F085FEF3E718F100084E
:1015500018BF4FF001080223009338464146039A12
:10156000334602F027FE054638B9204624494FF09D
:10157000FF3208F06FFE01253AE0B8F1000F37D0D6
:1015800004A84FF47A7103F08FFB60B39DF810301C
:10159000BB4228D19DF817300C2B04D1204606A958
:1015A0003A46FFF77DFF2046BEB9164908F089FE8E
:1015B0009DF817309E420BDA236804AA324492F950
:1015C00008105B6820464FF0FF3298470136EFE77E
:1015D00020460D4908F075FE0AE00C494FF0FF3235
:1015E00008F038FE04E020460949029A08F069FE36
:1015F00028460CB0BDE8F08132590200DE4A0200F4
:10160000004B0200284B02003D5602003C4B0200FA
:10161000594B020038B50D4607F069FD0446C0B2CB
:1016200002F088FC054A064B0649002808BF13460D
:101630002846224608F045FE012038BD7F4B0200B7
:10164000F7460200864B020037B50C4602F0F6FD65
:1016500016490546204608F034FE154920462A461C
:1016600008F02FFE2046114908F02BFED5B1114994
:10167000204608F026FE20460C4908F022FE0025F0
:10168000E8B202F0C5FD013540B1817802784378B7
:1016900000912046084908F014FEF1E7204603496E
:1016A00008F00FFE012003B030BD00BF9D4B0200CB
:1016B000B84B0200D24B0200ED4B020030B58BB0AC
:1016C0000AAA4FF47A730C4642F8243D174907F0F2
:1016D00073FB002502A8019903F0DCFAE0B1204673
:1016E00013499DF8082008F0ECFD00259DF80F3007
:1016F0009D420BDA236802AA2A4492F908105B681B
:1017000020464FF0FF3298470135EFE72046094960
:1017100008F0D7FD0125DDE72DB9204606494FF039
:10172000FF3208F097FD01200BB030BD424A0200A5
:10173000084C0200F04902001F4C02002DE9F3475B
:101740003C4D07462E688946002E62D12420FEF7C4
:101750008FFD0423044680E848008660C66020218F
:1017600030460DF06FF9A668E0604FEA8608072E54
:101770000ED81020FEF77CFD0021102282460CF0CE
:1017800076FBE368013643F808A008F10408EEE7A9
:10179000002608234FF00108636084F8208020466B
:1017A0002549264A264B00962C6006F06FFC2868D7
:1017B0002449254A254B009606F068FC28682449F0
:1017C000244A254B009606F061FC28682349244AE8
:1017D000244B009606F05AFC28682349234A244BE0
:1017E000009606F053FC28682249234A234BCDF883
:1017F000008006F04BFC28681E49214A214B0096C8
:1018000006F044FC009628681F49204A204B06F049
:101810003DFC38461F4907F066FC18B138461E49A2
:1018200007F01BFD286839464A4602B0BDE8F0477C
:1018300006F00EBD14C20720DD1A0100304C020074
:10184000374C0200BD180100714C02007A4C0200B6
:10185000BD160100CE4C0200D14C0200151601004D
:101860001D570200F44C0200491601003A4D0200D7
:101870001E4D0200FD140100834D0200414D020087
:10188000824D0200874D0200DD140100C74D0200A9
:10189000AC4D0200F1490200CD4D020038B5064CB6
:1018A000236833B95820FEF7E3FC054608F04CFAEC
:1018B0002560206838BD00BF10C207202DE9F04F19
:1018C000ADF2DC5D044680220DF1B40A89460DA814
:1018D00000210CF0CCFA0021802250460CF0C7FA0F
:1018E00006AE002333602046009672490DAA534687
:1018F00007F062FA032801D00020D7E0EDA80DA977
:10190000012205F0C9FB05460028F5D1FFF7C6FF07
:1019100033684DA980F853308022044608A88DF81A
:101920001750079507F018FACDF800A0484662490D
:101930000DAA336808F0C5FCA846EDA86DA94FF4C0
:10194000007207AB05F03AFC38B1EDA805F018FEBF
:1019500008A807F016FA0120A8E0079B002BF4D096
:101960006F1C5649079A204608F0ABFC23682046B6
:101970009B68984700267D1EB346079B22689E42BF
:101980000DD26DAB9957D2F804C0204603934FF0A7
:10199000FF32E047039BF35601369B44EDE7936823
:1019A0002046984708A807F0A0FB064608A807F0BD
:1019B000FDF94FF47A7302463146204608F058FC90
:1019C0000121202208A807F03BFB08A807F08FFBA5
:1019D000584520D008A807F08AFB394903465A46E3
:1019E000484608F06EFC2046364908F06AFC236839
:1019F00020469B689847236820461B680DF1170115
:101A00004FF47A7298470028F5D1022F07F10103AD
:101A10009BD81F46A5E7079B2B49524600932046BB
:101A2000434608F04EFC236820469B68984708A868
:101A300007F05BFB064608A807F0B8F931460246F6
:101A40004FF47A73204608F013FC08A81F4907F0EA
:101A500043FAD0B908A807F048FB1D49024648469A
:101A600008F02FFC2046174908F02BFC236820467D
:101A70009B689847236820461B680DF117014FF4B7
:101A80007A7298470028F5D1BFE708A8114907F0F6
:101A9000E4FB079B484698440F494246F09B08F0F8
:101AA00010FC002D3FF449AF013D46E70DF2DC5D2F
:101AB000BDE8F08FD24D0200E14D0200F84D02006A
:101AC0000A4E0200F0490200314E0200474E020069
:101AD0004A4E0200F1490200824E02002DE9F04117
:101AE00086B006AA0026074642F80C6D0D463D4911
:101AF00007F062F938460121202207F0A1FA039B82
:101B0000002B64D0384607F04EF900285FD0FFF76D
:101B1000C5FE8DF80B600446236820461B680DF156
:101B20000B010522984706460028F5D1039B38464D
:101B300084F8533007F0D9FA4FF0FF3201462046BF
:101B400008F088FB236820469B689847264B05963B
:101B5000186837460490236820461B680DF10B0176
:101B60004FF47A72984778B10DF11501032205A858
:101B70000CF062F99DF80B8005A804A904228DF8E9
:101B800017800CF041F938B91822B7FBF2F302FBC9
:101B900013726AB101330BE02B6828465B684FFA79
:101BA00088F10122013798470028D4D10136D2E7C5
:101BB00028460E493A4608F084FB76B1612300932B
:101BC00028460B4932460B4B08F07BFB05E02846C4
:101BD00009494FF0FF3208F03DFB012006B0BDE897
:101BE000F08100BF424A0200864A02008E4E020087
:101BF000B54E02006E4F0200AA4F020010B5474CCE
:101C0000474920460DF058F904F1200045490DF0F0
:101C100053F904F1400044490DF04EF904F160001D
:101C200042490DF049F904F1800041490DF044F9B1
:101C300004F1A0003F490DF03FF904F1C0003E4916
:101C40000DF03AF904F1E0003C4C3D490DF034F957
:101C500004F120003B490DF02FF904F140003A490E
:101C60000DF02AF904F1600038490DF025F904F16E
:101C7000800037490DF020F904F1A00035490DF03E
:101C80001BF904F1C00034490DF016F904F5C070D9
:101C900032490DF011F904F5087031490DF00CF9D5
:101CA00004F5E0702F490DF007F904F510702E4986
:101CB0000DF002F904F5D0702C490DF0FDF804F197
:101CC000E0002B490DF0F8F804F5807029490DF07B
:101CD000F3F804F5A07028490DF0EEF804F5007053
:101CE00026490DF0E9F804F5B07025490DF0E4F847
:101CF00004F5F07023490DF0DFF804F590702249E7
:101D00000DF0DAF804F5707020490DF0D5F804F5FF
:101D100078701F49BDE810400DF0CEB81DC60720F1
:101D2000D64F0200E54F0200F64F020008500200B5
:101D30001A500200295002003F5002001CC2072026
:101D40004D5002005E5002006850020078500200C0
:101D50008C5002009C500200AA500200BC500200AD
:101D6000D1500200E7500200FC5002001251020064
:101D70002951020037510200465102005D51020014
:101D8000715102008051020096510200A7510200D9
:101D9000B15102002DE9F0435300073385B023F021
:101DA0000703002604AF0C46ADEB030D6421154676
:101DB0000096019630460A460B460DF1100807F0D2
:101DC0008FFB002C3DD0B3B2AB424FF0000319D2D1
:101DD0009AB2691E8A4213D20132500034F800E0F0
:101DE0000238215A1FFA8EF91FFA81FCE14538BFEB
:101DF00024F800E003F1010338BF24F81210E7E7EC
:101E00000136E0E79EB2AE4203F101090ED234F88A
:101E10001610002007F0D2FC00B208F81600C0F33C
:101E2000072008EB460670704B46EBE70022009255
:101E30000192029203924046A9B2134607F0D8FCE1
:101E400001E007F0B5FC002007F0A6FC01200437F4
:101E5000BD46BDE8F083F8B50025044616461F468A
:101E600001704580C580FFF7C9FE204631463A46DD
:101E7000FFF790FF2046F8BD408870478088704784
:101E8000C08870470089704708B506480CF06EFDA1
:101E900006F084FB4FF08043AA221A7200221A70C7
:101EA00008BD00BFBB51020038B5054C256825B9F7
:101EB0000120FEF7DDF905702060206838BD00BF05
:101EC00018C207202DE9F04788B00446894690469D
:101ED00000211022002604A81F46BDF840500BF038
:101EE000C6FFADF80C60FFF7DFFF8246FFF7DCFFAF
:101EF00003F02BF880F004020321C2F38002504665
:101F000003F01EF89DF80C30227862F3020369F3A7
:101F1000C5038DF80C30BDF80C109DF8133068F334
:101F20008A11ADF80C1066F3C71389B205918DF8CC
:101F30001330002D73D05FFA85F88DF81880324683
:101F4000AA42A94680F0AF80A81A07289DF812304F
:101F500010D9082161F303038DF812300021BB185A
:101F6000585C04AB0B44013107295872F7D102F1D8
:101F7000070914E008F10101891A61F303038DF8E0
:101F8000123000218BB2834201F1010107D2BE1849
:101F9000F65C0DF1200E734403F8076CF2E70020A5
:101FA00004A94FF0FF3207F0A9FB414E8246C0B9A9
:101FB000337843F004033370FFF776FF012102F01A
:101FC000A9FF3C4B3C4A0093022090233B4906F07A
:101FD0007BFB31783A480CF051FC504607F0DCFBB3
:101FE0001BE0E38822890133E3809DF8123003F07F
:101FF0000F0313442381337859070ED503F0FB03F5
:1020000033702BB1FFF750FF012102F083FF04E092
:10201000FFF74AFF012102F088FF4A4690E79DF84A
:102020001230284665F3030304A94FF0FF328DF800
:10203000123007F063FB1E4D0646C0B92B7843F003
:1020400004032B70FFF730FF012102F063FF194BEF
:10205000194A00930220A423184906F035FB297879
:1020600017480CF00BFC304607F096FB1BE0E388AA
:1020700022890133E3809DF8123003F00F031344EB
:1020800023812B785A070ED503F0FB032B702BB15D
:10209000FFF70AFF012102F03DFF04E0FFF704FF14
:1020A000012102F042FF012008B0BDE8F08700BF27
:1020B0001CC607200D5202006A520200DC510200C9
:1020C000045202002DE9F04F89B006460F4614462F
:1020D0000021102204A89A46DDF848900BF0C7FEB4
:1020E000002004A94FF0FF3207F0B4FA614D80469A
:1020F000C0B92B7843F008032B70FFF7D5FE012100
:1021000002F008FF5C4B5D4A00930220BB235C4950
:1021100006F0DAFA29785B480CF0B0FB404607F08D
:102120003BFBA2E07388013373802B7819070ED52F
:1021300003F0F7032B702BB1FFF7B6FE012102F07D
:10214000E9FE04E0FFF7B0FE012102F0EEFEFFF72A
:10215000ABFE8346FFF7A8FE02F0F7FE80F0020216
:10216000C2F340025846022102F0EAFE059B03F04A
:102170000702ADF80C30C3F384133A7023709DF856
:102180001240B38804F00F042344B380002C6AD0BB
:102190009DF81870B9F80030BB4201D3002417E055
:1021A00039480CF0E3FB4FF000085EE0391B0729CB
:1021B0004FF000020FDD04AB1344597A0AEB04031D
:1021C00099540132072AF6D10734A4B2BC4212D383
:1021D000BC42EBD347E093B28B4202F1010208DA32
:1021E00008A8184410F807CC0AEB040000F803C054
:1021F000F1E73C46ECE7002004A94FF0FF3207F07E
:1022000029FA8346C0B92B7843F008032B70FFF7F7
:102210004BFE012102F07EFE174B184A009302206C
:10222000EF23174906F050FA297816480CF026FBE0
:10223000584607F0B1FACBE77388013373802B78E7
:102240001A07C5D50B4A03F0F70313702BB1FFF73C
:102250002BFE012102F05EFEBAE7FFF725FE012109
:1022600002F063FEB4E7A9F80040404609B0BDE8BB
:10227000F08F00BF1CC607202552020061520200E9
:10228000DC5102001C5202003452020070B58CB0C6
:102290000E460446FFF708FE042102F03BFE202311
:1022A000ADF82C300BAB0093204602A90DF10902CA
:1022B00003ABFFF707FF9DF80950022D10D12378DB
:1022C0000A20584306F0E0FF012300939DF8081010
:1022D0002046032203AB8DF80C60FFF7F3FDDEE729
:1022E000042D05D1FFF7E0FD294602F01EFE04E0B3
:1022F000012DD4D12046FFF7C7FD01200CB070BDE1
:10230000014B0360704700BFD852020001207047A4
:102310000120704701207047014B0360704700BFE8
:10232000D8520200014B0360704700BFD852020030
:10233000014B0360704700BFD8520200014B03609D
:10234000704700BFD852020010B5034B044603602B
:10235000FDF790FF204610BDD852020010B5034B88
:1023600004460360FDF786FF204610BDD8520200E8
:1023700010B5034B04460360FDF77CFF204610BDFB
:10238000D852020010B5034B04460360FDF772FFFC
:10239000204610BDD852020010B5034B044603601E
:1023A000FDF768FF204610BDD852020007B5032391
:1023B000009300210D22044B0448FFF783FD012008
:1023C00003B05DF804FB00BF3AC7072030C7072001
:1023D00013B500220B46009205494FF48062044673
:1023E00006F094FC034B2046236002B010BD00BFF2
:1023F0005C5302003054020013B500220B460092D9
:1024000006494FF48062044606F080FC044B2360CA
:1024100000F0F8FB204602B010BD00BF6C53020074
:102420003853020084B01FB5184C07A880E80E008E
:102430002046FFF721FDADF808002046FFF71EFDFE
:10244000ADF80A002046FFF71BFDADF80C00204652
:10245000FFF718FDADF80E000A2009F045F8082333
:10246000009320466B4402210622FFF72BFD084B08
:1024700064221978013191FBF2F002FB1012012065
:102480001A7004B0BDE8104004B0704730C7072090
:1024900028C7072084B070B505A880E80E0004AAFC
:1024A0006F4B32F8080F1D46188091786D481A78E6
:1024B000012902606C489970016048D16B4B002182
:1024C0009970531E042B3FD8DFE803F03C03162914
:1024D0003E00674B674C1B6803262360206800F0B2
:1024E000B7FB206864490AF037FD20600A2006F037
:1024F000CBFE013EF2D12AE05D4B5E4C1B68032609
:102500002360206800F0A4FB20685B490AF024FDEA
:1025100020600A2006F0B8FE013EF2D117E0544BCD
:10252000544C1B6803262360206800F091FB206850
:1025300051490AF011FD20600A2006F0A5FE013E77
:10254000F2D104E04D4800E04D4800F081FB6B788B
:10255000013B062B12D8DFE803F0040806110C0F2C
:102560000A0048480BE0484809E0484807E0484866
:1025700005E04FF0834002E0464800E0464800F0A6
:1025800079FB2C78364E04F0FB04012C22D1374B1A
:10259000424E9C703378424D73B942480CF0E6F9D4
:1025A000414800F055FB0A2006F06EFE3F4800F05F
:1025B0004FFB34702C704EE02B783D4C03F0FF063F
:1025C000002B37D12378002B34D0374800F040FB64
:1025D000267040E0B378012B02D0022B10D025E00A
:1025E000324800F035FB33480CF0C0F9304A002384
:1025F00013702B4A13701D4A9370B37853702AE0FE
:102600002B4C23781BB900F043FB012323702A488D
:102610000CF0ACF9294800F01BFB214B01221A7089
:10262000124B00229A70AA785A7014E0134800F0F6
:102630000FFB10E02B784BB9237803F0FF052BB983
:102640000F4800F005FB1A4B1D7004E0164800F01F
:10265000FFFA002323700120BDE8704004B07047EA
:102660003DC7072050C7072058C707203AC7072093
:102670002CC707204CC70720CDCC4C3EC3F54C419E
:102680000000204100002841E17A58419A994541D3
:10269000713DA041C3F58A4133336B4148C70720E0
:1026A00029C707207D5302000000704166667E4105
:1026B00054C70720835302008B530200000060417F
:1026C00084B001A880E80E00034B9DF8082001208B
:1026D0001A7004B0704700BF49C70720F8B50C4D09
:1026E0002B6893B90820FDF7C3FD0A4E04463368F2
:1026F00033B91C20FDF7BCFD074607F0D1F9376060
:1027000033682360402323712C602868F8BD00BF24
:1027100024C70720F8C10720F8B590F831300446E7
:10272000062B08D1FFF7DAFF2D2102F07DFBFFF722
:10273000D5FF2D2163E0142505FB030202F13801CA
:102740008868D8B10578FFF7C9FF2D09092D94BF16
:10275000E9B205F1140102F067FB94F8313014225C
:1027600002FB03431B6C1D78FFF7B8FF05F00F0554
:10277000092D94BFE9B205F1140140E0496859B14F
:10278000FFF7ACFF94F8313005FB0345EB6B93F991
:10279000001002F07EFB3EE0516B3032B1B1926826
:1027A000A2B1FFF79BFF94F8313005FB03435B6B4D
:1027B00093F9001002F038FBFFF790FF94F83130E6
:1027C00005FB0345AB6B93F9001018E0142202FBE4
:1027D0000342526CB2B1106826490AF0C5FC0AF0F7
:1027E000AFFE0A27C5B2FFF779FFB5FBF7F671B266
:1027F00002F01AFBFFF772FF07FB165149B202F015
:102800001FFB08E00133072293FBF2F2C2EBC20286
:102810009B1A84F83130184D2B681BB90120FDF745
:1028200027FD2860286802F099FB00F00F000228BD
:102830000FD0042814D0012819D194F83130072280
:10284000013393FBF2F2C2EBC2029B1A84F83130DF
:1028500009E00A4C0A4920680AF07EFB206002E089
:10286000084A064B1A604FF4FA7008F03DFE01204A
:10287000F8BD00BF0000204120C707204CC707203B
:10288000CDCCCC3DCDCC7C4173B5314B1A781E46B6
:102890002AB1FFF709FB012102F03CFB04E0FFF73E
:1028A00003FB012102F041FB21212A48FFF7EEFC46
:1028B0003420FDF7DDFC002527494FF48062032317
:1028C0000095044606F022FA244B20462360832319
:1028D000E36106F0E9F93420FDF7CAFC044600F094
:1028E0007DF9204606F0E0F9AC20FDF7C1FC02239B
:1028F00000951B494FF48062044606F007FA194B15
:102900002360234614350022782D5A639A63DA63D4
:102910001A645A6403F11403F4D1642384F8312057
:10292000E361204606F0C0F90F4BC4F8A460E363EE
:102930000E4BA3650E4B5A1C2366023323670D4BC7
:10294000E26563670C4BC4F88C3002B070BD00BF09
:102950001CC6072030C7072093530200F85202001C
:10296000A7530200185302003AC7072044C70720A4
:102970003DC7072049C7072028C7072000B52023E7
:102980008DB0ADF82C300BAB0093174803AB02A908
:102990000DF10902FFF796FB9DF80930012B02D1DA
:1029A0001148FFF771FA114B0022186802A913466B
:1029B00008F02AF9A0B90E4B1A7842F010021A70EA
:1029C000FFF772FA012102F0A5FA0A4B02200093E8
:1029D00009490A4AF02305F077FE09480BF0C6FFC3
:1029E00001200DB05DF804FB30C7072040C7072069
:1029F0001CC60720DF530200B153020054540200EA
:102A0000EF530200F0B52A4B93B008AC07462146BD
:102A100018684FF0FF32002308F0C6F9002843D0B1
:102A2000244B1A78D1060ED502F0EF021A702AB1A3
:102A3000FFF73AFA012102F06DFA04E0FFF734FAE9
:102A4000012102F072FA9DF821300B2B1FD00F2BC1
:102A50000FD0052B28D16D460BAE0FCE0FC596E8D3
:102A6000070085E80700384694E80E00FFF7DAFC17
:102A70001AE06D460BAE0FCE0FC596E8070085E84D
:102A80000700384694E80E00FFF704FD0CE06D46A1
:102A90000BAE0FCE0FC596E8070085E80700384655
:102AA00094E80E00FFF70CFE012013B0F0BD00BF4C
:102AB00040C707201CC6072008B501210823064A85
:102AC0000648FFF7C8F920202821002208F06BF8FB
:102AD000034B186008BD00BF00C0072030C70720A7
:102AE00040C7072001207047014B0360704700BFBB
:102AF000D852020010B5034B04460360FDF7BAFB41
:102B0000204610BDD85202000146024A1A2006F0A3
:102B100079BF00BF192D010008B509F0BBFB134BAD
:102B200017205A68012122F440125A6009F0D6F9A0
:102B30000F4B0120D3F8AC2142F48042C3F8AC2102
:102B4000A3F5D02300221A670A4ADA6098615A690D
:102B500002435A615A6942F002025A61064B10223E
:102B60001A60BDE80840FFF7CFBF00BF00C00240B9
:102B700000C00F40B0726D0100E100E0104B10B5D5
:102B80001A68D20703D51A6842F001021A600D4B89
:102B90001B681BB10C4B4FF080521A600B4C23206A
:102BA000236858430AF08CFA09490AF0DDFA094B08
:102BB00018600AF0C5FC084B18700023236010BD94
:102BC000004009406CC7072004ED00E060C7072003
:102BD000F43FB73C5CC707203AC7072013B5002372
:102BE000009306494FF4C0620123044606F08EF8B4
:102BF000034B2046236002B010BD00BF7254020098
:102C00008854020013B5642201A8012106F064FF74
:102C10000C4C2368022B0BDC0B4901A806F09EFF2D
:102C20004FF4967006F030FB236801332360EFE722
:102C3000064B4FF07E524FF4FA701A6006F024FBF8
:102C400002B010BD68C707200000704164C70720AC
:102C500013B5074B04461860642201A8012106F051
:102C60003BFF01A8214606F079FF02B010BD00BF6E
:102C700044C7072013B564220446022101A806F0C8
:102C80002BFF01A8214606F069FF02B010BD00002D
:102C9000F7B5012101A8642206F01EFF1A4F122683
:102CA00038460AF08FF8013E04460D460ED03946EC
:102CB00001A806F053FF12A3D3E9002320462946BA
:102CC00009F020FF0AF0F2F80746E9E741F28834FC
:102CD00001A80E4906F042FF013CF9D141F28834C7
:102CE00001A80B4906F03AFF013CF9D141F28834C2
:102CF00001A8064906F032FF013CF9D103B0F0BD4E
:102D0000333333333333D33F6666A0410000704121
:102D1000B81E2141AFF3008010B50E4C236833B9C3
:102D2000FFF7C2F8042102F0F5F8012305E0FFF7F0
:102D3000BBF8042102F0F9F800232360064B1A685F
:102D400001321A60054B1B681BB1054B4FF08052D6
:102D50001A6010BD70C7072060C707206CC7072026
:102D600004ED00E008B5FFF7D7FEFFF79DF802F08D
:102D7000AFF8034B01205A6842F001025A6008BDC7
:102D80000040094001480BF0F1BD00BFA054020013
:102D900038B504460D4609F07DFA074BB0FBF3F059
:102DA0000223B0FBF3F2954201D3236138BDB3F5A2
:102DB000807FFAD00233F4E740420F007FB500F283
:102DC00035260D460122314604F028F9C4B24CBB29
:102DD00004A941F8044D304602AA04F0FEFCF8B9FB
:102DE000029A0399937892695943023A5A435208D6
:102DF000B2F5004F1048114B2CBF4FF480640124F2
:102E00004FEA510128BF0346B1FBF4F18DE80A00F7
:102E10000B482946B2FBF4F20BF030FD012008E02C
:102E2000084B00E0084B0948294662B20BF026FD2A
:102E3000002004B070BD00BFDE540200DB5402006D
:102E4000E8540200E1540200E55402001655020065
:102E500038B5084D2B685BB90C20FDF709FA04461C
:102E6000FEF78AF89023237100232060A3602C6072
:102E7000286838BDF0C1072010B5044C23681BB981
:102E80000120FDF7F5F92060206810BDF4C107208E
:102E900010B5044C23681BB90120FDF7E9F9206047
:102EA000206810BD20C70720AD49AE4A4023F0B5C9
:102EB0008B614FF0007393614FF480338B61AA4BA9
:102EC000ADF5057D1868072520F0F000186018683A
:102ED000022440F050001860186820F44050186038
:102EE000086840F040000860186820F47C201860F2
:102EF000186840F428201860186820F470001860E2
:102F0000186840F420001860186820F040401860ED
:102F1000186840F000401860586820F03C00586085
:102F2000586840F028005860586820F00300586046
:102F3000086840F480300860586820F440505860B9
:102F4000086820F480000860D96821F44031D96015
:102F5000116841F080711160596821F44021596075
:102F6000596841F48021596098688049014099600E
:102F7000116841F4897141F001011160996821F4EF
:102F800070119960996821F070419960116821F47D
:102F900046411160D96821F03001D960D96841F00B
:102FA0003001D960D96821F47011D960136843F0F9
:102FB00000731360136823F08063136006F0A6F9B2
:102FC0000A20012108F08AFF0A20012108F09EFF53
:102FD0006748012105604460FFF7DAFE06F0A4FFB0
:102FE0001520012108F07AFF1520012108F08EFF3D
:102FF0006048012105604460FFF7CAFEFDF7BCFF91
:10300000642106F017FD10B95B480BF0AFFC08F027
:10301000A1FF01F019FE10B958480BF0A7FC4FF4BE
:10302000FA6006F031F9FFF7ADFE09F033F90AF066
:1030300043F853490AF04CF909F0C4FE02460B4626
:1030400050480BF01BFC08F01DFE052804AC14D101
:10305000002363604C4B1B682360FFF793FE4B4BD0
:103060004B48D96C1A6D5B6D00940BF007FCFFF7B1
:1030700089FE41F2883006F007F9FDF729FA454943
:10308000FFF79CFE054668BB43480BF0F7FB02F0D8
:103090009FFFFDF71DFA29462A4600F2352004F06D
:1030A00099FD3E4B3E4A002814BF104618460BF0CF
:1030B0005DFCFDF70DFA3749FFF780FE90B93948FE
:1030C0000BF054FC02F006FF014637480BF0D6FB2C
:1030D00002F0F0FE054602F0FDFE05FB00F133486C
:1030E0000BF0CCFB324D334E2B6813F0010716D199
:1030F000284609F0BBFB90B14FF40E70FDF7B8F80D
:10310000012280F83422312280F835223A2280F8D8
:10311000362280F837723060284609F0B5FB3068F7
:103120002549264EFFF74AFE11481821FFF730FEC9
:10313000FFF728FE33684BB90820FDF799F80546DC
:10314000FDF71AFF382328602B713560306801F0D5
:10315000FFFD0546B0BB1A480BF008FC33E000BF8A
:1031600000C0092020C0092000C00240F0FCFCFF84
:1031700000000340008008405A5502008B550200B1
:1031800000247449B055020044400240004002400F
:10319000C855020040560200485602004955020038
:1031A0004E55020085560200A4560200B356020096
:1031B00000C20720E8C107202647020078C7072081
:1031C000CE5602000125FFF743FE01F0D3FE06466E
:1031D00018B973480BF0CAFB3546FFF77FFA01F0C8
:1031E0003BFE064618B96F480BF0C0FB35466E4EE5
:1031F00033681BB90120FDF73BF83060306801F0FF
:10320000FBFDFFF739FE01F0A2FEFEF74DFE01F0D7
:103210005FFEFFF73DFE01F09FFEFEF745FE002139
:1032200001F058FE95B9FFF7ADFDFFF757FA2D21D4
:1032300001F0FAFDFFF752FA2D2101F001FEFEF731
:1032400033FE4FF0FF3101F045FE0CE0FFF746FA88
:103250000546FFF7FDFD01F0B9FE0AF04BF941B25A
:10326000284601F016FE0021102220460AF0FFFD3C
:103270004E4821460F22002301F038FF80B9204636
:103280000AF065FCC5B2284600F054FE484A494B96
:103290002946002808BF13464748444A0BF0EEFA77
:1032A000FFF7EAFD01F055FE054600200DF098F805
:1032B00028440BF063FB4FF40072002120460AF013
:1032C000D6FD204608F084FE21463C480BF0D6FA95
:1032D000FFF758FD8022002120460AF0C8FD204655
:1032E00002F0D4FD94F90020531C05D02146D2B23F
:1032F00033480BF0C3FA29E0FFF7CAFD01F02EFEB8
:1033000009281DD12F480BF031FB21462E480BF028
:1033100043FC21462D480BF0B1FA2D480BF026FB5B
:1033200000232C4803A903930BF036FC9DF90C30C5
:10333000592B03D1204602F089FD07E0264803E01F
:1033400026480BF013FB26480BF010FB4FF2080346
:103350001D684FF20C031E684FF210031C684FF2F9
:10336000040319684FF470431A68AD0AB60A1D4881
:103370000BF084FA2A4631461B480BF07FFA2146AF
:103380001A480BF07BFAFFF7FDFC012005F020F94D
:1033900017480BF0EBFAFFF7F5FC0DF5057DF0BDD6
:1033A000E95602000357020074C707201C570200A9
:1033B0007F4B02005455020022570200EA650200CA
:1033C00056570200725702009457020099570200A4
:1033D000B4570200F7570200FB57020013580200CF
:1033E00041580200735802009F580200CC58020056
:1033F000E958020010B5044C23681BB90120FCF702
:1034000037FF2060206810BD74C707200120704777
:10341000F8B504460E46C06889000BF013FBA5689A
:10342000E060AF00B5420BD20C20FCF721FF002377
:10343000036043600372E3680135D8510437F1E754
:103440006660F8BD38B5114B044603600025636D16
:10345000E06D9D4205D250F82500FCF70BFF0135C9
:10346000F5E708B1FCF708FF0025A36B206C9D422F
:1034700005D250F82500FCF7FDFE0135F5E708B14F
:10348000FCF7FAFE024B2046236038BD10590200BB
:10349000D852020010B50446FFF7D4FF2046FCF7CF
:1034A000E9FE204610BD0000F7B500240B464FF49E
:1034B000805200942549064605F028FC244B04253B
:1034C00033607563B463F463346406F1340002213D
:1034D000FFF79EFF35657465B465F465204660218D
:1034E0000BF0B0FAB46DF065A500172C0CD81020C5
:1034F000FCF7BEFE0021102207460AF0B8FCF36D6F
:1035000001345F510435F0E718237365012386F811
:103510007030104C0023A6F87430A6F87630B367EC
:10352000002200230025C6E92023C6E9224508F031
:103530003BFD4FF47A7200230AF022F8001941EBA8
:103540000501C6E92001304603B0F0BD285902004C
:1035500010590200C0D40100F8B591E860000F7A5C
:1035600014468FB1082A0FD1304605F01CFC002804
:103570001BDD28460E494FF0FF3206F056FE30465E
:10358000012105F01DFD08E00A2C05D00D2C03D00B
:103590003046214605F036FE4FB12B6828465B6861
:1035A00021464FF0FF329847F8BD0724F5E7F8BDF4
:1035B00031590200F8B50446142016460D46FCF7B2
:1035C00057FE8021074605F0CDFDA36BE26B9A42C2
:1035D00006D3626B991803D204F13400FFF718FF89
:1035E000E36B226C591C52F82330E16383E8A0009E
:1035F0001E72F8BD2DE9F043CF6B85B005460E462F
:1036000001AC4FB94FF47A7007F06EFF204639468F
:103610000C220AF02CFC4CE00B6C1B6893E80700B2
:1036200084E8070000238DF8033007F025FE00270B
:103630008046F26B97425CD2336C013A53F82730E4
:1036400097420CBF0222002218684FEA8709017CCA
:10365000002936D00168D1F800C00DF10301E04720
:1036600078B3F36B9F422ED2336C53F8093093E852
:10367000070084E807009DF9032030462146FFF744
:103680006BFF08F091FC4FF47A72002309F078FF89
:10369000D6E92223801841EB0301C6E920010298F4
:1036A00005F081FB0746029805F080FB0138874250
:1036B0000CDB94E8070085E80700284605B0BDE864
:1036C000F0830137B5E706F14403D0E7D6E92223BA
:1036D00052EA030115D008F067FC4FF47A72002318
:1036E00009F04EFFD6E92023994208BF904208D343
:1036F0000CE007F0C1FD4045D1D1012007F0F4FEF8
:10370000CDE79DF903300A2B8FD1D2E708F04CFCAE
:103710004FF47A72002309F033FFD6E92223801890
:1037200041EB03010023C6E920010193C1E700003A
:103730002DE9FF41074621480BF0A0F801A83946C2
:10374000FFF758FF019E1EB91D480BF00FF931E03D
:10375000DDF80880404605F026FB00282ADD08F049
:1037600023FC0446F8B1B7F8743007F15000013378
:10377000A7F874304146324604F06AFD114B002729
:103780001868009033681DF907105B6830464FF0E9
:10379000FF3201379847042FF4D108F005FC011BD4
:1037A00009480BF06BF8404605F002FB33683046E1
:1037B0009B689847012004B0BDE8F08134590200AD
:1037C000F1490200FD5802003A59020038B5064C92
:1037D000236833B92C20FCF74BFD054606F086FC28
:1037E0002560206838BD00BFFCC1072010B5044625
:1037F000FFF7ECFF036821465B684FF0FF32984704
:1038000040B210BD13B5002302AC04F8013DFFF730
:10381000DDFF036821461B684FF0FF3298479DF992
:10382000070002B010BD00002DE9F04100F1500486
:103830008AB000250646009520465B495B4A5C4BF2
:1038400004F024FC009520465A495B4A5B4B04F087
:103850001DFC009520465A495A4A5B4B04F016FC61
:103860000095204659495A4A5A4B04F00FFC0095DE
:1038700020465949594A5A4B04F008FC0095204605
:103880005849594A594B04F001FC009520465849C3
:10389000584A594B04F0FAFB009520465749584ABC
:1038A000584B04F0F3FB009520465749574A584BB4
:1038B00004F0ECFB009520465649574A574B04F05C
:1038C000E5FB009520465649564A574B04F0DEFB6F
:1038D000009520465549564A564B04F0D7FB0095B3
:1038E00020465549554A564B04F0D0FB00952046DA
:1038F0005449554A554B04F0C9FB0095204654499C
:10390000544A554B04F0C2FB009520465349544A93
:10391000544B04F0BBFB009520465349534A544B8B
:1039200004F0B4FB009520465249534A534B04F02F
:10393000ADFB009520465249524A534B04F0A6FB7A
:10394000009520465149524A524B04F09FFBFFF725
:103950003DFF4FF480734FF416412022054606F0D8
:10396000A3FB012780462F744B48FCF7E7FC4B482C
:10397000FCF7DEFC304629463A46FFF71BFE03A95A
:10398000082205A805F0E8F905A8454905F065FCF9
:1039900005A92A46204604F05BFC05A805F0F1F9CC
:1039A00040460AB0BDE8F081610501009A59020065
:1039B000505902004D060100875902008F5902003C
:1039C00021110100AD5902009F590200710601004A
:1039D000F5590200B4590200C5080100FA59020065
:1039E000FE590200450801009D5A02005A5A020081
:1039F000250D01009C5A0200A05A0200F5090100A1
:103A0000EB5A0200EE5A0200A10B01001C5B0200FF
:103A1000225B0200190C0100475B02004A5B0200B6
:103A2000750C010066720200775B0200DD0B01007D
:103A30009C5B02009F5B0200990F0100C25B0200C9
:103A4000C65B0200610E0100785C0200805C02002F
:103A5000150F0100C35C0200CA5C020035070100BB
:103A6000DD5C0200E15C0200450F0100A35D020085
:103A7000A95D02003D170100A7550200D15D0200BB
:103A800071130100EF5E0200FB5D0200C512010030
:103A900069470200B85E020005380100ED370100F9
:103AA000CD4D0200014B0360704700BFD8520200A9
:103AB00010B5034B04460360FCF7DCFB204610BD49
:103AC000D852020008B501F0F9F8012008BD000045
:103AD00037B5FEF7D9FE3420FCF7CAFB04210446B3
:103AE000FEF776FC204605F0DFF83420FCF7C0FB3B
:103AF00003210446FEF780FC204605F0D5F890200F
:103B0000FCF7B6FB03210446FFF7CEFC204605F088
:103B1000CBF83420FCF7ACFB00244FF400720949C9
:103B200000940423054605F0F1F8074B28462B6066
:103B300005F0BAF82046214605F0C6F84FF0FF30F0
:103B400003B030BDA7550200385F0200242310B532
:103B500003FB010398420BD0417839B1018C4FF639
:103B6000FF741144A14228BF214601842430F1E7AB
:103B700010BD000037B5002302A840F8043D0C4BEF
:103B800004215B6898470B4B019A1C680546141B7F
:103B90001A60094822460421FFF7D8FF074802218E
:103BA0002246FFF7D3FF281C18BF012003B030BD09
:103BB0007CC7072044C8072090C7072068C8072093
:103BC00008B50B4B1A78037893420A4B03D1198836
:103BD0000131198002E0998801319980064B827089
:103BE000DB6820219847003018BF012008BD00BFC6
:103BF00015C0072038C807207CC707200A4B027869
:103C00001B789A42094B03D1DA880132DA8002E04C
:103C10001A8901321A810379C3F3C202073262F3AF
:103C2000C5030371FFF7CCBF15C0072038C80720B4
:103C300010B50023064A990012F82340844201D1AE
:103C4000501810BD0133042BF4D1002010BD00BF6B
:103C500055C8072070B1C3780133DBB2FF2BC370A6
:103C600008D10023044A1A44D17804334908102BA0
:103C7000D170F7D1704700BF55C8072070B5242216
:103C800002FB0101034602468A4206D01046243256
:103C900012F8234C002CF7D112E0184600228B4278
:103CA0000ED01C791E8CC4F3C20446EA0444A2421E
:103CB0001D4624BF14460546243322462846EEE717
:103CC00070BD000038B501310446CD00FFF752FF4A
:103CD0001B4B1A7823789A4204D102211948FFF726
:103CE000CDFF0CE018480421FFF7C8FFE37833B993
:103CF00090F82330042543F0800380F8233000231C
:103D000080F8203080F8213090F8233080F822505D
:103D100023F07F0343EA152580F82350234602460B
:103D200004F1200153F8044B8B4242F8044BF9D1C3
:103D3000064A0379127862F3C503037138BD00BFE8
:103D400015C0072068C8072090C7072014C00720A7
:103D500010B5FFF76DFF0446F8B9FFF769FF044699
:103D6000D8B90F4AD378D179994238BF0B46D17A66
:103D700034BF141D144699423CBF0B46094CD17BFD
:103D8000094A994238BF14462046042200210AF00D
:103D90006EF8064BDA7A0132DA72204610BD00BFA7
:103DA00055C807205DC8072061C8072038C807200C
:103DB000F8B5242707FB021705460C46BC4200F065
:103DC000B38094F82310CB092BD0BDB12B78627847
:103DD000934203D16E78207886421CD0E87868B18F
:103DE0006878904208D122789A4205D1A379AA79BD
:103DF000D61A7342734100E0002363B994F822207D
:103E0000238C01F07F0142EA01218B42C0F28A80BB
:103E10002046FFF7D5FE2046002124220AF027F88D
:103E200080E06378002B7DD0002D3CD02A79920968
:103E3000032A1AD16A782078904202D128789842D1
:103E4000E9D0E678A878864210D1934209D120784B
:103E50002A78904205D1AA79A079801A424242413B
:103E600000E00022002AD6D100E0E2B1A878E27892
:103E7000904218D16A789A4209D120782A789042E3
:103E800005D1A079AA79821A5042504100E0002061
:103E900048B12279002363F3C50284F8203084F806
:103EA000213022713EE094F82200228C01F07F0143
:103EB00040EA01218A4235DB2179002284F8202062
:103EC00084F82120C1F3C202D6B21EB12046FFF70A
:103ED00095FE27E08909032918D01449207809782C
:103EE000884213D1E178994210D079B16379E270B8
:103EF000032262F3071363712046FFF77FFE0C4A2B
:103F00002379127862F3C503237100E001266078FB
:103F1000FFF78EFE18B10021042209F0A8FF002E41
:103F20007FF479AF243449E7F8BD00BF15C00720FE
:103F300014C00720431EDBB2FD2B9DBF024B18703F
:103F400001200020704700BF15C00720014B1878E2
:103F5000704700BF15C0072007289CBF014B187091
:103F6000704700BF14C007202DE9F743044691466F
:103F700098469DF828600D4600295BD0314B1F788C
:103F8000B94259D0B8F10F0F56D8002856D0202288
:103F9000002109F06CFFFF2D237914BF09F0030203
:103FA000002262F38713032262F30203264A65703C
:103FB0001278277062F3C503244A23711378A7701F
:103FC0000133DBB21370A3710BAB01930EB9012760
:103FD00013E0019BE0791A4652F8081B013E01925A
:103FE0005A68F6B28718FFB2182F05D80830204457
:103FF00009F019FFE771E9E70027DFF85490012382
:10400000284689F80030FFF713FE0646FFF722FE28
:10401000002389F80030637926B968F307136371C8
:10402000E67005E0B27862F3071363717378E370AA
:10403000384603E0084601E00020FFE703B0BDE892
:10404000F08300BF15C0072014C0072067C80720F1
:1040500065C80720154B012270B51A7004461E462C
:1040600008B900251DE0FFF7ABFD05460028F8D094
:1040700022799209D11C032A01F0030106D1E378C9
:104080002BB16278D31A18BF012300E00023012965
:1040900003F0010300D923B1617920460909FFF734
:1040A00011FE00233370284670BD00BF65C807208D
:1040B00082B0F0B51746421ED2B28DB0FD2A04463A
:1040C0000D46139301D900205AE0002BFBD0159B1D
:1040D000002BF8D0179B002BF5D0169B002BF2D0AD
:1040E000149B002BEFD000214822284809F0BFFE86
:1040F00000219022264809F0BAFE0021102225480E
:1041000009F0B5FE00210C22234809F0B0FE002181
:104110000C22224809F0ABFE214B224E1C70224B90
:1041200034461D7013AD0FCD0FC42B68002118222B
:104130001E48236009F09BFE39461C4817220AF0EE
:1041400003FF0020B368014698470028BBD09DF8C4
:10415000603013B9FFF70EFD12E0154A01230192FA
:1041600006220292009304A8FF210022FFF7FCFE22
:104170000028A8D004A8FFF76DFF0028A3D0E9E726
:104180000DB0BDE8F04002B0704700BF68C807201E
:1041900090C7072055C8072049C8072038C80720FE
:1041A00015C007207CC7072048C8072020C8072063
:1041B000505F020070B5182B8CB006460D4617D81C
:1041C0001C1C18BF0124002A14BF214684F00101E1
:1041D00071B101920293009404A831462A469DF8D9
:1041E0004030FFF7C1FE18B104A8FFF733FF00E02D
:1041F00000200CB070BD13B50446107852790B4600
:104200001209009203212246FFF7D4FF02B010BD2D
:1042100030B500231A4608499C0011F823502DB1EF
:10422000904201D1081930BD0132D2B20133042BC2
:10423000F1D1002030BD00BF55C80720002318462B
:10424000044A9A5C0AB10130C0B20433102BF7D192
:10425000704700BF55C807202DE9F04188B0684677
:104260000021202209F003FE9C4B1B7803F0FF0481
:10427000002B40F030819A4F68463B6920219847D7
:10428000002800F08280974D6B8801336B80FFF728
:10429000D5FF9DF80410A87201F00703032B04D08A
:1042A000914B1A7842F0010209E0904B1D789DF87D
:1042B0000230AB4205D18C4B1A7842F002021A70E0
:1042C000DBE0C1F3C2019DF800E09DF80600CEB22C
:1042D000874A1319A25C724509D15A78824206D1E5
:1042E0009A780124961B18BF0126997018E00334B0
:1042F0000C2CEDD17F4A136899707D49587001F1FB
:104300000900834283F800E040F0C48011609DF80A
:1043100000009DF80230834240F0BF800024264612
:104320009DF80200FFF714FD9DF8022002709DF831
:104330000220427000228270FFF78CFC002C08BF24
:10434000012616B39DF80030AB4200F095809DF831
:104350000160FF2E1BD13B6868462021984720B999
:10436000614B1A7842F004021A709DF8053003F090
:104370000F02511C61F303038DF80530C3F30313DF
:104380009A4202DA6846FFF71BFC002475E0B5424A
:104390002AD164B99DF807304BB13B6868462021AB
:1043A000984720B9504B1A7842F004021A709DF8D1
:1043B00004309B09012B12D19DF8073013B94E48E8
:1043C000182108E047480C216A46FFF714FF00282F
:1043D00052D1002001466A46FFF70DFF4CE09DF8E0
:1043E0000330002B48D1F4E7444B1B78002BCCD092
:1043F0009DF8054004F00F082709B845C5DA304696
:10440000FFF716FC9DF8033008F1010868F3030478
:104410009D428DF8054019D19DF804209209D51CC4
:1044200005F00305012D8CBF0025012508B1437857
:1044300000E00346032A05D19E4203D0003318BF93
:10444000012300E000231D4330B90AE0A3B91D4653
:1044500010B9684639460DE043788DF8033084780A
:1044600002E08DF8030004466846FFF7A9FB1DB182
:1044700068462146FFF726FC6C46FFF77BFB20468B
:104480001F490422FFF794FC20461E490222FFF731
:104490008FFC20E00333136039E785423FF43EAFE1
:1044A000FFF756FC0446FFF7D5FB23783BB19DF898
:1044B0000520A37802F00F029A423FF72FAF9DF834
:1044C000003023709DF8023063709DF80530C3F30F
:1044D0000303A37022E708B0BDE8F08165C8072098
:1044E0007CC7072038C8072066C8072015C00720EA
:1044F00049C8072010C0072020C8072048C8072047
:1045000090C7072068C8072000231846094A1A44A4
:1045100052780AB10130C0B22433902BF6D1064B49
:104520005A780AB10130C0B293F825300BB101308E
:10453000C0B2704790C7072068C8072008B5FFF7CA
:1045400077FB064B28B18278187802FB0000C00088
:1045500008BD1B781820584308BD00BF14C00720B1
:1045600003490B6803604B6843608B688360704746
:1045700038C8072030B5464C4FF48035E561454CCE
:10458000A060E068C506FCD442488068C0B2002B39
:1045900077D00B46002A68D0072A3E4C91F900508C
:1045A00036DDA56091F90150083AA56091F90250F5
:1045B000A56091F90350A56091F90450A56091F9A7
:1045C0000550A56091F90650A56001F1080591F923
:1045D0000710A1602F498C696407FBD58C681C709B
:1045E0008C685C708C689C708968D9702949CC682B
:1045F000E406FBD48C68083303F8044C8C6803F899
:10460000034C8C6803F8024C896803F8011C1EE017
:10461000032A1EDDA56091F90150043AA56091F9C5
:104620000250A5600D1D91F90310A1601949CC68D5
:10463000E406FBD48C68043303F8044C8C6803F85C
:10464000034C8C6803F8024C896803F8011C294666
:10465000A0E70131A560013AE568ED06FCD40D4CF8
:104660000133A46803F8014C94E7094B4FF48032FE
:104670009A6140B230BDE568ED06FCD4054C0133CB
:10468000A4689342F1DACD56024CA560F3E700BF6F
:1046900000C009200080084007B5002302A90122BC
:1046A00001F8013D00F01F001346FFF763FF9DF97D
:1046B000070003B05DF804FB07B502AB03F8011D6A
:1046C00000F01F0019460122002340F02000FFF7F0
:1046D00051FF03B05DF804FB08B51720FFF7DCFFBE
:1046E000C0F3001008BD07207021FFF7E5BF0346A7
:1046F0000A466FF05F0019460023FFF73BBF08B57D
:104700000020FFF7C9FFBDE8084020F0010149B2D1
:104710000020FFF7D1BF0000024B4FF08072DA613A
:10472000704700BF20C0092008B50020FFF7B4FF84
:1047300040F0010149B20020FFF7BEFF024B4FF0ED
:1047400080729A6108BD00BF20C009200720202187
:10475000FFF7B2BF00216FF01E000A460B46FFF7BD
:1047600009BF000037B50C460546FFF7F3FF2146A9
:104770002846FFF7BCFF0D4B4FF080729A61002274
:10478000ADF806201C46BDF8063001339BB2ADF8EB
:10479000063033B94FF08073E361FFF7DBFF03B0FE
:1047A00030BDFFF799FF0028EDD0F3E720C00920C6
:1047B00008B51720FFF770FF00F0010080F001003E
:1047C00008BD07204021FFF777BF08B503460A461A
:1047D000612019460123FFF7CDFEC0F3420008BD5A
:1047E00000216FF01D000A460B46FFF7C3BE70B5EF
:1047F000044600200D461646FFF74EFF14B100F0A8
:10480000BF0002E040F04000C0B215B100F0DF0090
:1048100001E040F0200016B100F0EF0101E040F0AF
:104820001001002049B2BDE87040FFF745BF10B548
:1048300004460020FFF730FF14B900F0F7010DE047
:10484000012C04D100F0FB0141F0080106E0022C2C
:1048500014BF40F0080140F00C01C9B2002049B279
:10486000BDE81040FFF728BF08B50020FFF714FF90
:10487000BDE8084040F0020149B20020FFF71CBF2C
:1048800008B50020FFF708FFBDE8084020F002014E
:1048900049B20020FFF710BF40F6DD13984206D85A
:1048A00040F66213B0F5166F38BF184600E01846A0
:1048B000A0F5166149B20520FFF7FEBE10B504460B
:1048C0000620FFF7E9FEFA2C00F0D70102D141F0F3
:1048D000200104E0B4F5FA6F08BF41F0080106209A
:1048E00049B2BDE81040FFF7E7BE10B50446062008
:1048F000FFF7D2FE032C34BF2146032100F0F9005C
:1049000040EA410149B20620BDE81040FFF7D4BE9D
:10491000F9284FF0FA0305D9B0F57A6F88BF4FF444
:104920007A6000E01846B0FBF3F3013BDBB20F29DD
:1049300028BF0F2141EA0311042049B2FFF7BCBE92
:104940001130C0B2162806D8202928BF202140B235
:1049500049B2FFF7B1BE7047032804D004280CBF4A
:104960000221032100E001210320FFF7A5BE034639
:104970000A46302019460023FFF7FCBD03460A46CD
:104980002A2019460023FFF7F5BD000073B5044641
:104990000E461546FFF724FFFFF7DCFE2B4B4FF0CA
:1049A0008072DA61FFF76CFF00210A460120FFF7F1
:1049B0001EFFFFF798FE0220FFF739FF3046FFF792
:1049C0006BFF2846FFF77AFF0320FFF78EFF0220D8
:1049D0000321FFF771FE01200021FFF76DFE4FF468
:1049E000FA700321FFF794FF21460020FFF7A8FF8C
:1049F00012200021FFF760FE13200021FFF75CFE6C
:104A000014200021FFF758FE15200021FFF754FE67
:104A100000211620FFF750FE0D4B18681B790090FF
:104A200005208DF80430FFF797FF68460521FFF752
:104A30009EFF68460521FFF7A1FFFFF715FF4FF422
:104A4000FA6004F00CFC02B070BD00BF20C0092069
:104A5000575F020007B5094B002102AA186842F807
:104A6000041D0B4606F067F9019B1BB1044B4FF088
:104A700080521A6003B05DF804FB00BFB8C807207D
:104A800004ED00E070B5174E326822B903202021F2
:104A900006F089F83060144D2A6822B901202021DF
:104AA00006F081F82860114C216821B90120032209
:104AB00006F079F82060202040F6C3114FF4FA6226
:104AC000FFF764FFFFF730FE16200121084A04F0CB
:104AD00099FF306828B1286818B12068003018BFE5
:104AE000012070BDB4C80720B0C80720B8C807208F
:104AF000554A010070B5037906469B09032B0CBF8C
:104B00000D4B0E4B00221D6888B0284631461346D7
:104B100006F07AF8044660B92246234669462846DC
:104B200006F042F9224623462846314606F06CF844
:104B30000446204608B070BDB0C80720B4C807209E
:104B400038B504460D46FFF701FA237883420AD0B0
:104B5000E37843B909F03CFFBD2300F0030000FBFC
:104B6000033004F07CFBFFF7D7FDFFF7C8FD2046BC
:104B7000A9B2FFF7F7FDFFF7E9FDFFF7D5FD06F056
:104B800085FE022806D1044B002118680A460B4610
:104B900006F0D1F8012038BDB8C8072038B5044662
:104BA0000D46FFF705FE48B1A9B22046FFF70DFEFE
:104BB000FFF7FEFD08B9FFF704FE012038BD2DE91F
:104BC000F04180460F46164606F060FE022807D1E7
:104BD000324640463946002306F0E6F8C6B21CE0ED
:104BE00007F0E2F94FF47A72002308F0C9FC841947
:104BF00041F10005002240463946134606F0D4F83C
:104C0000C6B256B907F0D0F94FF47A72002308F013
:104C1000B7FC8D4208BF8442ECD270B2BDE8F0818F
:104C2000042938B5054603D1041C18BF012400E04F
:104C3000002407F0B9F92CB14FF47A72002308F080
:104C40009FFC2860204638BD00B50C4B8DB0099301
:104C50000B4B0C4A0B930C4B0A930CAB43F8102DE7
:104C6000002204920FCB8DE80F00084B0121084A67
:104C70006A20FFF71DFA0DB05DF804FB854A0100BC
:104C80009D4B0100214C0100414B0100F54A010000
:104C90005C5F02000A460349034608681946FFF7AD
:104CA0008EBF00BFB4C807200A4603490346086800
:104CB0001946FFF784BF00BFB0C8072008B506F04B
:104CC000E5FD0F4B02285B6913D15A020DD5FFF7A2
:104CD0001BFC0C4B00284FF0000118680CBF4FF074
:104CE000FF3201220B4606F05FF8BDE80840FFF7EF
:104CF000B3BA5B02F9D5FFF707FC0028F5D108BD70
:104D000000C00920B8C8072030B504464DB253B2E0
:104D100094F904102A460068BDE8304005F0A6BBAF
:104D20001FB5002204AB90F9044023F8042D4AB2C9
:104D3000022100910068214605F083FB9DF90C00DB
:104D40009DF80D3080B243EA002080B204B010BD5F
:104D500010B52A2104461922FFF7D6FF206894F9DE
:104D600004100D2205F071FBB0F12A03584258419E
:104D700010BD0000044A13881F2B04D8581C108053
:104D8000024A42F823107047C0C80720C4C8072051
:104D9000164BF0B519881E46012923D9144B002261
:104DA0001C46481E824203F1040307DA53F8040C40
:104DB0001D680132281A43F8040CF2E7636803EB1C
:104DC000530700231A4699B2814209DA54F8215058
:104DD000BD4203D9012505FA01F10A430133F2E787
:104DE000044B1A6000233380F0BD00BFC0C8072009
:104DF000C4C80720BCC8072008B50220012107F05D
:104E00006DF8084B01209A6A22F007029A629A6AAA
:104E100042F006029A6203F51033DA6842F030027B
:104E2000DA6008BD0080004008B5044ACBB2417189
:104E3000D25C0321FFF768FF08BD00BF615F02007D
:104E400008B5044ACBB28171D25C0221FFF75CFF46
:104E500008BD00BF615F020038B5044694F9041034
:104E6000006805F00EFB054688B1204606210022A9
:104E7000FFF74AFF204607210022FFF745FF2046A3
:104E80002E21FFF7D1FF20462E21FFF7D9FF28461C
:104E900038BD642370B591FBF3F404FB13110A23AE
:104EA0004CB294FBF3F603FB164303F1300149B215
:104EB0000546FFF7C5FF092C02DC2846302103E038
:104EC00006F13001284649B2BDE87040FFF7ACBF9B
:104ED000012070470E4B01F00F0140F213120170D8
:104EE0009A610278D10744BF0122DA610278920701
:104EF00044BF0222DA610278510744BF1022DA610E
:104F00000278120744BF4FF48072DA61704700BF25
:104F100020C009200122013902FA01F1027811436F
:104F2000C9B2017049B2FFF7D5BF0122013902FAB7
:104F300001F1027822EA0101017049B2FFF7CABF0C
:104F40000AB1FFF7E7BFFFF7F0BF00787047012015
:104F50007047022004F014BA01207047044B5B69CB
:104F6000C3F38130C3F3412343EA8000704700BF9D
:104F700020C0092010B5012104468122FFF7C4FE9C
:104F8000206894F90410012205F05FFA10F0600F18
:104F90000CBF0020012010BD38B500210446FFF7EA
:104FA000BFFE812285B201212046FFF7ADFE10230E
:104FB00028B290FBF3F008F083F84FF0765108F038
:104FC000D3F8A16807F0C8FF38BD000008B5FFF7A7
:104FD000E3FF054908F0C8F8044908F079F94FF0F3
:104FE000844107F0B9FF08BD000010410000A04057
:104FF0002DE9F04F0546ADF2546D0C46174682A8D8
:10500000294601229B4602F047F800286AD1214632
:105010000DF22C400A2202F03FF8044620B182A88B
:1050200002F0AEFA20465DE0009001908246044610
:10503000064606F0B9FF4FF47A72002308F0A0FA92
:1050400002A980464FF4007282A86B4602F0B6F8BF
:105050000546F8B9009BEBB106F0A6FF4FF47A7253
:10506000002308F08DFAB6EB080866EB060900EBA2
:10507000080606F099FF4FF47A72002308F080FAD0
:1050800002A98046009A0DF22C4001AB02F054F9BF
:105090000546A0B107B13E60BBF1000F01D0CBF8CF
:1050A0000040DDF878360BB1C3F800A082A802F00A
:1050B00067FA0DF22C4002F063FA284612E0019ADA
:1050C000009B9A42E6D106F06FFF00234FF47A72FC
:1050D00008F056FA009BB4EB080464EB04050444A2
:1050E0009A44A6E70DF2546DBDE8F08FF0B5044682
:1050F000ADF50B7D0F46164621461D4601A800233F
:105100000122009301F0C8FF044670B91DB101A847
:10511000294602F047FA01A8394632466B4602F0AA
:105120004DF8044601A802F02BFA20460DF50B7D40
:10513000F0BDF0B50446ADF50B7D0F461646214691
:105140001D4601A800230A22009301F0A5FF044692
:1051500070B91DB101A8294602F024FA01A8394608
:1051600032466B4602F0E8F8044601A802F008FA5D
:1051700020460DF50B7DF0BDF0B50446ADF50B7D79
:105180000F46164621461D4601A800231222009311
:1051900001F082FF044680B901A80DB1294600E064
:1051A000049902F0FFF901A8394632466B4602F035
:1051B000C3F8044601A802F0E3F920460DF50B7D83
:1051C000F0BD00007F2816D931B1FF2812D80A4B54
:1051D000803833F810007047074A8BB232F811203C
:1051E000824203D001318029F6D10B4603F18000C1
:1051F000C0B2704700207047E25F02000023064AF9
:1052000032F8132032B1904201D00133F7E7034A5C
:1052100032F81300704700BFE2600200C262020071
:1052200010B501200C4605F060FD2060003018BF6D
:10523000012010BD0120704710B5044606F026FB82
:1052400002280AD100210B4620464FF0FF3205F01C
:10525000ABFD431E5842584110BD012010BD10B592
:10526000044606F013FB022807D1002120460A4617
:105270000B46BDE8104005F0C7BC10BD10B5044694
:1052800004F0C2FE24B1012C06D100F089F901E03E
:1052900000F024FD044600E0042404F0CDFE204686
:1052A00010BD20B1012801D100F038BA04207047A8
:1052B000F8B504460F4616461D4604F0A5FE3CB15F
:1052C000012C0CD1384631462A4600F02FFA04E072
:1052D000384631462A4600F04FFD044600E00424DB
:1052E00004F0AAFE2046F8BDF8B504460F4616465F
:1052F0001D4604F089FE3CB1012C0CD138463146E4
:105300002A4600F061FA04E0384631462A4600F0A9
:105310005BFD044600E0042404F08EFE2046F8BD48
:1053200070B504460E46154604F06EFE34B1012CED
:105330000AD13046294600F0A3FA03E03046294658
:1053400000F068FD044600E0042404F075FE2046E9
:1053500070BD08B506F028FE4FF47A72002308F0FD
:105360000FF908BD10B5044606F094FF074BB0FBDB
:10537000F3F00223B0FBF3F2944202D3044A136128
:1053800010BDB3F5807FF9D00233F3E740420F0040
:1053900000000340044B9860DA68D206FCD4024B4C
:1053A000986840B2704700BF0000034038B5FFF76F
:1053B000D0FF00F5FA754FF0FF30FFF7EBFF4FF02D
:1053C000FF30FFF7E7FFC4B2FF2C07D0FFF7C1FFA4
:1053D0002A460023994208BF9042F0D3204638BDA8
:1053E00038B5064C4FF00075E561FFF7DFFF044B61
:1053F000A5611A7842F001021A7038BD20C0092058
:1054000016C0072070B505460E46FFF7A2FF00F153
:1054100064044FF0FF30FFF7BDFFC0B2FF2809D191
:10542000FFF797FF22460023994208BF9042F0D32E
:10543000002070BDFE28FBD1102E06D928464FF45F
:105440000071002204F07EFD19E02C464FF0FF3081
:10545000FFF7A0FF20704FF0FF30FFF79BFF607059
:105460004FF0FF30FFF796FFA0704FF0FF30FFF7CF
:1054700091FF043404F8010CAB19A342E6D14FF0BC
:10548000FF30FFF787FF4FF0FF30FFF783FF01206A
:1054900070BD38B505460C46FFF788FFFF281DD1C3
:1054A00060B2FFF777FFFD2C1AD04FF400714FF078
:1054B000FF32284604F046FD4FF0FF30FFF76AFF49
:1054C0004FF0FF30FFF766FF4FF0FF30FFF762FF4E
:1054D00000F01F00431F5842584138BD002038BD1E
:1054E000012038BD38B5030604460D4607D57720A0
:1054F0000021FFF7F7FF01283CD804F07F041E4B82
:105500004FF000729A61DA61FFF750FFFF282ED149
:1055100060B2FFF73FFF2816FFF73CFF45F3074057
:10552000FFF738FF45F30720FFF734FF68B2FFF7B6
:1055300031FF402C04D0482C0CBF8720012000E014
:10554000952040B2FFF726FF4C2C03D14FF0FF30DF
:10555000FFF720FF0A244FF0FF30FFF71BFF002862
:10556000C3B206DA013C14F0FF04F4D101E0FF20DD
:1055700038BD184638BD00BF20C00920064A07497B
:1055800013784969DBB2490154BF03F0FD0343F0CE
:1055900003031370704700BF16C0072020C0092006
:1055A0002DE9F347FFF7EAFF594B1A781E4612F030
:1055B000020F01D01878A7E00120FFF7D3FE0A24DC
:1055C0004FF0FF30013CFFF7E5FE14F0FF04F7D188
:1055D000504D4FF00073EB6140202146FFF782FFF2
:1055E0000128A84602D04FF0000978E0FFF7B1FE8D
:1055F0004FF4D57100F57A774820FFF773FF012843
:1056000043D14FF0FF30FFF7C5FE0DF1040909F853
:1056100004000134042CF4D19DF80630012BE2D1B2
:105620009DF80730AA2BDED1FFF793FE3C460025FC
:10563000A94208BFA04206D3FFF78BFEA94208BFCC
:10564000A042D0D207E0E9204FF08041FFF74AFFA7
:105650000028E9D1F0E77A200021FFF743FF002876
:10566000C1D104464FF0FF30FFF794FE09F8040063
:105670000134042CF6D19DF8043013F0400F0CBF18
:105680004FF004094FF00C0929E0E9202146FFF70B
:1056900029FF01288CBF4FF001094FF002098CBF90
:1056A0004FF0410A4FF0E90AFFF753FE3C46002550
:1056B000A94208BFA0420BD3FFF74BFEA94208BF87
:1056C000A0420CD34FF400715020FFF70BFF06E00F
:1056D00050460021FFF706FF0028E5D1ECE70E4B0E
:1056E00083F800904FF00073C8F81830B9F1000F3C
:1056F00007D03378182003F0FE033370FFF732FE33
:1057000001E0FFF76DFE3078C0B202B0BDE8F0876F
:1057100016C0072020C0092044C9072008B5FFF79C
:105720002DFF014B187808BD16C00720F8B51446A8
:1057300005460E46FFF722FF002C3BD01F4B1B787F
:10574000DB0739D41E4B4FF00072DA611D4A1F4649
:10575000127812F0080F08BF7602012C0ED15120EA
:105760003146FFF7BFFEF0B928464FF40071FFF74E
:1057700049FED0F1010438BF002414E05220314624
:10578000FFF7B0FE78B928464FF40071FFF73AFEF4
:1057900028B1013C14F0FF0405F50075F3D14C204D
:1057A0000021FFF79FFE4FF00073201CBB6118BF64
:1057B0000120F8BD0420F8BD0320F8BD16C0072065
:1057C00020C0092044C90720F8B5144605460E46F6
:1057D000FFF7D4FE002C46D0264B1A78D20744D4CB
:1057E0001B785B0743D4244A4FF00073D361234BEB
:1057F00017461B7813F0080F08BF7602012C0DD155
:1058000058203146FFF76EFE30BB2846FE21FFF7D9
:1058100040FED0F1010438BF00241DE013F0060F54
:1058200003D0D7202146FFF75DFE59203146FFF710
:1058300059FE88B92846FC21FFF72BFE28B1013C10
:1058400014F0FF0405F50075F4D10020FD21FFF7E9
:1058500020FE002808BF01244FF00073201CBB610C
:1058600018BF0120F8BD0420F8BD0320F8BD0220B8
:10587000F8BD00BF16C0072020C0092044C907207A
:105880007FB505460C46FFF779FE052D18D1237824
:10589000012B00F00C810AD3022B40F00681864BCD
:1058A0005B6983F08063C3F380636370FFE0824BC6
:1058B000586910F0806440F0FA80FFF791FDF6E03F
:1058C0007E4B1B78DB0700F1F4800E2D00F2E580A3
:1058D000DFE815F00F00190051005500E300E30068
:1058E000E300E300E300E300AE00B200B400BE005A
:1058F000CF00714B4FF00072DA61FFF757FDFF38B0
:1059000018BF0120CCE049200021FFF7EBFD054640
:1059100008B10120C4E068461021FFF773FD00289C
:10592000F7D09DF800309DF808209B09012B9DF8C9
:10593000093006D1013303EB022292B292022260B7
:1059400044E09DF807109DF80A00890001EB9212CF
:105950009DF80610013201F0030102EB81229DF84F
:10596000051003F0030301F00F0101EBD01101EB6F
:105970004303073B27E04FF4007323808FE0504D33
:105980002B7803F0040303F0FF010BB3CD200021BB
:10599000FFF7A8FD0028BCD14FF0FF30FFF7FAFC5D
:1059A00068461021FFF72EFD0028B2D030254FF0B9
:1059B000FF30013DFFF7EEFC15F0FF05F7D19DF834
:1059C0000A3010221B0902FA03F32360284667E01D
:1059D0004920FFF787FD064600289AD16846102126
:1059E000FFF710FD002894D029789DF80A2001F0D7
:1059F000020101F0FF009DF80B3069B19DF80D1018
:105A000002F03F02DB0903EB42038909013301394C
:105A10008B403046236043E003F003015B0903EB56
:105A2000C103C2F38402013302FB0333236037E076
:105A3000234B1B78237032E0492000E04A200021EC
:105A4000FFF750FD00287FF464AF204610211DE0D1
:105A50007A200021FFF746FD00287FF45AAF054663
:105A60004FF0FF30FFF796FC60550135042DF7D15C
:105A700015E0CD200021FFF735FD00287FF449AF68
:105A80004FF0FF30FFF786FC20464021FFF7BAFCBD
:105A9000D0F1010038BF002002E0042000E0002027
:105AA000054B4FF000729A6104E0042002E00020F0
:105AB00000E0032004B070BD20C0092016C00720FC
:105AC00044C90720054B1B78253BDBB2032B9ABF4B
:105AD000034A52F823000020704700BF48C907203E
